{"abi":[{"type":"constructor","inputs":[{"name":"_governanceMultisig","type":"address","internalType":"address"}],"stateMutability":"nonpayable"},{"type":"function","name":"addPolicy","inputs":[{"name":"_name","type":"string","internalType":"string"},{"name":"_conditions","type":"tuple","internalType":"struct PolicyRegistry.Conditions","components":[{"name":"targetAddresses","type":"address[]","internalType":"address[]"},{"name":"functionSelectors","type":"bytes4[]","internalType":"bytes4[]"},{"name":"minValue","type":"uint256","internalType":"uint256"},{"name":"maxValue","type":"uint256","internalType":"uint256"},{"name":"timeWindowStart","type":"uint256","internalType":"uint256"},{"name":"timeWindowEnd","type":"uint256","internalType":"uint256"},{"name":"requireVerified","type":"bool","internalType":"bool"},{"name":"requireErc7730","type":"bool","internalType":"bool"}]},{"name":"_limits","type":"tuple","internalType":"struct PolicyRegistry.Limits","components":[{"name":"maxValuePerTxUsd","type":"uint256","internalType":"uint256"},{"name":"maxValueDailyUsd","type":"uint256","internalType":"uint256"},{"name":"allowlist","type":"address[]","internalType":"address[]"},{"name":"denylist","type":"address[]","internalType":"address[]"}]},{"name":"_signers","type":"address[]","internalType":"address[]"},{"name":"_riskWeight","type":"uint8","internalType":"uint8"}],"outputs":[{"name":"","type":"uint256","internalType":"uint256"}],"stateMutability":"nonpayable"},{"type":"function","name":"deactivatePolicy","inputs":[{"name":"_policyId","type":"uint256","internalType":"uint256"}],"outputs":[],"stateMutability":"nonpayable"},{"type":"function","name":"getActivePolicies","inputs":[],"outputs":[{"name":"","type":"tuple[]","internalType":"struct PolicyRegistry.Policy[]","components":[{"name":"id","type":"uint256","internalType":"uint256"},{"name":"name","type":"string","internalType":"string"},{"name":"active","type":"bool","internalType":"bool"},{"name":"conditions","type":"tuple","internalType":"struct PolicyRegistry.Conditions","components":[{"name":"targetAddresses","type":"address[]","internalType":"address[]"},{"name":"functionSelectors","type":"bytes4[]","internalType":"bytes4[]"},{"name":"minValue","type":"uint256","internalType":"uint256"},{"name":"maxValue","type":"uint256","internalType":"uint256"},{"name":"timeWindowStart","type":"uint256","internalType":"uint256"},{"name":"timeWindowEnd","type":"uint256","internalType":"uint256"},{"name":"requireVerified","type":"bool","internalType":"bool"},{"name":"requireErc7730","type":"bool","internalType":"bool"}]},{"name":"limits","type":"tuple","internalType":"struct PolicyRegistry.Limits","components":[{"name":"maxValuePerTxUsd","type":"uint256","internalType":"uint256"},{"name":"maxValueDailyUsd","type":"uint256","internalType":"uint256"},{"name":"allowlist","type":"address[]","internalType":"address[]"},{"name":"denylist","type":"address[]","internalType":"address[]"}]},{"name":"signers","type":"address[]","internalType":"address[]"},{"name":"riskWeight","type":"uint8","internalType":"uint8"},{"name":"createdAt","type":"uint256","internalType":"uint256"},{"name":"updatedAt","type":"uint256","internalType":"uint256"}]}],"stateMutability":"view"},{"type":"function","name":"getPolicy","inputs":[{"name":"_index","type":"uint256","internalType":"uint256"}],"outputs":[{"name":"","type":"tuple","internalType":"struct PolicyRegistry.Policy","components":[{"name":"id","type":"uint256","internalType":"uint256"},{"name":"name","type":"string","internalType":"string"},{"name":"active","type":"bool","internalType":"bool"},{"name":"conditions","type":"tuple","internalType":"struct PolicyRegistry.Conditions","components":[{"name":"targetAddresses","type":"address[]","internalType":"address[]"},{"name":"functionSelectors","type":"bytes4[]","internalType":"bytes4[]"},{"name":"minValue","type":"uint256","internalType":"uint256"},{"name":"maxValue","type":"uint256","internalType":"uint256"},{"name":"timeWindowStart","type":"uint256","internalType":"uint256"},{"name":"timeWindowEnd","type":"uint256","internalType":"uint256"},{"name":"requireVerified","type":"bool","internalType":"bool"},{"name":"requireErc7730","type":"bool","internalType":"bool"}]},{"name":"limits","type":"tuple","internalType":"struct PolicyRegistry.Limits","components":[{"name":"maxValuePerTxUsd","type":"uint256","internalType":"uint256"},{"name":"maxValueDailyUsd","type":"uint256","internalType":"uint256"},{"name":"allowlist","type":"address[]","internalType":"address[]"},{"name":"denylist","type":"address[]","internalType":"address[]"}]},{"name":"signers","type":"address[]","internalType":"address[]"},{"name":"riskWeight","type":"uint8","internalType":"uint8"},{"name":"createdAt","type":"uint256","internalType":"uint256"},{"name":"updatedAt","type":"uint256","internalType":"uint256"}]}],"stateMutability":"view"},{"type":"function","name":"getPolicyCount","inputs":[],"outputs":[{"name":"","type":"uint256","internalType":"uint256"}],"stateMutability":"view"},{"type":"function","name":"getPolicyLimits","inputs":[{"name":"_policyId","type":"uint256","internalType":"uint256"}],"outputs":[{"name":"","type":"tuple","internalType":"struct PolicyRegistry.Limits","components":[{"name":"maxValuePerTxUsd","type":"uint256","internalType":"uint256"},{"name":"maxValueDailyUsd","type":"uint256","internalType":"uint256"},{"name":"allowlist","type":"address[]","internalType":"address[]"},{"name":"denylist","type":"address[]","internalType":"address[]"}]}],"stateMutability":"view"},{"type":"function","name":"getPolicySigners","inputs":[{"name":"_policyId","type":"uint256","internalType":"uint256"}],"outputs":[{"name":"","type":"address[]","internalType":"address[]"}],"stateMutability":"view"},{"type":"function","name":"governanceMultisig","inputs":[],"outputs":[{"name":"","type":"address","internalType":"address"}],"stateMutability":"view"},{"type":"function","name":"nextPolicyId","inputs":[],"outputs":[{"name":"","type":"uint256","internalType":"uint256"}],"stateMutability":"view"},{"type":"function","name":"policies","inputs":[{"name":"","type":"uint256","internalType":"uint256"}],"outputs":[{"name":"id","type":"uint256","internalType":"uint256"},{"name":"name","type":"string","internalType":"string"},{"name":"active","type":"bool","internalType":"bool"},{"name":"conditions","type":"tuple","internalType":"struct PolicyRegistry.Conditions","components":[{"name":"targetAddresses","type":"address[]","internalType":"address[]"},{"name":"functionSelectors","type":"bytes4[]","internalType":"bytes4[]"},{"name":"minValue","type":"uint256","internalType":"uint256"},{"name":"maxValue","type":"uint256","internalType":"uint256"},{"name":"timeWindowStart","type":"uint256","internalType":"uint256"},{"name":"timeWindowEnd","type":"uint256","internalType":"uint256"},{"name":"requireVerified","type":"bool","internalType":"bool"},{"name":"requireErc7730","type":"bool","internalType":"bool"}]},{"name":"limits","type":"tuple","internalType":"struct PolicyRegistry.Limits","components":[{"name":"maxValuePerTxUsd","type":"uint256","internalType":"uint256"},{"name":"maxValueDailyUsd","type":"uint256","internalType":"uint256"},{"name":"allowlist","type":"address[]","internalType":"address[]"},{"name":"denylist","type":"address[]","internalType":"address[]"}]},{"name":"riskWeight","type":"uint8","internalType":"uint8"},{"name":"createdAt","type":"uint256","internalType":"uint256"},{"name":"updatedAt","type":"uint256","internalType":"uint256"}],"stateMutability":"view"},{"type":"function","name":"reactivatePolicy","inputs":[{"name":"_policyId","type":"uint256","internalType":"uint256"}],"outputs":[],"stateMutability":"nonpayable"},{"type":"function","name":"updatePolicy","inputs":[{"name":"_policyId","type":"uint256","internalType":"uint256"},{"name":"_name","type":"string","internalType":"string"},{"name":"_conditions","type":"tuple","internalType":"struct PolicyRegistry.Conditions","components":[{"name":"targetAddresses","type":"address[]","internalType":"address[]"},{"name":"functionSelectors","type":"bytes4[]","internalType":"bytes4[]"},{"name":"minValue","type":"uint256","internalType":"uint256"},{"name":"maxValue","type":"uint256","internalType":"uint256"},{"name":"timeWindowStart","type":"uint256","internalType":"uint256"},{"name":"timeWindowEnd","type":"uint256","internalType":"uint256"},{"name":"requireVerified","type":"bool","internalType":"bool"},{"name":"requireErc7730","type":"bool","internalType":"bool"}]},{"name":"_limits","type":"tuple","internalType":"struct PolicyRegistry.Limits","components":[{"name":"maxValuePerTxUsd","type":"uint256","internalType":"uint256"},{"name":"maxValueDailyUsd","type":"uint256","internalType":"uint256"},{"name":"allowlist","type":"address[]","internalType":"address[]"},{"name":"denylist","type":"address[]","internalType":"address[]"}]},{"name":"_signers","type":"address[]","internalType":"address[]"},{"name":"_riskWeight","type":"uint8","internalType":"uint8"}],"outputs":[],"stateMutability":"nonpayable"}],"bytecode":{"object":"0x608060405234801561000f575f5ffd5b50604051613916380380613916833981810160405281019061003191906100d4565b805f5f6101000a81548173ffffffffffffffffffffffffffffffffffffffff021916908373ffffffffffffffffffffffffffffffffffffffff160217905550506100ff565b5f5ffd5b5f73ffffffffffffffffffffffffffffffffffffffff82169050919050565b5f6100a38261007a565b9050919050565b6100b381610099565b81146100bd575f5ffd5b50565b5f815190506100ce816100aa565b92915050565b5f602082840312156100e9576100e8610076565b5b5f6100f6848285016100c0565b91505092915050565b61380a8061010c5f395ff3fe608060405234801561000f575f5ffd5b50600436106100b2575f3560e01c8063cad0b8db1161006f578063cad0b8db146101b0578063d3e89483146101ce578063e2c0af4414610205578063e59771d214610221578063eb4a46451461023f578063edf743fe1461025b576100b2565b806317a1f828146100b65780632b07fce3146100d45780639b26784e14610104578063a1c5cf6614610134578063b41112c714610150578063c76ed48a14610180575b5f5ffd5b6100be610279565b6040516100cb919061228b565b60405180910390f35b6100ee60048036038101906100e991906122dd565b610831565b6040516100fb91906123df565b60405180910390f35b61011e600480360381019061011991906122dd565b610caa565b60405161012b9190612466565b60405180910390f35b61014e600480360381019061014991906122dd565b610e9a565b005b61016a600480360381019061016591906125a7565b611017565b60405161017791906126a5565b60405180910390f35b61019a600480360381019061019591906122dd565b61125a565b6040516101a7919061272a565b60405180910390f35b6101b8611392565b6040516101c591906126a5565b60405180910390f35b6101e860048036038101906101e391906122dd565b611398565b6040516101fc989796959493929190612864565b60405180910390f35b61021f600480360381019061021a91906128f5565b611745565b005b610229611a32565b60405161023691906126a5565b60405180910390f35b610259600480360381019061025491906122dd565b611a3e565b005b610263611bbb565b6040516102709190612a06565b60405180910390f35b60605f5f90505f5f90505b6001805490508110156102e257600181815481106102a5576102a4612a1f565b5b905f5260205f2090601202016002015f9054906101000a900460ff16156102d55781806102d190612a79565b9250505b8080600101915050610284565b505f8167ffffffffffffffff8111156102fe576102fd612ac0565b5b60405190808252806020026020018201604052801561033757816020015b610324611bdf565b81526020019060019003908161031c5790505b5090505f5f90505f5f90505b600180549050811015610827576001818154811061036457610363612a1f565b5b905f5260205f2090601202016002015f9054906101000a900460ff161561081a576001818154811061039957610398612a1f565b5b905f5260205f209060120201604051806101200160405290815f82015481526020016001820180546103ca90612b1a565b80601f01602080910402602001604051908101604052809291908181526020018280546103f690612b1a565b80156104415780601f1061041857610100808354040283529160200191610441565b820191905f5260205f20905b81548152906001019060200180831161042457829003601f168201915b50505050508152602001600282015f9054906101000a900460ff1615151515815260200160038201604051806101000160405290815f82018054806020026020016040519081016040528092919081815260200182805480156104f657602002820191905f5260205f20905b815f9054906101000a900473ffffffffffffffffffffffffffffffffffffffff1673ffffffffffffffffffffffffffffffffffffffff16815260200190600101908083116104ad575b505050505081526020016001820180548060200260200160405190810160405280929190818152602001828054801561058d57602002820191905f5260205f20905f905b82829054906101000a900460e01b7bffffffffffffffffffffffffffffffffffffffffffffffffffffffff19168152602001906004019060208260030104928301926001038202915080841161053a5790505b5050505050815260200160028201548152602001600382015481526020016004820154815260200160058201548152602001600682015f9054906101000a900460ff161515151581526020016006820160019054906101000a900460ff1615151515815250508152602001600a82016040518060800160405290815f8201548152602001600182015481526020016002820180548060200260200160405190810160405280929190818152602001828054801561069c57602002820191905f5260205f20905b815f9054906101000a900473ffffffffffffffffffffffffffffffffffffffff1673ffffffffffffffffffffffffffffffffffffffff1681526020019060010190808311610653575b505050505081526020016003820180548060200260200160405190810160405280929190818152602001828054801561072757602002820191905f5260205f20905b815f9054906101000a900473ffffffffffffffffffffffffffffffffffffffff1673ffffffffffffffffffffffffffffffffffffffff16815260200190600101908083116106de575b5050505050815250508152602001600e82018054806020026020016040519081016040528092919081815260200182805480156107b657602002820191905f5260205f20905b815f9054906101000a900473ffffffffffffffffffffffffffffffffffffffff1673ffffffffffffffffffffffffffffffffffffffff168152602001906001019080831161076d575b50505050508152602001600f82015f9054906101000a900460ff1660ff1660ff168152602001601082015481526020016011820154815250508383806107fb90612a79565b94508151811061080e5761080d612a1f565b5b60200260200101819052505b8080600101915050610343565b5081935050505090565b610839611bdf565b6001828154811061084d5761084c612a1f565b5b905f5260205f209060120201604051806101200160405290815f820154815260200160018201805461087e90612b1a565b80601f01602080910402602001604051908101604052809291908181526020018280546108aa90612b1a565b80156108f55780601f106108cc576101008083540402835291602001916108f5565b820191905f5260205f20905b8154815290600101906020018083116108d857829003601f168201915b50505050508152602001600282015f9054906101000a900460ff1615151515815260200160038201604051806101000160405290815f82018054806020026020016040519081016040528092919081815260200182805480156109aa57602002820191905f5260205f20905b815f9054906101000a900473ffffffffffffffffffffffffffffffffffffffff1673ffffffffffffffffffffffffffffffffffffffff1681526020019060010190808311610961575b5050505050815260200160018201805480602002602001604051908101604052809291908181526020018280548015610a4157602002820191905f5260205f20905f905b82829054906101000a900460e01b7bffffffffffffffffffffffffffffffffffffffffffffffffffffffff1916815260200190600401906020826003010492830192600103820291508084116109ee5790505b5050505050815260200160028201548152602001600382015481526020016004820154815260200160058201548152602001600682015f9054906101000a900460ff161515151581526020016006820160019054906101000a900460ff1615151515815250508152602001600a82016040518060800160405290815f82015481526020016001820154815260200160028201805480602002602001604051908101604052809291908181526020018280548015610b5057602002820191905f5260205f20905b815f9054906101000a900473ffffffffffffffffffffffffffffffffffffffff1673ffffffffffffffffffffffffffffffffffffffff1681526020019060010190808311610b07575b5050505050815260200160038201805480602002602001604051908101604052809291908181526020018280548015610bdb57602002820191905f5260205f20905b815f9054906101000a900473ffffffffffffffffffffffffffffffffffffffff1673ffffffffffffffffffffffffffffffffffffffff1681526020019060010190808311610b92575b5050505050815250508152602001600e8201805480602002602001604051908101604052809291908181526020018280548015610c6a57602002820191905f5260205f20905b815f9054906101000a900473ffffffffffffffffffffffffffffffffffffffff1673ffffffffffffffffffffffffffffffffffffffff1681526020019060010190808311610c21575b50505050508152602001600f82015f9054906101000a900460ff1660ff1660ff168152602001601082015481526020016011820154815250509050919050565b610cb2611c37565b5f5f90505b600180549050811015610e59578260018281548110610cd957610cd8612a1f565b5b905f5260205f2090601202015f015403610e4c5760018181548110610d0157610d00612a1f565b5b905f5260205f209060120201600a016040518060800160405290815f82015481526020016001820154815260200160028201805480602002602001604051908101604052809291908181526020018280548015610db057602002820191905f5260205f20905b815f9054906101000a900473ffffffffffffffffffffffffffffffffffffffff1673ffffffffffffffffffffffffffffffffffffffff1681526020019060010190808311610d67575b5050505050815260200160038201805480602002602001604051908101604052809291908181526020018280548015610e3b57602002820191905f5260205f20905b815f9054906101000a900473ffffffffffffffffffffffffffffffffffffffff1673ffffffffffffffffffffffffffffffffffffffff1681526020019060010190808311610df2575b505050505081525050915050610e95565b8080600101915050610cb7565b506040517f08c379a0000000000000000000000000000000000000000000000000000000008152600401610e8c90612b94565b60405180910390fd5b919050565b5f5f9054906101000a900473ffffffffffffffffffffffffffffffffffffffff1673ffffffffffffffffffffffffffffffffffffffff163373ffffffffffffffffffffffffffffffffffffffff1614610f28576040517f08c379a0000000000000000000000000000000000000000000000000000000008152600401610f1f90612bfc565b60405180910390fd5b5f5f90505b600180549050811015610fd8578160018281548110610f4f57610f4e612a1f565b5b905f5260205f2090601202015f015403610fcb576001808281548110610f7857610f77612a1f565b5b905f5260205f2090601202016002015f6101000a81548160ff0219169083151502179055504360018281548110610fb257610fb1612a1f565b5b905f5260205f2090601202016011018190555050611014565b8080600101915050610f2d565b506040517f08c379a000000000000000000000000000000000000000000000000000000000815260040161100b90612b94565b60405180910390fd5b50565b5f5f5f9054906101000a900473ffffffffffffffffffffffffffffffffffffffff1673ffffffffffffffffffffffffffffffffffffffff163373ffffffffffffffffffffffffffffffffffffffff16146110a6576040517f08c379a000000000000000000000000000000000000000000000000000000000815260040161109d90612bfc565b60405180910390fd5b5f84849050116110eb576040517f08c379a00000000000000000000000000000000000000000000000000000000081526004016110e290612c64565b60405180910390fd5b60018260ff16101580156111035750600a8260ff1611155b611142576040517f08c379a000000000000000000000000000000000000000000000000000000000815260040161113990612ccc565b60405180910390fd5b5f60025f81548092919061115590612a79565b9190505590506001808160018154018082558091505003905f5260205f209050505f60018080805490506111899190612cea565b8154811061119a57611199612a1f565b5b905f5260205f209060120201905081815f018190555089898260010191826111c3929190612ec7565b506001816002015f6101000a81548160ff021916908315150217905550878160030181816111f19190613732565b9050508681600a01818161120591906137c6565b905050858582600e01919061121b929190611c5d565b508381600f015f6101000a81548160ff021916908360ff1602179055504381601001819055504381601101819055508192505050979650505050505050565b60605f5f90505b60018054905081101561135157826001828154811061128357611282612a1f565b5b905f5260205f2090601202015f01540361134457600181815481106112ab576112aa612a1f565b5b905f5260205f209060120201600e0180548060200260200160405190810160405280929190818152602001828054801561133757602002820191905f5260205f20905b815f9054906101000a900473ffffffffffffffffffffffffffffffffffffffff1673ffffffffffffffffffffffffffffffffffffffff16815260200190600101908083116112ee575b505050505091505061138d565b8080600101915050611261565b506040517f08c379a000000000000000000000000000000000000000000000000000000000815260040161138490612b94565b60405180910390fd5b919050565b60025481565b600181815481106113a7575f80fd5b905f5260205f2090601202015f91509050805f0154908060010180546113cc90612b1a565b80601f01602080910402602001604051908101604052809291908181526020018280546113f890612b1a565b80156114435780601f1061141a57610100808354040283529160200191611443565b820191905f5260205f20905b81548152906001019060200180831161142657829003601f168201915b505050505090806002015f9054906101000a900460ff169080600301604051806101000160405290815f82018054806020026020016040519081016040528092919081815260200182805480156114ec57602002820191905f5260205f20905b815f9054906101000a900473ffffffffffffffffffffffffffffffffffffffff1673ffffffffffffffffffffffffffffffffffffffff16815260200190600101908083116114a3575b505050505081526020016001820180548060200260200160405190810160405280929190818152602001828054801561158357602002820191905f5260205f20905f905b82829054906101000a900460e01b7bffffffffffffffffffffffffffffffffffffffffffffffffffffffff1916815260200190600401906020826003010492830192600103820291508084116115305790505b5050505050815260200160028201548152602001600382015481526020016004820154815260200160058201548152602001600682015f9054906101000a900460ff161515151581526020016006820160019054906101000a900460ff1615151515815250509080600a016040518060800160405290815f8201548152602001600182015481526020016002820180548060200260200160405190810160405280929190818152602001828054801561168e57602002820191905f5260205f20905b815f9054906101000a900473ffffffffffffffffffffffffffffffffffffffff1673ffffffffffffffffffffffffffffffffffffffff1681526020019060010190808311611645575b505050505081526020016003820180548060200260200160405190810160405280929190818152602001828054801561171957602002820191905f5260205f20905b815f9054906101000a900473ffffffffffffffffffffffffffffffffffffffff1673ffffffffffffffffffffffffffffffffffffffff16815260200190600101908083116116d0575b5050505050815250509080600f015f9054906101000a900460ff16908060100154908060110154905088565b5f5f9054906101000a900473ffffffffffffffffffffffffffffffffffffffff1673ffffffffffffffffffffffffffffffffffffffff163373ffffffffffffffffffffffffffffffffffffffff16146117d3576040517f08c379a00000000000000000000000000000000000000000000000000000000081526004016117ca90612bfc565b60405180910390fd5b5f8383905011611818576040517f08c379a000000000000000000000000000000000000000000000000000000000815260040161180f90612c64565b60405180910390fd5b60018160ff16101580156118305750600a8160ff1611155b61186f576040517f08c379a000000000000000000000000000000000000000000000000000000000815260040161186690612ccc565b60405180910390fd5b5f5f90505b6001805490508110156119ec57886001828154811061189657611895612a1f565b5b905f5260205f2090601202015f0154036119df578787600183815481106118c0576118bf612a1f565b5b905f5260205f20906012020160010191826118dc929190612ec7565b5085600182815481106118f2576118f1612a1f565b5b905f5260205f209060120201600301818161190d9190613732565b905050846001828154811061192557611924612a1f565b5b905f5260205f209060120201600a01818161194091906137c6565b90505083836001838154811061195957611958612a1f565b5b905f5260205f209060120201600e019190611975929190611c5d565b50816001828154811061198b5761198a612a1f565b5b905f5260205f209060120201600f015f6101000a81548160ff021916908360ff16021790555043600182815481106119c6576119c5612a1f565b5b905f5260205f2090601202016011018190555050611a28565b8080600101915050611874565b506040517f08c379a0000000000000000000000000000000000000000000000000000000008152600401611a1f90612b94565b60405180910390fd5b5050505050505050565b5f600180549050905090565b5f5f9054906101000a900473ffffffffffffffffffffffffffffffffffffffff1673ffffffffffffffffffffffffffffffffffffffff163373ffffffffffffffffffffffffffffffffffffffff1614611acc576040517f08c379a0000000000000000000000000000000000000000000000000000000008152600401611ac390612bfc565b60405180910390fd5b5f5f90505b600180549050811015611b7c578160018281548110611af357611af2612a1f565b5b905f5260205f2090601202015f015403611b6f575f60018281548110611b1c57611b1b612a1f565b5b905f5260205f2090601202016002015f6101000a81548160ff0219169083151502179055504360018281548110611b5657611b55612a1f565b5b905f5260205f2090601202016011018190555050611bb8565b8080600101915050611ad1565b506040517f08c379a0000000000000000000000000000000000000000000000000000000008152600401611baf90612b94565b60405180910390fd5b50565b5f5f9054906101000a900473ffffffffffffffffffffffffffffffffffffffff1681565b6040518061012001604052805f8152602001606081526020015f15158152602001611c08611cfa565b8152602001611c15611c37565b8152602001606081526020015f60ff1681526020015f81526020015f81525090565b60405180608001604052805f81526020015f815260200160608152602001606081525090565b828054828255905f5260205f20908101928215611ce9579160200282015b82811115611ce857823573ffffffffffffffffffffffffffffffffffffffff16825f6101000a81548173ffffffffffffffffffffffffffffffffffffffff021916908373ffffffffffffffffffffffffffffffffffffffff16021790555091602001919060010190611c7b565b5b509050611cf69190611d3d565b5090565b60405180610100016040528060608152602001606081526020015f81526020015f81526020015f81526020015f81526020015f151581526020015f151581525090565b5b80821115611d54575f815f905550600101611d3e565b5090565b5f81519050919050565b5f82825260208201905092915050565b5f819050602082019050919050565b5f819050919050565b611d9381611d81565b82525050565b5f81519050919050565b5f82825260208201905092915050565b8281835e5f83830152505050565b5f601f19601f8301169050919050565b5f611ddb82611d99565b611de58185611da3565b9350611df5818560208601611db3565b611dfe81611dc1565b840191505092915050565b5f8115159050919050565b611e1d81611e09565b82525050565b5f81519050919050565b5f82825260208201905092915050565b5f819050602082019050919050565b5f73ffffffffffffffffffffffffffffffffffffffff82169050919050565b5f611e7582611e4c565b9050919050565b611e8581611e6b565b82525050565b5f611e968383611e7c565b60208301905092915050565b5f602082019050919050565b5f611eb882611e23565b611ec28185611e2d565b9350611ecd83611e3d565b805f5b83811015611efd578151611ee48882611e8b565b9750611eef83611ea2565b925050600181019050611ed0565b5085935050505092915050565b5f81519050919050565b5f82825260208201905092915050565b5f819050602082019050919050565b5f7fffffffff0000000000000000000000000000000000000000000000000000000082169050919050565b611f6781611f33565b82525050565b5f611f788383611f5e565b60208301905092915050565b5f602082019050919050565b5f611f9a82611f0a565b611fa48185611f14565b9350611faf83611f24565b805f5b83811015611fdf578151611fc68882611f6d565b9750611fd183611f84565b925050600181019050611fb2565b5085935050505092915050565b5f61010083015f8301518482035f8601526120078282611eae565b915050602083015184820360208601526120218282611f90565b91505060408301516120366040860182611d8a565b5060608301516120496060860182611d8a565b50608083015161205c6080860182611d8a565b5060a083015161206f60a0860182611d8a565b5060c083015161208260c0860182611e14565b5060e083015161209560e0860182611e14565b508091505092915050565b5f608083015f8301516120b55f860182611d8a565b5060208301516120c86020860182611d8a565b50604083015184820360408601526120e08282611eae565b915050606083015184820360608601526120fa8282611eae565b9150508091505092915050565b5f60ff82169050919050565b61211c81612107565b82525050565b5f61012083015f8301516121385f860182611d8a565b50602083015184820360208601526121508282611dd1565b91505060408301516121656040860182611e14565b506060830151848203606086015261217d8282611fec565b9150506080830151848203608086015261219782826120a0565b91505060a083015184820360a08601526121b18282611eae565b91505060c08301516121c660c0860182612113565b5060e08301516121d960e0860182611d8a565b506101008301516121ee610100860182611d8a565b508091505092915050565b5f6122048383612122565b905092915050565b5f602082019050919050565b5f61222282611d58565b61222c8185611d62565b93508360208202850161223e85611d72565b805f5b85811015612279578484038952815161225a85826121f9565b94506122658361220c565b925060208a01995050600181019050612241565b50829750879550505050505092915050565b5f6020820190508181035f8301526122a38184612218565b905092915050565b5f5ffd5b5f5ffd5b6122bc81611d81565b81146122c6575f5ffd5b50565b5f813590506122d7816122b3565b92915050565b5f602082840312156122f2576122f16122ab565b5b5f6122ff848285016122c9565b91505092915050565b5f61012083015f83015161231e5f860182611d8a565b50602083015184820360208601526123368282611dd1565b915050604083015161234b6040860182611e14565b50606083015184820360608601526123638282611fec565b9150506080830151848203608086015261237d82826120a0565b91505060a083015184820360a08601526123978282611eae565b91505060c08301516123ac60c0860182612113565b5060e08301516123bf60e0860182611d8a565b506101008301516123d4610100860182611d8a565b508091505092915050565b5f6020820190508181035f8301526123f78184612308565b905092915050565b5f608083015f8301516124145f860182611d8a565b5060208301516124276020860182611d8a565b506040830151848203604086015261243f8282611eae565b915050606083015184820360608601526124598282611eae565b9150508091505092915050565b5f6020820190508181035f83015261247e81846123ff565b905092915050565b5f5ffd5b5f5ffd5b5f5ffd5b5f5f83601f8401126124a7576124a6612486565b5b8235905067ffffffffffffffff8111156124c4576124c361248a565b5b6020830191508360018202830111156124e0576124df61248e565b5b9250929050565b5f5ffd5b5f6101008284031215612501576125006124e7565b5b81905092915050565b5f6080828403121561251f5761251e6124e7565b5b81905092915050565b5f5f83601f84011261253d5761253c612486565b5b8235905067ffffffffffffffff81111561255a5761255961248a565b5b6020830191508360208202830111156125765761257561248e565b5b9250929050565b61258681612107565b8114612590575f5ffd5b50565b5f813590506125a18161257d565b92915050565b5f5f5f5f5f5f5f60a0888a0312156125c2576125c16122ab565b5b5f88013567ffffffffffffffff8111156125df576125de6122af565b5b6125eb8a828b01612492565b9750975050602088013567ffffffffffffffff81111561260e5761260d6122af565b5b61261a8a828b016124eb565b955050604088013567ffffffffffffffff81111561263b5761263a6122af565b5b6126478a828b0161250a565b945050606088013567ffffffffffffffff811115612668576126676122af565b5b6126748a828b01612528565b935093505060806126878a828b01612593565b91505092959891949750929550565b61269f81611d81565b82525050565b5f6020820190506126b85f830184612696565b92915050565b5f82825260208201905092915050565b5f6126d882611e23565b6126e281856126be565b93506126ed83611e3d565b805f5b8381101561271d5781516127048882611e8b565b975061270f83611ea2565b9250506001810190506126f0565b5085935050505092915050565b5f6020820190508181035f83015261274281846126ce565b905092915050565b5f82825260208201905092915050565b5f61276482611d99565b61276e818561274a565b935061277e818560208601611db3565b61278781611dc1565b840191505092915050565b61279b81611e09565b82525050565b5f61010083015f8301518482035f8601526127bc8282611eae565b915050602083015184820360208601526127d68282611f90565b91505060408301516127eb6040860182611d8a565b5060608301516127fe6060860182611d8a565b5060808301516128116080860182611d8a565b5060a083015161282460a0860182611d8a565b5060c083015161283760c0860182611e14565b5060e083015161284a60e0860182611e14565b508091505092915050565b61285e81612107565b82525050565b5f610100820190506128785f83018b612696565b818103602083015261288a818a61275a565b90506128996040830189612792565b81810360608301526128ab81886127a1565b905081810360808301526128bf81876123ff565b90506128ce60a0830186612855565b6128db60c0830185612696565b6128e860e0830184612696565b9998505050505050505050565b5f5f5f5f5f5f5f5f60c0898b031215612911576129106122ab565b5b5f61291e8b828c016122c9565b985050602089013567ffffffffffffffff81111561293f5761293e6122af565b5b61294b8b828c01612492565b9750975050604089013567ffffffffffffffff81111561296e5761296d6122af565b5b61297a8b828c016124eb565b955050606089013567ffffffffffffffff81111561299b5761299a6122af565b5b6129a78b828c0161250a565b945050608089013567ffffffffffffffff8111156129c8576129c76122af565b5b6129d48b828c01612528565b935093505060a06129e78b828c01612593565b9150509295985092959890939650565b612a0081611e6b565b82525050565b5f602082019050612a195f8301846129f7565b92915050565b7f4e487b71000000000000000000000000000000000000000000000000000000005f52603260045260245ffd5b7f4e487b71000000000000000000000000000000000000000000000000000000005f52601160045260245ffd5b5f612a8382611d81565b91507fffffffffffffffffffffffffffffffffffffffffffffffffffffffffffffffff8203612ab557612ab4612a4c565b5b600182019050919050565b7f4e487b71000000000000000000000000000000000000000000000000000000005f52604160045260245ffd5b7f4e487b71000000000000000000000000000000000000000000000000000000005f52602260045260245ffd5b5f6002820490506001821680612b3157607f821691505b602082108103612b4457612b43612aed565b5b50919050565b7f506f6c696379206e6f7420666f756e64000000000000000000000000000000005f82015250565b5f612b7e60108361274a565b9150612b8982612b4a565b602082019050919050565b5f6020820190508181035f830152612bab81612b72565b9050919050565b7f4f6e6c7920676f7665726e616e6365206d756c746973696700000000000000005f82015250565b5f612be660188361274a565b9150612bf182612bb2565b602082019050919050565b5f6020820190508181035f830152612c1381612bda565b9050919050565b7f4d7573742068617665207369676e6572730000000000000000000000000000005f82015250565b5f612c4e60118361274a565b9150612c5982612c1a565b602082019050919050565b5f6020820190508181035f830152612c7b81612c42565b9050919050565b7f57656967687420312d31300000000000000000000000000000000000000000005f82015250565b5f612cb6600b8361274a565b9150612cc182612c82565b602082019050919050565b5f6020820190508181035f830152612ce381612caa565b9050919050565b5f612cf482611d81565b9150612cff83611d81565b9250828203905081811115612d1757612d16612a4c565b5b92915050565b5f82905092915050565b5f819050815f5260205f209050919050565b5f6020601f8301049050919050565b5f82821b905092915050565b5f60088302612d837fffffffffffffffffffffffffffffffffffffffffffffffffffffffffffffffff82612d48565b612d8d8683612d48565b95508019841693508086168417925050509392505050565b5f819050919050565b5f612dc8612dc3612dbe84611d81565b612da5565b611d81565b9050919050565b5f819050919050565b612de183612dae565b612df5612ded82612dcf565b848454612d54565b825550505050565b5f5f905090565b612e0c612dfd565b612e17818484612dd8565b505050565b5b81811015612e3a57612e2f5f82612e04565b600181019050612e1d565b5050565b601f821115612e7f57612e5081612d27565b612e5984612d39565b81016020851015612e68578190505b612e7c612e7485612d39565b830182612e1c565b50505b505050565b5f82821c905092915050565b5f612e9f5f1984600802612e84565b1980831691505092915050565b5f612eb78383612e90565b9150826002028217905092915050565b612ed18383612d1d565b67ffffffffffffffff811115612eea57612ee9612ac0565b5b612ef48254612b1a565b612eff828285612e3e565b5f601f831160018114612f2c575f8415612f1a578287013590505b612f248582612eac565b865550612f8b565b601f198416612f3a86612d27565b5f5b82811015612f6157848901358255600182019150602085019450602081019050612f3c565b86831015612f7e5784890135612f7a601f891682612e90565b8355505b6001600288020188555050505b50505050505050565b5f5ffd5b5f5ffd5b5f5ffd5b5f5f83356001602003843603038112612fbc57612fbb612f94565b5b80840192508235915067ffffffffffffffff821115612fde57612fdd612f98565b5b602083019250602082023603831315612ffa57612ff9612f9c565b5b509250929050565b5f81549050919050565b5f8190506001806001038301049050919050565b5f819050815f5260205f209050919050565b5b81811015613050576130455f82612e04565b600181019050613033565b5050565b6130847fffffffffffffffffffffffffffffffffffffffffffffffffffffffffffffffff83602003600802612e84565b815481168255505050565b818310156130c8576130a08261300c565b6130a98461300c565b6130b283613020565b8181018382016130c28183613032565b50505050505b505050565b680100000000000000008211156130e7576130e6612ac0565b5b6130f081613002565b8282556130fe83828461308f565b505050565b5f82905092915050565b61311681611e6b565b8114613120575f5ffd5b50565b5f813561312f8161310d565b80915050919050565b5f819050919050565b5f819050919050565b6131548383613103565b67ffffffffffffffff81111561316d5761316c612ac0565b5b61317781836130cd565b61318083613138565b61318983613020565b600183045f5b818110156131c6575f6131a185613123565b6131aa81613141565b809250602087019650505080828501555060018101905061318f565b5050505050505050565b6131db83838361314a565b505050565b5f5f833560016020038436030381126131fc576131fb612f94565b5b80840192508235915067ffffffffffffffff82111561321e5761321d612f98565b5b60208301925060208202360383131561323a57613239612f9c565b5b509250929050565b5f81549050919050565b5f819050600860016008038301049050919050565b5f819050815f5260205f209050919050565b5b81811015613291576132865f82612e04565b600181019050613274565b5050565b818310156132ec576132a68261324c565b6132af8461324c565b6132b883613261565b818101838201600460088906025f8111156132db576132da8160018503613054565b5b6132e58284613273565b5050505050505b505050565b6801000000000000000082111561330b5761330a612ac0565b5b61331481613242565b828255613322838284613295565b505050565b5f82905092915050565b61333a81611f33565b8114613344575f5ffd5b50565b5f813561335381613331565b80915050919050565b5f819050919050565b5f6008830261337863ffffffff82612d48565b6133828683612d48565b95508019841693508086168417925050509392505050565b5f8160e01c9050919050565b5f6133b08261339a565b9050919050565b6133c18383613327565b67ffffffffffffffff8111156133da576133d9612ac0565b5b6133e481836132f1565b6133ed8361335c565b6133f683613261565b600883045f5b81811015613457575f5f5b60088110156134455761341986613347565b613422816133a6565b613430818460040286613365565b93506020880197505050600181019050613407565b508082850155506001810190506133fc565b506008810284035f8111156134ae575f5f5b828110156134a65761347a86613347565b613483816133a6565b613491818460040286613365565b93506020880197505050600181019050613469565b508083850155505b5050505050505050565b6134c38383836133b7565b505050565b5f81356134d4816122b3565b80915050919050565b5f815f1b9050919050565b5f7fffffffffffffffffffffffffffffffffffffffffffffffffffffffffffffffff613513846134dd565b9350801983169250808416831791505092915050565b61353282612dae565b61354561353e82612dcf565b83546134e8565b8255505050565b61355581611e09565b811461355f575f5ffd5b50565b5f813561356e8161354c565b80915050919050565b5f60ff613583846134dd565b9350801983169250808416831791505092915050565b5f6135a382611e09565b9050919050565b5f819050919050565b6135bc82613599565b6135cf6135c8826135aa565b8354613577565b8255505050565b5f8160081b9050919050565b5f61ff006135ef846135d6565b9350801983169250808416831791505092915050565b61360e82613599565b61362161361a826135aa565b83546135e2565b8255505050565b5f81015f83016136388185612fa0565b6136438183866131d0565b50505050600181016020830161365981856131e0565b6136648183866134b8565b5050505060028101604083018061367a816134c8565b90506136868184613529565b50505060038101606083018061369b816134c8565b90506136a78184613529565b5050506004810160808301806136bc816134c8565b90506136c88184613529565b5050506005810160a08301806136dd816134c8565b90506136e98184613529565b5050506006810160c08301806136fe81613562565b905061370a81846135b3565b5050506006810160e083018061371f81613562565b905061372b8184613605565b5050505050565b61373c8282613628565b5050565b5f81015f830180613750816134c8565b905061375c8184613529565b505050600181016020830180613771816134c8565b905061377d8184613529565b50505060028101604083016137928185612fa0565b61379d8183866131d0565b5050505060038101606083016137b38185612fa0565b6137be8183866131d0565b505050505050565b6137d08282613740565b505056fea26469706673582212202d4213f89216ca9249601f0174cbefb3af94df11e3a18a62182a14f4d41cb0cf64736f6c634300081f0033","linkReferences":{}},"methodIdentifiers":{"addPolicy(string,(address[],bytes4[],uint256,uint256,uint256,uint256,bool,bool),(uint256,uint256,address[],address[]),address[],uint8)":"b41112c7","deactivatePolicy(uint256)":"eb4a4645","getActivePolicies()":"17a1f828","getPolicy(uint256)":"2b07fce3","getPolicyCount()":"e59771d2","getPolicyLimits(uint256)":"9b26784e","getPolicySigners(uint256)":"c76ed48a","governanceMultisig()":"edf743fe","nextPolicyId()":"cad0b8db","policies(uint256)":"d3e89483","reactivatePolicy(uint256)":"a1c5cf66","updatePolicy(uint256,string,(address[],bytes4[],uint256,uint256,uint256,uint256,bool,bool),(uint256,uint256,address[],address[]),address[],uint8)":"e2c0af44"},"id":0}