{"abi":[{"type":"function","name":"activeMachines","inputs":[{"name":"","type":"uint256","internalType":"uint256"}],"outputs":[{"name":"","type":"address","internalType":"address"}],"stateMutability":"view"},{"type":"function","name":"addTeeMachine","inputs":[{"name":"_teeId","type":"address","internalType":"address"}],"outputs":[],"stateMutability":"nonpayable"},{"type":"function","name":"getActiveTeeMachines","inputs":[{"name":"","type":"uint256","internalType":"uint256"}],"outputs":[{"name":"","type":"address[]","internalType":"address[]"}],"stateMutability":"view"},{"type":"function","name":"getRandomTeeIds","inputs":[{"name":"","type":"uint256","internalType":"uint256"},{"name":"_count","type":"uint256","internalType":"uint256"}],"outputs":[{"name":"","type":"address[]","internalType":"address[]"}],"stateMutability":"pure"},{"type":"function","name":"getTeeMachine","inputs":[{"name":"","type":"address","internalType":"address"}],"outputs":[{"name":"extensionId","type":"uint256","internalType":"uint256"},{"name":"initialOwner","type":"address","internalType":"address"},{"name":"codeHash","type":"bytes32","internalType":"bytes32"},{"name":"platform","type":"bytes32","internalType":"bytes32"},{"name":"pubKey","type":"tuple","internalType":"struct ITeeMachineRegistry.PublicKey","components":[{"name":"x","type":"bytes32","internalType":"bytes32"},{"name":"y","type":"bytes32","internalType":"bytes32"}]}],"stateMutability":"pure"},{"type":"function","name":"isActiveTee","inputs":[{"name":"","type":"address","internalType":"address"}],"outputs":[{"name":"","type":"bool","internalType":"bool"}],"stateMutability":"view"},{"type":"function","name":"isTeeMachineActive","inputs":[{"name":"_teeId","type":"address","internalType":"address"}],"outputs":[{"name":"","type":"bool","internalType":"bool"}],"stateMutability":"view"}],"bytecode":{"object":"0x6080604052348015600e575f5ffd5b506107c98061001c5f395ff3fe608060405234801561000f575f5ffd5b506004361061007b575f3560e01c80638d775ab7116100595780638d775ab714610113578063a555bd4714610143578063fecf70bb14610173578063feeabcbf1461018f5761007b565b806345f1f0f01461007f5780635ede508f146100af57806388662fc2146100e3575b5f5ffd5b61009960048036038101906100949190610492565b6101bf565b6040516100a691906105a4565b60405180910390f35b6100c960048036038101906100c491906105ee565b61024c565b6040516100da95949392919061068b565b60405180910390f35b6100fd60048036038101906100f891906105ee565b61028c565b60405161010a91906106f6565b60405180910390f35b61012d600480360381019061012891906105ee565b6102dd565b60405161013a91906106f6565b60405180910390f35b61015d60048036038101906101589190610492565b6102f9565b60405161016a919061070f565b60405180910390f35b61018d600480360381019061018891906105ee565b610334565b005b6101a960048036038101906101a49190610728565b6103eb565b6040516101b691906105a4565b60405180910390f35b6060600180548060200260200160405190810160405280929190818152602001828054801561024057602002820191905f5260205f20905b815f9054906101000a900473ffffffffffffffffffffffffffffffffffffffff1673ffffffffffffffffffffffffffffffffffffffff16815260200190600101908083116101f7575b50505050509050919050565b5f5f5f5f610258610443565b5f5f5f5f1b5f5f1b60405180604001604052805f5f1b81526020015f5f1b8152509450945094509450945091939590929450565b5f5f5f8373ffffffffffffffffffffffffffffffffffffffff1673ffffffffffffffffffffffffffffffffffffffff1681526020019081526020015f205f9054906101000a900460ff169050919050565b5f602052805f5260405f205f915054906101000a900460ff1681565b60018181548110610308575f80fd5b905f5260205f20015f915054906101000a900473ffffffffffffffffffffffffffffffffffffffff1681565b60015f5f8373ffffffffffffffffffffffffffffffffffffffff1673ffffffffffffffffffffffffffffffffffffffff1681526020019081526020015f205f6101000a81548160ff021916908315150217905550600181908060018154018082558091505060019003905f5260205f20015f9091909190916101000a81548173ffffffffffffffffffffffffffffffffffffffff021916908373ffffffffffffffffffffffffffffffffffffffff16021790555050565b60605f8267ffffffffffffffff81111561040857610407610766565b5b6040519080825280602002602001820160405280156104365781602001602082028036833780820191505090505b5090508091505092915050565b60405180604001604052805f81526020015f81525090565b5f5ffd5b5f819050919050565b6104718161045f565b811461047b575f5ffd5b50565b5f8135905061048c81610468565b92915050565b5f602082840312156104a7576104a661045b565b5b5f6104b48482850161047e565b91505092915050565b5f81519050919050565b5f82825260208201905092915050565b5f819050602082019050919050565b5f73ffffffffffffffffffffffffffffffffffffffff82169050919050565b5f61050f826104e6565b9050919050565b61051f81610505565b82525050565b5f6105308383610516565b60208301905092915050565b5f602082019050919050565b5f610552826104bd565b61055c81856104c7565b9350610567836104d7565b805f5b8381101561059757815161057e8882610525565b97506105898361053c565b92505060018101905061056a565b5085935050505092915050565b5f6020820190508181035f8301526105bc8184610548565b905092915050565b6105cd81610505565b81146105d7575f5ffd5b50565b5f813590506105e8816105c4565b92915050565b5f602082840312156106035761060261045b565b5b5f610610848285016105da565b91505092915050565b6106228161045f565b82525050565b61063181610505565b82525050565b5f819050919050565b61064981610637565b82525050565b61065881610637565b82525050565b604082015f8201516106725f85018261064f565b506020820151610685602085018261064f565b50505050565b5f60c08201905061069e5f830188610619565b6106ab6020830187610628565b6106b86040830186610640565b6106c56060830185610640565b6106d2608083018461065e565b9695505050505050565b5f8115159050919050565b6106f0816106dc565b82525050565b5f6020820190506107095f8301846106e7565b92915050565b5f6020820190506107225f830184610628565b92915050565b5f5f6040838503121561073e5761073d61045b565b5b5f61074b8582860161047e565b925050602061075c8582860161047e565b9150509250929050565b7f4e487b71000000000000000000000000000000000000000000000000000000005f52604160045260245ffdfea264697066735822122075af8315455909bd186fce55c915dade2249bdb6cf13b3f82d668f382db479f764736f6c634300081f0033","linkReferences":{}},"methodIdentifiers":{"activeMachines(uint256)":"a555bd47","addTeeMachine(address)":"fecf70bb","getActiveTeeMachines(uint256)":"45f1f0f0","getRandomTeeIds(uint256,uint256)":"feeabcbf","getTeeMachine(address)":"5ede508f","isActiveTee(address)":"8d775ab7","isTeeMachineActive(address)":"88662fc2"},"id":1}