{"abi":[{"type":"function","name":"getActionResult","inputs":[{"name":"_instructionId","type":"bytes32","internalType":"bytes32"}],"outputs":[{"name":"","type":"tuple","internalType":"struct ITeeExtensionRegistry.ActionResult","components":[{"name":"id","type":"bytes32","internalType":"bytes32"},{"name":"submissionTag","type":"uint8","internalType":"uint8"},{"name":"status","type":"uint8","internalType":"uint8"},{"name":"log","type":"string","internalType":"string"},{"name":"opType","type":"bytes32","internalType":"bytes32"},{"name":"opCommand","type":"bytes32","internalType":"bytes32"},{"name":"additionalResultStatus","type":"bytes","internalType":"bytes"},{"name":"version","type":"string","internalType":"string"},{"name":"data","type":"bytes","internalType":"bytes"}]}],"stateMutability":"view"},{"type":"function","name":"sendInstructions","inputs":[{"name":"","type":"address[]","internalType":"address[]"},{"name":"_params","type":"tuple","internalType":"struct ITeeExtensionRegistry.TeeInstructionParams","components":[{"name":"opType","type":"bytes32","internalType":"bytes32"},{"name":"opCommand","type":"bytes32","internalType":"bytes32"},{"name":"message","type":"bytes","internalType":"bytes"},{"name":"votingRound","type":"uint256","internalType":"uint256"},{"name":"inputValidityTimestamp","type":"uint256","internalType":"uint256"},{"name":"inputValidityDeadlineTimestamp","type":"uint256","internalType":"uint256"}]}],"outputs":[{"name":"","type":"bytes32","internalType":"bytes32"}],"stateMutability":"payable"},{"type":"function","name":"setActionResult","inputs":[{"name":"_instructionId","type":"bytes32","internalType":"bytes32"},{"name":"_result","type":"tuple","internalType":"struct ITeeExtensionRegistry.ActionResult","components":[{"name":"id","type":"bytes32","internalType":"bytes32"},{"name":"submissionTag","type":"uint8","internalType":"uint8"},{"name":"status","type":"uint8","internalType":"uint8"},{"name":"log","type":"string","internalType":"string"},{"name":"opType","type":"bytes32","internalType":"bytes32"},{"name":"opCommand","type":"bytes32","internalType":"bytes32"},{"name":"additionalResultStatus","type":"bytes","internalType":"bytes"},{"name":"version","type":"string","internalType":"string"},{"name":"data","type":"bytes","internalType":"bytes"}]}],"outputs":[],"stateMutability":"nonpayable"}],"bytecode":{"object":"0x608060405234601c57600e6020565b61144f61002b823961144f90f35b6026565b60405190565b5f80fdfe60806040526004361015610013575b6103fe565b61001d5f3561004c565b806366a2c028146100475780637864140a14610042576396e640e50361000e576103c9565b6101f6565b610145565b60e01c90565b60405190565b5f80fd5b5f80fd5b5f80fd5b5f80fd5b5f80fd5b909182601f830112156100a65781359167ffffffffffffffff83116100a157602001926020830284011161009c57565b610068565b610064565b610060565b5f80fd5b908160c09103126100bd5790565b6100ab565b909160408284031261011b575f82013567ffffffffffffffff811161011657836100ed91840161006c565b929093602082013567ffffffffffffffff81116101115761010e92016100af565b90565b61005c565b61005c565b610058565b90565b61012c90610120565b9052565b9190610143905f60208501940190610123565b565b61016d61015c6101563660046100c2565b91610c05565b610164610052565b91829182610130565b0390f35b5f80fd5b61017e81610120565b0361018557565b5f80fd5b9050359061019682610175565b565b90816101209103126101a75790565b6100ab565b9190916040818403126101ec576101c5835f8301610189565b92602082013567ffffffffffffffff81116101e7576101e49201610198565b90565b61005c565b610058565b5f0190565b346102255761020f6102093660046101ac565b9061106b565b610217610052565b80610221816101f1565b0390f35b610171565b9060208282031261024357610240915f01610189565b90565b610058565b61025190610120565b9052565b60ff1690565b61026490610255565b9052565b5190565b60209181520190565b90825f9392825e0152565b601f801991011690565b6102a96102b26020936102b7936102a081610268565b9384809361026c565b95869101610275565b610280565b0190565b5190565b60209181520190565b6102e76102f06020936102f5936102de816102bb565b938480936102bf565b95869101610275565b610280565b0190565b6103ae9161010061039c61038a610354610120850161031e5f8801515f880190610248565b6103306020880151602088019061025b565b6103426040880151604088019061025b565b6060870151868203606088015261028a565b61036660808701516080870190610248565b61037860a087015160a0870190610248565b60c086015185820360c08701526102c8565b60e085015184820360e086015261028a565b920151906101008184039101526102c8565b90565b6103c69160208201915f8184039101526102f9565b90565b346103f9576103f56103e46103df36600461022a565b6113fb565b6103ec610052565b918291826103b1565b0390f35b610171565b5f80fd5b5f90565b3561041081610175565b90565b5f80fd5b5f80fd5b5f80fd5b903590600160200381360303821215610461570180359067ffffffffffffffff821161045c5760200191600182023603831361045757565b61041b565b610417565b610413565b90565b61047561047a91610120565b610466565b9052565b905090565b90825f939282370152565b90918261049e816104a59361047e565b8093610483565b0190565b90565b90565b6104bb6104c0916104a9565b6104ac565b9052565b9360206104ef936104e882886104e0829b9a6104f69a98610469565b018092610469565b019161048e565b80926104af565b0190565b634e487b7160e01b5f52604160045260245ffd5b9061051890610280565b810190811067ffffffffffffffff82111761053257604052565b6104fa565b60200190565b90610550610549610052565b928361050e565b565b61055d61012061053d565b90565b9061056a90610120565b9052565b90565b90565b61058861058361058d9261056e565b610571565b610255565b90565b9061059a90610255565b9052565b90565b6105b56105b06105ba9261059e565b610571565b610255565b90565b67ffffffffffffffff81116105db576105d7602091610280565b0190565b6104fa565b906105f26105ed836105bd565b61053d565b918252565b6106005f6105e0565b90565b61060b6105f7565b90565b52565b6106196105f7565b90565b52565b5f7f302e312e30000000000000000000000000000000000000000000000000000000910152565b61065060056105e0565b9061065d6020830161061f565b565b610667610646565b90565b61067390610120565b90565b906106809061066a565b5f5260205260405f2090565b6106969051610120565b90565b5f1b90565b906106aa5f1991610699565b9181191691161790565b5f1c90565b6106c2906106b4565b90565b906106da6106d56106e19261066a565b6106b9565b825461069e565b9055565b6106ef9051610255565b90565b906106fe60ff91610699565b9181191691161790565b61071c61071761072192610255565b610571565b610255565b90565b90565b9061073c61073761074392610708565b610724565b82546106f2565b9055565b60081b90565b9061075a61ff0091610747565b9181191691161790565b9061077961077461078092610708565b610724565b825461074d565b9055565b5190565b634e487b7160e01b5f52602260045260245ffd5b90600160028304921680156107bc575b60208310146107b757565b610788565b91607f16916107ac565b5f5260205f2090565b601f602091010490565b1b90565b919060086107f89102916107f25f19846107d9565b926107d9565b9181191691161790565b61081661081161081b926104a9565b610571565b6104a9565b90565b90565b919061083761083261083f93610802565b61081e565b9083546107dd565b9055565b5f90565b61085991610853610843565b91610821565b565b5b818110610867575050565b806108745f600193610847565b0161085c565b9190601f811161088a575b505050565b6108966108bb936107c6565b9060206108a2846107cf565b830193106108c3575b6108b4906107cf565b019061085b565b5f8080610885565b91506108b4819290506108ab565b1c90565b906108e5905f19906008026108d1565b191690565b816108f4916108d5565b906002021790565b9061090681610268565b9067ffffffffffffffff82116109c65761092a82610924855461079c565b8561087a565b602090601f831160011461095e5791809161094d935f92610952575b50506108ea565b90555b565b90915001515f80610946565b601f1983169161096d856107c6565b925f5b8181106109ae57509160029391856001969410610994575b50505002019055610950565b6109a4910151601f8416906108d5565b90555f8080610988565b91936020600181928787015181550195019201610970565b6104fa565b906109d5916108fc565b565b5190565b5f5260205f2090565b9190601f81116109f4575b505050565b610a00610a25936109db565b906020610a0c846107cf565b83019310610a2d575b610a1e906107cf565b019061085b565b5f80806109ef565b9150610a1e81929050610a15565b90610a45816102bb565b9067ffffffffffffffff8211610b0557610a6982610a63855461079c565b856109e4565b602090601f8311600114610a9d57918091610a8c935f92610a91575b50506108ea565b90555b565b90915001515f80610a85565b601f19831691610aac856109db565b925f5b818110610aed57509160029391856001969410610ad3575b50505002019055610a8f565b610ae3910151601f8416906108d5565b90555f8080610ac7565b91936020600181928787015181550195019201610aaf565b6104fa565b90610b1491610a3b565b565b90610bf16101006007610bf794610b3a5f8201610b345f880161068c565b906106c5565b610b5360018201610b4d602088016106e5565b90610727565b610b6c60018201610b66604088016106e5565b90610764565b610b8560028201610b7f60608801610784565b906109cb565b610b9e60038201610b986080880161068c565b906106c5565b610bb760048201610bb160a0880161068c565b906106c5565b610bd060058201610bca60c088016109d7565b90610b0a565b610be960068201610be360e08801610784565b906109cb565b0192016109d7565b90610b0a565b565b90610c0391610b16565b565b5050610c0f610402565b50610d4c610c1e5f8301610406565b610c64610c2d60208501610406565b91610c55610c3f86604081019061041f565b4291610c49610052565b968795602087016104c4565b6020820181038252038261050e565b610c76610c70826102bb565b91610537565b2091610cff8391610cf6600291610cd9610cd06001610ccb610cc2610ca86020610ca15f8901610406565b9701610406565b97610cbd610cb4610552565b9b5f8d01610560565b610574565b60208a01610590565b6105a1565b60408701610590565b610ced610ce4610603565b6060870161060e565b60808501610560565b60a08301610560565b610d13610d0a610611565b60c0830161061c565b610d27610d1e61065f565b60e0830161060e565b610d3c610d32610611565b610100830161061c565b610d475f8490610676565b610bf9565b90565b610d5881610255565b03610d5f57565b5f80fd5b35610d6d81610d4f565b90565b903590600160200381360303821215610db2570180359067ffffffffffffffff8211610dad57602001916001820236038313610da857565b61041b565b610417565b610413565b5090565b91610dc69082610db7565b9067ffffffffffffffff8211610e8557610dea82610de4855461079c565b8561087a565b5f90601f8311600114610e1d57918091610e0c935f92610e11575b50506108ea565b90555b565b90915001355f80610e05565b601f19831691610e2c856107c6565b925f5b818110610e6d57509160029391856001969410610e53575b50505002019055610e0f565b610e63910135601f8416906108d5565b90555f8080610e47565b91936020600181928787013581550195019201610e2f565b6104fa565b90610e959291610dbb565b565b5090565b91610ea69082610e97565b9067ffffffffffffffff8211610f6557610eca82610ec4855461079c565b856109e4565b5f90601f8311600114610efd57918091610eec935f92610ef1575b50506108ea565b90555b565b90915001355f80610ee5565b601f19831691610f0c856109db565b925f5b818110610f4d57509160029391856001969410610f33575b50505002019055610eef565b610f43910135601f8416906108d5565b90555f8080610f27565b91936020600181928787013581550195019201610f0f565b6104fa565b90610f759291610e9b565b565b90611057600761105d93610f985f8201610f925f8701610406565b906106c5565b610fb160018201610fab60208701610d63565b90610727565b610fca60018201610fc460408701610d63565b90610764565b610fe460028201610fde6060870187610d70565b91610e8a565b610ffd60038201610ff760808701610406565b906106c5565b6110166004820161101060a08701610406565b906106c5565b6110306005820161102a60c087018761041f565b91610f6a565b61104a6006820161104460e0870187610d70565b91610e8a565b019161010081019061041f565b91610f6a565b565b9061106991610f77565b565b61107961107e92915f610676565b61105f565b565b61108b61012061053d565b90565b5f90565b5f90565b606090565b606090565b6110a8611080565b90602080808080808080808a6110bc61108e565b8152016110c7611092565b8152016110d2611092565b8152016110dd611096565b8152016110e861108e565b8152016110f361108e565b8152016110fe61109b565b815201611109611096565b81520161111461109b565b81525050565b6111226110a0565b90565b90565b611134611139916106b4565b611125565b90565b6111469054611128565b90565b60ff1690565b61115b611160916106b4565b611149565b90565b61116d905461114f565b90565b60081c90565b61118261118791611170565b611149565b90565b6111949054611176565b90565b905f92918054906111b16111aa8361079c565b809461026c565b916001811690815f1461120857506001146111cc575b505050565b6111d991929394506107c6565b915f925b8184106111f057505001905f80806111c7565b600181602092959395548486015201910192906111dd565b92949550505060ff19168252151560200201905f80806111c7565b9061122d91611197565b90565b9061125061124992611240610052565b93848092611223565b038361050e565b565b905f929180549061126c6112658361079c565b80946102bf565b916001811690815f146112c35750600114611287575b505050565b61129491929394506109db565b915f925b8184106112ab57505001905f8080611282565b60018160209295939554848601520191019290611298565b92949550505060ff19168252151560200201905f8080611282565b906112e891611252565b90565b9061130b611304926112fb610052565b938480926112de565b038361050e565b565b906113ed6113e3600761131e611080565b9461133561132d5f830161113c565b5f8801610560565b61134d61134460018301611163565b60208801610590565b61136561135c6001830161118a565b60408801610590565b61137d61137460028301611230565b6060880161060e565b61139561138c6003830161113c565b60808801610560565b6113ad6113a46004830161113c565b60a08801610560565b6113c56113bc600583016112eb565b60c0880161061c565b6113dd6113d460068301611230565b60e0880161060e565b016112eb565b610100840161061c565b565b6113f89061130d565b90565b6114116114169161140a61111a565b505f610676565b6113ef565b9056fea2646970667358221220e747e1e6ae640ddc727ffb96c1acceed1629485faa05a71fafef417246cf639464736f6c634300081f0033","linkReferences":{}},"methodIdentifiers":{"getActionResult(bytes32)":"96e640e5","sendInstructions(address[],(bytes32,bytes32,bytes,uint256,uint256,uint256))":"66a2c028","setActionResult(bytes32,(bytes32,uint8,uint8,string,bytes32,bytes32,bytes,string,bytes))":"7864140a"},"id":35}