{"abi":[{"type":"function","name":"getActionResult","inputs":[{"name":"_instructionId","type":"bytes32","internalType":"bytes32"}],"outputs":[{"name":"","type":"tuple","internalType":"struct ITeeExtensionRegistry.ActionResult","components":[{"name":"id","type":"bytes32","internalType":"bytes32"},{"name":"submissionTag","type":"uint8","internalType":"uint8"},{"name":"status","type":"uint8","internalType":"uint8"},{"name":"log","type":"string","internalType":"string"},{"name":"opType","type":"bytes32","internalType":"bytes32"},{"name":"opCommand","type":"bytes32","internalType":"bytes32"},{"name":"additionalResultStatus","type":"bytes","internalType":"bytes"},{"name":"version","type":"string","internalType":"string"},{"name":"data","type":"bytes","internalType":"bytes"}]}],"stateMutability":"view"},{"type":"function","name":"sendInstructions","inputs":[{"name":"","type":"address[]","internalType":"address[]"},{"name":"_params","type":"tuple","internalType":"struct ITeeExtensionRegistry.TeeInstructionParams","components":[{"name":"opType","type":"bytes32","internalType":"bytes32"},{"name":"opCommand","type":"bytes32","internalType":"bytes32"},{"name":"message","type":"bytes","internalType":"bytes"},{"name":"votingRound","type":"uint256","internalType":"uint256"},{"name":"inputValidityTimestamp","type":"uint256","internalType":"uint256"},{"name":"inputValidityDeadlineTimestamp","type":"uint256","internalType":"uint256"}]}],"outputs":[{"name":"","type":"bytes32","internalType":"bytes32"}],"stateMutability":"payable"},{"type":"function","name":"setActionResult","inputs":[{"name":"_instructionId","type":"bytes32","internalType":"bytes32"},{"name":"_result","type":"tuple","internalType":"struct ITeeExtensionRegistry.ActionResult","components":[{"name":"id","type":"bytes32","internalType":"bytes32"},{"name":"submissionTag","type":"uint8","internalType":"uint8"},{"name":"status","type":"uint8","internalType":"uint8"},{"name":"log","type":"string","internalType":"string"},{"name":"opType","type":"bytes32","internalType":"bytes32"},{"name":"opCommand","type":"bytes32","internalType":"bytes32"},{"name":"additionalResultStatus","type":"bytes","internalType":"bytes"},{"name":"version","type":"string","internalType":"string"},{"name":"data","type":"bytes","internalType":"bytes"}]}],"outputs":[],"stateMutability":"nonpayable"}],"bytecode":{"object":"0x6080604052348015600e575f5ffd5b506114488061001c5f395ff3fe608060405260043610610033575f3560e01c806366a2c028146100375780637864140a1461006757806396e640e51461008f575b5f5ffd5b610051600480360381019061004c9190610652565b6100cb565b60405161005e91906106e3565b60405180910390f35b348015610072575f5ffd5b5061008d60048036038101906100889190610745565b610295565b005b34801561009a575f5ffd5b506100b560048036038101906100b0919061079f565b6102b9565b6040516100c2919061098d565b60405180910390f35b5f5f825f013583602001358480604001906100e691906109b9565b426040516020016100fb959493929190610aa0565b604051602081830303815290604052805190602001209050604051806101200160405280828152602001600260ff168152602001600160ff16815260200160405180602001604052805f8152508152602001845f013581526020018460200135815260200160405180602001604052805f81525081526020016040518060400160405280600581526020017f302e312e30000000000000000000000000000000000000000000000000000000815250815260200160405180602001604052805f8152508152505f5f8381526020019081526020015f205f820151815f01556020820151816001015f6101000a81548160ff021916908360ff16021790555060408201518160010160016101000a81548160ff021916908360ff160217905550606082015181600201908161022f9190610d15565b506080820151816003015560a0820151816004015560c08201518160050190816102599190610e3c565b5060e082015181600601908161026f9190610d15565b506101008201518160070190816102869190610e3c565b50905050809150509392505050565b805f5f8481526020019081526020015f2081816102b29190611404565b9050505050565b6102c161057a565b5f5f8381526020019081526020015f20604051806101200160405290815f8201548152602001600182015f9054906101000a900460ff1660ff1660ff1681526020016001820160019054906101000a900460ff1660ff1660ff16815260200160028201805461032f90610b45565b80601f016020809104026020016040519081016040528092919081815260200182805461035b90610b45565b80156103a65780601f1061037d576101008083540402835291602001916103a6565b820191905f5260205f20905b81548152906001019060200180831161038957829003601f168201915b5050505050815260200160038201548152602001600482015481526020016005820180546103d390610b45565b80601f01602080910402602001604051908101604052809291908181526020018280546103ff90610b45565b801561044a5780601f106104215761010080835404028352916020019161044a565b820191905f5260205f20905b81548152906001019060200180831161042d57829003601f168201915b5050505050815260200160068201805461046390610b45565b80601f016020809104026020016040519081016040528092919081815260200182805461048f90610b45565b80156104da5780601f106104b1576101008083540402835291602001916104da565b820191905f5260205f20905b8154815290600101906020018083116104bd57829003601f168201915b505050505081526020016007820180546104f390610b45565b80601f016020809104026020016040519081016040528092919081815260200182805461051f90610b45565b801561056a5780601f106105415761010080835404028352916020019161056a565b820191905f5260205f20905b81548152906001019060200180831161054d57829003601f168201915b5050505050815250509050919050565b6040518061012001604052805f81526020015f60ff1681526020015f60ff168152602001606081526020015f81526020015f81526020016060815260200160608152602001606081525090565b5f5ffd5b5f5ffd5b5f5ffd5b5f5ffd5b5f5ffd5b5f5f83601f8401126105f0576105ef6105cf565b5b8235905067ffffffffffffffff81111561060d5761060c6105d3565b5b602083019150836020820283011115610629576106286105d7565b5b9250929050565b5f5ffd5b5f60c0828403121561064957610648610630565b5b81905092915050565b5f5f5f60408486031215610669576106686105c7565b5b5f84013567ffffffffffffffff811115610686576106856105cb565b5b610692868287016105db565b9350935050602084013567ffffffffffffffff8111156106b5576106b46105cb565b5b6106c186828701610634565b9150509250925092565b5f819050919050565b6106dd816106cb565b82525050565b5f6020820190506106f65f8301846106d4565b92915050565b610705816106cb565b811461070f575f5ffd5b50565b5f81359050610720816106fc565b92915050565b5f610120828403121561073c5761073b610630565b5b81905092915050565b5f5f6040838503121561075b5761075a6105c7565b5b5f61076885828601610712565b925050602083013567ffffffffffffffff811115610789576107886105cb565b5b61079585828601610726565b9150509250929050565b5f602082840312156107b4576107b36105c7565b5b5f6107c184828501610712565b91505092915050565b6107d3816106cb565b82525050565b5f60ff82169050919050565b6107ee816107d9565b82525050565b5f81519050919050565b5f82825260208201905092915050565b8281835e5f83830152505050565b5f601f19601f8301169050919050565b5f610836826107f4565b61084081856107fe565b935061085081856020860161080e565b6108598161081c565b840191505092915050565b5f81519050919050565b5f82825260208201905092915050565b5f61088882610864565b610892818561086e565b93506108a281856020860161080e565b6108ab8161081c565b840191505092915050565b5f61012083015f8301516108cc5f8601826107ca565b5060208301516108df60208601826107e5565b5060408301516108f260408601826107e5565b506060830151848203606086015261090a828261082c565b915050608083015161091f60808601826107ca565b5060a083015161093260a08601826107ca565b5060c083015184820360c086015261094a828261087e565b91505060e083015184820360e0860152610964828261082c565b915050610100830151848203610100860152610980828261087e565b9150508091505092915050565b5f6020820190508181035f8301526109a581846108b6565b905092915050565b5f5ffd5b5f5ffd5b5f5ffd5b5f5f833560016020038436030381126109d5576109d46109ad565b5b80840192508235915067ffffffffffffffff8211156109f7576109f66109b1565b5b602083019250600182023603831315610a1357610a126109b5565b5b509250929050565b5f819050919050565b610a35610a30826106cb565b610a1b565b82525050565b5f81905092915050565b828183375f83830152505050565b5f610a5e8385610a3b565b9350610a6b838584610a45565b82840190509392505050565b5f819050919050565b5f819050919050565b610a9a610a9582610a77565b610a80565b82525050565b5f610aab8288610a24565b602082019150610abb8287610a24565b602082019150610acc828587610a53565b9150610ad88284610a89565b6020820191508190509695505050505050565b7f4e487b71000000000000000000000000000000000000000000000000000000005f52604160045260245ffd5b7f4e487b71000000000000000000000000000000000000000000000000000000005f52602260045260245ffd5b5f6002820490506001821680610b5c57607f821691505b602082108103610b6f57610b6e610b18565b5b50919050565b5f819050815f5260205f209050919050565b5f6020601f8301049050919050565b5f82821b905092915050565b5f60088302610bd17fffffffffffffffffffffffffffffffffffffffffffffffffffffffffffffffff82610b96565b610bdb8683610b96565b95508019841693508086168417925050509392505050565b5f819050919050565b5f610c16610c11610c0c84610a77565b610bf3565b610a77565b9050919050565b5f819050919050565b610c2f83610bfc565b610c43610c3b82610c1d565b848454610ba2565b825550505050565b5f5f905090565b610c5a610c4b565b610c65818484610c26565b505050565b5b81811015610c8857610c7d5f82610c52565b600181019050610c6b565b5050565b601f821115610ccd57610c9e81610b75565b610ca784610b87565b81016020851015610cb6578190505b610cca610cc285610b87565b830182610c6a565b50505b505050565b5f82821c905092915050565b5f610ced5f1984600802610cd2565b1980831691505092915050565b5f610d058383610cde565b9150826002028217905092915050565b610d1e826107f4565b67ffffffffffffffff811115610d3757610d36610aeb565b5b610d418254610b45565b610d4c828285610c8c565b5f60209050601f831160018114610d7d575f8415610d6b578287015190505b610d758582610cfa565b865550610ddc565b601f198416610d8b86610b75565b5f5b82811015610db257848901518255600182019150602085019450602081019050610d8d565b86831015610dcf5784890151610dcb601f891682610cde565b8355505b6001600288020188555050505b505050505050565b5f819050815f5260205f209050919050565b601f821115610e3757610e0881610de4565b610e1184610b87565b81016020851015610e20578190505b610e34610e2c85610b87565b830182610c6a565b50505b505050565b610e4582610864565b67ffffffffffffffff811115610e5e57610e5d610aeb565b5b610e688254610b45565b610e73828285610df6565b5f60209050601f831160018114610ea4575f8415610e92578287015190505b610e9c8582610cfa565b865550610f03565b601f198416610eb286610de4565b5f5b82811015610ed957848901518255600182019150602085019450602081019050610eb4565b86831015610ef65784890151610ef2601f891682610cde565b8355505b6001600288020188555050505b505050505050565b5f8135610f17816106fc565b80915050919050565b5f815f1b9050919050565b5f7fffffffffffffffffffffffffffffffffffffffffffffffffffffffffffffffff610f5684610f20565b9350801983169250808416831791505092915050565b5f610f76826106cb565b9050919050565b5f815f1c9050919050565b5f610f9282610f7d565b9050919050565b610fa282610f6c565b610fb5610fae82610f88565b8354610f2b565b8255505050565b610fc5816107d9565b8114610fcf575f5ffd5b50565b5f8135610fde81610fbc565b80915050919050565b5f60ff610ff384610f20565b9350801983169250808416831791505092915050565b5f61102361101e611019846107d9565b610bf3565b6107d9565b9050919050565b5f819050919050565b61103c82611009565b61104f6110488261102a565b8354610fe7565b8255505050565b5f8160081b9050919050565b5f61ff0061106f84611056565b9350801983169250808416831791505092915050565b61108e82611009565b6110a161109a8261102a565b8354611062565b8255505050565b5f5f833560016020038436030381126110c4576110c36109ad565b5b80840192508235915067ffffffffffffffff8211156110e6576110e56109b1565b5b602083019250600182023603831315611102576111016109b5565b5b509250929050565b5f82905092915050565b61111e838361110a565b67ffffffffffffffff81111561113757611136610aeb565b5b6111418254610b45565b61114c828285610c8c565b5f601f831160018114611179575f8415611167578287013590505b6111718582610cfa565b8655506111d8565b601f19841661118786610b75565b5f5b828110156111ae57848901358255600182019150602085019450602081019050611189565b868310156111cb57848901356111c7601f891682610cde565b8355505b6001600288020188555050505b50505050505050565b6111ec838383611114565b505050565b5f82905092915050565b61120583836111f1565b67ffffffffffffffff81111561121e5761121d610aeb565b5b6112288254610b45565b611233828285610df6565b5f601f831160018114611260575f841561124e578287013590505b6112588582610cfa565b8655506112bf565b601f19841661126e86610de4565b5f5b8281101561129557848901358255600182019150602085019450602081019050611270565b868310156112b257848901356112ae601f891682610cde565b8355505b6001600288020188555050505b50505050505050565b6112d38383836111fb565b505050565b5f81015f8301806112e881610f0b565b90506112f48184610f99565b50505060018101602083018061130981610fd2565b90506113158184611033565b50505060018101604083018061132a81610fd2565b90506113368184611085565b505050600281016060830161134b81856110a8565b6113568183866111e1565b5050505060038101608083018061136c81610f0b565b90506113788184610f99565b5050506004810160a083018061138d81610f0b565b90506113998184610f99565b5050506005810160c083016113ae81856109b9565b6113b98183866112c8565b505050506006810160e083016113cf81856110a8565b6113da8183866111e1565b505050506007810161010083016113f181856109b9565b6113fc8183866112c8565b505050505050565b61140e82826112d8565b505056fea2646970667358221220588f46bfd67cee16cbdf5f34588b66cd2641a667d173a33e1f444e76dceabd3964736f6c634300081f0033","linkReferences":{}},"methodIdentifiers":{"getActionResult(bytes32)":"96e640e5","sendInstructions(address[],(bytes32,bytes32,bytes,uint256,uint256,uint256))":"66a2c028","setActionResult(bytes32,(bytes32,uint8,uint8,string,bytes32,bytes32,bytes,string,bytes))":"7864140a"},"id":34}