{"abi":[{"type":"constructor","inputs":[{"name":"_registry","type":"address","internalType":"address"},{"name":"_machineRegistry","type":"address","internalType":"address"}],"stateMutability":"nonpayable"},{"type":"function","name":"extensionId","inputs":[],"outputs":[{"name":"","type":"uint256","internalType":"uint256"}],"stateMutability":"view"},{"type":"function","name":"sendEvaluate","inputs":[{"name":"_encryptedMessage","type":"bytes","internalType":"bytes"}],"outputs":[{"name":"","type":"bytes32","internalType":"bytes32"}],"stateMutability":"payable"},{"type":"function","name":"setExtensionIdManual","inputs":[{"name":"_id","type":"uint256","internalType":"uint256"}],"outputs":[],"stateMutability":"nonpayable"},{"type":"function","name":"teeExtensionRegistry","inputs":[],"outputs":[{"name":"","type":"address","internalType":"contract ITeeExtensionRegistry"}],"stateMutability":"view"},{"type":"function","name":"teeMachineRegistry","inputs":[],"outputs":[{"name":"","type":"address","internalType":"contract ITeeMachineRegistry"}],"stateMutability":"view"}],"bytecode":{"object":"0x60c0604052346100505761001a610014610124565b90610195565b610022610055565b610c376101b082396080518181816103320152610a2e015260a05181818161016701526109760152610c3790f35b61005b565b60405190565b5f80fd5b601f801991011690565b634e487b7160e01b5f52604160045260245ffd5b906100879061005f565b810190811060018060401b0382111761009f57604052565b610069565b906100b76100b0610055565b928361007d565b565b5f80fd5b60018060a01b031690565b6100d1906100bd565b90565b6100dd816100c8565b036100e457565b5f80fd5b905051906100f5826100d4565b565b919060408382031261011f578061011361011c925f86016100e8565b936020016100e8565b90565b6100b9565b610142610de780380380610137816100a4565b9283398101906100f7565b9091565b90565b61015d610158610162926100bd565b610146565b6100bd565b90565b61016e90610149565b90565b61017a90610165565b90565b61018690610149565b90565b6101929061017d565b90565b906101a26101aa92610171565b608052610189565b60a05256fe60806040526004361015610013575b6103b7565b61001d5f3561006c565b806351a3c0b114610067578063524967d71461006257806362d7076e1461005d57806374f9dd18146100585763a435d58a0361000e57610382565b6102fd565b610282565b6101ed565b610126565b60e01c90565b60405190565b5f80fd5b5f80fd5b5f80fd5b5f80fd5b5f80fd5b909182601f830112156100c65781359167ffffffffffffffff83116100c15760200192600183028401116100bc57565b610088565b610084565b610080565b906020828203126100fc575f82013567ffffffffffffffff81116100f7576100f3920161008c565b9091565b61007c565b610078565b90565b61010d90610101565b9052565b9190610124905f60208501940190610104565b565b61014e61013d6101373660046100cb565b90610943565b610145610072565b91829182610111565b0390f35b5f80fd5b5f91031261016057565b610078565b7f000000000000000000000000000000000000000000000000000000000000000090565b60018060a01b031690565b90565b6101ab6101a66101b092610189565b610194565b610189565b90565b6101bc90610197565b90565b6101c8906101b3565b90565b6101d4906101bf565b9052565b91906101eb905f602085019401906101cb565b565b3461021d576101fd366004610156565b610219610208610165565b610210610072565b918291826101d8565b0390f35b610152565b1c90565b90565b61023990600861023e9302610222565b610226565b90565b9061024c9154610229565b90565b61025a5f5f90610241565b90565b90565b6102699061025d565b9052565b9190610280905f60208501940190610260565b565b346102b257610292366004610156565b6102ae61029d61024f565b6102a5610072565b9182918261026d565b0390f35b610152565b6102c08161025d565b036102c757565b5f80fd5b905035906102d8826102b7565b565b906020828203126102f3576102f0915f016102cb565b90565b610078565b5f0190565b3461032b576103156103103660046102da565b610bd1565b61031d610072565b80610327816102f8565b0390f35b610152565b7f000000000000000000000000000000000000000000000000000000000000000090565b61035d906101b3565b90565b61036990610354565b9052565b9190610380905f60208501940190610360565b565b346103b257610392366004610156565b6103ae61039d610330565b6103a5610072565b9182918261036d565b0390f35b610152565b5f80fd5b5f90565b5f1c90565b6103d06103d5916103bf565b610226565b90565b6103e290546103c4565b90565b90565b6103fc6103f7610401926103e5565b610194565b61025d565b90565b60209181520190565b5f7f457874656e73696f6e204944206e6f7420736574000000000000000000000000910152565b6104416014602092610404565b61044a8161040d565b0190565b6104639060208101905f818303910152610434565b90565b1561046d57565b610475610072565b62461bcd60e51b81528061048b6004820161044e565b0390fd5b601f801991011690565b634e487b7160e01b5f52604160045260245ffd5b906104b79061048f565b810190811067ffffffffffffffff8211176104d157604052565b610499565b60e01b90565b906104ef6104e8610072565b92836104ad565b565b67ffffffffffffffff81116105095760208091020190565b610499565b61051790610189565b90565b6105238161050e565b0361052a57565b5f80fd5b9050519061053b8261051a565b565b9092919261055261054d826104f1565b6104dc565b938185526020808601920283019281841161058f57915b8383106105765750505050565b60208091610584848661052e565b815201920191610569565b610088565b9080601f830112156105b2578160206105af9351910161053d565b90565b610080565b906020828203126105e7575f82015167ffffffffffffffff81116105e2576105df9201610594565b90565b61007c565b610078565b90565b6106036105fe610608926105ec565b610194565b61025d565b90565b610614906105ef565b9052565b91602061063992949361063260408201965f830190610260565b019061060b565b565b610643610072565b3d5f823e3d90fd5b61065560c06104dc565b90565b5f90565b606090565b5f90565b61066d61064b565b90602080808080808761067e610658565b815201610689610658565b81520161069461065c565b81520161069f610661565b8152016106aa610661565b8152016106b5610661565b81525050565b6106c3610665565b90565b6c4556414c554154455f5249534b60981b90565b6106e26106c6565b90565b906106ef90610101565b9052565b5f90565b6106ff6106f3565b90565b5f80fd5b67ffffffffffffffff81116107245761072060209161048f565b0190565b610499565b90825f939282370152565b9092919261074961074482610706565b6104dc565b938185526020850190828401116107655761076392610729565b565b610702565b610775913691610734565b90565b61078181610101565b0361078857565b5f80fd5b9050519061079982610778565b565b906020828203126107b4576107b1915f0161078c565b90565b610078565b5190565b60209181520190565b60200190565b6107d59061050e565b9052565b906107e6816020936107cc565b0190565b60200190565b9061080d610807610800846107b9565b80936107bd565b926107c6565b905f5b81811061081d5750505090565b90919261083661083060019286516107d9565b946107ea565b9101919091610810565b61084990610101565b9052565b5190565b60209181520190565b90825f9392825e0152565b61088461088d6020936108929361087b8161084d565b93848093610851565b9586910161085a565b61048f565b0190565b61089f9061025d565b9052565b906109159060a0806108e660c084016108c25f8801515f870190610840565b6108d460208801516020870190610840565b60408701518582036040870152610865565b946108f960608201516060860190610896565b61090b60808201516080860190610896565b0151910190610896565b90565b90916109326109409360408401908482035f8601526107f0565b9160208184039101526108a3565b90565b61094b6103bb565b506109716109585f6103d8565b61096a6109645f6103e8565b9161025d565b1415610466565b61099a7f00000000000000000000000000000000000000000000000000000000000000006101bf565b905f63feeabcbf926109ab826103d8565b906109c96001956109d46109bd610072565b978895869485946104d6565b845260048401610618565b03915afa8015610af0576020925f91610ace575b5092610a276109f56106bb565b92610a09610a016106da565b5f86016106e5565b610a1c610a146106f7565b8686016106e5565b91604084019261076a565b9052610a527f0000000000000000000000000000000000000000000000000000000000000000610354565b92610a7a6366a2c0289134959295909395610a85610a6e610072565b978896879586946104d6565b845260048401610918565b03925af1908115610ac9575f91610a9b575b5090565b610abc915060203d8111610ac2575b610ab481836104ad565b81019061079b565b5f610a97565b503d610aaa565b61063b565b610aea91503d805f833e610ae281836104ad565b8101906105b7565b5f6109e8565b61063b565b5f7f416c726561647920736574000000000000000000000000000000000000000000910152565b610b29600b602092610404565b610b3281610af5565b0190565b610b4b9060208101905f818303910152610b1c565b90565b15610b5557565b610b5d610072565b62461bcd60e51b815280610b7360048201610b36565b0390fd5b5f1b90565b90610b885f1991610b77565b9181191691161790565b610ba6610ba1610bab9261025d565b610194565b61025d565b90565b90565b90610bc6610bc1610bcd92610b92565b610bae565b8254610b7c565b9055565b610bff90610bf9610be15f6103d8565b610bf3610bed5f6103e8565b9161025d565b14610b4e565b5f610bb1565b56fea2646970667358221220530fad405b79baf60ea60873fe8518e6e7757a48e5f699975c43b933bb555f2064736f6c634300081f0033","linkReferences":{}},"methodIdentifiers":{"extensionId()":"62d7076e","sendEvaluate(bytes)":"51a3c0b1","setExtensionIdManual(uint256)":"74f9dd18","teeExtensionRegistry()":"a435d58a","teeMachineRegistry()":"524967d7"},"id":24}