{"abi":[{"type":"constructor","inputs":[{"name":"_auditLog","type":"address","internalType":"address"},{"name":"_teeExtensionRegistry","type":"address","internalType":"address"}],"stateMutability":"nonpayable"},{"type":"function","name":"approvalCount","inputs":[{"name":"","type":"uint256","internalType":"uint256"}],"outputs":[{"name":"","type":"uint256","internalType":"uint256"}],"stateMutability":"view"},{"type":"function","name":"approveTx","inputs":[{"name":"_txId","type":"uint256","internalType":"uint256"}],"outputs":[],"stateMutability":"nonpayable"},{"type":"function","name":"auditLog","inputs":[],"outputs":[{"name":"","type":"address","internalType":"contract AuditLog"}],"stateMutability":"view"},{"type":"function","name":"executeTx","inputs":[{"name":"_txId","type":"uint256","internalType":"uint256"}],"outputs":[],"stateMutability":"nonpayable"},{"type":"function","name":"getTransaction","inputs":[{"name":"_txId","type":"uint256","internalType":"uint256"}],"outputs":[{"name":"target","type":"address","internalType":"address"},{"name":"data","type":"bytes","internalType":"bytes"},{"name":"value","type":"uint256","internalType":"uint256"},{"name":"nonce","type":"uint256","internalType":"uint256"},{"name":"executed","type":"bool","internalType":"bool"},{"name":"evaluated","type":"bool","internalType":"bool"},{"name":"requiredSigners","type":"uint8","internalType":"uint8"},{"name":"riskScore","type":"uint8","internalType":"uint8"},{"name":"checkResults","type":"uint16","internalType":"uint16"},{"name":"matchedPolicyId","type":"uint256","internalType":"uint256"},{"name":"instructionId","type":"bytes32","internalType":"bytes32"}],"stateMutability":"view"},{"type":"function","name":"hasApproved","inputs":[{"name":"","type":"uint256","internalType":"uint256"},{"name":"","type":"address","internalType":"address"}],"outputs":[{"name":"","type":"bool","internalType":"bool"}],"stateMutability":"view"},{"type":"function","name":"processedInstructions","inputs":[{"name":"","type":"bytes32","internalType":"bytes32"}],"outputs":[{"name":"","type":"bool","internalType":"bool"}],"stateMutability":"view"},{"type":"function","name":"submitEvaluation","inputs":[{"name":"_txId","type":"uint256","internalType":"uint256"},{"name":"_riskScore","type":"uint8","internalType":"uint8"},{"name":"_checkResults","type":"uint16","internalType":"uint16"},{"name":"_matchedPolicyId","type":"uint256","internalType":"uint256"},{"name":"_requiredSigners","type":"uint8","internalType":"uint8"},{"name":"_signers","type":"address[]","internalType":"address[]"}],"outputs":[],"stateMutability":"nonpayable"},{"type":"function","name":"submitEvaluationAttested","inputs":[{"name":"_txId","type":"uint256","internalType":"uint256"},{"name":"_instructionId","type":"bytes32","internalType":"bytes32"}],"outputs":[],"stateMutability":"nonpayable"},{"type":"function","name":"submitTransaction","inputs":[{"name":"_target","type":"address","internalType":"address"},{"name":"_data","type":"bytes","internalType":"bytes"},{"name":"_nonce","type":"uint256","internalType":"uint256"}],"outputs":[{"name":"","type":"uint256","internalType":"uint256"}],"stateMutability":"payable"},{"type":"function","name":"teeExtensionRegistry","inputs":[],"outputs":[{"name":"","type":"address","internalType":"contract ITeeExtensionRegistry"}],"stateMutability":"view"},{"type":"function","name":"transactions","inputs":[{"name":"","type":"uint256","internalType":"uint256"}],"outputs":[{"name":"target","type":"address","internalType":"address"},{"name":"data","type":"bytes","internalType":"bytes"},{"name":"value","type":"uint256","internalType":"uint256"},{"name":"nonce","type":"uint256","internalType":"uint256"},{"name":"executed","type":"bool","internalType":"bool"},{"name":"requiredSigners","type":"uint8","internalType":"uint8"},{"name":"riskScore","type":"uint8","internalType":"uint8"},{"name":"checkResults","type":"uint16","internalType":"uint16"},{"name":"matchedPolicyId","type":"uint256","internalType":"uint256"},{"name":"evaluated","type":"bool","internalType":"bool"},{"name":"instructionId","type":"bytes32","internalType":"bytes32"}],"stateMutability":"view"},{"type":"function","name":"txCount","inputs":[],"outputs":[{"name":"","type":"uint256","internalType":"uint256"}],"stateMutability":"view"},{"type":"event","name":"EvaluationAttested","inputs":[{"name":"txId","type":"uint256","indexed":true,"internalType":"uint256"},{"name":"instructionId","type":"bytes32","indexed":true,"internalType":"bytes32"},{"name":"matchedPolicyId","type":"uint256","indexed":false,"internalType":"uint256"},{"name":"riskScore","type":"uint8","indexed":false,"internalType":"uint8"},{"name":"checkResults","type":"uint16","indexed":false,"internalType":"uint16"}],"anonymous":false},{"type":"event","name":"TransactionSubmitted","inputs":[{"name":"txId","type":"uint256","indexed":true,"internalType":"uint256"},{"name":"target","type":"address","indexed":true,"internalType":"address"},{"name":"nonce","type":"uint256","indexed":false,"internalType":"uint256"}],"anonymous":false},{"type":"event","name":"TxApproved","inputs":[{"name":"txId","type":"uint256","indexed":true,"internalType":"uint256"},{"name":"signer","type":"address","indexed":true,"internalType":"address"}],"anonymous":false},{"type":"event","name":"TxExecuted","inputs":[{"name":"txId","type":"uint256","indexed":true,"internalType":"uint256"}],"anonymous":false},{"type":"error","name":"InvalidInstructionId","inputs":[]},{"type":"error","name":"ResultNotReady","inputs":[]},{"type":"error","name":"ResultProcessingFailed","inputs":[]},{"type":"error","name":"WrongOPType","inputs":[{"name":"expected","type":"bytes32","internalType":"bytes32"},{"name":"actual","type":"bytes32","internalType":"bytes32"}]}],"bytecode":{"object":"0x608060405234801562000010575f80fd5b5060405162002ed438038062002ed4833981810160405281019062000036919062000122565b815f806101000a81548173ffffffffffffffffffffffffffffffffffffffff021916908373ffffffffffffffffffffffffffffffffffffffff1602179055508060015f6101000a81548173ffffffffffffffffffffffffffffffffffffffff021916908373ffffffffffffffffffffffffffffffffffffffff160217905550505062000167565b5f80fd5b5f73ffffffffffffffffffffffffffffffffffffffff82169050919050565b5f620000ec82620000c1565b9050919050565b620000fe81620000e0565b811462000109575f80fd5b50565b5f815190506200011c81620000f3565b92915050565b5f80604083850312156200013b576200013a620000bd565b5b5f6200014a858286016200010c565b92505060206200015d858286016200010c565b9150509250929050565b612d5f80620001755f395ff3fe6080604052600436106100c1575f3560e01c80635a2d6ebd1161007e5780639ace38c2116100585780639ace38c21461028b578063a435d58a146102d1578063a9bda34d146102fb578063e05afb6814610323576100c1565b80635a2d6ebd146101fd578063891879a81461022757806389e6b1641461024f576100c1565b80631087393a146100c55780632358d5a8146100ed57806333ea3dc8146101295780633c5406871461016f57806340ad01ea1461019957806354b5fe80146101d5575b5f80fd5b3480156100d0575f80fd5b506100eb60048036038101906100e69190611749565b610353565b005b3480156100f8575f80fd5b50610113600480360381019061010e91906117ce565b610653565b6040516101209190611826565b60405180910390f35b348015610134575f80fd5b5061014f600480360381019061014a9190611749565b61067d565b6040516101669b9a99989796959493929190611936565b60405180910390f35b34801561017a575f80fd5b506101836107e0565b60405161019091906119e6565b60405180910390f35b3480156101a4575f80fd5b506101bf60048036038101906101ba9190611749565b6107e6565b6040516101cc91906119e6565b60405180910390f35b3480156101e0575f80fd5b506101fb60048036038101906101f69190611749565b6107fb565b005b348015610208575f80fd5b50610211610a39565b60405161021e9190611a5a565b60405180910390f35b348015610232575f80fd5b5061024d60048036038101906102489190611b28565b610a5c565b005b34801561025a575f80fd5b5061027560048036038101906102709190611bfc565b610cb7565b6040516102829190611826565b60405180910390f35b348015610296575f80fd5b506102b160048036038101906102ac9190611749565b610cd4565b6040516102c89b9a99989796959493929190611c27565b60405180910390f35b3480156102dc575f80fd5b506102e5610e0e565b6040516102f29190611cf7565b60405180910390f35b348015610306575f80fd5b50610321600480360381019061031c9190611d10565b610e33565b005b61033d60048036038101906103389190611da3565b6111b4565b60405161034a91906119e6565b60405180910390f35b5f60035f8381526020019081526020015f209050806008015f9054906101000a900460ff166103b7576040517f08c379a00000000000000000000000000000000000000000000000000000000081526004016103ae90611e6e565b60405180910390fd5b806004015f9054906101000a900460ff1615610408576040517f08c379a00000000000000000000000000000000000000000000000000000000081526004016103ff90611ed6565b60405180910390fd5b60045f8381526020019081526020015f205f3373ffffffffffffffffffffffffffffffffffffffff1673ffffffffffffffffffffffffffffffffffffffff1681526020019081526020015f205f9054906101000a900460ff16156104a1576040517f08c379a000000000000000000000000000000000000000000000000000000000815260040161049890611f3e565b60405180910390fd5b5f805b826005018054905081101561053f573373ffffffffffffffffffffffffffffffffffffffff168360050182815481106104e0576104df611f5c565b5b905f5260205f20015f9054906101000a900473ffffffffffffffffffffffffffffffffffffffff1673ffffffffffffffffffffffffffffffffffffffff160361052c576001915061053f565b808061053790611fb6565b9150506104a4565b5080610580576040517f08c379a000000000000000000000000000000000000000000000000000000000815260040161057790612047565b60405180910390fd5b600160045f8581526020019081526020015f205f3373ffffffffffffffffffffffffffffffffffffffff1673ffffffffffffffffffffffffffffffffffffffff1681526020019081526020015f205f6101000a81548160ff02191690831515021790555060055f8481526020019081526020015f205f81548092919061060590611fb6565b91905055503373ffffffffffffffffffffffffffffffffffffffff16837fa4c042f780e62163586b6166a85cc05e7726fb1393076143d04720a6a3934caf60405160405180910390a3505050565b6004602052815f5260405f20602052805f5260405f205f915091509054906101000a900460ff1681565b5f60605f805f805f805f805f8060035f8e81526020019081526020015f209050805f015f9054906101000a900473ffffffffffffffffffffffffffffffffffffffff168160010182600201548360030154846004015f9054906101000a900460ff16856008015f9054906101000a900460ff168660040160019054906101000a900460ff16876006015f9054906101000a900460ff168860060160019054906101000a900461ffff1689600701548a6009015489805461073c90612092565b80601f016020809104026020016040519081016040528092919081815260200182805461076890612092565b80156107b35780601f1061078a576101008083540402835291602001916107b3565b820191905f5260205f20905b81548152906001019060200180831161079657829003601f168201915b505050505099509b509b509b509b509b509b509b509b509b509b509b505091939597999b90929496989a50565b60025481565b6005602052805f5260405f205f915090505481565b5f60035f8381526020019081526020015f209050806008015f9054906101000a900460ff1661085f576040517f08c379a000000000000000000000000000000000000000000000000000000000815260040161085690611e6e565b60405180910390fd5b806004015f9054906101000a900460ff16156108b0576040517f08c379a00000000000000000000000000000000000000000000000000000000081526004016108a790611ed6565b60405180910390fd5b8060040160019054906101000a900460ff1660ff1660055f8481526020019081526020015f20541015610918576040517f08c379a000000000000000000000000000000000000000000000000000000000815260040161090f9061210c565b60405180910390fd5b6001816004015f6101000a81548160ff0219169083151502179055505f815f015f9054906101000a900473ffffffffffffffffffffffffffffffffffffffff1673ffffffffffffffffffffffffffffffffffffffff1682600201548360010160405161098491906121c6565b5f6040518083038185875af1925050503d805f81146109be576040519150601f19603f3d011682016040523d82523d5f602084013e6109c3565b606091505b5050905080610a07576040517f08c379a00000000000000000000000000000000000000000000000000000000081526004016109fe90612226565b60405180910390fd5b827f93fbc709d9f9290b7a6b4c56546e5ac117eab4b159daa1e5d68b570da75f340560405160405180910390a2505050565b5f8054906101000a900473ffffffffffffffffffffffffffffffffffffffff1681565b5f60035f8981526020019081526020015f209050806008015f9054906101000a900460ff1615610ac1576040517f08c379a0000000000000000000000000000000000000000000000000000000008152600401610ab89061228e565b60405180910390fd5b806004015f9054906101000a900460ff1615610b12576040517f08c379a0000000000000000000000000000000000000000000000000000000008152600401610b0990611ed6565b60405180910390fd5b6001816008015f6101000a81548160ff02191690831515021790555086816006015f6101000a81548160ff021916908360ff160217905550858160060160016101000a81548161ffff021916908361ffff160217905550848160070181905550838160040160016101000a81548160ff021916908360ff1602179055508282826005019190610ba292919061151b565b505f8054906101000a900473ffffffffffffffffffffffffffffffffffffffff1673ffffffffffffffffffffffffffffffffffffffff16638c300f4e60405180610100016040528084600301548942604051602001610c03939291906122ac565b60405160208183030381529060405280519060200120815260200188815260200160405180602001604052805f81525081526020018a60ff1681526020018961ffff1681526020018760ff1681526020018686905060ff168152602001428152506040518263ffffffff1660e01b8152600401610c80919061241c565b5f604051808303815f87803b158015610c97575f80fd5b505af1158015610ca9573d5f803e3d5ffd5b505050505050505050505050565b6006602052805f5260405f205f915054906101000a900460ff1681565b6003602052805f5260405f205f91509050805f015f9054906101000a900473ffffffffffffffffffffffffffffffffffffffff1690806001018054610d1890612092565b80601f0160208091040260200160405190810160405280929190818152602001828054610d4490612092565b8015610d8f5780601f10610d6657610100808354040283529160200191610d8f565b820191905f5260205f20905b815481529060010190602001808311610d7257829003601f168201915b505050505090806002015490806003015490806004015f9054906101000a900460ff16908060040160019054906101000a900460ff1690806006015f9054906101000a900460ff16908060060160019054906101000a900461ffff1690806007015490806008015f9054906101000a900460ff1690806009015490508b565b60015f9054906101000a900473ffffffffffffffffffffffffffffffffffffffff1681565b5f60035f8481526020019081526020015f209050806008015f9054906101000a900460ff1615610e98576040517f08c379a0000000000000000000000000000000000000000000000000000000008152600401610e8f9061228e565b60405180910390fd5b806004015f9054906101000a900460ff1615610ee9576040517f08c379a0000000000000000000000000000000000000000000000000000000008152600401610ee090611ed6565b60405180910390fd5b60065f8381526020019081526020015f205f9054906101000a900460ff1615610f47576040517f08c379a0000000000000000000000000000000000000000000000000000000008152600401610f3e90612486565b60405180910390fd5b5f610f7360015f9054906101000a900473ffffffffffffffffffffffffffffffffffffffff16846112a5565b9050600160065f8581526020019081526020015f205f6101000a81548160ff0219169083151502179055506001826008015f6101000a81548160ff02191690831515021790555080606001518260040160016101000a81548160ff021916908360ff1602179055508060a00151826005019080519060200190610ff79291906115b8565b508060400151826006015f6101000a81548160ff021916908360ff1602179055508060c001518260060160016101000a81548161ffff021916908361ffff160217905550805f015182600701819055508282600901819055505f8054906101000a900473ffffffffffffffffffffffffffffffffffffffff1673ffffffffffffffffffffffffffffffffffffffff16636c2c677b6040518061010001604052808560030154855f015142896040516020016110b594939291906124a4565b604051602081830303815290604052805190602001208152602001845f0151815260200184602001518152602001846040015160ff1681526020018460c0015161ffff168152602001846060015160ff1681526020018460a001515160ff168152602001428152506040518263ffffffff1660e01b8152600401611139919061241c565b5f604051808303815f87803b158015611150575f80fd5b505af1158015611162573d5f803e3d5ffd5b5050505082847ffa11d2026f681dfdef362e5993df250704dbaf5d0ff1c732a8812af8de04a646835f015184604001518560c001516040516111a6939291906124e7565b60405180910390a350505050565b5f8060025f8154809291906111c890611fb6565b9190505590505f60035f8381526020019081526020015f20905086815f015f6101000a81548173ffffffffffffffffffffffffffffffffffffffff021916908373ffffffffffffffffffffffffffffffffffffffff16021790555085858260010191826112369291906126d5565b503481600201819055508381600301819055508673ffffffffffffffffffffffffffffffffffffffff16827f6974e8be5912ae917b788db2884a51e71cbe0f0979af347e6a32d07d52ef82a38660405161129091906119e6565b60405180910390a38192505050949350505050565b6112ad61163f565b6112b5611694565b8373ffffffffffffffffffffffffffffffffffffffff166396e640e5846040518263ffffffff1660e01b81526004016112ee91906127a2565b5f60405180830381865afa92505050801561132b57506040513d5f823e3d601f19601f820116820180604052508101906113289190612ac3565b60015b611361576040517fd9446ca400000000000000000000000000000000000000000000000000000000815260040160405180910390fd5b809150506001816040015160ff16146113a6576040517fc55f13ab00000000000000000000000000000000000000000000000000000000815260040160405180910390fd5b7f4556414c554154455f5249534b00000000000000000000000000000000000000816080015114611434577f4556414c554154455f5249534b0000000000000000000000000000000000000081608001516040517fda05b4ca00000000000000000000000000000000000000000000000000000000815260040161142b929190612b0a565b60405180910390fd5b5f816040015160ff1614801561144e57505f816060015151115b15611485576040517f7a7d833d00000000000000000000000000000000000000000000000000000000815260040160405180910390fd5b5f805f805f805f805f8961010001518060200190518101906114a79190612c2d565b9850985098509850985098509850985098506040518061012001604052808a81526020018981526020018860ff1681526020018760ff1681526020018660ff1681526020018581526020018461ffff1681526020018360ff168152602001828152509a505050505050505050505092915050565b828054828255905f5260205f209081019282156115a7579160200282015b828111156115a657823573ffffffffffffffffffffffffffffffffffffffff16825f6101000a81548173ffffffffffffffffffffffffffffffffffffffff021916908373ffffffffffffffffffffffffffffffffffffffff16021790555091602001919060010190611539565b5b5090506115b491906116ea565b5090565b828054828255905f5260205f2090810192821561162e579160200282015b8281111561162d578251825f6101000a81548173ffffffffffffffffffffffffffffffffffffffff021916908373ffffffffffffffffffffffffffffffffffffffff160217905550916020019190600101906115d6565b5b50905061163b91906116ea565b5090565b6040518061012001604052805f8152602001606081526020015f60ff1681526020015f60ff1681526020015f60ff168152602001606081526020015f61ffff1681526020015f60ff1681526020015f81525090565b6040518061012001604052805f80191681526020015f60ff1681526020015f60ff168152602001606081526020015f80191681526020015f80191681526020016060815260200160608152602001606081525090565b5b80821115611701575f815f9055506001016116eb565b5090565b5f604051905090565b5f80fd5b5f80fd5b5f819050919050565b61172881611716565b8114611732575f80fd5b50565b5f813590506117438161171f565b92915050565b5f6020828403121561175e5761175d61170e565b5b5f61176b84828501611735565b91505092915050565b5f73ffffffffffffffffffffffffffffffffffffffff82169050919050565b5f61179d82611774565b9050919050565b6117ad81611793565b81146117b7575f80fd5b50565b5f813590506117c8816117a4565b92915050565b5f80604083850312156117e4576117e361170e565b5b5f6117f185828601611735565b9250506020611802858286016117ba565b9150509250929050565b5f8115159050919050565b6118208161180c565b82525050565b5f6020820190506118395f830184611817565b92915050565b61184881611793565b82525050565b5f81519050919050565b5f82825260208201905092915050565b5f5b8381101561188557808201518184015260208101905061186a565b5f8484015250505050565b5f601f19601f8301169050919050565b5f6118aa8261184e565b6118b48185611858565b93506118c4818560208601611868565b6118cd81611890565b840191505092915050565b6118e181611716565b82525050565b5f60ff82169050919050565b6118fc816118e7565b82525050565b5f61ffff82169050919050565b61191881611902565b82525050565b5f819050919050565b6119308161191e565b82525050565b5f6101608201905061194a5f83018e61183f565b818103602083015261195c818d6118a0565b905061196b604083018c6118d8565b611978606083018b6118d8565b611985608083018a611817565b61199260a0830189611817565b61199f60c08301886118f3565b6119ac60e08301876118f3565b6119ba61010083018661190f565b6119c86101208301856118d8565b6119d6610140830184611927565b9c9b505050505050505050505050565b5f6020820190506119f95f8301846118d8565b92915050565b5f819050919050565b5f611a22611a1d611a1884611774565b6119ff565b611774565b9050919050565b5f611a3382611a08565b9050919050565b5f611a4482611a29565b9050919050565b611a5481611a3a565b82525050565b5f602082019050611a6d5f830184611a4b565b92915050565b611a7c816118e7565b8114611a86575f80fd5b50565b5f81359050611a9781611a73565b92915050565b611aa681611902565b8114611ab0575f80fd5b50565b5f81359050611ac181611a9d565b92915050565b5f80fd5b5f80fd5b5f80fd5b5f8083601f840112611ae857611ae7611ac7565b5b8235905067ffffffffffffffff811115611b0557611b04611acb565b5b602083019150836020820283011115611b2157611b20611acf565b5b9250929050565b5f805f805f805f60c0888a031215611b4357611b4261170e565b5b5f611b508a828b01611735565b9750506020611b618a828b01611a89565b9650506040611b728a828b01611ab3565b9550506060611b838a828b01611735565b9450506080611b948a828b01611a89565b93505060a088013567ffffffffffffffff811115611bb557611bb4611712565b5b611bc18a828b01611ad3565b925092505092959891949750929550565b611bdb8161191e565b8114611be5575f80fd5b50565b5f81359050611bf681611bd2565b92915050565b5f60208284031215611c1157611c1061170e565b5b5f611c1e84828501611be8565b91505092915050565b5f61016082019050611c3b5f83018e61183f565b8181036020830152611c4d818d6118a0565b9050611c5c604083018c6118d8565b611c69606083018b6118d8565b611c76608083018a611817565b611c8360a08301896118f3565b611c9060c08301886118f3565b611c9d60e083018761190f565b611cab6101008301866118d8565b611cb9610120830185611817565b611cc7610140830184611927565b9c9b505050505050505050505050565b5f611ce182611a29565b9050919050565b611cf181611cd7565b82525050565b5f602082019050611d0a5f830184611ce8565b92915050565b5f8060408385031215611d2657611d2561170e565b5b5f611d3385828601611735565b9250506020611d4485828601611be8565b9150509250929050565b5f8083601f840112611d6357611d62611ac7565b5b8235905067ffffffffffffffff811115611d8057611d7f611acb565b5b602083019150836001820283011115611d9c57611d9b611acf565b5b9250929050565b5f805f8060608587031215611dbb57611dba61170e565b5b5f611dc8878288016117ba565b945050602085013567ffffffffffffffff811115611de957611de8611712565b5b611df587828801611d4e565b93509350506040611e0887828801611735565b91505092959194509250565b5f82825260208201905092915050565b7f4e6f7420796574206576616c75617465640000000000000000000000000000005f82015250565b5f611e58601183611e14565b9150611e6382611e24565b602082019050919050565b5f6020820190508181035f830152611e8581611e4c565b9050919050565b7f416c7265616479206578656375746564000000000000000000000000000000005f82015250565b5f611ec0601083611e14565b9150611ecb82611e8c565b602082019050919050565b5f6020820190508181035f830152611eed81611eb4565b9050919050565b7f416c726561647920617070726f766564000000000000000000000000000000005f82015250565b5f611f28601083611e14565b9150611f3382611ef4565b602082019050919050565b5f6020820190508181035f830152611f5581611f1c565b9050919050565b7f4e487b71000000000000000000000000000000000000000000000000000000005f52603260045260245ffd5b7f4e487b71000000000000000000000000000000000000000000000000000000005f52601160045260245ffd5b5f611fc082611716565b91507fffffffffffffffffffffffffffffffffffffffffffffffffffffffffffffffff8203611ff257611ff1611f89565b5b600182019050919050565b7f4e6f7420696e207265717569726564207369676e6572207365740000000000005f82015250565b5f612031601a83611e14565b915061203c82611ffd565b602082019050919050565b5f6020820190508181035f83015261205e81612025565b9050919050565b7f4e487b71000000000000000000000000000000000000000000000000000000005f52602260045260245ffd5b5f60028204905060018216806120a957607f821691505b6020821081036120bc576120bb612065565b5b50919050565b7f496e73756666696369656e7420617070726f76616c73000000000000000000005f82015250565b5f6120f6601683611e14565b9150612101826120c2565b602082019050919050565b5f6020820190508181035f830152612123816120ea565b9050919050565b5f81905092915050565b5f819050815f5260205f209050919050565b5f815461215281612092565b61215c818661212a565b9450600182165f8114612176576001811461218b576121bd565b60ff19831686528115158202860193506121bd565b61219485612134565b5f5b838110156121b557815481890152600182019150602081019050612196565b838801955050505b50505092915050565b5f6121d18284612146565b915081905092915050565b7f457865637574696f6e206661696c6564000000000000000000000000000000005f82015250565b5f612210601083611e14565b915061221b826121dc565b602082019050919050565b5f6020820190508181035f83015261223d81612204565b9050919050565b7f416c7265616479206576616c75617465640000000000000000000000000000005f82015250565b5f612278601183611e14565b915061228382612244565b602082019050919050565b5f6020820190508181035f8301526122a58161226c565b9050919050565b5f6060820190506122bf5f8301866118d8565b6122cc60208301856118d8565b6122d960408301846118d8565b949350505050565b6122ea8161191e565b82525050565b6122f981611716565b82525050565b5f81519050919050565b5f82825260208201905092915050565b5f612323826122ff565b61232d8185612309565b935061233d818560208601611868565b61234681611890565b840191505092915050565b61235a816118e7565b82525050565b61236981611902565b82525050565b5f61010083015f8301516123855f8601826122e1565b50602083015161239860208601826122f0565b50604083015184820360408601526123b08282612319565b91505060608301516123c56060860182612351565b5060808301516123d86080860182612360565b5060a08301516123eb60a0860182612351565b5060c08301516123fe60c0860182612351565b5060e083015161241160e08601826122f0565b508091505092915050565b5f6020820190508181035f830152612434818461236f565b905092915050565b7f496e737472756374696f6e20616c72656164792070726f6365737365640000005f82015250565b5f612470601d83611e14565b915061247b8261243c565b602082019050919050565b5f6020820190508181035f83015261249d81612464565b9050919050565b5f6080820190506124b75f8301876118d8565b6124c460208301866118d8565b6124d160408301856118d8565b6124de6060830184611927565b95945050505050565b5f6060820190506124fa5f8301866118d8565b61250760208301856118f3565b612514604083018461190f565b949350505050565b5f82905092915050565b7f4e487b71000000000000000000000000000000000000000000000000000000005f52604160045260245ffd5b5f6020601f8301049050919050565b5f82821b905092915050565b5f6008830261259d7fffffffffffffffffffffffffffffffffffffffffffffffffffffffffffffffff82612562565b6125a78683612562565b95508019841693508086168417925050509392505050565b5f6125d96125d46125cf84611716565b6119ff565b611716565b9050919050565b5f819050919050565b6125f2836125bf565b6126066125fe826125e0565b84845461256e565b825550505050565b5f90565b61261a61260e565b6126258184846125e9565b505050565b5b818110156126485761263d5f82612612565b60018101905061262b565b5050565b601f82111561268d5761265e81612134565b61266784612553565b81016020851015612676578190505b61268a61268285612553565b83018261262a565b50505b505050565b5f82821c905092915050565b5f6126ad5f1984600802612692565b1980831691505092915050565b5f6126c5838361269e565b9150826002028217905092915050565b6126df838361251c565b67ffffffffffffffff8111156126f8576126f7612526565b5b6127028254612092565b61270d82828561264c565b5f601f83116001811461273a575f8415612728578287013590505b61273285826126ba565b865550612799565b601f19841661274886612134565b5f5b8281101561276f5784890135825560018201915060208501945060208101905061274a565b8683101561278c5784890135612788601f89168261269e565b8355505b6001600288020188555050505b50505050505050565b5f6020820190506127b55f830184611927565b92915050565b5f80fd5b6127c882611890565b810181811067ffffffffffffffff821117156127e7576127e6612526565b5b80604052505050565b5f6127f9611705565b905061280582826127bf565b919050565b5f80fd5b5f8151905061281c81611bd2565b92915050565b5f8151905061283081611a73565b92915050565b5f80fd5b5f67ffffffffffffffff82111561285457612853612526565b5b61285d82611890565b9050602081019050919050565b5f61287c6128778461283a565b6127f0565b90508281526020810184848401111561289857612897612836565b5b6128a3848285611868565b509392505050565b5f82601f8301126128bf576128be611ac7565b5b81516128cf84826020860161286a565b91505092915050565b5f67ffffffffffffffff8211156128f2576128f1612526565b5b6128fb82611890565b9050602081019050919050565b5f61291a612915846128d8565b6127f0565b90508281526020810184848401111561293657612935612836565b5b612941848285611868565b509392505050565b5f82601f83011261295d5761295c611ac7565b5b815161296d848260208601612908565b91505092915050565b5f610120828403121561298c5761298b6127bb565b5b6129976101206127f0565b90505f6129a68482850161280e565b5f8301525060206129b984828501612822565b60208301525060406129cd84828501612822565b604083015250606082015167ffffffffffffffff8111156129f1576129f061280a565b5b6129fd848285016128ab565b6060830152506080612a118482850161280e565b60808301525060a0612a258482850161280e565b60a08301525060c082015167ffffffffffffffff811115612a4957612a4861280a565b5b612a5584828501612949565b60c08301525060e082015167ffffffffffffffff811115612a7957612a7861280a565b5b612a85848285016128ab565b60e08301525061010082015167ffffffffffffffff811115612aaa57612aa961280a565b5b612ab684828501612949565b6101008301525092915050565b5f60208284031215612ad857612ad761170e565b5b5f82015167ffffffffffffffff811115612af557612af4611712565b5b612b0184828501612976565b91505092915050565b5f604082019050612b1d5f830185611927565b612b2a6020830184611927565b9392505050565b5f81519050612b3f8161171f565b92915050565b5f67ffffffffffffffff821115612b5f57612b5e612526565b5b602082029050602081019050919050565b5f81519050612b7e816117a4565b92915050565b5f612b96612b9184612b45565b6127f0565b90508083825260208201905060208402830185811115612bb957612bb8611acf565b5b835b81811015612be25780612bce8882612b70565b845260208401935050602081019050612bbb565b5050509392505050565b5f82601f830112612c0057612bff611ac7565b5b8151612c10848260208601612b84565b91505092915050565b5f81519050612c2781611a9d565b92915050565b5f805f805f805f805f6101208a8c031215612c4b57612c4a61170e565b5b5f612c588c828d01612b31565b99505060208a015167ffffffffffffffff811115612c7957612c78611712565b5b612c858c828d016128ab565b9850506040612c968c828d01612822565b9750506060612ca78c828d01612822565b9650506080612cb88c828d01612822565b95505060a08a015167ffffffffffffffff811115612cd957612cd8611712565b5b612ce58c828d01612bec565b94505060c0612cf68c828d01612c19565b93505060e0612d078c828d01612822565b925050610100612d198c828d01612b31565b915050929598509295985092959856fea2646970667358221220282a1f5e4b40c09b7c6e859e626d3147e5125f8f5624ca4528e4d1cfd125f42064736f6c63430008140033","linkReferences":{}},"methodIdentifiers":{"approvalCount(uint256)":"40ad01ea","approveTx(uint256)":"1087393a","auditLog()":"5a2d6ebd","executeTx(uint256)":"54b5fe80","getTransaction(uint256)":"33ea3dc8","hasApproved(uint256,address)":"2358d5a8","processedInstructions(bytes32)":"89e6b164","submitEvaluation(uint256,uint8,uint16,uint256,uint8,address[])":"891879a8","submitEvaluationAttested(uint256,bytes32)":"a9bda34d","submitTransaction(address,bytes,uint256)":"e05afb68","teeExtensionRegistry()":"a435d58a","transactions(uint256)":"9ace38c2","txCount()":"3c540687"},"id":23}