{"abi":[{"type":"constructor","inputs":[{"name":"_auditLog","type":"address","internalType":"address"}],"stateMutability":"nonpayable"},{"type":"receive","stateMutability":"payable"},{"type":"function","name":"approvalCount","inputs":[{"name":"","type":"uint256","internalType":"uint256"}],"outputs":[{"name":"","type":"uint256","internalType":"uint256"}],"stateMutability":"view"},{"type":"function","name":"approveTx","inputs":[{"name":"_txId","type":"uint256","internalType":"uint256"}],"outputs":[],"stateMutability":"nonpayable"},{"type":"function","name":"auditLog","inputs":[],"outputs":[{"name":"","type":"address","internalType":"contract AuditLog"}],"stateMutability":"view"},{"type":"function","name":"executeTx","inputs":[{"name":"_txId","type":"uint256","internalType":"uint256"}],"outputs":[],"stateMutability":"nonpayable"},{"type":"function","name":"getTransaction","inputs":[{"name":"_txId","type":"uint256","internalType":"uint256"}],"outputs":[{"name":"target","type":"address","internalType":"address"},{"name":"data","type":"bytes","internalType":"bytes"},{"name":"value","type":"uint256","internalType":"uint256"},{"name":"nonce","type":"uint256","internalType":"uint256"},{"name":"executed","type":"bool","internalType":"bool"},{"name":"evaluated","type":"bool","internalType":"bool"},{"name":"requiredSigners","type":"uint8","internalType":"uint8"},{"name":"riskScore","type":"uint8","internalType":"uint8"},{"name":"checkResults","type":"uint16","internalType":"uint16"},{"name":"matchedPolicyId","type":"uint256","internalType":"uint256"}],"stateMutability":"view"},{"type":"function","name":"hasApproved","inputs":[{"name":"","type":"uint256","internalType":"uint256"},{"name":"","type":"address","internalType":"address"}],"outputs":[{"name":"","type":"bool","internalType":"bool"}],"stateMutability":"view"},{"type":"function","name":"submitEvaluation","inputs":[{"name":"_txId","type":"uint256","internalType":"uint256"},{"name":"_matchedPolicyId","type":"uint256","internalType":"uint256"},{"name":"_riskScore","type":"uint8","internalType":"uint8"},{"name":"_requiredSigners","type":"uint8","internalType":"uint8"},{"name":"_signers","type":"address[]","internalType":"address[]"},{"name":"_checkResults","type":"uint16","internalType":"uint16"}],"outputs":[],"stateMutability":"nonpayable"},{"type":"function","name":"submitTransaction","inputs":[{"name":"_target","type":"address","internalType":"address"},{"name":"_data","type":"bytes","internalType":"bytes"},{"name":"_nonce","type":"uint256","internalType":"uint256"}],"outputs":[{"name":"","type":"uint256","internalType":"uint256"}],"stateMutability":"payable"},{"type":"function","name":"transactions","inputs":[{"name":"","type":"uint256","internalType":"uint256"}],"outputs":[{"name":"target","type":"address","internalType":"address"},{"name":"data","type":"bytes","internalType":"bytes"},{"name":"value","type":"uint256","internalType":"uint256"},{"name":"nonce","type":"uint256","internalType":"uint256"},{"name":"executed","type":"bool","internalType":"bool"},{"name":"requiredSigners","type":"uint8","internalType":"uint8"},{"name":"riskScore","type":"uint8","internalType":"uint8"},{"name":"checkResults","type":"uint16","internalType":"uint16"},{"name":"matchedPolicyId","type":"uint256","internalType":"uint256"},{"name":"evaluated","type":"bool","internalType":"bool"}],"stateMutability":"view"},{"type":"function","name":"txCount","inputs":[],"outputs":[{"name":"","type":"uint256","internalType":"uint256"}],"stateMutability":"view"}],"bytecode":{"object":"0x608060405234801562000010575f80fd5b5060405162001e4a38038062001e4a8339818101604052810190620000369190620000e1565b805f806101000a81548173ffffffffffffffffffffffffffffffffffffffff021916908373ffffffffffffffffffffffffffffffffffffffff1602179055505062000111565b5f80fd5b5f73ffffffffffffffffffffffffffffffffffffffff82169050919050565b5f620000ab8262000080565b9050919050565b620000bd816200009f565b8114620000c8575f80fd5b50565b5f81519050620000db81620000b2565b92915050565b5f60208284031215620000f957620000f86200007c565b5b5f6200010884828501620000cb565b91505092915050565b611d2b806200011f5f395ff3fe608060405260043610610094575f3560e01c806354b5fe801161005857806354b5fe80146101ae5780635a2d6ebd146101d65780639ace38c214610200578063e05afb6814610245578063ffb3a6b0146102755761009b565b80631087393a1461009f5780632358d5a8146100c757806333ea3dc8146101035780633c5406871461014857806340ad01ea146101725761009b565b3661009b57005b5f80fd5b3480156100aa575f80fd5b506100c560048036038101906100c09190610e4f565b61029d565b005b3480156100d2575f80fd5b506100ed60048036038101906100e89190610ed4565b610559565b6040516100fa9190610f2c565b60405180910390f35b34801561010e575f80fd5b5061012960048036038101906101249190610e4f565b610583565b60405161013f9a99989796959493929190611024565b60405180910390f35b348015610153575f80fd5b5061015c6106dc565b60405161016991906110c5565b60405180910390f35b34801561017d575f80fd5b5061019860048036038101906101939190610e4f565b6106e2565b6040516101a591906110c5565b60405180910390f35b3480156101b9575f80fd5b506101d460048036038101906101cf9190610e4f565b6106f7565b005b3480156101e1575f80fd5b506101ea610908565b6040516101f79190611139565b60405180910390f35b34801561020b575f80fd5b5061022660048036038101906102219190610e4f565b61092b565b60405161023c9a99989796959493929190611152565b60405180910390f35b61025f600480360381019061025a9190611254565b610a5f565b60405161026c91906110c5565b60405180910390f35b348015610280575f80fd5b5061029b6004803603810190610296919061136e565b610b01565b005b5f60025f8381526020019081526020015f209050806008015f9054906101000a900460ff16610301576040517f08c379a00000000000000000000000000000000000000000000000000000000081526004016102f890611472565b60405180910390fd5b806004015f9054906101000a900460ff1615610352576040517f08c379a0000000000000000000000000000000000000000000000000000000008152600401610349906114da565b60405180910390fd5b60035f8381526020019081526020015f205f3373ffffffffffffffffffffffffffffffffffffffff1673ffffffffffffffffffffffffffffffffffffffff1681526020019081526020015f205f9054906101000a900460ff16156103eb576040517f08c379a00000000000000000000000000000000000000000000000000000000081526004016103e290611542565b60405180910390fd5b5f805b8260050180549050811015610489573373ffffffffffffffffffffffffffffffffffffffff1683600501828154811061042a57610429611560565b5b905f5260205f20015f9054906101000a900473ffffffffffffffffffffffffffffffffffffffff1673ffffffffffffffffffffffffffffffffffffffff16036104765760019150610489565b8080610481906115ba565b9150506103ee565b50806104ca576040517f08c379a00000000000000000000000000000000000000000000000000000000081526004016104c190611671565b60405180910390fd5b600160035f8581526020019081526020015f205f3373ffffffffffffffffffffffffffffffffffffffff1673ffffffffffffffffffffffffffffffffffffffff1681526020019081526020015f205f6101000a81548160ff02191690831515021790555060045f8481526020019081526020015f205f81548092919061054f906115ba565b9190505550505050565b6003602052815f5260405f20602052805f5260405f205f915091509054906101000a900460ff1681565b5f60605f805f805f805f805f60025f8d81526020019081526020015f209050805f015f9054906101000a900473ffffffffffffffffffffffffffffffffffffffff168160010182600201548360030154846004015f9054906101000a900460ff16856008015f9054906101000a900460ff168660040160019054906101000a900460ff16876006015f9054906101000a900460ff168860060160019054906101000a900461ffff16896007015488805461063c906116bc565b80601f0160208091040260200160405190810160405280929190818152602001828054610668906116bc565b80156106b35780601f1061068a576101008083540402835291602001916106b3565b820191905f5260205f20905b81548152906001019060200180831161069657829003601f168201915b505050505098509a509a509a509a509a509a509a509a509a509a50509193959799509193959799565b60015481565b6004602052805f5260405f205f915090505481565b5f60025f8381526020019081526020015f209050806008015f9054906101000a900460ff1661075b576040517f08c379a000000000000000000000000000000000000000000000000000000000815260040161075290611472565b60405180910390fd5b806004015f9054906101000a900460ff16156107ac576040517f08c379a00000000000000000000000000000000000000000000000000000000081526004016107a3906114da565b60405180910390fd5b8060040160019054906101000a900460ff1660ff1660045f8481526020019081526020015f20541015610814576040517f08c379a000000000000000000000000000000000000000000000000000000000815260040161080b90611736565b60405180910390fd5b6001816004015f6101000a81548160ff0219169083151502179055505f815f015f9054906101000a900473ffffffffffffffffffffffffffffffffffffffff1673ffffffffffffffffffffffffffffffffffffffff1682600201548360010160405161088091906117f0565b5f6040518083038185875af1925050503d805f81146108ba576040519150601f19603f3d011682016040523d82523d5f602084013e6108bf565b606091505b5050905080610903576040517f08c379a00000000000000000000000000000000000000000000000000000000081526004016108fa90611850565b60405180910390fd5b505050565b5f8054906101000a900473ffffffffffffffffffffffffffffffffffffffff1681565b6002602052805f5260405f205f91509050805f015f9054906101000a900473ffffffffffffffffffffffffffffffffffffffff169080600101805461096f906116bc565b80601f016020809104026020016040519081016040528092919081815260200182805461099b906116bc565b80156109e65780601f106109bd576101008083540402835291602001916109e6565b820191905f5260205f20905b8154815290600101906020018083116109c957829003601f168201915b505050505090806002015490806003015490806004015f9054906101000a900460ff16908060040160019054906101000a900460ff1690806006015f9054906101000a900460ff16908060060160019054906101000a900461ffff1690806007015490806008015f9054906101000a900460ff1690508a565b5f8060015f815480929190610a73906115ba565b9190505590505f60025f8381526020019081526020015f20905086815f015f6101000a81548173ffffffffffffffffffffffffffffffffffffffff021916908373ffffffffffffffffffffffffffffffffffffffff1602179055508585826001019182610ae1929190611a27565b503481600201819055508381600301819055508192505050949350505050565b5f60025f8981526020019081526020015f209050806008015f9054906101000a900460ff1615610b66576040517f08c379a0000000000000000000000000000000000000000000000000000000008152600401610b5d90611b3e565b60405180910390fd5b806004015f9054906101000a900460ff1615610bb7576040517f08c379a0000000000000000000000000000000000000000000000000000000008152600401610bae906114da565b60405180910390fd5b6001816008015f6101000a81548160ff021916908315150217905550848160040160016101000a81548160ff021916908360ff1602179055508383826005019190610c03929190610d5c565b5085816006015f6101000a81548160ff021916908360ff160217905550818160060160016101000a81548161ffff021916908361ffff1602179055508681600701819055505f8054906101000a900473ffffffffffffffffffffffffffffffffffffffff1673ffffffffffffffffffffffffffffffffffffffff16638c300f4e60405180610100016040528084600301548b42604051602001610ca893929190611b5c565b6040516020818303038152906040528051906020012081526020018a815260200160405180602001604052805f81525081526020018960ff1681526020018561ffff1681526020018860ff1681526020018787905060ff168152602001428152506040518263ffffffff1660e01b8152600401610d259190611cd5565b5f604051808303815f87803b158015610d3c575f80fd5b505af1158015610d4e573d5f803e3d5ffd5b505050505050505050505050565b828054828255905f5260205f20908101928215610de8579160200282015b82811115610de757823573ffffffffffffffffffffffffffffffffffffffff16825f6101000a81548173ffffffffffffffffffffffffffffffffffffffff021916908373ffffffffffffffffffffffffffffffffffffffff16021790555091602001919060010190610d7a565b5b509050610df59190610df9565b5090565b5b80821115610e10575f815f905550600101610dfa565b5090565b5f80fd5b5f80fd5b5f819050919050565b610e2e81610e1c565b8114610e38575f80fd5b50565b5f81359050610e4981610e25565b92915050565b5f60208284031215610e6457610e63610e14565b5b5f610e7184828501610e3b565b91505092915050565b5f73ffffffffffffffffffffffffffffffffffffffff82169050919050565b5f610ea382610e7a565b9050919050565b610eb381610e99565b8114610ebd575f80fd5b50565b5f81359050610ece81610eaa565b92915050565b5f8060408385031215610eea57610ee9610e14565b5b5f610ef785828601610e3b565b9250506020610f0885828601610ec0565b9150509250929050565b5f8115159050919050565b610f2681610f12565b82525050565b5f602082019050610f3f5f830184610f1d565b92915050565b610f4e81610e99565b82525050565b5f81519050919050565b5f82825260208201905092915050565b5f5b83811015610f8b578082015181840152602081019050610f70565b5f8484015250505050565b5f601f19601f8301169050919050565b5f610fb082610f54565b610fba8185610f5e565b9350610fca818560208601610f6e565b610fd381610f96565b840191505092915050565b610fe781610e1c565b82525050565b5f60ff82169050919050565b61100281610fed565b82525050565b5f61ffff82169050919050565b61101e81611008565b82525050565b5f610140820190506110385f83018d610f45565b818103602083015261104a818c610fa6565b9050611059604083018b610fde565b611066606083018a610fde565b6110736080830189610f1d565b61108060a0830188610f1d565b61108d60c0830187610ff9565b61109a60e0830186610ff9565b6110a8610100830185611015565b6110b6610120830184610fde565b9b9a5050505050505050505050565b5f6020820190506110d85f830184610fde565b92915050565b5f819050919050565b5f6111016110fc6110f784610e7a565b6110de565b610e7a565b9050919050565b5f611112826110e7565b9050919050565b5f61112382611108565b9050919050565b61113381611119565b82525050565b5f60208201905061114c5f83018461112a565b92915050565b5f610140820190506111665f83018d610f45565b8181036020830152611178818c610fa6565b9050611187604083018b610fde565b611194606083018a610fde565b6111a16080830189610f1d565b6111ae60a0830188610ff9565b6111bb60c0830187610ff9565b6111c860e0830186611015565b6111d6610100830185610fde565b6111e4610120830184610f1d565b9b9a5050505050505050505050565b5f80fd5b5f80fd5b5f80fd5b5f8083601f840112611214576112136111f3565b5b8235905067ffffffffffffffff811115611231576112306111f7565b5b60208301915083600182028301111561124d5761124c6111fb565b5b9250929050565b5f805f806060858703121561126c5761126b610e14565b5b5f61127987828801610ec0565b945050602085013567ffffffffffffffff81111561129a57611299610e18565b5b6112a6878288016111ff565b935093505060406112b987828801610e3b565b91505092959194509250565b6112ce81610fed565b81146112d8575f80fd5b50565b5f813590506112e9816112c5565b92915050565b5f8083601f840112611304576113036111f3565b5b8235905067ffffffffffffffff811115611321576113206111f7565b5b60208301915083602082028301111561133d5761133c6111fb565b5b9250929050565b61134d81611008565b8114611357575f80fd5b50565b5f8135905061136881611344565b92915050565b5f805f805f805f60c0888a03121561138957611388610e14565b5b5f6113968a828b01610e3b565b97505060206113a78a828b01610e3b565b96505060406113b88a828b016112db565b95505060606113c98a828b016112db565b945050608088013567ffffffffffffffff8111156113ea576113e9610e18565b5b6113f68a828b016112ef565b935093505060a06114098a828b0161135a565b91505092959891949750929550565b5f82825260208201905092915050565b7f4e6f7420796574206576616c75617465642062792054454500000000000000005f82015250565b5f61145c601883611418565b915061146782611428565b602082019050919050565b5f6020820190508181035f83015261148981611450565b9050919050565b7f416c7265616479206578656375746564000000000000000000000000000000005f82015250565b5f6114c4601083611418565b91506114cf82611490565b602082019050919050565b5f6020820190508181035f8301526114f1816114b8565b9050919050565b7f416c726561647920617070726f766564000000000000000000000000000000005f82015250565b5f61152c601083611418565b9150611537826114f8565b602082019050919050565b5f6020820190508181035f83015261155981611520565b9050919050565b7f4e487b71000000000000000000000000000000000000000000000000000000005f52603260045260245ffd5b7f4e487b71000000000000000000000000000000000000000000000000000000005f52601160045260245ffd5b5f6115c482610e1c565b91507fffffffffffffffffffffffffffffffffffffffffffffffffffffffffffffffff82036115f6576115f561158d565b5b600182019050919050565b7f4e6f7420696e207265717569726564207369676e65722073657420666f7220745f8201527f686973207472616e73616374696f6e0000000000000000000000000000000000602082015250565b5f61165b602f83611418565b915061166682611601565b604082019050919050565b5f6020820190508181035f8301526116888161164f565b9050919050565b7f4e487b71000000000000000000000000000000000000000000000000000000005f52602260045260245ffd5b5f60028204905060018216806116d357607f821691505b6020821081036116e6576116e561168f565b5b50919050565b7f496e73756666696369656e7420617070726f76616c73000000000000000000005f82015250565b5f611720601683611418565b915061172b826116ec565b602082019050919050565b5f6020820190508181035f83015261174d81611714565b9050919050565b5f81905092915050565b5f819050815f5260205f209050919050565b5f815461177c816116bc565b6117868186611754565b9450600182165f81146117a057600181146117b5576117e7565b60ff19831686528115158202860193506117e7565b6117be8561175e565b5f5b838110156117df578154818901526001820191506020810190506117c0565b838801955050505b50505092915050565b5f6117fb8284611770565b915081905092915050565b7f457865637574696f6e206661696c6564000000000000000000000000000000005f82015250565b5f61183a601083611418565b915061184582611806565b602082019050919050565b5f6020820190508181035f8301526118678161182e565b9050919050565b5f82905092915050565b7f4e487b71000000000000000000000000000000000000000000000000000000005f52604160045260245ffd5b5f6020601f8301049050919050565b5f82821b905092915050565b5f600883026118ef7fffffffffffffffffffffffffffffffffffffffffffffffffffffffffffffffff826118b4565b6118f986836118b4565b95508019841693508086168417925050509392505050565b5f61192b61192661192184610e1c565b6110de565b610e1c565b9050919050565b5f819050919050565b61194483611911565b61195861195082611932565b8484546118c0565b825550505050565b5f90565b61196c611960565b61197781848461193b565b505050565b5b8181101561199a5761198f5f82611964565b60018101905061197d565b5050565b601f8211156119df576119b08161175e565b6119b9846118a5565b810160208510156119c8578190505b6119dc6119d4856118a5565b83018261197c565b50505b505050565b5f82821c905092915050565b5f6119ff5f19846008026119e4565b1980831691505092915050565b5f611a1783836119f0565b9150826002028217905092915050565b611a31838361186e565b67ffffffffffffffff811115611a4a57611a49611878565b5b611a5482546116bc565b611a5f82828561199e565b5f601f831160018114611a8c575f8415611a7a578287013590505b611a848582611a0c565b865550611aeb565b601f198416611a9a8661175e565b5f5b82811015611ac157848901358255600182019150602085019450602081019050611a9c565b86831015611ade5784890135611ada601f8916826119f0565b8355505b6001600288020188555050505b50505050505050565b7f416c7265616479206576616c75617465640000000000000000000000000000005f82015250565b5f611b28601183611418565b9150611b3382611af4565b602082019050919050565b5f6020820190508181035f830152611b5581611b1c565b9050919050565b5f606082019050611b6f5f830186610fde565b611b7c6020830185610fde565b611b896040830184610fde565b949350505050565b5f819050919050565b611ba381611b91565b82525050565b611bb281610e1c565b82525050565b5f81519050919050565b5f82825260208201905092915050565b5f611bdc82611bb8565b611be68185611bc2565b9350611bf6818560208601610f6e565b611bff81610f96565b840191505092915050565b611c1381610fed565b82525050565b611c2281611008565b82525050565b5f61010083015f830151611c3e5f860182611b9a565b506020830151611c516020860182611ba9565b5060408301518482036040860152611c698282611bd2565b9150506060830151611c7e6060860182611c0a565b506080830151611c916080860182611c19565b5060a0830151611ca460a0860182611c0a565b5060c0830151611cb760c0860182611c0a565b5060e0830151611cca60e0860182611ba9565b508091505092915050565b5f6020820190508181035f830152611ced8184611c28565b90509291505056fea2646970667358221220ee91a1114a9194bfaa438782b0a00faaa7331f0c1ecbc3c74ac2630b3afe216464736f6c63430008140033","linkReferences":{}},"methodIdentifiers":{"approvalCount(uint256)":"40ad01ea","approveTx(uint256)":"1087393a","auditLog()":"5a2d6ebd","executeTx(uint256)":"54b5fe80","getTransaction(uint256)":"33ea3dc8","hasApproved(uint256,address)":"2358d5a8","submitEvaluation(uint256,uint256,uint8,uint8,address[],uint16)":"ffb3a6b0","submitTransaction(address,bytes,uint256)":"e05afb68","transactions(uint256)":"9ace38c2","txCount()":"3c540687"},"id":22}