{"abi":[{"type":"constructor","inputs":[],"stateMutability":"nonpayable"},{"type":"receive","stateMutability":"payable"},{"type":"function","name":"approvalCount","inputs":[{"name":"","type":"uint256","internalType":"uint256"}],"outputs":[{"name":"","type":"uint256","internalType":"uint256"}],"stateMutability":"view"},{"type":"function","name":"approveTx","inputs":[{"name":"_txId","type":"uint256","internalType":"uint256"}],"outputs":[],"stateMutability":"nonpayable"},{"type":"function","name":"auditLog","inputs":[],"outputs":[{"name":"","type":"address","internalType":"contract AuditLog"}],"stateMutability":"view"},{"type":"function","name":"executeTx","inputs":[{"name":"_txId","type":"uint256","internalType":"uint256"}],"outputs":[],"stateMutability":"nonpayable"},{"type":"function","name":"getTransaction","inputs":[{"name":"_txId","type":"uint256","internalType":"uint256"}],"outputs":[{"name":"target","type":"address","internalType":"address"},{"name":"data","type":"bytes","internalType":"bytes"},{"name":"value","type":"uint256","internalType":"uint256"},{"name":"nonce","type":"uint256","internalType":"uint256"},{"name":"executed","type":"bool","internalType":"bool"},{"name":"evaluated","type":"bool","internalType":"bool"},{"name":"requiredSigners","type":"uint8","internalType":"uint8"},{"name":"riskScore","type":"uint8","internalType":"uint8"},{"name":"checkResults","type":"uint16","internalType":"uint16"},{"name":"matchedPolicyId","type":"uint256","internalType":"uint256"},{"name":"instructionId","type":"bytes32","internalType":"bytes32"}],"stateMutability":"view"},{"type":"function","name":"governance","inputs":[],"outputs":[{"name":"","type":"address","internalType":"address"}],"stateMutability":"view"},{"type":"function","name":"hasApproved","inputs":[{"name":"","type":"uint256","internalType":"uint256"},{"name":"","type":"address","internalType":"address"}],"outputs":[{"name":"","type":"bool","internalType":"bool"}],"stateMutability":"view"},{"type":"function","name":"initialize","inputs":[{"name":"_auditLog","type":"address","internalType":"address"},{"name":"_teeExtensionRegistry","type":"address","internalType":"address"},{"name":"_governance","type":"address","internalType":"address"}],"outputs":[],"stateMutability":"nonpayable"},{"type":"function","name":"processedInstructions","inputs":[{"name":"","type":"bytes32","internalType":"bytes32"}],"outputs":[{"name":"","type":"bool","internalType":"bool"}],"stateMutability":"view"},{"type":"function","name":"submitEvaluation","inputs":[{"name":"_txId","type":"uint256","internalType":"uint256"},{"name":"_riskScore","type":"uint8","internalType":"uint8"},{"name":"_checkResults","type":"uint16","internalType":"uint16"},{"name":"_matchedPolicyId","type":"uint256","internalType":"uint256"},{"name":"_requiredSigners","type":"uint8","internalType":"uint8"},{"name":"_signers","type":"address[]","internalType":"address[]"}],"outputs":[],"stateMutability":"nonpayable"},{"type":"function","name":"submitEvaluationAttested","inputs":[{"name":"_txId","type":"uint256","internalType":"uint256"},{"name":"_instructionId","type":"bytes32","internalType":"bytes32"}],"outputs":[],"stateMutability":"nonpayable"},{"type":"function","name":"submitTransaction","inputs":[{"name":"_target","type":"address","internalType":"address"},{"name":"_data","type":"bytes","internalType":"bytes"},{"name":"_nonce","type":"uint256","internalType":"uint256"}],"outputs":[{"name":"","type":"uint256","internalType":"uint256"}],"stateMutability":"payable"},{"type":"function","name":"teeExtensionRegistry","inputs":[],"outputs":[{"name":"","type":"address","internalType":"contract ITeeExtensionRegistry"}],"stateMutability":"view"},{"type":"function","name":"transactions","inputs":[{"name":"","type":"uint256","internalType":"uint256"}],"outputs":[{"name":"target","type":"address","internalType":"address"},{"name":"data","type":"bytes","internalType":"bytes"},{"name":"value","type":"uint256","internalType":"uint256"},{"name":"nonce","type":"uint256","internalType":"uint256"},{"name":"executed","type":"bool","internalType":"bool"},{"name":"requiredSigners","type":"uint8","internalType":"uint8"},{"name":"riskScore","type":"uint8","internalType":"uint8"},{"name":"checkResults","type":"uint16","internalType":"uint16"},{"name":"matchedPolicyId","type":"uint256","internalType":"uint256"},{"name":"evaluated","type":"bool","internalType":"bool"},{"name":"instructionId","type":"bytes32","internalType":"bytes32"}],"stateMutability":"view"},{"type":"function","name":"txCount","inputs":[],"outputs":[{"name":"","type":"uint256","internalType":"uint256"}],"stateMutability":"view"},{"type":"event","name":"EvaluationAttested","inputs":[{"name":"txId","type":"uint256","indexed":true,"internalType":"uint256"},{"name":"instructionId","type":"bytes32","indexed":true,"internalType":"bytes32"},{"name":"matchedPolicyId","type":"uint256","indexed":false,"internalType":"uint256"},{"name":"riskScore","type":"uint8","indexed":false,"internalType":"uint8"},{"name":"checkResults","type":"uint16","indexed":false,"internalType":"uint16"}],"anonymous":false},{"type":"event","name":"TransactionSubmitted","inputs":[{"name":"txId","type":"uint256","indexed":true,"internalType":"uint256"},{"name":"target","type":"address","indexed":true,"internalType":"address"},{"name":"nonce","type":"uint256","indexed":false,"internalType":"uint256"}],"anonymous":false},{"type":"event","name":"TxApproved","inputs":[{"name":"txId","type":"uint256","indexed":true,"internalType":"uint256"},{"name":"signer","type":"address","indexed":true,"internalType":"address"}],"anonymous":false},{"type":"event","name":"TxExecuted","inputs":[{"name":"txId","type":"uint256","indexed":true,"internalType":"uint256"}],"anonymous":false},{"type":"error","name":"InvalidInstructionId","inputs":[]},{"type":"error","name":"ResultNotReady","inputs":[]},{"type":"error","name":"ResultProcessingFailed","inputs":[]},{"type":"error","name":"WrongOPType","inputs":[{"name":"expected","type":"bytes32","internalType":"bytes32"},{"name":"actual","type":"bytes32","internalType":"bytes32"}]}],"bytecode":{"object":"0x608060405234601c57600e6020565b6132ae61002b82396132ae90f35b6026565b60405190565b5f80fdfe60806040526004361015610015575b36610f2a57005b61001f5f3561010e565b80631087393a146101095780632358d5a81461010457806333ea3dc8146100ff5780633c540687146100fa57806340ad01ea146100f557806354b5fe80146100f05780635a2d6ebd146100eb5780635aa6e675146100e6578063891879a8146100e157806389e6b164146100dc5780639ace38c2146100d7578063a435d58a146100d2578063a9bda34d146100cd578063c0c53b8b146100c85763e05afb680361000e57610efb565b610e35565b610dc7565b610d65565b610cb5565b6108dd565b610827565b6106e5565b61065b565b6105ba565b610585565b610521565b610483565b610300565b61016f565b60e01c90565b60405190565b5f80fd5b5f80fd5b5f80fd5b90565b61013281610126565b0361013957565b5f80fd5b9050359061014a82610129565b565b9060208282031261016557610162915f0161013d565b90565b61011e565b5f0190565b3461019d5761018761018236600461014c565b61126c565b61018f610114565b806101998161016a565b0390f35b61011a565b60018060a01b031690565b6101b6906101a2565b90565b6101c2816101ad565b036101c957565b5f80fd5b905035906101da826101b9565b565b919060408382031261020457806101f8610201925f860161013d565b936020016101cd565b90565b61011e565b90565b61022061021b61022592610126565b610209565b610126565b90565b906102329061020c565b5f5260205260405f2090565b61025261024d610257926101a2565b610209565b6101a2565b90565b6102639061023e565b90565b61026f9061025a565b90565b9061027c90610266565b5f5260205260405f2090565b1c90565b60ff1690565b6102a29060086102a79302610288565b61028c565b90565b906102b59154610292565b90565b6102d16102d6926102cc6005935f94610228565b610272565b6102aa565b90565b151590565b6102e7906102d9565b9052565b91906102fe905f602085019401906102de565b565b346103315761032d61031c6103163660046101dc565b906102b8565b610324610114565b918291826102eb565b0390f35b61011a565b61033f906101ad565b9052565b5190565b60209181520190565b90825f9392825e0152565b601f801991011690565b61038461038d6020936103929361037b81610343565b93848093610347565b95869101610350565b61035b565b0190565b61039f90610126565b9052565b60ff1690565b6103b2906103a3565b9052565b61ffff1690565b6103c6906103b6565b9052565b90565b6103d6906103ca565b9052565b989694929b9a9997959391906101608a01905f8b016103f891610336565b89810360208b015261040991610365565b9a6040890161041791610396565b6060880161042491610396565b60808701610431916102de565b60a0860161043e916102de565b60c0850161044b916103a9565b60e08401610458916103a9565b6101008301610466916103bd565b610120820161047491610396565b61014001610481916103cd565b565b346104c0576104bc61049e61049936600461014c565b611423565b976104b39b999b979197969296959395610114565b9b8c9b8c6103da565b0390f35b61011a565b5f9103126104cf57565b61011e565b90565b6104e79060086104ec9302610288565b6104d4565b90565b906104fa91546104d7565b90565b61050960035f906104ef565b90565b919061051f905f60208501940190610396565b565b34610551576105313660046104c5565b61054d61053c6104fd565b610544610114565b9182918261050c565b0390f35b61011a565b906105609061020c565b5f5260205260405f2090565b6105829061057d6006915f92610556565b6104ef565b90565b346105b5576105b16105a061059b36600461014c565b61056c565b6105a8610114565b9182918261050c565b0390f35b61011a565b346105e8576105d26105cd36600461014c565b611763565b6105da610114565b806105e48161016a565b0390f35b61011a565b60018060a01b031690565b61060890600861060d9302610288565b6105ed565b90565b9061061b91546105f8565b90565b61062a5f600290610610565b90565b6106369061025a565b90565b6106429061062d565b9052565b9190610659905f60208501940190610639565b565b3461068b5761066b3660046104c5565b61068761067661061e565b61067e610114565b91829182610646565b0390f35b61011a565b60018060a01b031690565b6106ab9060086106b09302610288565b610690565b90565b906106be915461069b565b90565b6106cd60025f906106b3565b90565b91906106e3905f60208501940190610336565b565b34610715576106f53660046104c5565b6107116107006106c1565b610708610114565b918291826106d0565b0390f35b61011a565b610723816103a3565b0361072a57565b5f80fd5b9050359061073b8261071a565b565b610746816103b6565b0361074d57565b5f80fd5b9050359061075e8261073d565b565b5f80fd5b5f80fd5b5f80fd5b909182601f830112156107a65781359167ffffffffffffffff83116107a157602001926020830284011161079c57565b610768565b610764565b610760565b9160c083830312610822576107c2825f850161013d565b926107d0836020830161072e565b926107de8160408401610751565b926107ec826060850161013d565b926107fa836080830161072e565b9260a082013567ffffffffffffffff811161081d57610819920161076c565b9091565b610122565b61011e565b3461085c5761084661083a3660046107ab565b95949094939193611dc0565b61084e610114565b806108588161016a565b0390f35b61011a565b61086a816103ca565b0361087157565b5f80fd5b9050359061088282610861565b565b9060208282031261089d5761089a915f01610875565b90565b61011e565b6108ab906103ca565b90565b906108b8906108a2565b5f5260205260405f2090565b6108da906108d56007915f926108ae565b6102aa565b90565b3461090d576109096108f86108f3366004610884565b6108c4565b610900610114565b918291826102eb565b0390f35b61011a565b9061091c9061020c565b5f5260205260405f2090565b5f1c90565b61093961093e91610928565b610690565b90565b61094b905461092d565b90565b634e487b7160e01b5f52602260045260245ffd5b9060016002830492168015610982575b602083101461097d57565b61094e565b91607f1691610972565b60209181520190565b5f5260205f2090565b905f92918054906109b86109b183610962565b809461098c565b916001811690815f14610a0f57506001146109d3575b505050565b6109e09192939450610995565b915f925b8184106109f757505001905f80806109ce565b600181602092959395548486015201910192906109e4565b92949550505060ff19168252151560200201905f80806109ce565b90610a349161099e565b90565b634e487b7160e01b5f52604160045260245ffd5b90610a559061035b565b810190811067ffffffffffffffff821117610a6f57604052565b610a37565b90610a94610a8d92610a84610114565b93848092610a2a565b0383610a4b565b565b610aa2610aa791610928565b6104d4565b90565b610ab49054610a96565b90565b610ac3610ac891610928565b61028c565b90565b610ad59054610ab7565b90565b60081c90565b60ff1690565b610af0610af591610ad8565b610ade565b90565b610b029054610ae4565b90565b610b11610b1691610928565b610ade565b90565b610b239054610b05565b90565b61ffff1690565b610b39610b3e91610ad8565b610b26565b90565b610b4b9054610b2d565b90565b90565b610b5d610b6291610928565b610b4e565b90565b610b6f9054610b51565b90565b610b7d906004610912565b610b885f8201610941565b91610b9560018301610a74565b91610ba260028201610aaa565b91610baf60038301610aaa565b91610bbc60048201610acb565b91610bc960048301610af8565b91610bd660068201610b19565b91610be360068301610b41565b91610bf060078201610aaa565b91610c096009610c0260088501610acb565b9301610b65565b90565b989694929b9a9997959391906101608a01905f8b01610c2a91610336565b89810360208b0152610c3b91610365565b9a60408901610c4991610396565b60608801610c5691610396565b60808701610c63916102de565b60a08601610c70916103a9565b60c08501610c7d916103a9565b60e08401610c8a916103bd565b6101008301610c9891610396565b6101208201610ca6916102de565b61014001610cb3916103cd565b565b34610cf257610cee610cd0610ccb36600461014c565b610b72565b97610ce59b999b979197969296959395610114565b9b8c9b8c610c0c565b0390f35b61011a565b60018060a01b031690565b610d12906008610d179302610288565b610cf7565b90565b90610d259154610d02565b90565b610d3460015f90610d1a565b90565b610d409061025a565b90565b610d4c90610d37565b9052565b9190610d63905f60208501940190610d43565b565b34610d9557610d753660046104c5565b610d91610d80610d28565b610d88610114565b91829182610d50565b0390f35b61011a565b9190604083820312610dc25780610db6610dbf925f860161013d565b93602001610875565b90565b61011e565b34610df657610de0610dda366004610d9a565b906121ee565b610de8610114565b80610df28161016a565b0390f35b61011a565b9091606082840312610e3057610e2d610e16845f85016101cd565b93610e2481602086016101cd565b936040016101cd565b90565b61011e565b34610e6457610e4e610e48366004610dfb565b916127f0565b610e56610114565b80610e608161016a565b0390f35b61011a565b909182601f83011215610ea35781359167ffffffffffffffff8311610e9e576020019260018302840111610e9957565b610768565b610764565b610760565b90606082820312610ef657610ebf815f84016101cd565b92602083013567ffffffffffffffff8111610ef157610ee383610eee928601610e69565b93909460400161013d565b90565b610122565b61011e565b610f26610f15610f0c366004610ea8565b92919091612984565b610f1d610114565b9182918261050c565b0390f35b5f80fd5b90565b60209181520190565b5f7f4e6f7420796574206576616c7561746564000000000000000000000000000000910152565b610f6e6011602092610f31565b610f7781610f3a565b0190565b610f909060208101905f818303910152610f61565b90565b15610f9a57565b610fa2610114565b62461bcd60e51b815280610fb860048201610f7b565b0390fd5b5f7f416c726561647920657865637574656400000000000000000000000000000000910152565b610ff06010602092610f31565b610ff981610fbc565b0190565b6110129060208101905f818303910152610fe3565b90565b1561101c57565b611024610114565b62461bcd60e51b81528061103a60048201610ffd565b0390fd5b5f7f416c726561647920617070726f76656400000000000000000000000000000000910152565b6110726010602092610f31565b61107b8161103e565b0190565b6110949060208101905f818303910152611065565b90565b1561109e57565b6110a6610114565b62461bcd60e51b8152806110bc6004820161107f565b0390fd5b90565b6110d76110d26110dc926110c0565b610209565b610126565b90565b60016110eb9101610126565b90565b5490565b634e487b7160e01b5f52603260045260245ffd5b5f5260205f2090565b611118816110ee565b8210156111325761112a600191611106565b910201905f90565b6110f2565b5f7f4e6f7420696e207265717569726564207369676e657220736574000000000000910152565b61116b601a602092610f31565b61117481611137565b0190565b61118d9060208101905f81830391015261115e565b90565b1561119757565b61119f610114565b62461bcd60e51b8152806111b560048201611178565b0390fd5b5f1b90565b906111ca60ff916111b9565b9181191691161790565b6111dd906102d9565b90565b90565b906111f86111f36111ff926111d4565b6111e0565b82546111be565b9055565b634e487b7160e01b5f52601160045260245ffd5b61122090610126565b5f19811461122e5760010190565b611203565b9061123f5f19916111b9565b9181191691161790565b90565b9061126161125c6112689261020c565b611249565b8254611233565b9055565b61128061127b60048390610912565b610f2e565b9061129561129060088401610acb565b610f93565b6112b26112ad6112a760048501610acb565b156102d9565b611015565b6112e16112dc6112d66112d16112ca60058690610228565b3390610272565b610acb565b156102d9565b611097565b5f916112ec5f6110c3565b5b8061130b611305611300600586016110ee565b610126565b91610126565b10156113ee5761132861132260058401839061110f565b906106b3565b61133a611334336101ad565b916101ad565b1461134d57611348906110df565b6112ed565b5050905061135c60015b611190565b61137c600161137761137060058590610228565b3390610272565b6111e3565b6113a261138b60068390610556565b61139c61139782610aaa565b611217565b9061124c565b336113d66113d07fa4c042f780e62163586b6166a85cc05e7726fb1393076143d04720a6a3934caf9361020c565b91610266565b916113df610114565b806113e98161016a565b0390a3565b50509061135c90611357565b5f90565b606090565b5f90565b5f90565b5f90565b5f90565b5f90565b61142090610a74565b90565b611494611499916114326113fa565b5061143b6113fe565b50611444611403565b5061144d611403565b50611456611407565b5061145f611407565b5061146861140b565b5061147161140b565b5061147a61140f565b50611483611403565b5061148c611413565b506004610912565b610f2e565b906114a55f8301610941565b9160018101926114b760028301610aaa565b926114c460038401610aaa565b926114d160048201610acb565b926114de60088301610acb565b926114eb60048401610af8565b926114f860068201610b19565b9261150560068301610b41565b92611528611521600961151a60078701610aaa565b9501610b65565b929b611417565b99989796959493929190565b61154861154361154d926103a3565b610209565b610126565b90565b5f7f496e73756666696369656e7420617070726f76616c7300000000000000000000910152565b6115846016602092610f31565b61158d81611550565b0190565b6115a69060208101905f818303910152611577565b90565b156115b057565b6115b8610114565b62461bcd60e51b8152806115ce60048201611591565b0390fd5b905090565b905f92918054906115f16115ea83610962565b80946115d2565b916001811690815f14611643575060011461160c575b505050565b6116199192939450610995565b5f905b83821061162f57505001905f8080611607565b60018160209254848601520191019061161c565b92949550505060ff191682528015150201905f8080611607565b611666916115d7565b90565b9061167c611675610114565b9283610a4b565b565b67ffffffffffffffff811161169c5761169860209161035b565b0190565b610a37565b906116b36116ae8361167e565b611669565b918252565b3d5f146116d3576116c83d6116a1565b903d5f602084013e5b565b6116db6113fe565b906116d1565b5f7f457865637574696f6e206661696c656400000000000000000000000000000000910152565b6117156010602092610f31565b61171e816116e1565b0190565b6117379060208101905f818303910152611708565b90565b1561174157565b611749610114565b62461bcd60e51b81528061175f60048201611722565b0390fd5b6118385f8061177c61177760048690610912565b610f2e565b61179061178b60088301610acb565b610f93565b6117ad6117a86117a260048401610acb565b156102d9565b611015565b6117e86117c46117bf60068890610556565b610aaa565b6117e16117db6117d660048601610af8565b611534565b91610126565b10156115a9565b6117f66001600483016111e3565b611826611804838301610941565b91600161181360028301610aaa565b910161181d610114565b9283918261165d565b03925af16118326116b8565b5061173a565b6118627f93fbc709d9f9290b7a6b4c56546e5ac117eab4b159daa1e5d68b570da75f34059161020c565b9061186b610114565b806118758161016a565b0390a2565b5f7f416c7265616479206576616c7561746564000000000000000000000000000000910152565b6118ae6011602092610f31565b6118b78161187a565b0190565b6118d09060208101905f8183039101526118a1565b90565b156118da57565b6118e2610114565b62461bcd60e51b8152806118f8600482016118bb565b0390fd5b61191061190b611915926103a3565b610209565b6103a3565b90565b90565b9061193061192b611937926118fc565b611918565b82546111be565b9055565b60081b90565b9061194f62ffff009161193b565b9181191691161790565b61196d611968611972926103b6565b610209565b6103b6565b90565b90565b9061198d61198861199492611959565b611975565b8254611941565b9055565b906119a561ff009161193b565b9181191691161790565b906119c46119bf6119cb926118fc565b611918565b8254611998565b9055565b600190818003010490565b1b90565b919060086119f99102916119f35f19846119da565b926119da565b9181191691161790565b9190611a19611a14611a219361020c565b611249565b9083546119de565b9055565b611a3791611a31611403565b91611a03565b565b5b818110611a45575050565b80611a525f600193611a25565b01611a3a565b9091828110611a67575b505050565b611a85611a7f611a79611a90956119cf565b926119cf565b92611106565b918201910190611a39565b5f8080611a62565b90680100000000000000008111611ac15781611ab6611abf936110ee565b90828155611a58565b565b610a37565b5090565b35611ad4816101b9565b90565b90565b90565b9091611ae99083611ac6565b9167ffffffffffffffff8311611b4c57611b17611b11600192611b0c8686611a98565b611ad7565b92611106565b9204915f5b838110611b295750505050565b6001906020611b3f611b3a86611aca565b611ada565b9401938184015501611b1c565b610a37565b90611b5c9291611add565b565b60101c90565b611b70611b7591611b5e565b6105ed565b90565b611b829054611b64565b90565b604090611bae611bb59496959396611ba460608401985f850190610396565b6020830190610396565b0190610396565b565b60200190565b611bd1611bcc611bd692610126565b610209565b6103a3565b90565b611be4610100611669565b90565b90611bf1906103ca565b9052565b90611bff90610126565b9052565b67ffffffffffffffff8111611c2157611c1d60209161035b565b0190565b610a37565b90611c38611c3383611c03565b611669565b918252565b611c465f611c26565b90565b611c51611c3d565b90565b52565b90611c61906103a3565b9052565b90611c6f906103b6565b9052565b5f80fd5b60e01b90565b5f910312611c8757565b61011e565b611c95906103ca565b9052565b611ca290610126565b9052565b5190565b60209181520190565b611cd2611cdb602093611ce093611cc981611ca6565b93848093611caa565b95869101610350565b61035b565b0190565b611ced906103a3565b9052565b611cfa906103b6565b9052565b90611d959060e080611d426101008401611d1e5f8801515f870190611c8c565b611d3060208801516020870190611c99565b60408701518582036040870152611cb3565b94611d5560608201516060860190611ce4565b611d6760808201516080860190611cf1565b611d7960a082015160a0860190611ce4565b611d8b60c082015160c0860190611ce4565b0151910190611c99565b90565b611dad9160208201915f818403910152611cfe565b90565b611db8610114565b3d5f823e3d90fd5b9594919295939093600490611dd491610912565b611ddd90610f2e565b9485600801611deb90610acb565b15611df5906102d9565b611dfe906118d3565b85600401611e0b90610acb565b15611e15906102d9565b611e1e90611015565b60018660080190611e2e916111e3565b848660060190611e3d9161191b565b838660060190611e4c91611978565b868660070190611e5b9161124c565b818660040190611e6a916119af565b82818760050191611e7a92611b51565b611e835f611b78565b611e8c9061062d565b95600301611e9990610aaa565b874291611ea4610114565b9283926020840192611eb593611b85565b602082018103825203611ec89082610a4b565b611ed181610343565b90611edb90611bb7565b20969493919290611eeb91611ac6565b611ef490611bbd565b924294611eff611bd9565b975f890190611f0d91611be7565b6020880190611f1b91611bf5565b611f23611c49565b6040880190611f3191611c54565b6060870190611f3f91611c57565b6080860190611f4d91611c65565b60a0850190611f5b91611c57565b60c0840190611f6991611c57565b60e0830190611f7791611bf5565b803b15611fef57611fac5f92918392611f8e610114565b948580948193611fa1638c300f4e611c77565b835260048301611d98565b03925af18015611fea57611fbe575b50565b611fdd905f3d8111611fe3575b611fd58183610a4b565b810190611c7d565b5f611fbb565b503d611fcb565b611db0565b611c73565b5f7f496e737472756374696f6e20616c72656164792070726f636573736564000000910152565b612028601d602092610f31565b61203181611ff4565b0190565b61204a9060208101905f81830391015261201b565b90565b1561205457565b61205c610114565b62461bcd60e51b81528061207260048201612035565b0390fd5b61208261208791610928565b610cf7565b90565b6120949054612076565b90565b6120a190516103a3565b90565b5190565b6120b290516101ad565b90565b60200190565b6120c4826120a4565b9167ffffffffffffffff8311612127576120f26120ec6001926120e78686611a98565b6120b5565b92611106565b9204915f5b8381106121045750505050565b600190602061211a612115866120a8565b611ada565b94019381840155016120f7565b610a37565b90612136916120bb565b565b61214290516103b6565b90565b61214f9051610126565b90565b61215b90610928565b90565b9061217361216e61217a926108a2565b612152565b8254611233565b9055565b6121b36121ba946121a960609498979561219f608086019a5f870190610396565b6020850190610396565b6040830190610396565b01906103cd565b565b6040906121e56121ec94969593966121db60608401985f850190610396565b60208301906103a9565b01906103bd565b565b906004826121fb91610912565b61220490610f2e565b918260080161221290610acb565b1561221c906102d9565b612225906118d3565b8260040161223290610acb565b1561223c906102d9565b61224590611015565b600782612251916108ae565b61225a90610acb565b15612264906102d9565b61226d9061204d565b612277600161208a565b8261228191612ff6565b926001600784612290916108ae565b9061229a916111e3565b600181600801906122aa916111e3565b836060016122b790612097565b81600401906122c5916119af565b8360a0015181600501906122d89161212c565b836040016122e590612097565b81600601906122f39161191b565b8360c00161230090612138565b816006019061230e91611978565b835f0161231a90612145565b81600701906123289161124c565b8281600901906123379161215e565b6123405f611b78565b6123499061062d565b90636c2c677b9060030161235c90610aaa565b855f0161236890612145565b429186612373610114565b93849360208501936123849461217e565b6020820181038252036123979082610a4b565b6123a081610343565b906123aa90611bb7565b20855f016123b790612145565b8660200151876040016123c990612097565b8860c0016123d690612138565b896060016123e390612097565b918a60a001516123f2906120a4565b6123fb90611bbd565b934295612406611bd9565b975f89019061241491611be7565b602088019061242291611bf5565b604087019061243091611c54565b606086019061243e91611c57565b608085019061244c91611c65565b60a084019061245a91611c57565b60c083019061246891611c57565b60e082019061247691611bf5565b823b15612559576124a69261249b5f809461248f610114565b96879586948593611c77565b835260048301611d98565b03925af1801561255457612528575b506124c15f8401612145565b926124da60c06124d360408401612097565b9201612138565b9361252361251161250b7ffa11d2026f681dfdef362e5993df250704dbaf5d0ff1c732a8812af8de04a6469561020c565b956108a2565b9561251a610114565b938493846121bc565b0390a3565b612547905f3d811161254d575b61253f8183610a4b565b810190611c7d565b5f6124b5565b503d612535565b611db0565b611c73565b61256a61256f91610ad8565b61028c565b90565b61257c905461255e565b90565b60207f647920696e697469616c697a6564000000000000000000000000000000000000917f496e697469616c697a61626c653a20636f6e747261637420697320616c7265615f8201520152565b6125d9602e604092610f31565b6125e28161257f565b0190565b6125fb9060208101905f8183039101526125cc565b90565b1561260557565b61260d610114565b62461bcd60e51b815280612623600482016125e6565b0390fd5b9061263c612637612643926111d4565b6111e0565b8254611998565b9055565b91612683916126555f612572565b80156126b4575b612665906125fe565b6126776126715f612572565b156102d9565b9384612699575b6127be565b61268a575b565b6126945f5f612627565b612688565b6126a460015f612627565b6126af60015f6111e3565b61267e565b506126656126ca6126c45f610acb565b156102d9565b905061265c565b6126da9061023e565b90565b6126e6906126d1565b90565b60101b90565b9061270362010000600160b01b03916126e9565b9181191691161790565b612716906126d1565b90565b90565b9061273161272c6127389261270d565b612719565b82546126ef565b9055565b6127459061023e565b90565b6127519061273c565b90565b9061276560018060a01b03916111b9565b9181191691161790565b6127789061273c565b90565b90565b9061279361278e61279a9261276f565b61277b565b8254612754565b9055565b906127b36127ae6127ba92610266565b611ada565b8254612754565b9055565b6127e06127ee93926127db6127d56127e7946126dd565b5f61271c565b612748565b600161277e565b600261279e565b565b906127fb9291612647565b565b5090565b601f602091010490565b5b818110612817575050565b806128245f600193611a25565b0161280c565b9190601f811161283a575b505050565b61284661286b93610995565b90602061285284612801565b83019310612873575b61286490612801565b019061280b565b5f8080612835565b91506128648192905061285b565b90612891905f1990600802610288565b191690565b816128a091612881565b906002021790565b916128b390826127fd565b9067ffffffffffffffff8211612972576128d7826128d18554610962565b8561282a565b5f90601f831160011461290a579180916128f9935f926128fe575b5050612896565b90555b565b90915001355f806128f2565b601f1983169161291985610995565b925f5b81811061295a57509160029391856001969410612940575b505050020190556128fc565b612950910135601f841690612881565b90555f8080612934565b9193602060018192878701358155019501920161291c565b610a37565b9061298292916128a8565b565b9192906129f690612993611403565b506129df6129a16003610aaa565b6129b46129ad82611217565b600361124c565b956129c96129c460048990610912565b610f2e565b926129d6875f860161279e565b60018401612977565b6129ec346002830161124c565b600383910161124c565b82919091612a42612a30612a2a7f6974e8be5912ae917b788db2884a51e71cbe0f0979af347e6a32d07d52ef82a39361020c565b93610266565b93612a39610114565b9182918261050c565b0390a390565b612a53610120611669565b90565b5f90565b606090565b5f90565b606090565b5f90565b612a74612a48565b90602080808080808080808a612a88612a56565b815201612a93612a5a565b815201612a9e612a5f565b815201612aa9612a5f565b815201612ab4612a5f565b815201612abf612a63565b815201612aca612a68565b815201612ad5612a5f565b815201612ae0612a56565b81525050565b612aee612a6c565b90565b612afc610120611669565b90565b5f90565b606090565b612b10612af1565b90602080808080808080808a612b24612aff565b815201612b2f612a5f565b815201612b3a612a5f565b815201612b45612a5a565b815201612b50612aff565b815201612b5b612aff565b815201612b66612b03565b815201612b71612a5a565b815201612b7c612b03565b81525050565b612b8a612b08565b90565b5f80fd5b5f80fd5b90505190612ba282610861565b565b90505190612bb18261071a565b565b5f80fd5b90929192612bcc612bc782611c03565b611669565b93818552602085019082840111612be857612be692610350565b565b612bb3565b9080601f83011215612c0b57816020612c0893519101612bb7565b90565b610760565b90929192612c25612c208261167e565b611669565b93818552602085019082840111612c4157612c3f92610350565b565b612bb3565b9080601f83011215612c6457816020612c6193519101612c10565b90565b610760565b91909161012081840312612d8557612c82610120611669565b92612c8f815f8401612b95565b5f850152612ca08160208401612ba4565b6020850152612cb28160408401612ba4565b6040850152606082015167ffffffffffffffff8111612d805781612cd7918401612bed565b6060850152612ce98160808401612b95565b6080850152612cfb8160a08401612b95565b60a085015260c082015167ffffffffffffffff8111612d7b5781612d20918401612c46565b60c085015260e082015167ffffffffffffffff8111612d765781612d45918401612bed565b60e085015261010082015167ffffffffffffffff8111612d7157612d699201612c46565b610100830152565b612b91565b612b91565b612b91565b612b91565b612b8d565b90602082820312612dba575f82015167ffffffffffffffff8111612db557612db29201612c69565b90565b610122565b61011e565b9190612dd2905f602085019401906103cd565b565b90565b612deb612de6612df092612dd4565b610209565b6103a3565b90565b612dfd90516103ca565b90565b6c4556414c554154455f5249534b60981b90565b612e1c612e00565b90565b916020612e40929493612e3960408201965f8301906103cd565b01906103cd565b565b612e56612e51612e5b926110c0565b610209565b6103a3565b90565b90565b90505190612e6e82610129565b565b67ffffffffffffffff8111612e885760208091020190565b610a37565b90505190612e9a826101b9565b565b90929192612eb1612eac82612e70565b611669565b9381855260208086019202830192818411612eee57915b838310612ed55750505050565b60208091612ee38486612e8d565b815201920191612ec8565b610768565b9080601f83011215612f1157816020612f0e93519101612e9c565b90565b610760565b90505190612f238261073d565b565b909161012082840312612fe057612f3e835f8401612e61565b92602083015167ffffffffffffffff8111612fdb5781612f5f918501612bed565b92612f6d8260408301612ba4565b92612f7b8360608401612ba4565b92612f898160808501612ba4565b9260a081015167ffffffffffffffff8111612fd65782612faa918301612ef3565b92612fd3612fbb8460c08501612f16565b93612fc98160e08601612ba4565b9361010001612e61565b90565b610122565b610122565b61011e565b612ff0610120611669565b90565b52565b905f61303d91613004612ae6565b50613016613010612b82565b94610d37565b6130326396e640e5613026610114565b95869485938493611c77565b835260048301612dbf565b03915afa80915f92613254575b50155f1461324d57506001613231575b61306660408201612097565b6130796130736001612dd7565b916103a3565b036132155761308a60808201612df3565b6130a361309d613098612e14565b6103ca565b916103ca565b036131e2576130b460408201612097565b6130c66130c05f612e42565b916103a3565b14806131b4575b6131985761010001516130df81610343565b602082010190602001906130f291612f25565b94969597939093929192959796909192939495979690919293949596613116612fe5565b985f8a019061312491611bf5565b602089019061313291611c54565b604088019061314091611c57565b606087019061314e91611c57565b608086019061315c91611c57565b60a085019061316a91612ff3565b60c084019061317891611c65565b60e083019061318691611c57565b61010082019061319591611bf5565b90565b5f637a7d833d60e01b8152806131b06004820161016a565b0390fd5b506131ca6131c56060830151612e5e565b610343565b6131dc6131d65f6110c3565b91610126565b116130cd565b6131f660806131ef612e14565b9201612df3565b906132115f928392636d02da6560e11b845260048401612e1f565b0390fd5b5f63c55f13ab60e01b81528061322d6004820161016a565b0390fd5b5f6336511b2960e21b8152806132496004820161016a565b0390fd5b905061305a565b6132719192503d805f833e6132698183610a4b565b810190612d8a565b905f61304a56fea2646970667358221220d80db40f642e7fe886534337be89f3cd2a21c036614dcf9bf4ba1624da50fbd064736f6c634300081f0033","linkReferences":{}},"methodIdentifiers":{"approvalCount(uint256)":"40ad01ea","approveTx(uint256)":"1087393a","auditLog()":"5a2d6ebd","executeTx(uint256)":"54b5fe80","getTransaction(uint256)":"33ea3dc8","governance()":"5aa6e675","hasApproved(uint256,address)":"2358d5a8","initialize(address,address,address)":"c0c53b8b","processedInstructions(bytes32)":"89e6b164","submitEvaluation(uint256,uint8,uint16,uint256,uint8,address[])":"891879a8","submitEvaluationAttested(uint256,bytes32)":"a9bda34d","submitTransaction(address,bytes,uint256)":"e05afb68","teeExtensionRegistry()":"a435d58a","transactions(uint256)":"9ace38c2","txCount()":"3c540687"},"id":25}