{"abi":[{"type":"constructor","inputs":[],"stateMutability":"nonpayable"},{"type":"receive","stateMutability":"payable"},{"type":"function","name":"approvalCount","inputs":[{"name":"","type":"uint256","internalType":"uint256"}],"outputs":[{"name":"","type":"uint256","internalType":"uint256"}],"stateMutability":"view"},{"type":"function","name":"approveTx","inputs":[{"name":"_txId","type":"uint256","internalType":"uint256"}],"outputs":[],"stateMutability":"nonpayable"},{"type":"function","name":"auditLog","inputs":[],"outputs":[{"name":"","type":"address","internalType":"contract AuditLog"}],"stateMutability":"view"},{"type":"function","name":"executeTx","inputs":[{"name":"_txId","type":"uint256","internalType":"uint256"}],"outputs":[],"stateMutability":"nonpayable"},{"type":"function","name":"getTransaction","inputs":[{"name":"_txId","type":"uint256","internalType":"uint256"}],"outputs":[{"name":"target","type":"address","internalType":"address"},{"name":"data","type":"bytes","internalType":"bytes"},{"name":"value","type":"uint256","internalType":"uint256"},{"name":"nonce","type":"uint256","internalType":"uint256"},{"name":"executed","type":"bool","internalType":"bool"},{"name":"evaluated","type":"bool","internalType":"bool"},{"name":"requiredSigners","type":"uint8","internalType":"uint8"},{"name":"riskScore","type":"uint8","internalType":"uint8"},{"name":"checkResults","type":"uint16","internalType":"uint16"},{"name":"matchedPolicyId","type":"uint256","internalType":"uint256"},{"name":"instructionId","type":"bytes32","internalType":"bytes32"}],"stateMutability":"view"},{"type":"function","name":"governance","inputs":[],"outputs":[{"name":"","type":"address","internalType":"address"}],"stateMutability":"view"},{"type":"function","name":"hasApproved","inputs":[{"name":"","type":"uint256","internalType":"uint256"},{"name":"","type":"address","internalType":"address"}],"outputs":[{"name":"","type":"bool","internalType":"bool"}],"stateMutability":"view"},{"type":"function","name":"initialize","inputs":[{"name":"_auditLog","type":"address","internalType":"address"},{"name":"_teeExtensionRegistry","type":"address","internalType":"address"},{"name":"_governance","type":"address","internalType":"address"}],"outputs":[],"stateMutability":"nonpayable"},{"type":"function","name":"processedInstructions","inputs":[{"name":"","type":"bytes32","internalType":"bytes32"}],"outputs":[{"name":"","type":"bool","internalType":"bool"}],"stateMutability":"view"},{"type":"function","name":"submitEvaluation","inputs":[{"name":"_txId","type":"uint256","internalType":"uint256"},{"name":"_riskScore","type":"uint8","internalType":"uint8"},{"name":"_checkResults","type":"uint16","internalType":"uint16"},{"name":"_matchedPolicyId","type":"uint256","internalType":"uint256"},{"name":"_requiredSigners","type":"uint8","internalType":"uint8"},{"name":"_signers","type":"address[]","internalType":"address[]"}],"outputs":[],"stateMutability":"nonpayable"},{"type":"function","name":"submitEvaluationAttested","inputs":[{"name":"_txId","type":"uint256","internalType":"uint256"},{"name":"_instructionId","type":"bytes32","internalType":"bytes32"}],"outputs":[],"stateMutability":"nonpayable"},{"type":"function","name":"submitTransaction","inputs":[{"name":"_target","type":"address","internalType":"address"},{"name":"_data","type":"bytes","internalType":"bytes"},{"name":"_nonce","type":"uint256","internalType":"uint256"}],"outputs":[{"name":"","type":"uint256","internalType":"uint256"}],"stateMutability":"payable"},{"type":"function","name":"teeExtensionRegistry","inputs":[],"outputs":[{"name":"","type":"address","internalType":"contract ITeeExtensionRegistry"}],"stateMutability":"view"},{"type":"function","name":"transactions","inputs":[{"name":"","type":"uint256","internalType":"uint256"}],"outputs":[{"name":"target","type":"address","internalType":"address"},{"name":"data","type":"bytes","internalType":"bytes"},{"name":"value","type":"uint256","internalType":"uint256"},{"name":"nonce","type":"uint256","internalType":"uint256"},{"name":"executed","type":"bool","internalType":"bool"},{"name":"requiredSigners","type":"uint8","internalType":"uint8"},{"name":"riskScore","type":"uint8","internalType":"uint8"},{"name":"checkResults","type":"uint16","internalType":"uint16"},{"name":"matchedPolicyId","type":"uint256","internalType":"uint256"},{"name":"evaluated","type":"bool","internalType":"bool"},{"name":"instructionId","type":"bytes32","internalType":"bytes32"}],"stateMutability":"view"},{"type":"function","name":"txCount","inputs":[],"outputs":[{"name":"","type":"uint256","internalType":"uint256"}],"stateMutability":"view"},{"type":"event","name":"EvaluationAttested","inputs":[{"name":"txId","type":"uint256","indexed":true,"internalType":"uint256"},{"name":"instructionId","type":"bytes32","indexed":true,"internalType":"bytes32"},{"name":"matchedPolicyId","type":"uint256","indexed":false,"internalType":"uint256"},{"name":"riskScore","type":"uint8","indexed":false,"internalType":"uint8"},{"name":"checkResults","type":"uint16","indexed":false,"internalType":"uint16"}],"anonymous":false},{"type":"event","name":"TransactionSubmitted","inputs":[{"name":"txId","type":"uint256","indexed":true,"internalType":"uint256"},{"name":"target","type":"address","indexed":true,"internalType":"address"},{"name":"nonce","type":"uint256","indexed":false,"internalType":"uint256"}],"anonymous":false},{"type":"event","name":"TxApproved","inputs":[{"name":"txId","type":"uint256","indexed":true,"internalType":"uint256"},{"name":"signer","type":"address","indexed":true,"internalType":"address"}],"anonymous":false},{"type":"event","name":"TxExecuted","inputs":[{"name":"txId","type":"uint256","indexed":true,"internalType":"uint256"}],"anonymous":false},{"type":"error","name":"InvalidInstructionId","inputs":[]},{"type":"error","name":"ResultNotReady","inputs":[]},{"type":"error","name":"ResultProcessingFailed","inputs":[]},{"type":"error","name":"WrongOPType","inputs":[{"name":"expected","type":"bytes32","internalType":"bytes32"},{"name":"actual","type":"bytes32","internalType":"bytes32"}]}],"bytecode":{"object":"0x608060405234801561000f575f80fd5b5061309a8061001d5f395ff3fe6080604052600436106100eb575f3560e01c80635aa6e67511610089578063a435d58a11610058578063a435d58a1461032c578063a9bda34d14610356578063c0c53b8b1461037e578063e05afb68146103a6576100f2565b80635aa6e67514610258578063891879a81461028257806389e6b164146102aa5780639ace38c2146102e6576100f2565b80633c540687116100c55780633c540687146101a057806340ad01ea146101ca57806354b5fe80146102065780635a2d6ebd1461022e576100f2565b80631087393a146100f65780632358d5a81461011e57806333ea3dc81461015a576100f2565b366100f257005b5f80fd5b348015610101575f80fd5b5061011c6004803603810190610117919061198d565b6103d6565b005b348015610129575f80fd5b50610144600480360381019061013f9190611a12565b6106d6565b6040516101519190611a6a565b60405180910390f35b348015610165575f80fd5b50610180600480360381019061017b919061198d565b610700565b6040516101979b9a99989796959493929190611b7a565b60405180910390f35b3480156101ab575f80fd5b506101b4610863565b6040516101c19190611c2a565b60405180910390f35b3480156101d5575f80fd5b506101f060048036038101906101eb919061198d565b610869565b6040516101fd9190611c2a565b60405180910390f35b348015610211575f80fd5b5061022c6004803603810190610227919061198d565b61087e565b005b348015610239575f80fd5b50610242610abc565b60405161024f9190611c9e565b60405180910390f35b348015610263575f80fd5b5061026c610ae1565b6040516102799190611cb7565b60405180910390f35b34801561028d575f80fd5b506102a860048036038101906102a39190611d85565b610b06565b005b3480156102b5575f80fd5b506102d060048036038101906102cb9190611e59565b610d63565b6040516102dd9190611a6a565b60405180910390f35b3480156102f1575f80fd5b5061030c6004803603810190610307919061198d565b610d80565b6040516103239b9a99989796959493929190611e84565b60405180910390f35b348015610337575f80fd5b50610340610eba565b60405161034d9190611f54565b60405180910390f35b348015610361575f80fd5b5061037c60048036038101906103779190611f6d565b610edf565b005b348015610389575f80fd5b506103a4600480360381019061039f9190611fab565b611262565b005b6103c060048036038101906103bb9190612050565b6113f8565b6040516103cd9190611c2a565b60405180910390f35b5f60045f8381526020019081526020015f209050806008015f9054906101000a900460ff1661043a576040517f08c379a00000000000000000000000000000000000000000000000000000000081526004016104319061211b565b60405180910390fd5b806004015f9054906101000a900460ff161561048b576040517f08c379a000000000000000000000000000000000000000000000000000000000815260040161048290612183565b60405180910390fd5b60055f8381526020019081526020015f205f3373ffffffffffffffffffffffffffffffffffffffff1673ffffffffffffffffffffffffffffffffffffffff1681526020019081526020015f205f9054906101000a900460ff1615610524576040517f08c379a000000000000000000000000000000000000000000000000000000000815260040161051b906121eb565b60405180910390fd5b5f805b82600501805490508110156105c2573373ffffffffffffffffffffffffffffffffffffffff1683600501828154811061056357610562612209565b5b905f5260205f20015f9054906101000a900473ffffffffffffffffffffffffffffffffffffffff1673ffffffffffffffffffffffffffffffffffffffff16036105af57600191506105c2565b80806105ba90612263565b915050610527565b5080610603576040517f08c379a00000000000000000000000000000000000000000000000000000000081526004016105fa906122f4565b60405180910390fd5b600160055f8581526020019081526020015f205f3373ffffffffffffffffffffffffffffffffffffffff1673ffffffffffffffffffffffffffffffffffffffff1681526020019081526020015f205f6101000a81548160ff02191690831515021790555060065f8481526020019081526020015f205f81548092919061068890612263565b91905055503373ffffffffffffffffffffffffffffffffffffffff16837fa4c042f780e62163586b6166a85cc05e7726fb1393076143d04720a6a3934caf60405160405180910390a3505050565b6005602052815f5260405f20602052805f5260405f205f915091509054906101000a900460ff1681565b5f60605f805f805f805f805f8060045f8e81526020019081526020015f209050805f015f9054906101000a900473ffffffffffffffffffffffffffffffffffffffff168160010182600201548360030154846004015f9054906101000a900460ff16856008015f9054906101000a900460ff168660040160019054906101000a900460ff16876006015f9054906101000a900460ff168860060160019054906101000a900461ffff1689600701548a600901548980546107bf9061233f565b80601f01602080910402602001604051908101604052809291908181526020018280546107eb9061233f565b80156108365780601f1061080d57610100808354040283529160200191610836565b820191905f5260205f20905b81548152906001019060200180831161081957829003601f168201915b505050505099509b509b509b509b509b509b509b509b509b509b509b505091939597999b90929496989a50565b60035481565b6006602052805f5260405f205f915090505481565b5f60045f8381526020019081526020015f209050806008015f9054906101000a900460ff166108e2576040517f08c379a00000000000000000000000000000000000000000000000000000000081526004016108d99061211b565b60405180910390fd5b806004015f9054906101000a900460ff1615610933576040517f08c379a000000000000000000000000000000000000000000000000000000000815260040161092a90612183565b60405180910390fd5b8060040160019054906101000a900460ff1660ff1660065f8481526020019081526020015f2054101561099b576040517f08c379a0000000000000000000000000000000000000000000000000000000008152600401610992906123b9565b60405180910390fd5b6001816004015f6101000a81548160ff0219169083151502179055505f815f015f9054906101000a900473ffffffffffffffffffffffffffffffffffffffff1673ffffffffffffffffffffffffffffffffffffffff16826002015483600101604051610a079190612473565b5f6040518083038185875af1925050503d805f8114610a41576040519150601f19603f3d011682016040523d82523d5f602084013e610a46565b606091505b5050905080610a8a576040517f08c379a0000000000000000000000000000000000000000000000000000000008152600401610a81906124d3565b60405180910390fd5b827f93fbc709d9f9290b7a6b4c56546e5ac117eab4b159daa1e5d68b570da75f340560405160405180910390a2505050565b5f60029054906101000a900473ffffffffffffffffffffffffffffffffffffffff1681565b60025f9054906101000a900473ffffffffffffffffffffffffffffffffffffffff1681565b5f60045f8981526020019081526020015f209050806008015f9054906101000a900460ff1615610b6b576040517f08c379a0000000000000000000000000000000000000000000000000000000008152600401610b629061253b565b60405180910390fd5b806004015f9054906101000a900460ff1615610bbc576040517f08c379a0000000000000000000000000000000000000000000000000000000008152600401610bb390612183565b60405180910390fd5b6001816008015f6101000a81548160ff02191690831515021790555086816006015f6101000a81548160ff021916908360ff160217905550858160060160016101000a81548161ffff021916908361ffff160217905550848160070181905550838160040160016101000a81548160ff021916908360ff1602179055508282826005019190610c4c92919061175f565b505f60029054906101000a900473ffffffffffffffffffffffffffffffffffffffff1673ffffffffffffffffffffffffffffffffffffffff16638c300f4e60405180610100016040528084600301548942604051602001610caf93929190612559565b60405160208183030381529060405280519060200120815260200188815260200160405180602001604052805f81525081526020018a60ff1681526020018961ffff1681526020018760ff1681526020018686905060ff168152602001428152506040518263ffffffff1660e01b8152600401610d2c91906126c9565b5f604051808303815f87803b158015610d43575f80fd5b505af1158015610d55573d5f803e3d5ffd5b505050505050505050505050565b6007602052805f5260405f205f915054906101000a900460ff1681565b6004602052805f5260405f205f91509050805f015f9054906101000a900473ffffffffffffffffffffffffffffffffffffffff1690806001018054610dc49061233f565b80601f0160208091040260200160405190810160405280929190818152602001828054610df09061233f565b8015610e3b5780601f10610e1257610100808354040283529160200191610e3b565b820191905f5260205f20905b815481529060010190602001808311610e1e57829003601f168201915b505050505090806002015490806003015490806004015f9054906101000a900460ff16908060040160019054906101000a900460ff1690806006015f9054906101000a900460ff16908060060160019054906101000a900461ffff1690806007015490806008015f9054906101000a900460ff1690806009015490508b565b60015f9054906101000a900473ffffffffffffffffffffffffffffffffffffffff1681565b5f60045f8481526020019081526020015f209050806008015f9054906101000a900460ff1615610f44576040517f08c379a0000000000000000000000000000000000000000000000000000000008152600401610f3b9061253b565b60405180910390fd5b806004015f9054906101000a900460ff1615610f95576040517f08c379a0000000000000000000000000000000000000000000000000000000008152600401610f8c90612183565b60405180910390fd5b60075f8381526020019081526020015f205f9054906101000a900460ff1615610ff3576040517f08c379a0000000000000000000000000000000000000000000000000000000008152600401610fea90612733565b60405180910390fd5b5f61101f60015f9054906101000a900473ffffffffffffffffffffffffffffffffffffffff16846114e9565b9050600160075f8581526020019081526020015f205f6101000a81548160ff0219169083151502179055506001826008015f6101000a81548160ff02191690831515021790555080606001518260040160016101000a81548160ff021916908360ff1602179055508060a001518260050190805190602001906110a39291906117fc565b508060400151826006015f6101000a81548160ff021916908360ff1602179055508060c001518260060160016101000a81548161ffff021916908361ffff160217905550805f015182600701819055508282600901819055505f60029054906101000a900473ffffffffffffffffffffffffffffffffffffffff1673ffffffffffffffffffffffffffffffffffffffff16636c2c677b6040518061010001604052808560030154855f015142896040516020016111639493929190612751565b604051602081830303815290604052805190602001208152602001845f0151815260200184602001518152602001846040015160ff1681526020018460c0015161ffff168152602001846060015160ff1681526020018460a001515160ff168152602001428152506040518263ffffffff1660e01b81526004016111e791906126c9565b5f604051808303815f87803b1580156111fe575f80fd5b505af1158015611210573d5f803e3d5ffd5b5050505082847ffa11d2026f681dfdef362e5993df250704dbaf5d0ff1c732a8812af8de04a646835f015184604001518560c0015160405161125493929190612794565b60405180910390a350505050565b5f60019054906101000a900460ff168061128657505f8054906101000a900460ff16155b6112c5576040517f08c379a00000000000000000000000000000000000000000000000000000000081526004016112bc90612839565b60405180910390fd5b5f8060019054906101000a900460ff1615905080156113125760015f60016101000a81548160ff02191690831515021790555060015f806101000a81548160ff0219169083151502179055505b835f60026101000a81548173ffffffffffffffffffffffffffffffffffffffff021916908373ffffffffffffffffffffffffffffffffffffffff1602179055508260015f6101000a81548173ffffffffffffffffffffffffffffffffffffffff021916908373ffffffffffffffffffffffffffffffffffffffff1602179055508160025f6101000a81548173ffffffffffffffffffffffffffffffffffffffff021916908373ffffffffffffffffffffffffffffffffffffffff16021790555080156113f2575f8060016101000a81548160ff0219169083151502179055505b50505050565b5f8060035f81548092919061140c90612263565b9190505590505f60045f8381526020019081526020015f20905086815f015f6101000a81548173ffffffffffffffffffffffffffffffffffffffff021916908373ffffffffffffffffffffffffffffffffffffffff160217905550858582600101918261147a929190612a10565b503481600201819055508381600301819055508673ffffffffffffffffffffffffffffffffffffffff16827f6974e8be5912ae917b788db2884a51e71cbe0f0979af347e6a32d07d52ef82a3866040516114d49190611c2a565b60405180910390a38192505050949350505050565b6114f1611883565b6114f96118d8565b8373ffffffffffffffffffffffffffffffffffffffff166396e640e5846040518263ffffffff1660e01b81526004016115329190612add565b5f60405180830381865afa92505050801561156f57506040513d5f823e3d601f19601f8201168201806040525081019061156c9190612dfe565b60015b6115a5576040517fd9446ca400000000000000000000000000000000000000000000000000000000815260040160405180910390fd5b809150506001816040015160ff16146115ea576040517fc55f13ab00000000000000000000000000000000000000000000000000000000815260040160405180910390fd5b7f4556414c554154455f5249534b00000000000000000000000000000000000000816080015114611678577f4556414c554154455f5249534b0000000000000000000000000000000000000081608001516040517fda05b4ca00000000000000000000000000000000000000000000000000000000815260040161166f929190612e45565b60405180910390fd5b5f816040015160ff1614801561169257505f816060015151115b156116c9576040517f7a7d833d00000000000000000000000000000000000000000000000000000000815260040160405180910390fd5b5f805f805f805f805f8961010001518060200190518101906116eb9190612f68565b9850985098509850985098509850985098506040518061012001604052808a81526020018981526020018860ff1681526020018760ff1681526020018660ff1681526020018581526020018461ffff1681526020018360ff168152602001828152509a505050505050505050505092915050565b828054828255905f5260205f209081019282156117eb579160200282015b828111156117ea57823573ffffffffffffffffffffffffffffffffffffffff16825f6101000a81548173ffffffffffffffffffffffffffffffffffffffff021916908373ffffffffffffffffffffffffffffffffffffffff1602179055509160200191906001019061177d565b5b5090506117f8919061192e565b5090565b828054828255905f5260205f20908101928215611872579160200282015b82811115611871578251825f6101000a81548173ffffffffffffffffffffffffffffffffffffffff021916908373ffffffffffffffffffffffffffffffffffffffff1602179055509160200191906001019061181a565b5b50905061187f919061192e565b5090565b6040518061012001604052805f8152602001606081526020015f60ff1681526020015f60ff1681526020015f60ff168152602001606081526020015f61ffff1681526020015f60ff1681526020015f81525090565b6040518061012001604052805f80191681526020015f60ff1681526020015f60ff168152602001606081526020015f80191681526020015f80191681526020016060815260200160608152602001606081525090565b5b80821115611945575f815f90555060010161192f565b5090565b5f604051905090565b5f80fd5b5f80fd5b5f819050919050565b61196c8161195a565b8114611976575f80fd5b50565b5f8135905061198781611963565b92915050565b5f602082840312156119a2576119a1611952565b5b5f6119af84828501611979565b91505092915050565b5f73ffffffffffffffffffffffffffffffffffffffff82169050919050565b5f6119e1826119b8565b9050919050565b6119f1816119d7565b81146119fb575f80fd5b50565b5f81359050611a0c816119e8565b92915050565b5f8060408385031215611a2857611a27611952565b5b5f611a3585828601611979565b9250506020611a46858286016119fe565b9150509250929050565b5f8115159050919050565b611a6481611a50565b82525050565b5f602082019050611a7d5f830184611a5b565b92915050565b611a8c816119d7565b82525050565b5f81519050919050565b5f82825260208201905092915050565b5f5b83811015611ac9578082015181840152602081019050611aae565b5f8484015250505050565b5f601f19601f8301169050919050565b5f611aee82611a92565b611af88185611a9c565b9350611b08818560208601611aac565b611b1181611ad4565b840191505092915050565b611b258161195a565b82525050565b5f60ff82169050919050565b611b4081611b2b565b82525050565b5f61ffff82169050919050565b611b5c81611b46565b82525050565b5f819050919050565b611b7481611b62565b82525050565b5f61016082019050611b8e5f83018e611a83565b8181036020830152611ba0818d611ae4565b9050611baf604083018c611b1c565b611bbc606083018b611b1c565b611bc9608083018a611a5b565b611bd660a0830189611a5b565b611be360c0830188611b37565b611bf060e0830187611b37565b611bfe610100830186611b53565b611c0c610120830185611b1c565b611c1a610140830184611b6b565b9c9b505050505050505050505050565b5f602082019050611c3d5f830184611b1c565b92915050565b5f819050919050565b5f611c66611c61611c5c846119b8565b611c43565b6119b8565b9050919050565b5f611c7782611c4c565b9050919050565b5f611c8882611c6d565b9050919050565b611c9881611c7e565b82525050565b5f602082019050611cb15f830184611c8f565b92915050565b5f602082019050611cca5f830184611a83565b92915050565b611cd981611b2b565b8114611ce3575f80fd5b50565b5f81359050611cf481611cd0565b92915050565b611d0381611b46565b8114611d0d575f80fd5b50565b5f81359050611d1e81611cfa565b92915050565b5f80fd5b5f80fd5b5f80fd5b5f8083601f840112611d4557611d44611d24565b5b8235905067ffffffffffffffff811115611d6257611d61611d28565b5b602083019150836020820283011115611d7e57611d7d611d2c565b5b9250929050565b5f805f805f805f60c0888a031215611da057611d9f611952565b5b5f611dad8a828b01611979565b9750506020611dbe8a828b01611ce6565b9650506040611dcf8a828b01611d10565b9550506060611de08a828b01611979565b9450506080611df18a828b01611ce6565b93505060a088013567ffffffffffffffff811115611e1257611e11611956565b5b611e1e8a828b01611d30565b925092505092959891949750929550565b611e3881611b62565b8114611e42575f80fd5b50565b5f81359050611e5381611e2f565b92915050565b5f60208284031215611e6e57611e6d611952565b5b5f611e7b84828501611e45565b91505092915050565b5f61016082019050611e985f83018e611a83565b8181036020830152611eaa818d611ae4565b9050611eb9604083018c611b1c565b611ec6606083018b611b1c565b611ed3608083018a611a5b565b611ee060a0830189611b37565b611eed60c0830188611b37565b611efa60e0830187611b53565b611f08610100830186611b1c565b611f16610120830185611a5b565b611f24610140830184611b6b565b9c9b505050505050505050505050565b5f611f3e82611c6d565b9050919050565b611f4e81611f34565b82525050565b5f602082019050611f675f830184611f45565b92915050565b5f8060408385031215611f8357611f82611952565b5b5f611f9085828601611979565b9250506020611fa185828601611e45565b9150509250929050565b5f805f60608486031215611fc257611fc1611952565b5b5f611fcf868287016119fe565b9350506020611fe0868287016119fe565b9250506040611ff1868287016119fe565b9150509250925092565b5f8083601f8401126120105761200f611d24565b5b8235905067ffffffffffffffff81111561202d5761202c611d28565b5b60208301915083600182028301111561204957612048611d2c565b5b9250929050565b5f805f806060858703121561206857612067611952565b5b5f612075878288016119fe565b945050602085013567ffffffffffffffff81111561209657612095611956565b5b6120a287828801611ffb565b935093505060406120b587828801611979565b91505092959194509250565b5f82825260208201905092915050565b7f4e6f7420796574206576616c75617465640000000000000000000000000000005f82015250565b5f6121056011836120c1565b9150612110826120d1565b602082019050919050565b5f6020820190508181035f830152612132816120f9565b9050919050565b7f416c7265616479206578656375746564000000000000000000000000000000005f82015250565b5f61216d6010836120c1565b915061217882612139565b602082019050919050565b5f6020820190508181035f83015261219a81612161565b9050919050565b7f416c726561647920617070726f766564000000000000000000000000000000005f82015250565b5f6121d56010836120c1565b91506121e0826121a1565b602082019050919050565b5f6020820190508181035f830152612202816121c9565b9050919050565b7f4e487b71000000000000000000000000000000000000000000000000000000005f52603260045260245ffd5b7f4e487b71000000000000000000000000000000000000000000000000000000005f52601160045260245ffd5b5f61226d8261195a565b91507fffffffffffffffffffffffffffffffffffffffffffffffffffffffffffffffff820361229f5761229e612236565b5b600182019050919050565b7f4e6f7420696e207265717569726564207369676e6572207365740000000000005f82015250565b5f6122de601a836120c1565b91506122e9826122aa565b602082019050919050565b5f6020820190508181035f83015261230b816122d2565b9050919050565b7f4e487b71000000000000000000000000000000000000000000000000000000005f52602260045260245ffd5b5f600282049050600182168061235657607f821691505b60208210810361236957612368612312565b5b50919050565b7f496e73756666696369656e7420617070726f76616c73000000000000000000005f82015250565b5f6123a36016836120c1565b91506123ae8261236f565b602082019050919050565b5f6020820190508181035f8301526123d081612397565b9050919050565b5f81905092915050565b5f819050815f5260205f209050919050565b5f81546123ff8161233f565b61240981866123d7565b9450600182165f811461242357600181146124385761246a565b60ff198316865281151582028601935061246a565b612441856123e1565b5f5b8381101561246257815481890152600182019150602081019050612443565b838801955050505b50505092915050565b5f61247e82846123f3565b915081905092915050565b7f457865637574696f6e206661696c6564000000000000000000000000000000005f82015250565b5f6124bd6010836120c1565b91506124c882612489565b602082019050919050565b5f6020820190508181035f8301526124ea816124b1565b9050919050565b7f416c7265616479206576616c75617465640000000000000000000000000000005f82015250565b5f6125256011836120c1565b9150612530826124f1565b602082019050919050565b5f6020820190508181035f83015261255281612519565b9050919050565b5f60608201905061256c5f830186611b1c565b6125796020830185611b1c565b6125866040830184611b1c565b949350505050565b61259781611b62565b82525050565b6125a68161195a565b82525050565b5f81519050919050565b5f82825260208201905092915050565b5f6125d0826125ac565b6125da81856125b6565b93506125ea818560208601611aac565b6125f381611ad4565b840191505092915050565b61260781611b2b565b82525050565b61261681611b46565b82525050565b5f61010083015f8301516126325f86018261258e565b506020830151612645602086018261259d565b506040830151848203604086015261265d82826125c6565b915050606083015161267260608601826125fe565b506080830151612685608086018261260d565b5060a083015161269860a08601826125fe565b5060c08301516126ab60c08601826125fe565b5060e08301516126be60e086018261259d565b508091505092915050565b5f6020820190508181035f8301526126e1818461261c565b905092915050565b7f496e737472756374696f6e20616c72656164792070726f6365737365640000005f82015250565b5f61271d601d836120c1565b9150612728826126e9565b602082019050919050565b5f6020820190508181035f83015261274a81612711565b9050919050565b5f6080820190506127645f830187611b1c565b6127716020830186611b1c565b61277e6040830185611b1c565b61278b6060830184611b6b565b95945050505050565b5f6060820190506127a75f830186611b1c565b6127b46020830185611b37565b6127c16040830184611b53565b949350505050565b7f496e697469616c697a61626c653a20636f6e747261637420697320616c7265615f8201527f647920696e697469616c697a6564000000000000000000000000000000000000602082015250565b5f612823602e836120c1565b915061282e826127c9565b604082019050919050565b5f6020820190508181035f83015261285081612817565b9050919050565b5f82905092915050565b7f4e487b71000000000000000000000000000000000000000000000000000000005f52604160045260245ffd5b5f6020601f8301049050919050565b5f82821b905092915050565b5f600883026128d87fffffffffffffffffffffffffffffffffffffffffffffffffffffffffffffffff8261289d565b6128e2868361289d565b95508019841693508086168417925050509392505050565b5f61291461290f61290a8461195a565b611c43565b61195a565b9050919050565b5f819050919050565b61292d836128fa565b6129416129398261291b565b8484546128a9565b825550505050565b5f90565b612955612949565b612960818484612924565b505050565b5b81811015612983576129785f8261294d565b600181019050612966565b5050565b601f8211156129c857612999816123e1565b6129a28461288e565b810160208510156129b1578190505b6129c56129bd8561288e565b830182612965565b50505b505050565b5f82821c905092915050565b5f6129e85f19846008026129cd565b1980831691505092915050565b5f612a0083836129d9565b9150826002028217905092915050565b612a1a8383612857565b67ffffffffffffffff811115612a3357612a32612861565b5b612a3d825461233f565b612a48828285612987565b5f601f831160018114612a75575f8415612a63578287013590505b612a6d85826129f5565b865550612ad4565b601f198416612a83866123e1565b5f5b82811015612aaa57848901358255600182019150602085019450602081019050612a85565b86831015612ac75784890135612ac3601f8916826129d9565b8355505b6001600288020188555050505b50505050505050565b5f602082019050612af05f830184611b6b565b92915050565b5f80fd5b612b0382611ad4565b810181811067ffffffffffffffff82111715612b2257612b21612861565b5b80604052505050565b5f612b34611949565b9050612b408282612afa565b919050565b5f80fd5b5f81519050612b5781611e2f565b92915050565b5f81519050612b6b81611cd0565b92915050565b5f80fd5b5f67ffffffffffffffff821115612b8f57612b8e612861565b5b612b9882611ad4565b9050602081019050919050565b5f612bb7612bb284612b75565b612b2b565b905082815260208101848484011115612bd357612bd2612b71565b5b612bde848285611aac565b509392505050565b5f82601f830112612bfa57612bf9611d24565b5b8151612c0a848260208601612ba5565b91505092915050565b5f67ffffffffffffffff821115612c2d57612c2c612861565b5b612c3682611ad4565b9050602081019050919050565b5f612c55612c5084612c13565b612b2b565b905082815260208101848484011115612c7157612c70612b71565b5b612c7c848285611aac565b509392505050565b5f82601f830112612c9857612c97611d24565b5b8151612ca8848260208601612c43565b91505092915050565b5f6101208284031215612cc757612cc6612af6565b5b612cd2610120612b2b565b90505f612ce184828501612b49565b5f830152506020612cf484828501612b5d565b6020830152506040612d0884828501612b5d565b604083015250606082015167ffffffffffffffff811115612d2c57612d2b612b45565b5b612d3884828501612be6565b6060830152506080612d4c84828501612b49565b60808301525060a0612d6084828501612b49565b60a08301525060c082015167ffffffffffffffff811115612d8457612d83612b45565b5b612d9084828501612c84565b60c08301525060e082015167ffffffffffffffff811115612db457612db3612b45565b5b612dc084828501612be6565b60e08301525061010082015167ffffffffffffffff811115612de557612de4612b45565b5b612df184828501612c84565b6101008301525092915050565b5f60208284031215612e1357612e12611952565b5b5f82015167ffffffffffffffff811115612e3057612e2f611956565b5b612e3c84828501612cb1565b91505092915050565b5f604082019050612e585f830185611b6b565b612e656020830184611b6b565b9392505050565b5f81519050612e7a81611963565b92915050565b5f67ffffffffffffffff821115612e9a57612e99612861565b5b602082029050602081019050919050565b5f81519050612eb9816119e8565b92915050565b5f612ed1612ecc84612e80565b612b2b565b90508083825260208201905060208402830185811115612ef457612ef3611d2c565b5b835b81811015612f1d5780612f098882612eab565b845260208401935050602081019050612ef6565b5050509392505050565b5f82601f830112612f3b57612f3a611d24565b5b8151612f4b848260208601612ebf565b91505092915050565b5f81519050612f6281611cfa565b92915050565b5f805f805f805f805f6101208a8c031215612f8657612f85611952565b5b5f612f938c828d01612e6c565b99505060208a015167ffffffffffffffff811115612fb457612fb3611956565b5b612fc08c828d01612be6565b9850506040612fd18c828d01612b5d565b9750506060612fe28c828d01612b5d565b9650506080612ff38c828d01612b5d565b95505060a08a015167ffffffffffffffff81111561301457613013611956565b5b6130208c828d01612f27565b94505060c06130318c828d01612f54565b93505060e06130428c828d01612b5d565b9250506101006130548c828d01612e6c565b915050929598509295985092959856fea26469706673582212203cb9a789efc27a6b10ffae776b7b496ee9ddac57ac423d3ef72a93ae9796e25264736f6c63430008140033","linkReferences":{}},"methodIdentifiers":{"approvalCount(uint256)":"40ad01ea","approveTx(uint256)":"1087393a","auditLog()":"5a2d6ebd","executeTx(uint256)":"54b5fe80","getTransaction(uint256)":"33ea3dc8","governance()":"5aa6e675","hasApproved(uint256,address)":"2358d5a8","initialize(address,address,address)":"c0c53b8b","processedInstructions(bytes32)":"89e6b164","submitEvaluation(uint256,uint8,uint16,uint256,uint8,address[])":"891879a8","submitEvaluationAttested(uint256,bytes32)":"a9bda34d","submitTransaction(address,bytes,uint256)":"e05afb68","teeExtensionRegistry()":"a435d58a","transactions(uint256)":"9ace38c2","txCount()":"3c540687"},"id":24}