{"abi":[{"type":"function","name":"entries","inputs":[{"name":"","type":"uint256","internalType":"uint256"}],"outputs":[{"name":"evaluationId","type":"bytes32","internalType":"bytes32"},{"name":"policyId","type":"uint256","internalType":"uint256"},{"name":"policyName","type":"string","internalType":"string"},{"name":"riskScore","type":"uint8","internalType":"uint8"},{"name":"checkResults","type":"uint16","internalType":"uint16"},{"name":"requiredSigners","type":"uint8","internalType":"uint8"},{"name":"totalSigners","type":"uint8","internalType":"uint8"},{"name":"timestamp","type":"uint256","internalType":"uint256"}],"stateMutability":"view"},{"type":"function","name":"getEntriesByPolicy","inputs":[{"name":"_policyId","type":"uint256","internalType":"uint256"}],"outputs":[{"name":"","type":"tuple[]","internalType":"struct AuditLog.AuditEntry[]","components":[{"name":"evaluationId","type":"bytes32","internalType":"bytes32"},{"name":"policyId","type":"uint256","internalType":"uint256"},{"name":"policyName","type":"string","internalType":"string"},{"name":"riskScore","type":"uint8","internalType":"uint8"},{"name":"checkResults","type":"uint16","internalType":"uint16"},{"name":"requiredSigners","type":"uint8","internalType":"uint8"},{"name":"totalSigners","type":"uint8","internalType":"uint8"},{"name":"timestamp","type":"uint256","internalType":"uint256"}]}],"stateMutability":"view"},{"type":"function","name":"getEntry","inputs":[{"name":"_index","type":"uint256","internalType":"uint256"}],"outputs":[{"name":"","type":"tuple","internalType":"struct AuditLog.AuditEntry","components":[{"name":"evaluationId","type":"bytes32","internalType":"bytes32"},{"name":"policyId","type":"uint256","internalType":"uint256"},{"name":"policyName","type":"string","internalType":"string"},{"name":"riskScore","type":"uint8","internalType":"uint8"},{"name":"checkResults","type":"uint16","internalType":"uint16"},{"name":"requiredSigners","type":"uint8","internalType":"uint8"},{"name":"totalSigners","type":"uint8","internalType":"uint8"},{"name":"timestamp","type":"uint256","internalType":"uint256"}]}],"stateMutability":"view"},{"type":"function","name":"getEntryCount","inputs":[],"outputs":[{"name":"","type":"uint256","internalType":"uint256"}],"stateMutability":"view"},{"type":"function","name":"postEntry","inputs":[{"name":"_entry","type":"tuple","internalType":"struct AuditLog.AuditEntry","components":[{"name":"evaluationId","type":"bytes32","internalType":"bytes32"},{"name":"policyId","type":"uint256","internalType":"uint256"},{"name":"policyName","type":"string","internalType":"string"},{"name":"riskScore","type":"uint8","internalType":"uint8"},{"name":"checkResults","type":"uint16","internalType":"uint16"},{"name":"requiredSigners","type":"uint8","internalType":"uint8"},{"name":"totalSigners","type":"uint8","internalType":"uint8"},{"name":"timestamp","type":"uint256","internalType":"uint256"}]}],"outputs":[],"stateMutability":"nonpayable"}],"bytecode":{"object":"0x6080604052348015600e575f5ffd5b506114118061001c5f395ff3fe608060405234801561000f575f5ffd5b5060043610610055575f3560e01c80637a360e651461005957806386a555fe146100775780638c300f4e146100a7578063b30906d4146100c3578063bae78d7b146100fa575b5f5ffd5b61006161012a565b60405161006e91906106be565b60405180910390f35b610091600480360381019061008c9190610709565b610135565b60405161009e919061096a565b60405180910390f35b6100c160048036038101906100bc91906109ad565b6103b9565b005b6100dd60048036038101906100d89190610709565b6103f2565b6040516100f1989796959493929190610a69565b60405180910390f35b610114600480360381019061010f9190610709565b6104fe565b6040516101219190610b99565b60405180910390f35b5f5f80549050905090565b60605f5f90505f5f90505b5f8054905081101561019157835f82815481106101605761015f610bb9565b5b905f5260205f209060050201600101540361018457818061018090610c13565b9250505b8080600101915050610140565b505f8167ffffffffffffffff8111156101ad576101ac610c5a565b5b6040519080825280602002602001820160405280156101e657816020015b6101d361065b565b8152602001906001900390816101cb5790505b5090505f5f90505f5f90505b5f805490508110156103ad57855f828154811061021257610211610bb9565b5b905f5260205f20906005020160010154036103a0575f818154811061023a57610239610bb9565b5b905f5260205f209060050201604051806101000160405290815f82015481526020016001820154815260200160028201805461027590610cb4565b80601f01602080910402602001604051908101604052809291908181526020018280546102a190610cb4565b80156102ec5780601f106102c3576101008083540402835291602001916102ec565b820191905f5260205f20905b8154815290600101906020018083116102cf57829003601f168201915b50505050508152602001600382015f9054906101000a900460ff1660ff1660ff1681526020016003820160019054906101000a900461ffff1661ffff1661ffff1681526020016003820160039054906101000a900460ff1660ff1660ff1681526020016003820160049054906101000a900460ff1660ff1660ff16815260200160048201548152505083838061038190610c13565b94508151811061039457610393610bb9565b5b60200260200101819052505b80806001019150506101f2565b50819350505050919050565b5f81908060018154018082558091505060019003905f5260205f2090600502015f9091909190915081816103ed91906113cd565b505050565b5f8181548110610400575f80fd5b905f5260205f2090600502015f91509050805f01549080600101549080600201805461042b90610cb4565b80601f016020809104026020016040519081016040528092919081815260200182805461045790610cb4565b80156104a25780601f10610479576101008083540402835291602001916104a2565b820191905f5260205f20905b81548152906001019060200180831161048557829003601f168201915b505050505090806003015f9054906101000a900460ff16908060030160019054906101000a900461ffff16908060030160039054906101000a900460ff16908060030160049054906101000a900460ff16908060040154905088565b61050661065b565b5f828154811061051957610518610bb9565b5b905f5260205f209060050201604051806101000160405290815f82015481526020016001820154815260200160028201805461055490610cb4565b80601f016020809104026020016040519081016040528092919081815260200182805461058090610cb4565b80156105cb5780601f106105a2576101008083540402835291602001916105cb565b820191905f5260205f20905b8154815290600101906020018083116105ae57829003601f168201915b50505050508152602001600382015f9054906101000a900460ff1660ff1660ff1681526020016003820160019054906101000a900461ffff1661ffff1661ffff1681526020016003820160039054906101000a900460ff1660ff1660ff1681526020016003820160049054906101000a900460ff1660ff1660ff1681526020016004820154815250509050919050565b6040518061010001604052805f81526020015f8152602001606081526020015f60ff1681526020015f61ffff1681526020015f60ff1681526020015f60ff1681526020015f81525090565b5f819050919050565b6106b8816106a6565b82525050565b5f6020820190506106d15f8301846106af565b92915050565b5f5ffd5b5f5ffd5b6106e8816106a6565b81146106f2575f5ffd5b50565b5f81359050610703816106df565b92915050565b5f6020828403121561071e5761071d6106d7565b5b5f61072b848285016106f5565b91505092915050565b5f81519050919050565b5f82825260208201905092915050565b5f819050602082019050919050565b5f819050919050565b61076f8161075d565b82525050565b61077e816106a6565b82525050565b5f81519050919050565b5f82825260208201905092915050565b8281835e5f83830152505050565b5f601f19601f8301169050919050565b5f6107c682610784565b6107d0818561078e565b93506107e081856020860161079e565b6107e9816107ac565b840191505092915050565b5f60ff82169050919050565b610809816107f4565b82525050565b5f61ffff82169050919050565b6108258161080f565b82525050565b5f61010083015f8301516108415f860182610766565b5060208301516108546020860182610775565b506040830151848203604086015261086c82826107bc565b91505060608301516108816060860182610800565b506080830151610894608086018261081c565b5060a08301516108a760a0860182610800565b5060c08301516108ba60c0860182610800565b5060e08301516108cd60e0860182610775565b508091505092915050565b5f6108e3838361082b565b905092915050565b5f602082019050919050565b5f61090182610734565b61090b818561073e565b93508360208202850161091d8561074e565b805f5b85811015610958578484038952815161093985826108d8565b9450610944836108eb565b925060208a01995050600181019050610920565b50829750879550505050505092915050565b5f6020820190508181035f83015261098281846108f7565b905092915050565b5f5ffd5b5f61010082840312156109a4576109a361098a565b5b81905092915050565b5f602082840312156109c2576109c16106d7565b5b5f82013567ffffffffffffffff8111156109df576109de6106db565b5b6109eb8482850161098e565b91505092915050565b6109fd8161075d565b82525050565b5f82825260208201905092915050565b5f610a1d82610784565b610a278185610a03565b9350610a3781856020860161079e565b610a40816107ac565b840191505092915050565b610a54816107f4565b82525050565b610a638161080f565b82525050565b5f61010082019050610a7d5f83018b6109f4565b610a8a602083018a6106af565b8181036040830152610a9c8189610a13565b9050610aab6060830188610a4b565b610ab86080830187610a5a565b610ac560a0830186610a4b565b610ad260c0830185610a4b565b610adf60e08301846106af565b9998505050505050505050565b5f61010083015f830151610b025f860182610766565b506020830151610b156020860182610775565b5060408301518482036040860152610b2d82826107bc565b9150506060830151610b426060860182610800565b506080830151610b55608086018261081c565b5060a0830151610b6860a0860182610800565b5060c0830151610b7b60c0860182610800565b5060e0830151610b8e60e0860182610775565b508091505092915050565b5f6020820190508181035f830152610bb18184610aec565b905092915050565b7f4e487b71000000000000000000000000000000000000000000000000000000005f52603260045260245ffd5b7f4e487b71000000000000000000000000000000000000000000000000000000005f52601160045260245ffd5b5f610c1d826106a6565b91507fffffffffffffffffffffffffffffffffffffffffffffffffffffffffffffffff8203610c4f57610c4e610be6565b5b600182019050919050565b7f4e487b71000000000000000000000000000000000000000000000000000000005f52604160045260245ffd5b7f4e487b71000000000000000000000000000000000000000000000000000000005f52602260045260245ffd5b5f6002820490506001821680610ccb57607f821691505b602082108103610cde57610cdd610c87565b5b50919050565b610ced8161075d565b8114610cf7575f5ffd5b50565b5f8135610d0681610ce4565b80915050919050565b5f815f1b9050919050565b5f7fffffffffffffffffffffffffffffffffffffffffffffffffffffffffffffffff610d4584610d0f565b9350801983169250808416831791505092915050565b5f610d658261075d565b9050919050565b5f815f1c9050919050565b5f610d8182610d6c565b9050919050565b610d9182610d5b565b610da4610d9d82610d77565b8354610d1a565b8255505050565b5f8135610db7816106df565b80915050919050565b5f819050919050565b5f610de3610dde610dd9846106a6565b610dc0565b6106a6565b9050919050565b5f819050919050565b610dfc82610dc9565b610e0f610e0882610dea565b8354610d1a565b8255505050565b5f5ffd5b5f5ffd5b5f5ffd5b5f5f83356001602003843603038112610e3e57610e3d610e16565b5b80840192508235915067ffffffffffffffff821115610e6057610e5f610e1a565b5b602083019250600182023603831315610e7c57610e7b610e1e565b5b509250929050565b5f82905092915050565b5f819050815f5260205f209050919050565b5f6020601f8301049050919050565b5f82821b905092915050565b5f60088302610eea7fffffffffffffffffffffffffffffffffffffffffffffffffffffffffffffffff82610eaf565b610ef48683610eaf565b95508019841693508086168417925050509392505050565b610f1583610dc9565b610f29610f2182610dea565b848454610ebb565b825550505050565b5f5f905090565b610f40610f31565b610f4b818484610f0c565b505050565b5b81811015610f6e57610f635f82610f38565b600181019050610f51565b5050565b601f821115610fb357610f8481610e8e565b610f8d84610ea0565b81016020851015610f9c578190505b610fb0610fa885610ea0565b830182610f50565b50505b505050565b5f82821c905092915050565b5f610fd35f1984600802610fb8565b1980831691505092915050565b5f610feb8383610fc4565b9150826002028217905092915050565b6110058383610e84565b67ffffffffffffffff81111561101e5761101d610c5a565b5b6110288254610cb4565b611033828285610f72565b5f601f831160018114611060575f841561104e578287013590505b6110588582610fe0565b8655506110bf565b601f19841661106e86610e8e565b5f5b8281101561109557848901358255600182019150602085019450602081019050611070565b868310156110b257848901356110ae601f891682610fc4565b8355505b6001600288020188555050505b50505050505050565b6110d3838383610ffb565b505050565b6110e1816107f4565b81146110eb575f5ffd5b50565b5f81356110fa816110d8565b80915050919050565b5f60ff61110f84610d0f565b9350801983169250808416831791505092915050565b5f61113f61113a611135846107f4565b610dc0565b6107f4565b9050919050565b5f819050919050565b61115882611125565b61116b61116482611146565b8354611103565b8255505050565b61117b8161080f565b8114611185575f5ffd5b50565b5f813561119481611172565b80915050919050565b5f8160081b9050919050565b5f62ffff006111b78461119d565b9350801983169250808416831791505092915050565b5f6111e76111e26111dd8461080f565b610dc0565b61080f565b9050919050565b5f819050919050565b611200826111cd565b61121361120c826111ee565b83546111a9565b8255505050565b5f8160181b9050919050565b5f63ff0000006112358461121a565b9350801983169250808416831791505092915050565b61125482611125565b61126761126082611146565b8354611226565b8255505050565b5f8160201b9050919050565b5f64ff0000000061128a8461126e565b9350801983169250808416831791505092915050565b6112a982611125565b6112bc6112b582611146565b835461127a565b8255505050565b5f81015f8301806112d381610cfa565b90506112df8184610d88565b5050506001810160208301806112f481610dab565b90506113008184610df3565b50505060028101604083016113158185610e22565b6113208183866110c8565b50505050600381016060830180611336816110ee565b9050611342818461114f565b50505060038101608083018061135781611188565b905061136381846111f7565b5050506003810160a0830180611378816110ee565b9050611384818461124b565b5050506003810160c0830180611399816110ee565b90506113a581846112a0565b5050506004810160e08301806113ba81610dab565b90506113c68184610df3565b5050505050565b6113d782826112c3565b505056fea2646970667358221220c983ca55d05db09d3f9933957344d1bd34ce492dd0d59ef75192bb9dbcec64ca64736f6c634300081f0033","linkReferences":{}},"methodIdentifiers":{"entries(uint256)":"b30906d4","getEntriesByPolicy(uint256)":"86a555fe","getEntry(uint256)":"bae78d7b","getEntryCount()":"7a360e65","postEntry((bytes32,uint256,string,uint8,uint16,uint8,uint8,uint256))":"8c300f4e"},"id":0}