{"abi":[{"type":"constructor","inputs":[{"name":"_signers","type":"address[]","internalType":"address[]"}],"stateMutability":"nonpayable"},{"type":"function","name":"approve","inputs":[{"name":"_proposalId","type":"uint256","internalType":"uint256"}],"outputs":[],"stateMutability":"nonpayable"},{"type":"function","name":"execute","inputs":[{"name":"_proposalId","type":"uint256","internalType":"uint256"}],"outputs":[],"stateMutability":"nonpayable"},{"type":"function","name":"getProposal","inputs":[{"name":"_id","type":"uint256","internalType":"uint256"}],"outputs":[{"name":"","type":"tuple","internalType":"struct GovernanceMultisig.Proposal","components":[{"name":"id","type":"uint256","internalType":"uint256"},{"name":"target","type":"address","internalType":"address"},{"name":"data","type":"bytes","internalType":"bytes"},{"name":"description","type":"string","internalType":"string"},{"name":"approvalCount","type":"uint256","internalType":"uint256"},{"name":"executed","type":"bool","internalType":"bool"},{"name":"createdAt","type":"uint256","internalType":"uint256"}]}],"stateMutability":"view"},{"type":"function","name":"getSignerCount","inputs":[],"outputs":[{"name":"","type":"uint256","internalType":"uint256"}],"stateMutability":"view"},{"type":"function","name":"getSigners","inputs":[],"outputs":[{"name":"","type":"address[]","internalType":"address[]"}],"stateMutability":"view"},{"type":"function","name":"hasApproved","inputs":[{"name":"","type":"uint256","internalType":"uint256"},{"name":"","type":"address","internalType":"address"}],"outputs":[{"name":"","type":"bool","internalType":"bool"}],"stateMutability":"view"},{"type":"function","name":"isSigner","inputs":[{"name":"","type":"address","internalType":"address"}],"outputs":[{"name":"","type":"bool","internalType":"bool"}],"stateMutability":"view"},{"type":"function","name":"proposalCount","inputs":[],"outputs":[{"name":"","type":"uint256","internalType":"uint256"}],"stateMutability":"view"},{"type":"function","name":"proposals","inputs":[{"name":"","type":"uint256","internalType":"uint256"}],"outputs":[{"name":"id","type":"uint256","internalType":"uint256"},{"name":"target","type":"address","internalType":"address"},{"name":"data","type":"bytes","internalType":"bytes"},{"name":"description","type":"string","internalType":"string"},{"name":"approvalCount","type":"uint256","internalType":"uint256"},{"name":"executed","type":"bool","internalType":"bool"},{"name":"createdAt","type":"uint256","internalType":"uint256"}],"stateMutability":"view"},{"type":"function","name":"propose","inputs":[{"name":"_target","type":"address","internalType":"address"},{"name":"_data","type":"bytes","internalType":"bytes"},{"name":"_description","type":"string","internalType":"string"}],"outputs":[{"name":"","type":"uint256","internalType":"uint256"}],"stateMutability":"nonpayable"},{"type":"function","name":"signers","inputs":[{"name":"","type":"uint256","internalType":"uint256"}],"outputs":[{"name":"","type":"address","internalType":"address"}],"stateMutability":"view"}],"bytecode":{"object":"0x608060405234801562000010575f80fd5b5060405162002215380380620022158339818101604052810190620000369190620004a9565b5f8151116200007c576040517f08c379a0000000000000000000000000000000000000000000000000000000008152600401620000739062000556565b60405180910390fd5b5f5b8151811015620002c3575f73ffffffffffffffffffffffffffffffffffffffff16828281518110620000b557620000b462000576565b5b602002602001015173ffffffffffffffffffffffffffffffffffffffff160362000116576040517f08c379a00000000000000000000000000000000000000000000000000000000081526004016200010d90620005f1565b60405180910390fd5b60015f8383815181106200012f576200012e62000576565b5b602002602001015173ffffffffffffffffffffffffffffffffffffffff1673ffffffffffffffffffffffffffffffffffffffff1681526020019081526020015f205f9054906101000a900460ff1615620001c0576040517f08c379a0000000000000000000000000000000000000000000000000000000008152600401620001b7906200065f565b60405180910390fd5b5f828281518110620001d757620001d662000576565b5b6020026020010151908060018154018082558091505060019003905f5260205f20015f9091909190916101000a81548173ffffffffffffffffffffffffffffffffffffffff021916908373ffffffffffffffffffffffffffffffffffffffff1602179055506001805f84848151811062000256576200025562000576565b5b602002602001015173ffffffffffffffffffffffffffffffffffffffff1673ffffffffffffffffffffffffffffffffffffffff1681526020019081526020015f205f6101000a81548160ff0219169083151502179055508080620002ba90620006b5565b9150506200007e565b505062000701565b5f604051905090565b5f80fd5b5f80fd5b5f80fd5b5f601f19601f8301169050919050565b7f4e487b71000000000000000000000000000000000000000000000000000000005f52604160045260245ffd5b6200032882620002e0565b810181811067ffffffffffffffff821117156200034a5762000349620002f0565b5b80604052505050565b5f6200035e620002cb565b90506200036c82826200031d565b919050565b5f67ffffffffffffffff8211156200038e576200038d620002f0565b5b602082029050602081019050919050565b5f80fd5b5f73ffffffffffffffffffffffffffffffffffffffff82169050919050565b5f620003ce82620003a3565b9050919050565b620003e081620003c2565b8114620003eb575f80fd5b50565b5f81519050620003fe81620003d5565b92915050565b5f6200041a620004148462000371565b62000353565b9050808382526020820190506020840283018581111562000440576200043f6200039f565b5b835b818110156200046d5780620004588882620003ee565b84526020840193505060208101905062000442565b5050509392505050565b5f82601f8301126200048e576200048d620002dc565b5b8151620004a084826020860162000404565b91505092915050565b5f60208284031215620004c157620004c0620002d4565b5b5f82015167ffffffffffffffff811115620004e157620004e0620002d8565b5b620004ef8482850162000477565b91505092915050565b5f82825260208201905092915050565b7f4e656564207369676e65727300000000000000000000000000000000000000005f82015250565b5f6200053e600c83620004f8565b91506200054b8262000508565b602082019050919050565b5f6020820190508181035f8301526200056f8162000530565b9050919050565b7f4e487b71000000000000000000000000000000000000000000000000000000005f52603260045260245ffd5b7f5a65726f206164647265737300000000000000000000000000000000000000005f82015250565b5f620005d9600c83620004f8565b9150620005e682620005a3565b602082019050919050565b5f6020820190508181035f8301526200060a81620005cb565b9050919050565b7f4475706c6963617465207369676e6572000000000000000000000000000000005f82015250565b5f62000647601083620004f8565b9150620006548262000611565b602082019050919050565b5f6020820190508181035f830152620006788162000639565b9050919050565b7f4e487b71000000000000000000000000000000000000000000000000000000005f52601160045260245ffd5b5f819050919050565b5f620006c182620006ac565b91507fffffffffffffffffffffffffffffffffffffffffffffffffffffffffffffffff8203620006f657620006f56200067f565b5b600182019050919050565b611b06806200070f5f395ff3fe608060405234801561000f575f80fd5b50600436106100a7575f3560e01c806394cf795e1161006f57806394cf795e146101a1578063b715be81146101bf578063b759f954146101dd578063c7f758a8146101f9578063da35c66414610229578063fe0d94c114610247576100a7565b8063013cf08b146100ab5780632079fb9a146100e15780632358d5a8146101115780633153fedb146101415780637df73e2714610171575b5f80fd5b6100c560048036038101906100c09190610d33565b610263565b6040516100d89796959493929190610ea2565b60405180910390f35b6100fb60048036038101906100f69190610d33565b6103d8565b6040516101089190610f1d565b60405180910390f35b61012b60048036038101906101269190610f60565b610412565b6040516101389190610f9e565b60405180910390f35b61015b6004803603810190610156919061106d565b61043c565b60405161016891906110fe565b60405180910390f35b61018b60048036038101906101869190611117565b6105ea565b6040516101989190610f9e565b60405180910390f35b6101a9610607565b6040516101b691906111f9565b60405180910390f35b6101c7610691565b6040516101d491906110fe565b60405180910390f35b6101f760048036038101906101f29190610d33565b61069c565b005b610213600480360381019061020e9190610d33565b6108a4565b6040516102209190611367565b60405180910390f35b610231610a7b565b60405161023e91906110fe565b60405180910390f35b610261600480360381019061025c9190610d33565b610a81565b005b6003602052805f5260405f205f91509050805f015490806001015f9054906101000a900473ffffffffffffffffffffffffffffffffffffffff16908060020180546102ad906113b4565b80601f01602080910402602001604051908101604052809291908181526020018280546102d9906113b4565b80156103245780601f106102fb57610100808354040283529160200191610324565b820191905f5260205f20905b81548152906001019060200180831161030757829003601f168201915b505050505090806003018054610339906113b4565b80601f0160208091040260200160405190810160405280929190818152602001828054610365906113b4565b80156103b05780601f10610387576101008083540402835291602001916103b0565b820191905f5260205f20905b81548152906001019060200180831161039357829003601f168201915b505050505090806004015490806005015f9054906101000a900460ff16908060060154905087565b5f81815481106103e6575f80fd5b905f5260205f20015f915054906101000a900473ffffffffffffffffffffffffffffffffffffffff1681565b6004602052815f5260405f20602052805f5260405f205f915091509054906101000a900460ff1681565b5f60015f3373ffffffffffffffffffffffffffffffffffffffff1673ffffffffffffffffffffffffffffffffffffffff1681526020019081526020015f205f9054906101000a900460ff166104c6576040517f08c379a00000000000000000000000000000000000000000000000000000000081526004016104bd9061142e565b60405180910390fd5b5f60025f8154809291906104d990611479565b9190505590505f60035f8381526020019081526020015f20905081815f018190555087816001015f6101000a81548173ffffffffffffffffffffffffffffffffffffffff021916908373ffffffffffffffffffffffffffffffffffffffff1602179055508686826002019182610550929190611694565b5084848260030191826105649291906117c3565b5060018160040181905550438160060181905550600160045f8481526020019081526020015f205f3373ffffffffffffffffffffffffffffffffffffffff1673ffffffffffffffffffffffffffffffffffffffff1681526020019081526020015f205f6101000a81548160ff021916908315150217905550819250505095945050505050565b6001602052805f5260405f205f915054906101000a900460ff1681565b60605f80548060200260200160405190810160405280929190818152602001828054801561068757602002820191905f5260205f20905b815f9054906101000a900473ffffffffffffffffffffffffffffffffffffffff1673ffffffffffffffffffffffffffffffffffffffff168152602001906001019080831161063e575b5050505050905090565b5f8080549050905090565b60015f3373ffffffffffffffffffffffffffffffffffffffff1673ffffffffffffffffffffffffffffffffffffffff1681526020019081526020015f205f9054906101000a900460ff16610725576040517f08c379a000000000000000000000000000000000000000000000000000000000815260040161071c9061142e565b60405180910390fd5b5f60035f8381526020019081526020015f209050806005015f9054906101000a900460ff161561078a576040517f08c379a0000000000000000000000000000000000000000000000000000000008152600401610781906118da565b60405180910390fd5b60045f8381526020019081526020015f205f3373ffffffffffffffffffffffffffffffffffffffff1673ffffffffffffffffffffffffffffffffffffffff1681526020019081526020015f205f9054906101000a900460ff1615610823576040517f08c379a000000000000000000000000000000000000000000000000000000000815260040161081a90611942565b60405180910390fd5b600160045f8481526020019081526020015f205f3373ffffffffffffffffffffffffffffffffffffffff1673ffffffffffffffffffffffffffffffffffffffff1681526020019081526020015f205f6101000a81548160ff021916908315150217905550806004015f81548092919061089b90611479565b91905055505050565b6108ac610ca8565b60035f8381526020019081526020015f206040518060e00160405290815f8201548152602001600182015f9054906101000a900473ffffffffffffffffffffffffffffffffffffffff1673ffffffffffffffffffffffffffffffffffffffff1673ffffffffffffffffffffffffffffffffffffffff168152602001600282018054610936906113b4565b80601f0160208091040260200160405190810160405280929190818152602001828054610962906113b4565b80156109ad5780601f10610984576101008083540402835291602001916109ad565b820191905f5260205f20905b81548152906001019060200180831161099057829003601f168201915b505050505081526020016003820180546109c6906113b4565b80601f01602080910402602001604051908101604052809291908181526020018280546109f2906113b4565b8015610a3d5780601f10610a1457610100808354040283529160200191610a3d565b820191905f5260205f20905b815481529060010190602001808311610a2057829003601f168201915b5050505050815260200160048201548152602001600582015f9054906101000a900460ff161515151581526020016006820154815250509050919050565b60025481565b60015f3373ffffffffffffffffffffffffffffffffffffffff1673ffffffffffffffffffffffffffffffffffffffff1681526020019081526020015f205f9054906101000a900460ff16610b0a576040517f08c379a0000000000000000000000000000000000000000000000000000000008152600401610b019061142e565b60405180910390fd5b5f60035f8381526020019081526020015f209050806005015f9054906101000a900460ff1615610b6f576040517f08c379a0000000000000000000000000000000000000000000000000000000008152600401610b66906118da565b60405180910390fd5b5f80549050816004015414610bb9576040517f08c379a0000000000000000000000000000000000000000000000000000000008152600401610bb0906119aa565b60405180910390fd5b6001816005015f6101000a81548160ff0219169083151502179055505f816001015f9054906101000a900473ffffffffffffffffffffffffffffffffffffffff1673ffffffffffffffffffffffffffffffffffffffff1682600201604051610c219190611a52565b5f604051808303815f865af19150503d805f8114610c5a576040519150601f19603f3d011682016040523d82523d5f602084013e610c5f565b606091505b5050905080610ca3576040517f08c379a0000000000000000000000000000000000000000000000000000000008152600401610c9a90611ab2565b60405180910390fd5b505050565b6040518060e001604052805f81526020015f73ffffffffffffffffffffffffffffffffffffffff16815260200160608152602001606081526020015f81526020015f151581526020015f81525090565b5f80fd5b5f80fd5b5f819050919050565b610d1281610d00565b8114610d1c575f80fd5b50565b5f81359050610d2d81610d09565b92915050565b5f60208284031215610d4857610d47610cf8565b5b5f610d5584828501610d1f565b91505092915050565b610d6781610d00565b82525050565b5f73ffffffffffffffffffffffffffffffffffffffff82169050919050565b5f610d9682610d6d565b9050919050565b610da681610d8c565b82525050565b5f81519050919050565b5f82825260208201905092915050565b5f5b83811015610de3578082015181840152602081019050610dc8565b5f8484015250505050565b5f601f19601f8301169050919050565b5f610e0882610dac565b610e128185610db6565b9350610e22818560208601610dc6565b610e2b81610dee565b840191505092915050565b5f81519050919050565b5f82825260208201905092915050565b5f610e5a82610e36565b610e648185610e40565b9350610e74818560208601610dc6565b610e7d81610dee565b840191505092915050565b5f8115159050919050565b610e9c81610e88565b82525050565b5f60e082019050610eb55f83018a610d5e565b610ec26020830189610d9d565b8181036040830152610ed48188610dfe565b90508181036060830152610ee88187610e50565b9050610ef76080830186610d5e565b610f0460a0830185610e93565b610f1160c0830184610d5e565b98975050505050505050565b5f602082019050610f305f830184610d9d565b92915050565b610f3f81610d8c565b8114610f49575f80fd5b50565b5f81359050610f5a81610f36565b92915050565b5f8060408385031215610f7657610f75610cf8565b5b5f610f8385828601610d1f565b9250506020610f9485828601610f4c565b9150509250929050565b5f602082019050610fb15f830184610e93565b92915050565b5f80fd5b5f80fd5b5f80fd5b5f8083601f840112610fd857610fd7610fb7565b5b8235905067ffffffffffffffff811115610ff557610ff4610fbb565b5b60208301915083600182028301111561101157611010610fbf565b5b9250929050565b5f8083601f84011261102d5761102c610fb7565b5b8235905067ffffffffffffffff81111561104a57611049610fbb565b5b60208301915083600182028301111561106657611065610fbf565b5b9250929050565b5f805f805f6060868803121561108657611085610cf8565b5b5f61109388828901610f4c565b955050602086013567ffffffffffffffff8111156110b4576110b3610cfc565b5b6110c088828901610fc3565b9450945050604086013567ffffffffffffffff8111156110e3576110e2610cfc565b5b6110ef88828901611018565b92509250509295509295909350565b5f6020820190506111115f830184610d5e565b92915050565b5f6020828403121561112c5761112b610cf8565b5b5f61113984828501610f4c565b91505092915050565b5f81519050919050565b5f82825260208201905092915050565b5f819050602082019050919050565b61117481610d8c565b82525050565b5f611185838361116b565b60208301905092915050565b5f602082019050919050565b5f6111a782611142565b6111b1818561114c565b93506111bc8361115c565b805f5b838110156111ec5781516111d3888261117a565b97506111de83611191565b9250506001810190506111bf565b5085935050505092915050565b5f6020820190508181035f830152611211818461119d565b905092915050565b61122281610d00565b82525050565b5f82825260208201905092915050565b5f61124282610dac565b61124c8185611228565b935061125c818560208601610dc6565b61126581610dee565b840191505092915050565b5f82825260208201905092915050565b5f61128a82610e36565b6112948185611270565b93506112a4818560208601610dc6565b6112ad81610dee565b840191505092915050565b6112c181610e88565b82525050565b5f60e083015f8301516112dc5f860182611219565b5060208301516112ef602086018261116b565b50604083015184820360408601526113078282611238565b915050606083015184820360608601526113218282611280565b91505060808301516113366080860182611219565b5060a083015161134960a08601826112b8565b5060c083015161135c60c0860182611219565b508091505092915050565b5f6020820190508181035f83015261137f81846112c7565b905092915050565b7f4e487b71000000000000000000000000000000000000000000000000000000005f52602260045260245ffd5b5f60028204905060018216806113cb57607f821691505b6020821081036113de576113dd611387565b5b50919050565b7f4e6f742061207369676e657200000000000000000000000000000000000000005f82015250565b5f611418600c83610e40565b9150611423826113e4565b602082019050919050565b5f6020820190508181035f8301526114458161140c565b9050919050565b7f4e487b71000000000000000000000000000000000000000000000000000000005f52601160045260245ffd5b5f61148382610d00565b91507fffffffffffffffffffffffffffffffffffffffffffffffffffffffffffffffff82036114b5576114b461144c565b5b600182019050919050565b5f82905092915050565b7f4e487b71000000000000000000000000000000000000000000000000000000005f52604160045260245ffd5b5f819050815f5260205f209050919050565b5f6020601f8301049050919050565b5f82821b905092915050565b5f600883026115537fffffffffffffffffffffffffffffffffffffffffffffffffffffffffffffffff82611518565b61155d8683611518565b95508019841693508086168417925050509392505050565b5f819050919050565b5f61159861159361158e84610d00565b611575565b610d00565b9050919050565b5f819050919050565b6115b18361157e565b6115c56115bd8261159f565b848454611524565b825550505050565b5f90565b6115d96115cd565b6115e48184846115a8565b505050565b5b81811015611607576115fc5f826115d1565b6001810190506115ea565b5050565b601f82111561164c5761161d816114f7565b61162684611509565b81016020851015611635578190505b61164961164185611509565b8301826115e9565b50505b505050565b5f82821c905092915050565b5f61166c5f1984600802611651565b1980831691505092915050565b5f611684838361165d565b9150826002028217905092915050565b61169e83836114c0565b67ffffffffffffffff8111156116b7576116b66114ca565b5b6116c182546113b4565b6116cc82828561160b565b5f601f8311600181146116f9575f84156116e7578287013590505b6116f18582611679565b865550611758565b601f198416611707866114f7565b5f5b8281101561172e57848901358255600182019150602085019450602081019050611709565b8683101561174b5784890135611747601f89168261165d565b8355505b6001600288020188555050505b50505050505050565b5f82905092915050565b5f819050815f5260205f209050919050565b601f8211156117be5761178f8161176b565b61179884611509565b810160208510156117a7578190505b6117bb6117b385611509565b8301826115e9565b50505b505050565b6117cd8383611761565b67ffffffffffffffff8111156117e6576117e56114ca565b5b6117f082546113b4565b6117fb82828561177d565b5f601f831160018114611828575f8415611816578287013590505b6118208582611679565b865550611887565b601f1984166118368661176b565b5f5b8281101561185d57848901358255600182019150602085019450602081019050611838565b8683101561187a5784890135611876601f89168261165d565b8355505b6001600288020188555050505b50505050505050565b7f416c7265616479206578656375746564000000000000000000000000000000005f82015250565b5f6118c4601083610e40565b91506118cf82611890565b602082019050919050565b5f6020820190508181035f8301526118f1816118b8565b9050919050565b7f416c726561647920617070726f766564000000000000000000000000000000005f82015250565b5f61192c601083610e40565b9150611937826118f8565b602082019050919050565b5f6020820190508181035f83015261195981611920565b9050919050565b7f4e6f7420616c6c207369676e65727320617070726f76656400000000000000005f82015250565b5f611994601883610e40565b915061199f82611960565b602082019050919050565b5f6020820190508181035f8301526119c181611988565b9050919050565b5f81905092915050565b5f81546119de816113b4565b6119e881866119c8565b9450600182165f8114611a025760018114611a1757611a49565b60ff1983168652811515820286019350611a49565b611a20856114f7565b5f5b83811015611a4157815481890152600182019150602081019050611a22565b838801955050505b50505092915050565b5f611a5d82846119d2565b915081905092915050565b7f457865637574696f6e206661696c6564000000000000000000000000000000005f82015250565b5f611a9c601083610e40565b9150611aa782611a68565b602082019050919050565b5f6020820190508181035f830152611ac981611a90565b905091905056fea2646970667358221220324ae61353c4ab79a76bc799a47de8b9c73bf60308081ea0c2d60fe4dcad81f564736f6c63430008140033","linkReferences":{}},"methodIdentifiers":{"approve(uint256)":"b759f954","execute(uint256)":"fe0d94c1","getProposal(uint256)":"c7f758a8","getSignerCount()":"b715be81","getSigners()":"94cf795e","hasApproved(uint256,address)":"2358d5a8","isSigner(address)":"7df73e27","proposalCount()":"da35c664","proposals(uint256)":"013cf08b","propose(address,bytes,string)":"3153fedb","signers(uint256)":"2079fb9a"},"id":20}