{"abi":[{"type":"constructor","inputs":[],"stateMutability":"nonpayable"},{"type":"function","name":"approve","inputs":[{"name":"_proposalId","type":"uint256","internalType":"uint256"}],"outputs":[],"stateMutability":"nonpayable"},{"type":"function","name":"execute","inputs":[{"name":"_proposalId","type":"uint256","internalType":"uint256"}],"outputs":[],"stateMutability":"nonpayable"},{"type":"function","name":"getProposal","inputs":[{"name":"_id","type":"uint256","internalType":"uint256"}],"outputs":[{"name":"","type":"tuple","internalType":"struct GovernanceMultisig.Proposal","components":[{"name":"id","type":"uint256","internalType":"uint256"},{"name":"target","type":"address","internalType":"address"},{"name":"data","type":"bytes","internalType":"bytes"},{"name":"description","type":"string","internalType":"string"},{"name":"approvalCount","type":"uint256","internalType":"uint256"},{"name":"executed","type":"bool","internalType":"bool"},{"name":"createdAt","type":"uint256","internalType":"uint256"}]}],"stateMutability":"view"},{"type":"function","name":"getSignerCount","inputs":[],"outputs":[{"name":"","type":"uint256","internalType":"uint256"}],"stateMutability":"view"},{"type":"function","name":"getSigners","inputs":[],"outputs":[{"name":"","type":"address[]","internalType":"address[]"}],"stateMutability":"view"},{"type":"function","name":"hasApproved","inputs":[{"name":"","type":"uint256","internalType":"uint256"},{"name":"","type":"address","internalType":"address"}],"outputs":[{"name":"","type":"bool","internalType":"bool"}],"stateMutability":"view"},{"type":"function","name":"initialize","inputs":[{"name":"_signers","type":"address[]","internalType":"address[]"}],"outputs":[],"stateMutability":"nonpayable"},{"type":"function","name":"isSigner","inputs":[{"name":"","type":"address","internalType":"address"}],"outputs":[{"name":"","type":"bool","internalType":"bool"}],"stateMutability":"view"},{"type":"function","name":"proposalCount","inputs":[],"outputs":[{"name":"","type":"uint256","internalType":"uint256"}],"stateMutability":"view"},{"type":"function","name":"proposals","inputs":[{"name":"","type":"uint256","internalType":"uint256"}],"outputs":[{"name":"id","type":"uint256","internalType":"uint256"},{"name":"target","type":"address","internalType":"address"},{"name":"data","type":"bytes","internalType":"bytes"},{"name":"description","type":"string","internalType":"string"},{"name":"approvalCount","type":"uint256","internalType":"uint256"},{"name":"executed","type":"bool","internalType":"bool"},{"name":"createdAt","type":"uint256","internalType":"uint256"}],"stateMutability":"view"},{"type":"function","name":"propose","inputs":[{"name":"_target","type":"address","internalType":"address"},{"name":"_data","type":"bytes","internalType":"bytes"},{"name":"_description","type":"string","internalType":"string"}],"outputs":[{"name":"","type":"uint256","internalType":"uint256"}],"stateMutability":"nonpayable"},{"type":"function","name":"signers","inputs":[{"name":"","type":"uint256","internalType":"uint256"}],"outputs":[{"name":"","type":"address","internalType":"address"}],"stateMutability":"view"}],"bytecode":{"object":"0x608060405234601c57600e6020565b61205b61002b823961205b90f35b6026565b60405190565b5f80fdfe60806040526004361015610013575b610da9565b61001d5f356100dc565b8063013cf08b146100d75780632079fb9a146100d25780632358d5a8146100cd5780633153fedb146100c85780637df73e27146100c357806394cf795e146100be578063a224cee7146100b9578063b715be81146100b4578063b759f954146100af578063c7f758a8146100aa578063da35c664146100a55763fe0d94c10361000e57610d76565b610d41565b610cd7565b610b86565b610b51565b610b1d565b610a6e565b61098b565b61091b565b6107db565b61069a565b6105aa565b60e01c90565b60405190565b5f80fd5b5f80fd5b5f80fd5b90565b610100816100f4565b0361010757565b5f80fd5b90503590610118826100f7565b565b9060208282031261013357610130915f0161010b565b90565b6100ec565b90565b61014f61014a610154926100f4565b610138565b6100f4565b90565b906101619061013b565b5f5260205260405f2090565b5f1c90565b90565b6101816101869161016d565b610172565b90565b6101939054610175565b90565b60018060a01b031690565b6101ad6101b29161016d565b610196565b90565b6101bf90546101a1565b90565b634e487b7160e01b5f52602260045260245ffd5b90600160028304921680156101f6575b60208310146101f157565b6101c2565b91607f16916101e6565b60209181520190565b5f5260205f2090565b905f929180549061022c610225836101d6565b8094610200565b916001811690815f146102835750600114610247575b505050565b6102549192939450610209565b915f925b81841061026b57505001905f8080610242565b60018160209295939554848601520191019290610258565b92949550505060ff19168252151560200201905f8080610242565b906102a891610212565b90565b601f801991011690565b634e487b7160e01b5f52604160045260245ffd5b906102d3906102ab565b810190811067ffffffffffffffff8211176102ed57604052565b6102b5565b9061031261030b926103026100e2565b9384809261029e565b03836102c9565b565b60209181520190565b5f5260205f2090565b905f9291805490610340610339836101d6565b8094610314565b916001811690815f14610397575060011461035b575b505050565b610368919293945061031d565b915f925b81841061037f57505001905f8080610356565b6001816020929593955484860152019101929061036c565b92949550505060ff19168252151560200201905f8080610356565b906103bc91610326565b90565b906103df6103d8926103cf6100e2565b938480926103b2565b03836102c9565b565b60ff1690565b6103f36103f89161016d565b6103e1565b90565b61040590546103e7565b90565b610413906004610157565b61041e5f8201610189565b9161042b600183016101b5565b91610438600282016102f2565b91610445600383016103bf565b9161045260048201610189565b9161046b6006610464600585016103fb565b9301610189565b90565b610477906100f4565b9052565b60018060a01b031690565b61048f9061047b565b90565b61049b90610486565b9052565b5190565b60209181520190565b90825f9392825e0152565b6104d66104df6020936104e4936104cd8161049f565b938480936104a3565b958691016104ac565b6102ab565b0190565b5190565b60209181520190565b61051461051d6020936105229361050b816104e8565b938480936104ec565b958691016104ac565b6102ab565b0190565b151590565b61053490610526565b9052565b9261058c60c09561057e6105a89994610597946105716105a1989e9d9b9e61056760e08c01945f8d019061046e565b60208b0190610492565b88820360408a01526104b7565b9086820360608801526104f5565b98608085019061046e565b60a083019061052b565b019061046e565b565b346105e1576105dd6105c56105c036600461011a565b610408565b936105d49795979391936100e2565b97889788610538565b0390f35b6100e8565b634e487b7160e01b5f52603260045260245ffd5b5490565b5f5260205f2090565b610610816105fa565b82101561062a576106226001916105fe565b910201905f90565b6105e6565b1c90565b610643906008610648930261062f565b610196565b90565b906106569154610633565b90565b6001610664816105fa565b8210156106815761067e9161067891610607565b9061064b565b90565b5f80fd5b9190610698905f60208501940190610492565b565b346106ca576106c66106b56106b036600461011a565b610659565b6106bd6100e2565b91829182610685565b0390f35b6100e8565b6106d881610486565b036106df57565b5f80fd5b905035906106f0826106cf565b565b919060408382031261071a578061070e610717925f860161010b565b936020016106e3565b90565b6100ec565b906107299061013b565b5f5260205260405f2090565b61074961074461074e9261047b565b610138565b61047b565b90565b61075a90610735565b90565b61076690610751565b90565b906107739061075d565b5f5260205260405f2090565b61078f906008610794930261062f565b6103e1565b90565b906107a2915461077f565b90565b6107be6107c3926107b96005935f9461071f565b610769565b610797565b90565b91906107d9905f6020850194019061052b565b565b3461080c576108086107f76107f13660046106f2565b906107a5565b6107ff6100e2565b918291826107c6565b0390f35b6100e8565b5f80fd5b5f80fd5b5f80fd5b909182601f830112156108575781359167ffffffffffffffff831161085257602001926001830284011161084d57565b610819565b610815565b610811565b909182601f830112156108965781359167ffffffffffffffff831161089157602001926001830284011161088c57565b610819565b610815565b610811565b606081830312610901576108b1825f83016106e3565b92602082013567ffffffffffffffff81116108fc57836108d291840161081d565b929093604082013567ffffffffffffffff81116108f7576108f3920161085c565b9091565b6100f0565b6100f0565b6100ec565b9190610919905f6020850194019061046e565b565b3461094f5761094b61093a61093136600461089b565b93929092611340565b6109426100e2565b91829182610906565b0390f35b6100e8565b9060208282031261096d5761096a915f016106e3565b90565b6100ec565b610988906109836002915f92610769565b610797565b90565b346109bb576109b76109a66109a1366004610954565b610972565b6109ae6100e2565b918291826107c6565b0390f35b6100e8565b5f9103126109ca57565b6100ec565b5190565b60209181520190565b60200190565b6109eb90610486565b9052565b906109fc816020936109e2565b0190565b60200190565b90610a23610a1d610a16846109cf565b80936109d3565b926109dc565b905f5b818110610a335750505090565b909192610a4c610a4660019286516109ef565b94610a00565b9101919091610a26565b610a6b9160208201915f818403910152610a06565b90565b34610a9e57610a7e3660046109c0565b610a9a610a8961140b565b610a916100e2565b91829182610a56565b0390f35b6100e8565b909182601f83011215610add5781359167ffffffffffffffff8311610ad8576020019260208302840111610ad357565b610819565b610815565b610811565b90602082820312610b13575f82013567ffffffffffffffff8111610b0e57610b0a9201610aa3565b9091565b6100f0565b6100ec565b5f0190565b34610b4c57610b36610b30366004610ae2565b9061199c565b610b3e6100e2565b80610b4881610b18565b0390f35b6100e8565b34610b8157610b613660046109c0565b610b7d610b6c6119a8565b610b746100e2565b91829182610906565b0390f35b6100e8565b34610bb457610b9e610b9936600461011a565b611b88565b610ba66100e2565b80610bb081610b18565b0390f35b6100e8565b610bc2906100f4565b9052565b610be5610bee602093610bf393610bdc8161049f565b93848093610200565b958691016104ac565b6102ab565b0190565b610c16610c1f602093610c2493610c0d816104e8565b93848093610314565b958691016104ac565b6102ab565b0190565b610c3190610526565b9052565b90610cbc9060c080610c8d610c7b60e08501610c575f8901515f880190610bb9565b610c69602089015160208801906109e2565b60408801518682036040880152610bc6565b60608701518582036060870152610bf7565b94610ca060808201516080860190610bb9565b610cb260a082015160a0860190610c28565b0151910190610bb9565b90565b610cd49160208201915f818403910152610c35565b90565b34610d0757610d03610cf2610ced36600461011a565b611d25565b610cfa6100e2565b91829182610cbf565b0390f35b6100e8565b610d1c906008610d21930261062f565b610172565b90565b90610d2f9154610d0c565b90565b610d3e60035f90610d24565b90565b34610d7157610d513660046109c0565b610d6d610d5c610d32565b610d646100e2565b91829182610906565b0390f35b6100e8565b34610da457610d8e610d8936600461011a565b61201a565b610d966100e2565b80610da081610b18565b0390f35b6100e8565b5f80fd5b5f90565b5f7f4e6f742061207369676e65720000000000000000000000000000000000000000910152565b610de5600c6020926104ec565b610dee81610db1565b0190565b610e079060208101905f818303910152610dd8565b90565b15610e1157565b610e196100e2565b62461bcd60e51b815280610e2f60048201610df2565b0390fd5b90610e5d9594939291610e58610e53610e4e60023390610769565b6103fb565b610e0a565b611290565b90565b634e487b7160e01b5f52601160045260245ffd5b610e7d906100f4565b5f198114610e8b5760010190565b610e60565b5f1b90565b90610ea15f1991610e90565b9181191691161790565b90565b90610ec3610ebe610eca9261013b565b610eab565b8254610e95565b9055565b90565b90610ee260018060a01b0391610e90565b9181191691161790565b90565b90610f04610eff610f0b9261075d565b610eec565b8254610ed1565b9055565b5090565b601f602091010490565b1b90565b91906008610f3c910291610f365f1984610f1d565b92610f1d565b9181191691161790565b9190610f5c610f57610f649361013b565b610eab565b908354610f21565b9055565b610f7a91610f74610dad565b91610f46565b565b5b818110610f88575050565b80610f955f600193610f68565b01610f7d565b9190601f8111610fab575b505050565b610fb7610fdc93610209565b906020610fc384610f13565b83019310610fe4575b610fd590610f13565b0190610f7c565b5f8080610fa6565b9150610fd581929050610fcc565b90611002905f199060080261062f565b191690565b8161101191610ff2565b906002021790565b916110249082610f0f565b9067ffffffffffffffff82116110e3576110488261104285546101d6565b85610f9b565b5f90601f831160011461107b5791809161106a935f9261106f575b5050611007565b90555b565b90915001355f80611063565b601f1983169161108a85610209565b925f5b8181106110cb575091600293918560019694106110b1575b5050500201905561106d565b6110c1910135601f841690610ff2565b90555f80806110a5565b9193602060018192878701358155019501920161108d565b6102b5565b906110f39291611019565b565b5090565b9190601f8111611109575b505050565b61111561113a9361031d565b90602061112184610f13565b83019310611142575b61113390610f13565b0190610f7c565b5f8080611104565b91506111338192905061112a565b9161115b90826110f5565b9067ffffffffffffffff821161121a5761117f8261117985546101d6565b856110f9565b5f90601f83116001146111b2579180916111a1935f926111a6575b5050611007565b90555b565b90915001355f8061119a565b601f198316916111c18561031d565b925f5b818110611202575091600293918560019694106111e8575b505050020190556111a4565b6111f8910135601f841690610ff2565b90555f80806111dc565b919360206001819287870135815501950192016111c4565b6102b5565b9061122a9291611150565b565b90565b61124361123e6112489261122c565b610138565b6100f4565b90565b9061125760ff91610e90565b9181191691161790565b61126a90610526565b90565b90565b9061128561128061128c92611261565b61126d565b825461124b565b9055565b936112f46112fd9396929461131d96506112aa6003610189565b6112bd6112b682610e74565b6003610eae565b976112eb6112d56112d060048c90610157565b610ece565b976112e28b5f8b01610eae565b60018901610eef565b600287016110e8565b6003840161121f565b61131361130a600161122f565b60048301610eae565b6006439101610eae565b61133d60016113386113316005859061071f565b3390610769565b611270565b90565b9061135594939291611350610dad565b610e33565b90565b606090565b60209181520190565b61137090546101a1565b90565b60010190565b90611396611390611389846105fa565b809361135d565b926105fe565b905f5b8181106113a65750505090565b9091926113c66113c06001926113bb87611366565b6109ef565b94611373565b9101919091611399565b906113da91611379565b90565b906113fd6113f6926113ed6100e2565b938480926113d0565b03836102c9565b565b611408906113dd565b90565b611413611358565b5061141e60016113ff565b90565b60081c90565b61143361143891611421565b6103e1565b90565b6114459054611427565b90565b60207f647920696e697469616c697a6564000000000000000000000000000000000000917f496e697469616c697a61626c653a20636f6e747261637420697320616c7265615f8201520152565b6114a2602e6040926104ec565b6114ab81611448565b0190565b6114c49060208101905f818303910152611495565b90565b156114ce57565b6114d66100e2565b62461bcd60e51b8152806114ec600482016114af565b0390fd5b60081b90565b9061150361ff00916114f0565b9181191691161790565b9061152261151d61152992611261565b61126d565b82546114f6565b9055565b906115699061153b5f61143b565b801561159a575b61154b906114c7565b61155d6115575f61143b565b15610526565b928361157f575b611872565b611570575b565b61157a5f5f61150d565b61156e565b61158a60015f61150d565b61159560015f611270565b611564565b5061154b6115b06115aa5f6103fb565b15610526565b9050611542565b5090565b90565b6115d26115cd6115d7926115bb565b610138565b6100f4565b90565b5f7f4e656564207369676e6572730000000000000000000000000000000000000000910152565b61160e600c6020926104ec565b611617816115da565b0190565b6116309060208101905f818303910152611601565b90565b1561163a57565b6116426100e2565b62461bcd60e51b8152806116586004820161161b565b0390fd5b600161166891016100f4565b90565b919081101561167b576020020190565b6105e6565b3561168a816106cf565b90565b6116a161169c6116a6926115bb565b610138565b61047b565b90565b6116b29061168d565b90565b5f7f5a65726f20616464726573730000000000000000000000000000000000000000910152565b6116e9600c6020926104ec565b6116f2816116b5565b0190565b61170b9060208101905f8183039101526116dc565b90565b1561171557565b61171d6100e2565b62461bcd60e51b815280611733600482016116f6565b0390fd5b5f7f4475706c6963617465207369676e657200000000000000000000000000000000910152565b61176b60106020926104ec565b61177481611737565b0190565b61178d9060208101905f81830391015261175e565b90565b1561179757565b61179f6100e2565b62461bcd60e51b8152806117b560048201611778565b0390fd5b90565b5f5260205f2090565b5490565b6117d2816117c5565b8210156117ec576117e46001916117bc565b910201905f90565b6105e6565b9190600861181191029161180b60018060a01b0384610f1d565b92610f1d565b9181191691161790565b919061183161182c6118399361075d565b610eec565b9083546117f1565b9055565b908154916801000000000000000083101561186d578261186591600161186b950181556117c9565b9061181b565b565b6102b5565b91909161189b6118838285906115b7565b61189561188f5f6115be565b916100f4565b11611633565b6118a45f6115be565b5b806118c26118bc6118b78588906115b7565b6100f4565b916100f4565b101561199657611991906119046118e36118de8588859161166b565b611680565b6118fd6118f76118f25f6116a9565b610486565b91610486565b141561170e565b61193c61193761193161192c6002611926611921898c899161166b565b611680565b90610769565b6103fb565b15610526565b611790565b61196361194960016117b9565b61195d6119588689869161166b565b611680565b9061183d565b61198c6001611987600261198161197c888b889161166b565b611680565b90610769565b611270565b61165c565b6118a5565b50509050565b906119a69161152d565b565b6119b0610dad565b506119bb60016105fa565b90565b6119e3906119de6119d96119d460023390610769565b6103fb565b610e0a565b611ae9565b565b5f7f416c726561647920657865637574656400000000000000000000000000000000910152565b611a1960106020926104ec565b611a22816119e5565b0190565b611a3b9060208101905f818303910152611a0c565b90565b15611a4557565b611a4d6100e2565b62461bcd60e51b815280611a6360048201611a26565b0390fd5b5f7f416c726561647920617070726f76656400000000000000000000000000000000910152565b611a9b60106020926104ec565b611aa481611a67565b0190565b611abd9060208101905f818303910152611a8e565b90565b15611ac757565b611acf6100e2565b62461bcd60e51b815280611ae560048201611aa8565b0390fd5b6004611b8691611b6e611b05611b00848490610157565b610ece565b91611b23611b1e611b18600586016103fb565b15610526565b611a3e565b611b52611b4d611b47611b42611b3b6005869061071f565b3390610769565b6103fb565b15610526565b611ac0565b611b69611b62600192600561071f565b3390610769565b611270565b01611b80611b7b82610189565b610e74565b90610eae565b565b611b91906119be565b565b90611ba6611b9f6100e2565b92836102c9565b565b611bb260e0611b93565b90565b5f90565b5f90565b606090565b606090565b5f90565b611bd3611ba8565b90602080808080808088611be5611bb5565b815201611bf0611bb9565b815201611bfb611bbd565b815201611c06611bc2565b815201611c11611bb5565b815201611c1c611bc7565b815201611c27611bb5565b81525050565b611c35611bcb565b90565b90611c42906100f4565b9052565b90611c5090610486565b9052565b52565b52565b90611c6490610526565b9052565b90611d17611d0e6006611c79611ba8565b94611c90611c885f8301610189565b5f8801611c38565b611ca8611c9f600183016101b5565b60208801611c46565b611cc0611cb7600283016102f2565b60408801611c54565b611cd8611ccf600383016103bf565b60608801611c57565b611cf0611ce760048301610189565b60808801611c38565b611d08611cff600583016103fb565b60a08801611c5a565b01610189565b60c08401611c38565b565b611d2290611c68565b90565b611d3c611d4191611d34611c2d565b506004610157565b611d19565b90565b611d6990611d64611d5f611d5a60023390610769565b6103fb565b610e0a565b611f6e565b565b5f7f4e6f7420616c6c207369676e65727320617070726f7665640000000000000000910152565b611d9f60186020926104ec565b611da881611d6b565b0190565b611dc19060208101905f818303910152611d92565b90565b15611dcb57565b611dd36100e2565b62461bcd60e51b815280611de960048201611dac565b0390fd5b905090565b905f9291805490611e0c611e05836101d6565b8094611ded565b916001811690815f14611e5e5750600114611e27575b505050565b611e349192939450610209565b5f905b838210611e4a57505001905f8080611e22565b600181602092548486015201910190611e37565b92949550505060ff191682528015150201905f8080611e22565b611e8191611df2565b90565b67ffffffffffffffff8111611ea257611e9e6020916102ab565b0190565b6102b5565b90611eb9611eb483611e84565b611b93565b918252565b606090565b3d5f14611ede57611ed33d611ea7565b903d5f602084013e5b565b611ee6611ebe565b90611edc565b5f7f457865637574696f6e206661696c656400000000000000000000000000000000910152565b611f2060106020926104ec565b611f2981611eec565b0190565b611f429060208101905f818303910152611f13565b90565b15611f4c57565b611f546100e2565b62461bcd60e51b815280611f6a60048201611f2d565b0390fd5b5f80611f86611f81612018946004610157565b610ece565b611fa3611f9e611f98600584016103fb565b15610526565b611a3e565b611fd3611fb260048301610189565b611fcd611fc7611fc260016105fa565b6100f4565b916100f4565b14611dc4565b611fe1600160058301611270565b612006826002611ff3600185016101b5565b9301611ffd6100e2565b92839182611e78565b03925af1612012611ec3565b50611f45565b565b61202390611d44565b56fea264697066735822122009a0ff2a56705a5a525bb3413943524329f4464f449356e6f79cc12a5e7dd6b964736f6c634300081f0033","linkReferences":{}},"methodIdentifiers":{"approve(uint256)":"b759f954","execute(uint256)":"fe0d94c1","getProposal(uint256)":"c7f758a8","getSignerCount()":"b715be81","getSigners()":"94cf795e","hasApproved(uint256,address)":"2358d5a8","initialize(address[])":"a224cee7","isSigner(address)":"7df73e27","proposalCount()":"da35c664","proposals(uint256)":"013cf08b","propose(address,bytes,string)":"3153fedb","signers(uint256)":"2079fb9a"},"id":23}