{"abi":[{"type":"constructor","inputs":[{"name":"_signers","type":"address[]","internalType":"address[]"}],"stateMutability":"nonpayable"},{"type":"function","name":"approve","inputs":[{"name":"_proposalId","type":"uint256","internalType":"uint256"}],"outputs":[],"stateMutability":"nonpayable"},{"type":"function","name":"execute","inputs":[{"name":"_proposalId","type":"uint256","internalType":"uint256"}],"outputs":[],"stateMutability":"nonpayable"},{"type":"function","name":"getProposal","inputs":[{"name":"_id","type":"uint256","internalType":"uint256"}],"outputs":[{"name":"","type":"tuple","internalType":"struct GovernanceMultisig.Proposal","components":[{"name":"id","type":"uint256","internalType":"uint256"},{"name":"target","type":"address","internalType":"address"},{"name":"data","type":"bytes","internalType":"bytes"},{"name":"description","type":"string","internalType":"string"},{"name":"approvalCount","type":"uint256","internalType":"uint256"},{"name":"executed","type":"bool","internalType":"bool"},{"name":"createdAt","type":"uint256","internalType":"uint256"}]}],"stateMutability":"view"},{"type":"function","name":"getSignerCount","inputs":[],"outputs":[{"name":"","type":"uint256","internalType":"uint256"}],"stateMutability":"view"},{"type":"function","name":"getSigners","inputs":[],"outputs":[{"name":"","type":"address[]","internalType":"address[]"}],"stateMutability":"view"},{"type":"function","name":"hasApproved","inputs":[{"name":"","type":"uint256","internalType":"uint256"},{"name":"","type":"address","internalType":"address"}],"outputs":[{"name":"","type":"bool","internalType":"bool"}],"stateMutability":"view"},{"type":"function","name":"isSigner","inputs":[{"name":"","type":"address","internalType":"address"}],"outputs":[{"name":"","type":"bool","internalType":"bool"}],"stateMutability":"view"},{"type":"function","name":"proposalCount","inputs":[],"outputs":[{"name":"","type":"uint256","internalType":"uint256"}],"stateMutability":"view"},{"type":"function","name":"proposals","inputs":[{"name":"","type":"uint256","internalType":"uint256"}],"outputs":[{"name":"id","type":"uint256","internalType":"uint256"},{"name":"target","type":"address","internalType":"address"},{"name":"data","type":"bytes","internalType":"bytes"},{"name":"description","type":"string","internalType":"string"},{"name":"approvalCount","type":"uint256","internalType":"uint256"},{"name":"executed","type":"bool","internalType":"bool"},{"name":"createdAt","type":"uint256","internalType":"uint256"}],"stateMutability":"view"},{"type":"function","name":"propose","inputs":[{"name":"_target","type":"address","internalType":"address"},{"name":"_data","type":"bytes","internalType":"bytes"},{"name":"_description","type":"string","internalType":"string"}],"outputs":[{"name":"","type":"uint256","internalType":"uint256"}],"stateMutability":"nonpayable"},{"type":"function","name":"signers","inputs":[{"name":"","type":"uint256","internalType":"uint256"}],"outputs":[{"name":"","type":"address","internalType":"address"}],"stateMutability":"view"}],"bytecode":{"object":"0x608060405234801561000f575f5ffd5b5060405161211c38038061211c83398181016040528101906100319190610464565b5f815111610074576040517f08c379a000000000000000000000000000000000000000000000000000000000815260040161006b90610505565b60405180910390fd5b5f5f90505b81518110156102a2575f73ffffffffffffffffffffffffffffffffffffffff168282815181106100ac576100ab610523565b5b602002602001015173ffffffffffffffffffffffffffffffffffffffff160361010a576040517f08c379a00000000000000000000000000000000000000000000000000000000081526004016101019061059a565b60405180910390fd5b60015f8383815181106101205761011f610523565b5b602002602001015173ffffffffffffffffffffffffffffffffffffffff1673ffffffffffffffffffffffffffffffffffffffff1681526020019081526020015f205f9054906101000a900460ff16156101ae576040517f08c379a00000000000000000000000000000000000000000000000000000000081526004016101a590610602565b60405180910390fd5b5f8282815181106101c2576101c1610523565b5b6020026020010151908060018154018082558091505060019003905f5260205f20015f9091909190916101000a81548173ffffffffffffffffffffffffffffffffffffffff021916908373ffffffffffffffffffffffffffffffffffffffff1602179055506001805f84848151811061023e5761023d610523565b5b602002602001015173ffffffffffffffffffffffffffffffffffffffff1673ffffffffffffffffffffffffffffffffffffffff1681526020019081526020015f205f6101000a81548160ff0219169083151502179055508080600101915050610079565b5050610620565b5f604051905090565b5f5ffd5b5f5ffd5b5f5ffd5b5f601f19601f8301169050919050565b7f4e487b71000000000000000000000000000000000000000000000000000000005f52604160045260245ffd5b610304826102be565b810181811067ffffffffffffffff82111715610323576103226102ce565b5b80604052505050565b5f6103356102a9565b905061034182826102fb565b919050565b5f67ffffffffffffffff8211156103605761035f6102ce565b5b602082029050602081019050919050565b5f5ffd5b5f73ffffffffffffffffffffffffffffffffffffffff82169050919050565b5f61039e82610375565b9050919050565b6103ae81610394565b81146103b8575f5ffd5b50565b5f815190506103c9816103a5565b92915050565b5f6103e16103dc84610346565b61032c565b9050808382526020820190506020840283018581111561040457610403610371565b5b835b8181101561042d578061041988826103bb565b845260208401935050602081019050610406565b5050509392505050565b5f82601f83011261044b5761044a6102ba565b5b815161045b8482602086016103cf565b91505092915050565b5f60208284031215610479576104786102b2565b5b5f82015167ffffffffffffffff811115610496576104956102b6565b5b6104a284828501610437565b91505092915050565b5f82825260208201905092915050565b7f4e656564207369676e65727300000000000000000000000000000000000000005f82015250565b5f6104ef600c836104ab565b91506104fa826104bb565b602082019050919050565b5f6020820190508181035f83015261051c816104e3565b9050919050565b7f4e487b71000000000000000000000000000000000000000000000000000000005f52603260045260245ffd5b7f5a65726f206164647265737300000000000000000000000000000000000000005f82015250565b5f610584600c836104ab565b915061058f82610550565b602082019050919050565b5f6020820190508181035f8301526105b181610578565b9050919050565b7f4475706c6963617465207369676e6572000000000000000000000000000000005f82015250565b5f6105ec6010836104ab565b91506105f7826105b8565b602082019050919050565b5f6020820190508181035f830152610619816105e0565b9050919050565b611aef8061062d5f395ff3fe608060405234801561000f575f5ffd5b50600436106100a7575f3560e01c806394cf795e1161006f57806394cf795e146101a1578063b715be81146101bf578063b759f954146101dd578063c7f758a8146101f9578063da35c66414610229578063fe0d94c114610247576100a7565b8063013cf08b146100ab5780632079fb9a146100e15780632358d5a8146101115780633153fedb146101415780637df73e2714610171575b5f5ffd5b6100c560048036038101906100c09190610d33565b610263565b6040516100d89796959493929190610e88565b60405180910390f35b6100fb60048036038101906100f69190610d33565b6103d8565b6040516101089190610f03565b60405180910390f35b61012b60048036038101906101269190610f46565b610412565b6040516101389190610f84565b60405180910390f35b61015b60048036038101906101569190611053565b61043c565b60405161016891906110e4565b60405180910390f35b61018b600480360381019061018691906110fd565b6105ea565b6040516101989190610f84565b60405180910390f35b6101a9610607565b6040516101b691906111df565b60405180910390f35b6101c7610691565b6040516101d491906110e4565b60405180910390f35b6101f760048036038101906101f29190610d33565b61069c565b005b610213600480360381019061020e9190610d33565b6108a4565b604051610220919061134d565b60405180910390f35b610231610a7b565b60405161023e91906110e4565b60405180910390f35b610261600480360381019061025c9190610d33565b610a81565b005b6003602052805f5260405f205f91509050805f015490806001015f9054906101000a900473ffffffffffffffffffffffffffffffffffffffff16908060020180546102ad9061139a565b80601f01602080910402602001604051908101604052809291908181526020018280546102d99061139a565b80156103245780601f106102fb57610100808354040283529160200191610324565b820191905f5260205f20905b81548152906001019060200180831161030757829003601f168201915b5050505050908060030180546103399061139a565b80601f01602080910402602001604051908101604052809291908181526020018280546103659061139a565b80156103b05780601f10610387576101008083540402835291602001916103b0565b820191905f5260205f20905b81548152906001019060200180831161039357829003601f168201915b505050505090806004015490806005015f9054906101000a900460ff16908060060154905087565b5f81815481106103e6575f80fd5b905f5260205f20015f915054906101000a900473ffffffffffffffffffffffffffffffffffffffff1681565b6004602052815f5260405f20602052805f5260405f205f915091509054906101000a900460ff1681565b5f60015f3373ffffffffffffffffffffffffffffffffffffffff1673ffffffffffffffffffffffffffffffffffffffff1681526020019081526020015f205f9054906101000a900460ff166104c6576040517f08c379a00000000000000000000000000000000000000000000000000000000081526004016104bd90611414565b60405180910390fd5b5f60025f8154809291906104d99061145f565b9190505590505f60035f8381526020019081526020015f20905081815f018190555087816001015f6101000a81548173ffffffffffffffffffffffffffffffffffffffff021916908373ffffffffffffffffffffffffffffffffffffffff160217905550868682600201918261055092919061167d565b5084848260030191826105649291906117ac565b5060018160040181905550438160060181905550600160045f8481526020019081526020015f205f3373ffffffffffffffffffffffffffffffffffffffff1673ffffffffffffffffffffffffffffffffffffffff1681526020019081526020015f205f6101000a81548160ff021916908315150217905550819250505095945050505050565b6001602052805f5260405f205f915054906101000a900460ff1681565b60605f80548060200260200160405190810160405280929190818152602001828054801561068757602002820191905f5260205f20905b815f9054906101000a900473ffffffffffffffffffffffffffffffffffffffff1673ffffffffffffffffffffffffffffffffffffffff168152602001906001019080831161063e575b5050505050905090565b5f5f80549050905090565b60015f3373ffffffffffffffffffffffffffffffffffffffff1673ffffffffffffffffffffffffffffffffffffffff1681526020019081526020015f205f9054906101000a900460ff16610725576040517f08c379a000000000000000000000000000000000000000000000000000000000815260040161071c90611414565b60405180910390fd5b5f60035f8381526020019081526020015f209050806005015f9054906101000a900460ff161561078a576040517f08c379a0000000000000000000000000000000000000000000000000000000008152600401610781906118c3565b60405180910390fd5b60045f8381526020019081526020015f205f3373ffffffffffffffffffffffffffffffffffffffff1673ffffffffffffffffffffffffffffffffffffffff1681526020019081526020015f205f9054906101000a900460ff1615610823576040517f08c379a000000000000000000000000000000000000000000000000000000000815260040161081a9061192b565b60405180910390fd5b600160045f8481526020019081526020015f205f3373ffffffffffffffffffffffffffffffffffffffff1673ffffffffffffffffffffffffffffffffffffffff1681526020019081526020015f205f6101000a81548160ff021916908315150217905550806004015f81548092919061089b9061145f565b91905055505050565b6108ac610ca8565b60035f8381526020019081526020015f206040518060e00160405290815f8201548152602001600182015f9054906101000a900473ffffffffffffffffffffffffffffffffffffffff1673ffffffffffffffffffffffffffffffffffffffff1673ffffffffffffffffffffffffffffffffffffffff1681526020016002820180546109369061139a565b80601f01602080910402602001604051908101604052809291908181526020018280546109629061139a565b80156109ad5780601f10610984576101008083540402835291602001916109ad565b820191905f5260205f20905b81548152906001019060200180831161099057829003601f168201915b505050505081526020016003820180546109c69061139a565b80601f01602080910402602001604051908101604052809291908181526020018280546109f29061139a565b8015610a3d5780601f10610a1457610100808354040283529160200191610a3d565b820191905f5260205f20905b815481529060010190602001808311610a2057829003601f168201915b5050505050815260200160048201548152602001600582015f9054906101000a900460ff161515151581526020016006820154815250509050919050565b60025481565b60015f3373ffffffffffffffffffffffffffffffffffffffff1673ffffffffffffffffffffffffffffffffffffffff1681526020019081526020015f205f9054906101000a900460ff16610b0a576040517f08c379a0000000000000000000000000000000000000000000000000000000008152600401610b0190611414565b60405180910390fd5b5f60035f8381526020019081526020015f209050806005015f9054906101000a900460ff1615610b6f576040517f08c379a0000000000000000000000000000000000000000000000000000000008152600401610b66906118c3565b60405180910390fd5b5f80549050816004015414610bb9576040517f08c379a0000000000000000000000000000000000000000000000000000000008152600401610bb090611993565b60405180910390fd5b6001816005015f6101000a81548160ff0219169083151502179055505f816001015f9054906101000a900473ffffffffffffffffffffffffffffffffffffffff1673ffffffffffffffffffffffffffffffffffffffff1682600201604051610c219190611a3b565b5f604051808303815f865af19150503d805f8114610c5a576040519150601f19603f3d011682016040523d82523d5f602084013e610c5f565b606091505b5050905080610ca3576040517f08c379a0000000000000000000000000000000000000000000000000000000008152600401610c9a90611a9b565b60405180910390fd5b505050565b6040518060e001604052805f81526020015f73ffffffffffffffffffffffffffffffffffffffff16815260200160608152602001606081526020015f81526020015f151581526020015f81525090565b5f5ffd5b5f5ffd5b5f819050919050565b610d1281610d00565b8114610d1c575f5ffd5b50565b5f81359050610d2d81610d09565b92915050565b5f60208284031215610d4857610d47610cf8565b5b5f610d5584828501610d1f565b91505092915050565b610d6781610d00565b82525050565b5f73ffffffffffffffffffffffffffffffffffffffff82169050919050565b5f610d9682610d6d565b9050919050565b610da681610d8c565b82525050565b5f81519050919050565b5f82825260208201905092915050565b8281835e5f83830152505050565b5f601f19601f8301169050919050565b5f610dee82610dac565b610df88185610db6565b9350610e08818560208601610dc6565b610e1181610dd4565b840191505092915050565b5f81519050919050565b5f82825260208201905092915050565b5f610e4082610e1c565b610e4a8185610e26565b9350610e5a818560208601610dc6565b610e6381610dd4565b840191505092915050565b5f8115159050919050565b610e8281610e6e565b82525050565b5f60e082019050610e9b5f83018a610d5e565b610ea86020830189610d9d565b8181036040830152610eba8188610de4565b90508181036060830152610ece8187610e36565b9050610edd6080830186610d5e565b610eea60a0830185610e79565b610ef760c0830184610d5e565b98975050505050505050565b5f602082019050610f165f830184610d9d565b92915050565b610f2581610d8c565b8114610f2f575f5ffd5b50565b5f81359050610f4081610f1c565b92915050565b5f5f60408385031215610f5c57610f5b610cf8565b5b5f610f6985828601610d1f565b9250506020610f7a85828601610f32565b9150509250929050565b5f602082019050610f975f830184610e79565b92915050565b5f5ffd5b5f5ffd5b5f5ffd5b5f5f83601f840112610fbe57610fbd610f9d565b5b8235905067ffffffffffffffff811115610fdb57610fda610fa1565b5b602083019150836001820283011115610ff757610ff6610fa5565b5b9250929050565b5f5f83601f84011261101357611012610f9d565b5b8235905067ffffffffffffffff8111156110305761102f610fa1565b5b60208301915083600182028301111561104c5761104b610fa5565b5b9250929050565b5f5f5f5f5f6060868803121561106c5761106b610cf8565b5b5f61107988828901610f32565b955050602086013567ffffffffffffffff81111561109a57611099610cfc565b5b6110a688828901610fa9565b9450945050604086013567ffffffffffffffff8111156110c9576110c8610cfc565b5b6110d588828901610ffe565b92509250509295509295909350565b5f6020820190506110f75f830184610d5e565b92915050565b5f6020828403121561111257611111610cf8565b5b5f61111f84828501610f32565b91505092915050565b5f81519050919050565b5f82825260208201905092915050565b5f819050602082019050919050565b61115a81610d8c565b82525050565b5f61116b8383611151565b60208301905092915050565b5f602082019050919050565b5f61118d82611128565b6111978185611132565b93506111a283611142565b805f5b838110156111d25781516111b98882611160565b97506111c483611177565b9250506001810190506111a5565b5085935050505092915050565b5f6020820190508181035f8301526111f78184611183565b905092915050565b61120881610d00565b82525050565b5f82825260208201905092915050565b5f61122882610dac565b611232818561120e565b9350611242818560208601610dc6565b61124b81610dd4565b840191505092915050565b5f82825260208201905092915050565b5f61127082610e1c565b61127a8185611256565b935061128a818560208601610dc6565b61129381610dd4565b840191505092915050565b6112a781610e6e565b82525050565b5f60e083015f8301516112c25f8601826111ff565b5060208301516112d56020860182611151565b50604083015184820360408601526112ed828261121e565b915050606083015184820360608601526113078282611266565b915050608083015161131c60808601826111ff565b5060a083015161132f60a086018261129e565b5060c083015161134260c08601826111ff565b508091505092915050565b5f6020820190508181035f83015261136581846112ad565b905092915050565b7f4e487b71000000000000000000000000000000000000000000000000000000005f52602260045260245ffd5b5f60028204905060018216806113b157607f821691505b6020821081036113c4576113c361136d565b5b50919050565b7f4e6f742061207369676e657200000000000000000000000000000000000000005f82015250565b5f6113fe600c83610e26565b9150611409826113ca565b602082019050919050565b5f6020820190508181035f83015261142b816113f2565b9050919050565b7f4e487b71000000000000000000000000000000000000000000000000000000005f52601160045260245ffd5b5f61146982610d00565b91507fffffffffffffffffffffffffffffffffffffffffffffffffffffffffffffffff820361149b5761149a611432565b5b600182019050919050565b5f82905092915050565b7f4e487b71000000000000000000000000000000000000000000000000000000005f52604160045260245ffd5b5f819050815f5260205f209050919050565b5f6020601f8301049050919050565b5f82821b905092915050565b5f600883026115397fffffffffffffffffffffffffffffffffffffffffffffffffffffffffffffffff826114fe565b61154386836114fe565b95508019841693508086168417925050509392505050565b5f819050919050565b5f61157e61157961157484610d00565b61155b565b610d00565b9050919050565b5f819050919050565b61159783611564565b6115ab6115a382611585565b84845461150a565b825550505050565b5f5f905090565b6115c26115b3565b6115cd81848461158e565b505050565b5b818110156115f0576115e55f826115ba565b6001810190506115d3565b5050565b601f82111561163557611606816114dd565b61160f846114ef565b8101602085101561161e578190505b61163261162a856114ef565b8301826115d2565b50505b505050565b5f82821c905092915050565b5f6116555f198460080261163a565b1980831691505092915050565b5f61166d8383611646565b9150826002028217905092915050565b61168783836114a6565b67ffffffffffffffff8111156116a05761169f6114b0565b5b6116aa825461139a565b6116b58282856115f4565b5f601f8311600181146116e2575f84156116d0578287013590505b6116da8582611662565b865550611741565b601f1984166116f0866114dd565b5f5b82811015611717578489013582556001820191506020850194506020810190506116f2565b868310156117345784890135611730601f891682611646565b8355505b6001600288020188555050505b50505050505050565b5f82905092915050565b5f819050815f5260205f209050919050565b601f8211156117a75761177881611754565b611781846114ef565b81016020851015611790578190505b6117a461179c856114ef565b8301826115d2565b50505b505050565b6117b6838361174a565b67ffffffffffffffff8111156117cf576117ce6114b0565b5b6117d9825461139a565b6117e4828285611766565b5f601f831160018114611811575f84156117ff578287013590505b6118098582611662565b865550611870565b601f19841661181f86611754565b5f5b8281101561184657848901358255600182019150602085019450602081019050611821565b86831015611863578489013561185f601f891682611646565b8355505b6001600288020188555050505b50505050505050565b7f416c7265616479206578656375746564000000000000000000000000000000005f82015250565b5f6118ad601083610e26565b91506118b882611879565b602082019050919050565b5f6020820190508181035f8301526118da816118a1565b9050919050565b7f416c726561647920617070726f766564000000000000000000000000000000005f82015250565b5f611915601083610e26565b9150611920826118e1565b602082019050919050565b5f6020820190508181035f83015261194281611909565b9050919050565b7f4e6f7420616c6c207369676e65727320617070726f76656400000000000000005f82015250565b5f61197d601883610e26565b915061198882611949565b602082019050919050565b5f6020820190508181035f8301526119aa81611971565b9050919050565b5f81905092915050565b5f81546119c78161139a565b6119d181866119b1565b9450600182165f81146119eb5760018114611a0057611a32565b60ff1983168652811515820286019350611a32565b611a09856114dd565b5f5b83811015611a2a57815481890152600182019150602081019050611a0b565b838801955050505b50505092915050565b5f611a4682846119bb565b915081905092915050565b7f457865637574696f6e206661696c6564000000000000000000000000000000005f82015250565b5f611a85601083610e26565b9150611a9082611a51565b602082019050919050565b5f6020820190508181035f830152611ab281611a79565b905091905056fea26469706673582212208fd96a94b44d6887a9d371a5ed2d107ae2dcda0ea7b027ded1df3fc19bd16d8164736f6c634300081f0033","linkReferences":{}},"methodIdentifiers":{"approve(uint256)":"b759f954","execute(uint256)":"fe0d94c1","getProposal(uint256)":"c7f758a8","getSignerCount()":"b715be81","getSigners()":"94cf795e","hasApproved(uint256,address)":"2358d5a8","isSigner(address)":"7df73e27","proposalCount()":"da35c664","proposals(uint256)":"013cf08b","propose(address,bytes,string)":"3153fedb","signers(uint256)":"2079fb9a"},"id":4}