{"abi":[{"type":"constructor","inputs":[],"stateMutability":"nonpayable"},{"type":"function","name":"addPolicy","inputs":[{"name":"_name","type":"string","internalType":"string"},{"name":"_conditions","type":"tuple","internalType":"struct PolicyRegistry.Conditions","components":[{"name":"targetAddresses","type":"address[]","internalType":"address[]"},{"name":"functionSelectors","type":"bytes4[]","internalType":"bytes4[]"},{"name":"minValue","type":"uint256","internalType":"uint256"},{"name":"maxValue","type":"uint256","internalType":"uint256"},{"name":"timeWindowStart","type":"uint256","internalType":"uint256"},{"name":"timeWindowEnd","type":"uint256","internalType":"uint256"},{"name":"requireVerified","type":"bool","internalType":"bool"},{"name":"requireErc7730","type":"bool","internalType":"bool"}]},{"name":"_limits","type":"tuple","internalType":"struct PolicyRegistry.Limits","components":[{"name":"maxValuePerTxUsd","type":"uint256","internalType":"uint256"},{"name":"maxValueDailyUsd","type":"uint256","internalType":"uint256"},{"name":"allowlist","type":"address[]","internalType":"address[]"},{"name":"denylist","type":"address[]","internalType":"address[]"}]},{"name":"_signers","type":"address[]","internalType":"address[]"},{"name":"_riskWeight","type":"uint8","internalType":"uint8"}],"outputs":[{"name":"","type":"uint256","internalType":"uint256"}],"stateMutability":"nonpayable"},{"type":"function","name":"addPresetPolicies","inputs":[{"name":"_presetIds","type":"uint256[]","internalType":"uint256[]"},{"name":"_signers","type":"address[]","internalType":"address[]"},{"name":"_presetRegistry","type":"address","internalType":"address"}],"outputs":[{"name":"","type":"uint256[]","internalType":"uint256[]"}],"stateMutability":"nonpayable"},{"type":"function","name":"deactivatePolicy","inputs":[{"name":"_policyId","type":"uint256","internalType":"uint256"}],"outputs":[],"stateMutability":"nonpayable"},{"type":"function","name":"getActivePolicies","inputs":[],"outputs":[{"name":"","type":"tuple[]","internalType":"struct PolicyRegistry.Policy[]","components":[{"name":"id","type":"uint256","internalType":"uint256"},{"name":"name","type":"string","internalType":"string"},{"name":"active","type":"bool","internalType":"bool"},{"name":"conditions","type":"tuple","internalType":"struct PolicyRegistry.Conditions","components":[{"name":"targetAddresses","type":"address[]","internalType":"address[]"},{"name":"functionSelectors","type":"bytes4[]","internalType":"bytes4[]"},{"name":"minValue","type":"uint256","internalType":"uint256"},{"name":"maxValue","type":"uint256","internalType":"uint256"},{"name":"timeWindowStart","type":"uint256","internalType":"uint256"},{"name":"timeWindowEnd","type":"uint256","internalType":"uint256"},{"name":"requireVerified","type":"bool","internalType":"bool"},{"name":"requireErc7730","type":"bool","internalType":"bool"}]},{"name":"limits","type":"tuple","internalType":"struct PolicyRegistry.Limits","components":[{"name":"maxValuePerTxUsd","type":"uint256","internalType":"uint256"},{"name":"maxValueDailyUsd","type":"uint256","internalType":"uint256"},{"name":"allowlist","type":"address[]","internalType":"address[]"},{"name":"denylist","type":"address[]","internalType":"address[]"}]},{"name":"signers","type":"address[]","internalType":"address[]"},{"name":"riskWeight","type":"uint8","internalType":"uint8"},{"name":"createdAt","type":"uint256","internalType":"uint256"},{"name":"updatedAt","type":"uint256","internalType":"uint256"}]}],"stateMutability":"view"},{"type":"function","name":"getPolicy","inputs":[{"name":"_index","type":"uint256","internalType":"uint256"}],"outputs":[{"name":"","type":"tuple","internalType":"struct PolicyRegistry.Policy","components":[{"name":"id","type":"uint256","internalType":"uint256"},{"name":"name","type":"string","internalType":"string"},{"name":"active","type":"bool","internalType":"bool"},{"name":"conditions","type":"tuple","internalType":"struct PolicyRegistry.Conditions","components":[{"name":"targetAddresses","type":"address[]","internalType":"address[]"},{"name":"functionSelectors","type":"bytes4[]","internalType":"bytes4[]"},{"name":"minValue","type":"uint256","internalType":"uint256"},{"name":"maxValue","type":"uint256","internalType":"uint256"},{"name":"timeWindowStart","type":"uint256","internalType":"uint256"},{"name":"timeWindowEnd","type":"uint256","internalType":"uint256"},{"name":"requireVerified","type":"bool","internalType":"bool"},{"name":"requireErc7730","type":"bool","internalType":"bool"}]},{"name":"limits","type":"tuple","internalType":"struct PolicyRegistry.Limits","components":[{"name":"maxValuePerTxUsd","type":"uint256","internalType":"uint256"},{"name":"maxValueDailyUsd","type":"uint256","internalType":"uint256"},{"name":"allowlist","type":"address[]","internalType":"address[]"},{"name":"denylist","type":"address[]","internalType":"address[]"}]},{"name":"signers","type":"address[]","internalType":"address[]"},{"name":"riskWeight","type":"uint8","internalType":"uint8"},{"name":"createdAt","type":"uint256","internalType":"uint256"},{"name":"updatedAt","type":"uint256","internalType":"uint256"}]}],"stateMutability":"view"},{"type":"function","name":"getPolicyCount","inputs":[],"outputs":[{"name":"","type":"uint256","internalType":"uint256"}],"stateMutability":"view"},{"type":"function","name":"getPolicyLimits","inputs":[{"name":"_policyId","type":"uint256","internalType":"uint256"}],"outputs":[{"name":"","type":"tuple","internalType":"struct PolicyRegistry.Limits","components":[{"name":"maxValuePerTxUsd","type":"uint256","internalType":"uint256"},{"name":"maxValueDailyUsd","type":"uint256","internalType":"uint256"},{"name":"allowlist","type":"address[]","internalType":"address[]"},{"name":"denylist","type":"address[]","internalType":"address[]"}]}],"stateMutability":"view"},{"type":"function","name":"getPolicySigners","inputs":[{"name":"_policyId","type":"uint256","internalType":"uint256"}],"outputs":[{"name":"","type":"address[]","internalType":"address[]"}],"stateMutability":"view"},{"type":"function","name":"governanceMultisig","inputs":[],"outputs":[{"name":"","type":"address","internalType":"address"}],"stateMutability":"view"},{"type":"function","name":"initialize","inputs":[{"name":"_governanceMultisig","type":"address","internalType":"address"}],"outputs":[],"stateMutability":"nonpayable"},{"type":"function","name":"lockProvisioning","inputs":[],"outputs":[],"stateMutability":"nonpayable"},{"type":"function","name":"nextPolicyId","inputs":[],"outputs":[{"name":"","type":"uint256","internalType":"uint256"}],"stateMutability":"view"},{"type":"function","name":"policies","inputs":[{"name":"","type":"uint256","internalType":"uint256"}],"outputs":[{"name":"id","type":"uint256","internalType":"uint256"},{"name":"name","type":"string","internalType":"string"},{"name":"active","type":"bool","internalType":"bool"},{"name":"conditions","type":"tuple","internalType":"struct PolicyRegistry.Conditions","components":[{"name":"targetAddresses","type":"address[]","internalType":"address[]"},{"name":"functionSelectors","type":"bytes4[]","internalType":"bytes4[]"},{"name":"minValue","type":"uint256","internalType":"uint256"},{"name":"maxValue","type":"uint256","internalType":"uint256"},{"name":"timeWindowStart","type":"uint256","internalType":"uint256"},{"name":"timeWindowEnd","type":"uint256","internalType":"uint256"},{"name":"requireVerified","type":"bool","internalType":"bool"},{"name":"requireErc7730","type":"bool","internalType":"bool"}]},{"name":"limits","type":"tuple","internalType":"struct PolicyRegistry.Limits","components":[{"name":"maxValuePerTxUsd","type":"uint256","internalType":"uint256"},{"name":"maxValueDailyUsd","type":"uint256","internalType":"uint256"},{"name":"allowlist","type":"address[]","internalType":"address[]"},{"name":"denylist","type":"address[]","internalType":"address[]"}]},{"name":"riskWeight","type":"uint8","internalType":"uint8"},{"name":"createdAt","type":"uint256","internalType":"uint256"},{"name":"updatedAt","type":"uint256","internalType":"uint256"}],"stateMutability":"view"},{"type":"function","name":"provisioner","inputs":[],"outputs":[{"name":"","type":"address","internalType":"address"}],"stateMutability":"view"},{"type":"function","name":"provisioningLocked","inputs":[],"outputs":[{"name":"","type":"bool","internalType":"bool"}],"stateMutability":"view"},{"type":"function","name":"reactivatePolicy","inputs":[{"name":"_policyId","type":"uint256","internalType":"uint256"}],"outputs":[],"stateMutability":"nonpayable"},{"type":"function","name":"updatePolicy","inputs":[{"name":"_policyId","type":"uint256","internalType":"uint256"},{"name":"_name","type":"string","internalType":"string"},{"name":"_conditions","type":"tuple","internalType":"struct PolicyRegistry.Conditions","components":[{"name":"targetAddresses","type":"address[]","internalType":"address[]"},{"name":"functionSelectors","type":"bytes4[]","internalType":"bytes4[]"},{"name":"minValue","type":"uint256","internalType":"uint256"},{"name":"maxValue","type":"uint256","internalType":"uint256"},{"name":"timeWindowStart","type":"uint256","internalType":"uint256"},{"name":"timeWindowEnd","type":"uint256","internalType":"uint256"},{"name":"requireVerified","type":"bool","internalType":"bool"},{"name":"requireErc7730","type":"bool","internalType":"bool"}]},{"name":"_limits","type":"tuple","internalType":"struct PolicyRegistry.Limits","components":[{"name":"maxValuePerTxUsd","type":"uint256","internalType":"uint256"},{"name":"maxValueDailyUsd","type":"uint256","internalType":"uint256"},{"name":"allowlist","type":"address[]","internalType":"address[]"},{"name":"denylist","type":"address[]","internalType":"address[]"}]},{"name":"_signers","type":"address[]","internalType":"address[]"},{"name":"_riskWeight","type":"uint8","internalType":"uint8"}],"outputs":[],"stateMutability":"nonpayable"},{"type":"event","name":"PolicyAdded","inputs":[{"name":"policyId","type":"uint256","indexed":true,"internalType":"uint256"},{"name":"name","type":"string","indexed":false,"internalType":"string"}],"anonymous":false},{"type":"event","name":"ProvisioningLocked","inputs":[],"anonymous":false}],"bytecode":{"object":"0x608060405234601c57600e6020565b614a0e61002b8239614a0e90f35b6026565b60405190565b5f80fdfe60806040526004361015610013575b611998565b61001d5f3561012c565b806317a1f828146101275780632b07fce3146101225780637e94eab91461011d5780639b26784e14610118578063a1c5cf6614610113578063a5a2f05e1461010e578063b41112c714610109578063bf2d0f5e14610104578063c4d66de8146100ff578063c76ed48a146100fa578063cad0b8db146100f5578063cde00724146100f0578063d3e89483146100eb578063e2c0af44146100e6578063e59771d2146100e1578063eb4a4645146100dc5763edf743fe0361000e57611963565b611921565b6118ec565b6118af565b6117a8565b610dc5565b610d32565b610cc5565b610c21565b610bca565b610a2e565b610847565b610814565b6107da565b610738565b61069d565b610555565b60e01c90565b60405190565b5f80fd5b5f80fd5b5f91031261014a57565b61013c565b5190565b60209181520190565b60200190565b90565b61016e90610162565b9052565b5190565b60209181520190565b90825f9392825e0152565b601f801991011690565b6101b36101bc6020936101c1936101aa81610172565b93848093610176565b9586910161017f565b61018a565b0190565b151590565b6101d3906101c5565b9052565b5190565b60209181520190565b60200190565b60018060a01b031690565b6101fe906101ea565b90565b61020a906101f5565b9052565b9061021b81602093610201565b0190565b60200190565b9061024261023c610235846101d7565b80936101db565b926101e4565b905f5b8181106102525750505090565b90919261026b610265600192865161020e565b9461021f565b9101919091610245565b5190565b60209181520190565b60200190565b63ffffffff60e01b1690565b61029d90610288565b9052565b906102ae81602093610294565b0190565b60200190565b906102d56102cf6102c884610275565b8093610279565b92610282565b905f5b8181106102e55750505090565b9091926102fe6102f860019286516102a1565b946102b2565b91019190916102d8565b906103a29060e08061033d61032b61010085015f8801518682035f880152610225565b602087015185820360208701526102b8565b9461035060408201516040860190610165565b61036260608201516060860190610165565b61037460808201516080860190610165565b61038660a082015160a0860190610165565b61039860c082015160c08601906101ca565b01519101906101ca565b90565b6103f79160606103e6608083016103c25f8601515f860190610165565b6103d460208601516020860190610165565b60408501518482036040860152610225565b920151906060818403910152610225565b90565b60ff1690565b610409906103fa565b9052565b906104c0906101008061049161047f61046d61044961012087016104375f8b01515f8a0190610165565b60208a015188820360208a0152610194565b61045b60408a015160408901906101ca565b60608901518782036060890152610308565b608088015186820360808801526103a5565b60a087015185820360a0870152610225565b946104a460c082015160c0860190610400565b6104b660e082015160e0860190610165565b0151910190610165565b90565b906104cd9161040d565b90565b60200190565b906104ea6104e38361014f565b8092610153565b90816104fb6020830284019461015c565b925f915b83831061050e57505050505090565b9091929394602061053061052a838560019503875289516104c3565b976104d0565b93019301919392906104ff565b6105529160208201915f8184039101526104d6565b90565b3461058557610565366004610140565b610581610570611d15565b610578610132565b9182918261053d565b0390f35b610138565b5f80fd5b61059781610162565b0361059e57565b5f80fd5b905035906105af8261058e565b565b906020828203126105ca576105c7915f016105a2565b90565b61013c565b90610682906101008061065361064161062f61060b61012087016105f95f8b01515f8a0190610165565b60208a015188820360208a0152610194565b61061d60408a015160408901906101ca565b60608901518782036060890152610308565b608088015186820360808801526103a5565b60a087015185820360a0870152610225565b9461066660c082015160c0860190610400565b61067860e082015160e0860190610165565b0151910190610165565b90565b61069a9160208201915f8184039101526105cf565b90565b346106cd576106c96106b86106b33660046105b1565b611e46565b6106c0610132565b91829182610685565b0390f35b610138565b1c90565b60018060a01b031690565b6106f19060086106f693026106d2565b6106d6565b90565b9061070491546106e1565b90565b61071360015f906106f9565b90565b61071f906101f5565b9052565b9190610736905f60208501940190610716565b565b3461076857610748366004610140565b610764610753610707565b61075b610132565b91829182610723565b0390f35b610138565b6107bf9160606107ae6080830161078a5f8601515f860190610165565b61079c60208601516020860190610165565b60408501518482036040860152610225565b920151906060818403910152610225565b90565b6107d79160208201915f81840391015261076d565b90565b3461080a576108066107f56107f03660046105b1565b611ed6565b6107fd610132565b918291826107c2565b0390f35b610138565b5f0190565b346108425761082c6108273660046105b1565b6121bb565b610834610132565b8061083e8161080f565b0390f35b610138565b3461087557610857366004610140565b61085f612337565b610867610132565b806108718161080f565b0390f35b610138565b5f80fd5b5f80fd5b5f80fd5b909182601f830112156108c05781359167ffffffffffffffff83116108bb5760200192600183028401116108b657565b610882565b61087e565b61087a565b5f80fd5b90816101009103126108d85790565b6108c5565b908160809103126108eb5790565b6108c5565b909182601f8301121561092a5781359167ffffffffffffffff831161092557602001926020830284011161092057565b610882565b61087e565b61087a565b610938816103fa565b0361093f57565b5f80fd5b905035906109508261092f565b565b919060a083820312610a07575f83013567ffffffffffffffff8111610a02578161097d918501610886565b929093602081013567ffffffffffffffff81116109fd57836109a09183016108c9565b92604082013567ffffffffffffffff81116109f857816109c19184016108dd565b92606083013567ffffffffffffffff81116109f3576109e5836109f09286016108f0565b939094608001610943565b90565b61058a565b61058a565b61058a565b61058a565b61013c565b610a1590610162565b9052565b9190610a2c905f60208501940190610a0c565b565b34610a6557610a61610a50610a44366004610952565b95949094939193612892565b610a58610132565b91829182610a19565b0390f35b610138565b909182601f83011215610aa45781359167ffffffffffffffff8311610a9f576020019260208302840111610a9a57565b610882565b61087e565b61087a565b610ab2816101f5565b03610ab957565b5f80fd5b90503590610aca82610aa9565b565b606081830312610b33575f81013567ffffffffffffffff8111610b2e5782610af5918301610a6a565b929093602083013567ffffffffffffffff8111610b2957610b1b83610b269286016108f0565b939094604001610abd565b90565b61058a565b61058a565b61013c565b5190565b60209181520190565b60200190565b90610b5881602093610165565b0190565b60200190565b90610b7f610b79610b7284610b38565b8093610b3c565b92610b45565b905f5b818110610b8f5750505090565b909192610ba8610ba26001928651610b4b565b94610b5c565b9101919091610b82565b610bc79160208201915f818403910152610b62565b90565b34610bfe57610bfa610be9610be0366004610acc565b93929092612a73565b610bf1610132565b91829182610bb2565b0390f35b610138565b90602082820312610c1c57610c19915f01610abd565b90565b61013c565b34610c4f57610c39610c34366004610c03565b612cc5565b610c41610132565b80610c4b8161080f565b0390f35b610138565b60209181520190565b90610c7a610c74610c6d846101d7565b8093610c54565b926101e4565b905f5b818110610c8a5750505090565b909192610ca3610c9d600192865161020e565b9461021f565b9101919091610c7d565b610cc29160208201915f818403910152610c5d565b90565b34610cf557610cf1610ce0610cdb3660046105b1565b612ce1565b610ce8610132565b91829182610cad565b0390f35b610138565b90565b610d0d906008610d1293026106d2565b610cfa565b90565b90610d209154610cfd565b90565b610d2f60035f90610d15565b90565b34610d6257610d42366004610140565b610d5e610d4d610d23565b610d55610132565b91829182610a19565b0390f35b610138565b60ff1690565b610d7d906008610d8293026106d2565b610d67565b90565b90610d909154610d6d565b90565b610da06001601490610d85565b90565b610dac906101c5565b9052565b9190610dc3905f60208501940190610da3565b565b34610df557610dd5366004610140565b610df1610de0610d93565b610de8610132565b91829182610db0565b0390f35b610138565b634e487b7160e01b5f52603260045260245ffd5b5490565b5f5260205f2090565b610e2481610e0e565b821015610e3e57610e36601291610e12565b910201905f90565b610dfa565b5f1c90565b610e54610e5991610e43565b610cfa565b90565b610e669054610e48565b90565b634e487b7160e01b5f52602260045260245ffd5b9060016002830492168015610e9d575b6020831014610e9857565b610e69565b91607f1691610e8d565b5f5260205f2090565b905f9291805490610eca610ec383610e7d565b8094610176565b916001811690815f14610f215750600114610ee5575b505050565b610ef29192939450610ea7565b915f925b818410610f0957505001905f8080610ee0565b60018160209295939554848601520191019290610ef6565b92949550505060ff19168252151560200201905f8080610ee0565b90610f4691610eb0565b90565b634e487b7160e01b5f52604160045260245ffd5b90610f679061018a565b810190811067ffffffffffffffff821117610f8157604052565b610f49565b90610fa6610f9f92610f96610132565b93848092610f3c565b0383610f5d565b565b610fb4610fb991610e43565b610d67565b90565b610fc69054610fa8565b90565b5490565b5f5260205f2090565b610fe2610fe791610e43565b6106d6565b90565b610ff49054610fd6565b90565b60010190565b9061101a61101461100d84610fc9565b80936101db565b92610fcd565b905f5b81811061102a5750505090565b90919261104a61104460019261103f87610fea565b61020e565b94610ff7565b910191909161101d565b9061105e91610ffd565b90565b9061108161107a92611071610132565b93848092611054565b0383610f5d565b565b52565b5490565b5f5260205f2090565b60e01b90565b6110a290611093565b90565b6110b16110b691610e43565b611099565b90565b60201c90565b6110cb6110d0916110b9565b611099565b90565b60401c90565b6110e56110ea916110d3565b611099565b90565b60601c90565b6110ff611104916110ed565b611099565b90565b60801c90565b61111961111e91611107565b611099565b90565b60a01c90565b61113361113891611121565b611099565b90565b60c01c90565b61114d6111529161113b565b611099565b90565b6111616111669161012c565b611099565b90565b9060019061118961118361117c85611086565b8093610279565b9361108a565b5f926112f3575b600161119d575b50505090565b54908083106112d1575b8083106112af575b80831061128d575b80831061126b575b808310611249575b808310611227575b808310611205575b82106111e4575b80611197565b826111fc600193946111f7602094611155565b610294565b0191015f6111de565b919260208161121e60019361121986611141565b610294565b019301916111d7565b919260208161124060019361123b86611127565b610294565b019301916111cf565b919260208161126260019361125d8661110d565b610294565b019301916111c7565b919260208161128460019361127f866110f3565b610294565b019301916111bf565b91926020816112a66001936112a1866110d9565b610294565b019301916111b7565b91926020816112c86001936112c3866110bf565b610294565b019301916111af565b91926020816112ea6001936112e5866110a5565b610294565b019301916111a7565b5b816001600803840110156111905792600160206113a76113ac600894838080808080808f549761132c816113278b6110a5565b610294565b0161133f8161133a8a6110bf565b610294565b016113528161134d896110d9565b610294565b0161136581611360886110f3565b610294565b01611378816113738761110d565b610294565b0161138b8161138686611127565b610294565b0161139e8161139985611141565b610294565b01928391611155565b610294565b0194019201916112f4565b906113c191611169565b90565b906113e46113dd926113d4610132565b938480926113b7565b0383610f5d565b565b52565b906113f390610162565b9052565b90611401906101c5565b9052565b60081c90565b61141761141c91611405565b610d67565b90565b611429905461140b565b90565b9061143f611438610132565b9283610f5d565b565b61144c61010061142c565b90565b9061151561150c6006611460611441565b9461147761146f5f8301611061565b5f8801611083565b61148f611486600183016113c4565b602088016113e6565b6114a761149e60028301610e5c565b604088016113e9565b6114bf6114b660038301610e5c565b606088016113e9565b6114d76114ce60048301610e5c565b608088016113e9565b6114ef6114e660058301610e5c565b60a088016113e9565b6115066114fd838301610fbc565b60c088016113f7565b0161141f565b60e084016113f7565b565b611521608061142c565b90565b9061158b6115826003611535611517565b9461154c6115445f8301610e5c565b5f88016113e9565b61156461155b60018301610e5c565b602088016113e9565b61157c61157360028301611061565b60408801611083565b01611061565b60608401611083565b565b60ff1690565b61159f6115a491610e43565b61158d565b90565b6115b19054611593565b90565b6002906115c082610e0e565b81101561163a576115d091610e1b565b50906115dd5f8301610e5c565b916115ea60018201610f86565b916115f760028301610fbc565b916116046003820161144f565b91611611600a8301611524565b9161161e600f82016115a7565b91611637601161163060108501610e5c565b9301610e5c565b90565b5f80fd5b60209181520190565b61166661166f6020936116749361165d81610172565b9384809361163e565b9586910161017f565b61018a565b0190565b906117129060e0806116ad61169b61010085015f8801518682035f880152610225565b602087015185820360208701526102b8565b946116c060408201516040860190610165565b6116d260608201516060860190610165565b6116e460808201516080860190610165565b6116f660a082015160a0860190610165565b61170860c082015160c08601906101ca565b01519101906101ca565b90565b61171e906103fa565b9052565b9360e09561177c61179f9561178a9361176f6117649b9e9d9b8a6117a69e996117566117959a5f6101008501940190610a0c565b8c6020818403910152611647565b9260408b0190610da3565b88820360608a0152611678565b90868203608088015261076d565b9860a0850190611715565b60c0830190610a0c565b0190610a0c565b565b346117e2576117de6117c36117be3660046105b1565b6115b4565b946117d5989698949194939293610132565b98899889611722565b0390f35b610138565b909160c0828403126118aa576117ff835f84016105a2565b92602083013567ffffffffffffffff81116118a55781611820918501610886565b929093604081013567ffffffffffffffff81116118a057836118439183016108c9565b92606082013567ffffffffffffffff811161189b57816118649184016108dd565b92608083013567ffffffffffffffff811161189657611888836118939286016108f0565b93909460a001610943565b90565b61058a565b61058a565b61058a565b61058a565b61013c565b346118e7576118d16118c23660046117e7565b96959095949194939293613805565b6118d9610132565b806118e38161080f565b0390f35b610138565b3461191c576118fc366004610140565b611918611907613817565b61190f610132565b91829182610a19565b0390f35b610138565b3461194f576119396119343660046105b1565b61391a565b611941610132565b8061194b8161080f565b0390f35b610138565b6119605f6002906106f9565b90565b3461199357611973366004610140565b61198f61197e611954565b611986610132565b91829182610723565b0390f35b610138565b5f80fd5b606090565b90565b90565b6119bb6119b66119c0926119a1565b6119a4565b610162565b90565b60016119cf9101610162565b90565b634e487b7160e01b5f52601160045260245ffd5b6119ef90610162565b5f1981146119fd5760010190565b6119d2565b67ffffffffffffffff8111611a1a5760208091020190565b610f49565b90611a31611a2c83611a02565b61142c565b918252565b611a4161012061142c565b90565b5f90565b606090565b5f90565b606090565b606090565b611a63611441565b9060208080808080808089611a76611a51565b815201611a81611a56565b815201611a8c611a44565b815201611a97611a44565b815201611aa2611a44565b815201611aad611a44565b815201611ab8611a4d565b815201611ac3611a4d565b81525050565b611ad1611a5b565b90565b611adc611517565b90602080808085611aeb611a44565b815201611af6611a44565b815201611b01611a51565b815201611b0c611a51565b81525050565b611b1a611ad4565b90565b5f90565b611b29611a36565b90602080808080808080808a611b3d611a44565b815201611b48611a48565b815201611b53611a4d565b815201611b5e611ac9565b815201611b69611b12565b815201611b74611a51565b815201611b7f611b1d565b815201611b8a611a44565b815201611b95611a44565b81525050565b611ba3611b21565b90565b5f5b828110611bb457505050565b602090611bbf611b9b565b8184015201611ba8565b90611bee611bd683611a1f565b92602080611be48693611a02565b9201910390611ba6565b565b90611bfa8261014f565b811015611c0b576020809102010190565b610dfa565b52565b52565b52565b90611c23906103fa565b9052565b90611d07611cfd6011611c38611a36565b94611c4f611c475f8301610e5c565b5f88016113e9565b611c67611c5e60018301610f86565b60208801611c10565b611c7f611c7660028301610fbc565b604088016113f7565b611c97611c8e6003830161144f565b60608801611c13565b611caf611ca6600a8301611524565b60808801611c16565b611cc7611cbe600e8301611061565b60a08801611083565b611cdf611cd6600f83016115a7565b60c08801611c19565b611cf7611cee60108301610e5c565b60e088016113e9565b01610e5c565b61010084016113e9565b565b611d1290611c27565b90565b611d1d61199c565b50611d275f6119a7565b611d305f6119a7565b5b80611d4d611d47611d426002610e0e565b610162565b91610162565b1015611d9257611d6a6002611d63818490610e1b565b5001610fbc565b611d7d575b611d78906119c3565b611d31565b90611d8a611d78916119e6565b919050611d6f565b50611d9c90611bc9565b611da55f6119a7565b611dae5f6119a7565b5b80611dcb611dc5611dc06002610e0e565b610162565b91610162565b1015611e3657611df690611dec6002611de5818490610e1b565b5001610fbc565b611dfb575b6119c3565b611daf565b611e2f611e0a60028390610e1b565b5085611e1f611e18876119e6565b9692611d09565b611e298383611bf0565b52611bf0565b5150611df1565b505090565b611e43611b21565b90565b611e5d611e6391611e55611e3b565b506002610e1b565b50611d09565b90565b611e6e611ad4565b90565b611e7a90611524565b90565b5f7f506f6c696379206e6f7420666f756e6400000000000000000000000000000000910152565b611eb1601060209261163e565b611eba81611e7d565b0190565b611ed39060208101905f818303910152611ea4565b90565b611ede611e66565b50611ee85f6119a7565b5b80611f05611eff611efa6002610e0e565b610162565b91610162565b1015611f6357611f225f611f1b60028490610e1b565b5001610e5c565b611f34611f2e84610162565b91610162565b14611f4757611f42906119c3565b611ee9565b611f609150611f59600a916002610e1b565b5001611e71565b90565b611f6b610132565b62461bcd60e51b815280611f8160048201611ebe565b0390fd5b60101c90565b611f97611f9c91611f85565b6106d6565b90565b611fa99054611f8b565b90565b5f7f4f6e6c7920676f7665726e616e6365206d756c74697369670000000000000000910152565b611fe0601860209261163e565b611fe981611fac565b0190565b6120029060208101905f818303910152611fd3565b90565b1561200c57565b612014610132565b62461bcd60e51b81528061202a60048201611fed565b0390fd5b61205b906120563361205061204a6120455f611f9f565b6101f5565b916101f5565b14612005565b6120fc565b565b5f1b90565b9061206e60ff9161205d565b9181191691161790565b612081906101c5565b90565b90565b9061209c6120976120a392612078565b612084565b8254612062565b9055565b906120b35f199161205d565b9181191691161790565b6120d16120cc6120d692610162565b6119a4565b610162565b90565b90565b906120f16120ec6120f8926120bd565b6120d9565b82546120a7565b9055565b6121055f6119a7565b5b8061212261211c6121176002610e0e565b610162565b91610162565b10156121995761213f5f61213860028490610e1b565b5001610e5c565b61215161214b84610162565b91610162565b146121645761215f906119c3565b612106565b61219791506121826001600261217b818590610e1b565b5001612087565b601161219043926002610e1b565b50016120dc565b565b6121a1610132565b62461bcd60e51b8152806121b760048201611ebe565b0390fd5b6121c49061202e565b565b6121d09054610fd6565b90565b5f7f4f6e6c792070726f766973696f6e657200000000000000000000000000000000910152565b612207601060209261163e565b612210816121d3565b0190565b6122299060208101905f8183039101526121fa565b90565b1561223357565b61223b610132565b62461bcd60e51b81528061225160048201612214565b0390fd5b61226161226691611121565b610d67565b90565b6122739054612255565b90565b5f7f416c7265616479206c6f636b6564000000000000000000000000000000000000910152565b6122aa600e60209261163e565b6122b381612276565b0190565b6122cc9060208101905f81830391015261229d565b90565b156122d657565b6122de610132565b62461bcd60e51b8152806122f4600482016122b7565b0390fd5b60a01b90565b9061230d60ff60a01b916122f8565b9181191691161790565b9061232c61232761233392612078565b612084565b82546122fe565b9055565b61235c3361235661235061234b60016121c6565b6101f5565b916101f5565b1461222c565b61237761237261236c6001612269565b156101c5565b6122cf565b612382600180612317565b7f07342bbc2fa54fca88a6147bc8057a318f326325ca459c6419e674d5ac7e20ab6123ab610132565b806123b58161080f565b0390a1565b5f90565b5f7f4f6e6c7920676f7665726e616e6365206f722070726f766973696f6e65720000910152565b6123f2601e60209261163e565b6123fb816123be565b0190565b6124149060208101905f8183039101526123e5565b90565b1561241e57565b612426610132565b62461bcd60e51b81528061243c600482016123ff565b0390fd5b9061247c979695949392913361246661246061245b5f611f9f565b6101f5565b916101f5565b14801561247f575b61247790612417565b612853565b90565b5061249361248d6001612269565b156101c5565b8061249e575b61246e565b50612477336124be6124b86124b360016121c6565b6101f5565b916101f5565b149050612499565b5f80fd5b67ffffffffffffffff81116124e8576124e460209161018a565b0190565b610f49565b90825f939282370152565b9092919261250d612508826124ca565b61142c565b9381855260208501908284011161252957612527926124ed565b565b6124c6565b6125399136916124f8565b90565b5f80fd5b5f80fd5b67ffffffffffffffff811161255c5760208091020190565b610f49565b9092919261257661257182612544565b61142c565b93818552602080860192028301928184116125b357915b83831061259a5750505050565b602080916125a88486610abd565b81520192019161258d565b610882565b9080601f830112156125d6578160206125d393359101612561565b90565b61087a565b67ffffffffffffffff81116125f35760208091020190565b610f49565b61260181610288565b0361260857565b5f80fd5b90503590612619826125f8565b565b9092919261263061262b826125db565b61142c565b938185526020808601920283019281841161266d57915b8383106126545750505050565b60208091612662848661260c565b815201920191612647565b610882565b9080601f830112156126905781602061268d9335910161261b565b90565b61087a565b61269e816101c5565b036126a557565b5f80fd5b905035906126b682612695565b565b91909161010081840312612791576126d161010061142c565b925f82013567ffffffffffffffff811161278c57816126f19184016125b8565b5f85015260208201359167ffffffffffffffff83116127875761271982612780948301612672565b602086015261272b82604083016105a2565b604086015261273d82606083016105a2565b606086015261274f82608083016105a2565b60808601526127618260a083016105a2565b60a08601526127738260c083016126a9565b60c086015260e0016126a9565b60e0830152565b612540565b612540565b61253c565b6127a19036906126b8565b90565b919091608081840312612832576127bb608061142c565b926127c8815f84016105a2565b5f8501526127d981602084016105a2565b6020850152604082013567ffffffffffffffff811161282d57816127fe9184016125b8565b6040850152606082013567ffffffffffffffff81116128285761282192016125b8565b6060830152565b612540565b612540565b61253c565b6128429036906127a4565b90565b612850913691612561565b90565b61287d612877612889949896979561288f9a9461288394509990989697949961252e565b96612796565b93612837565b93612845565b92613dc4565b90565b906128a99695949392916128a46123ba565b612440565b90565b606090565b906128eb9594939291336128d56128cf6128ca5f611f9f565b6101f5565b916101f5565b1480156128ee575b6128e690612417565b6129db565b90565b506129026128fc6001612269565b156101c5565b8061290d575b6128dd565b506128e63361292d61292761292260016121c6565b6101f5565b916101f5565b149050612908565b5090565b67ffffffffffffffff81116129515760208091020190565b610f49565b9061296861296383612939565b61142c565b918252565b369037565b9061299761297f83612956565b9260208061298d8693612939565b920191039061296d565b565b91908110156129a9576020020190565b610dfa565b356129b88161058e565b90565b906129c582610b38565b8110156129d6576020809102010190565b610dfa565b95949593919093506129ee848290612935565b956129f887612972565b95612a025f6119a7565b5b80612a16612a108b610162565b91610162565b1015612a6857612a6390612a5e612a4c85612a3b612a368c8a8791612999565b6129ae565b612a468b8b90612845565b91614236565b612a598b918490926129bb565b6113e9565b6119c3565b612a03565b509650505050505090565b90612a8894939291612a836128ac565b6128b1565b90565b60207f647920696e697469616c697a6564000000000000000000000000000000000000917f496e697469616c697a61626c653a20636f6e747261637420697320616c7265615f8201520152565b612ae5602e60409261163e565b612aee81612a8b565b0190565b612b079060208101905f818303910152612ad8565b90565b15612b1157565b612b19610132565b62461bcd60e51b815280612b2f60048201612af2565b0390fd5b60081b90565b90612b4661ff0091612b33565b9181191691161790565b90612b65612b60612b6c92612078565b612084565b8254612b39565b9055565b612b795f61141f565b8015612bdb575b612b8990612b0a565b612baa612b9e612b985f61141f565b156101c5565b9182612bc0575b612cae565b612bb1575b565b612bbb5f5f612b50565b612baf565b612bcb60015f612b50565b612bd660015f612087565b612ba5565b50612b89612bf1612beb5f610fbc565b156101c5565b9050612b80565b60101b90565b90612c1262010000600160b01b0391612bf8565b9181191691161790565b612c30612c2b612c35926101ea565b6119a4565b6101ea565b90565b612c4190612c1c565b90565b612c4d90612c38565b90565b90565b90612c68612c63612c6f92612c44565b612c50565b8254612bfe565b9055565b90612c8460018060a01b039161205d565b9181191691161790565b90612ca3612c9e612caa92612c44565b612c50565b8254612c73565b9055565b612cb8905f612c53565b612cc3336001612c8e565b565b612cce90612b70565b565b606090565b612cde90611061565b90565b612ce9612cd0565b50612cf35f6119a7565b5b80612d10612d0a612d056002610e0e565b610162565b91610162565b1015612d6e57612d2d5f612d2660028490610e1b565b5001610e5c565b612d3f612d3984610162565b91610162565b14612d5257612d4d906119c3565b612cf4565b612d6b9150612d64600e916002610e1b565b5001612cd5565b90565b612d76610132565b62461bcd60e51b815280612d8c60048201611ebe565b0390fd5b90612dc497969594939291612dbf33612db9612db3612dae5f611f9f565b6101f5565b916101f5565b14612005565b61366b565b565b5090565b5f7f4d7573742068617665207369676e657273000000000000000000000000000000910152565b612dfe601160209261163e565b612e0781612dca565b0190565b612e209060208101905f818303910152612df1565b90565b15612e2a57565b612e32610132565b62461bcd60e51b815280612e4860048201612e0b565b0390fd5b90565b612e63612e5e612e6892612e4c565b6119a4565b6103fa565b90565b90565b612e82612e7d612e8792612e6b565b6119a4565b6103fa565b90565b5f7f57656967687420312d3130000000000000000000000000000000000000000000910152565b612ebe600b60209261163e565b612ec781612e8a565b0190565b612ee09060208101905f818303910152612eb1565b90565b15612eea57565b612ef2610132565b62461bcd60e51b815280612f0860048201612ecb565b0390fd5b5090565b601f602091010490565b1b90565b91906008612f39910291612f335f1984612f1a565b92612f1a565b9181191691161790565b9190612f59612f54612f61936120bd565b6120d9565b908354612f1e565b9055565b612f7791612f716123ba565b91612f43565b565b5b818110612f85575050565b80612f925f600193612f65565b01612f7a565b9190601f8111612fa8575b505050565b612fb4612fd993610ea7565b906020612fc084612f10565b83019310612fe1575b612fd290612f10565b0190612f79565b5f8080612fa3565b9150612fd281929050612fc9565b90612fff905f19906008026106d2565b191690565b8161300e91612fef565b906002021790565b916130219082612f0c565b9067ffffffffffffffff82116130e0576130458261303f8554610e7d565b85612f98565b5f90601f831160011461307857918091613067935f9261306c575b5050613004565b90555b565b90915001355f80613060565b601f1983169161308785610ea7565b925f5b8181106130c8575091600293918560019694106130ae575b5050500201905561306a565b6130be910135601f841690612fef565b90555f80806130a2565b9193602060018192878701358155019501920161308a565b610f49565b906130f09291613016565b565b5f80fd5b5f80fd5b5f80fd5b903590600160200381360303821215613140570180359067ffffffffffffffff821161313b5760200191602082023603831361313657565b6130fa565b6130f6565b6130f2565b600190818003010490565b5b81811061315c575050565b806131695f600193612f65565b01613151565b90613182905f19906020036008026106d2565b8154169055565b9091828110613198575b505050565b6131b66131b06131aa6131c195613145565b92613145565b92610fcd565b918201910190613150565b5f8080613193565b906801000000000000000081116131f257816131e76131f093610fc9565b90828155613189565b565b610f49565b3561320181610aa9565b90565b90565b90916132139083612dc6565b9167ffffffffffffffff83116132765761324161323b60019261323686866131c9565b613204565b92610fcd565b9204915f5b8381106132535750505050565b6001906020613269613264866131f7565b612c50565b9401938184015501613246565b610f49565b906132869291613207565b565b9035906001602003813603038212156132ca570180359067ffffffffffffffff82116132c5576020019160208202360383136132c057565b6130fa565b6130f6565b6130f2565b60089060018203010490565b5b8181106132e7575050565b806132f45f600193612f65565b016132dc565b91909182821061330a575b505050565b6004600861331a613342956132cf565b61332c613326866132cf565b9461108a565b93840193019306025f811161334a575b506132db565b5f8080613305565b613357906001830361316f565b5f61333c565b90680100000000000000008111613386578161337b61338493611086565b908281556132fa565b565b610f49565b5090565b35613399816125f8565b90565b90565b919060086133bd9102916133b763ffffffff84612f1a565b92612f1a565b9181191691161790565b6133d09061012c565b90565b916133de908261338b565b9067ffffffffffffffff82116134c35761340461340a916133ff848661335d565b61339c565b9261108a565b60088204915f5b83811061347a57506008830290035f811161342d575b50505050565b925f935f5b8181106134475750505001555f808080613427565b909194602061346e60019261346361345e8a61338f565b6133c7565b90856004029061339f565b96019101919091613432565b5f5f5b600881106134945750906001918185015501613411565b959060206134ba6001926134af6134aa8661338f565b6133c7565b908a6004029061339f565b9201960161347d565b610f49565b906134d392916133d3565b565b356134df81612695565b90565b906135a460e060066135aa946135065f82016135005f8801886130fe565b9161327b565b6135206001820161351a6020880188613288565b916134c8565b61353960028201613533604088016129ae565b906120dc565b6135526003820161354c606088016129ae565b906120dc565b61356b60048201613565608088016129ae565b906120dc565b6135846005820161357e60a088016129ae565b906120dc565b61359c82820161359660c088016134d5565b90612087565b0192016134d5565b90612b50565b565b906135b6916134e2565b565b90613618600361361e936135d95f82016135d35f87016129ae565b906120dc565b6135f2600182016135ec602087016129ae565b906120dc565b61360c6002820161360660408701876130fe565b9161327b565b019160608101906130fe565b9161327b565b565b9061362a916135b8565b565b61364061363b613645926103fa565b6119a4565b6103fa565b90565b90565b9061366061365b6136679261362c565b613648565b8254612062565b9055565b96959493929190613698613680868890612dc6565b61369261368c5f6119a7565b91610162565b11612e23565b866136ac6136a66001612e4f565b916103fa565b1015806137e4575b6136bd90612ee3565b6136c65f6119a7565b5b806136e36136dd6136d86002610e0e565b610162565b91610162565b10156137c2576137005f6136f960028490610e1b565b5001610e5c565b61371261370c8b610162565b91610162565b1461372557613720906119c3565b6136c7565b9694916137c098509361376c6137ab97946137578a6137969860016137506137819892936002610e1b565b50016130e5565b600361376560028c90610e1b565b50016135ac565b600a61377a60028a90610e1b565b5001613620565b600e61378f60028890610e1b565b500161327b565b600f6137a460028590610e1b565b500161364b565b60116137b943926002610e1b565b50016120dc565b565b6137ca610132565b62461bcd60e51b8152806137e060048201611ebe565b0390fd5b506136bd876137fc6137f6600a612e6e565b916103fa565b111590506136b4565b9061381597969594939291612d90565b565b61381f6123ba565b5061382a6002610e0e565b90565b61385a906138553361384f6138496138445f611f9f565b6101f5565b916101f5565b14612005565b61385c565b565b6138655f6119a7565b5b8061388261387c6138776002610e0e565b610162565b91610162565b10156138f85761389f5f61389860028490610e1b565b5001610e5c565b6138b16138ab84610162565b91610162565b146138c4576138bf906119c3565b613866565b6138f691506138e15f60026138da818590610e1b565b5001612087565b60116138ef43926002610e1b565b50016120dc565b565b613900610132565b62461bcd60e51b81528061391660048201611ebe565b0390fd5b6139239061382d565b565b90565b5490565b5f5260205f2090565b61393e81613928565b8210156139585761395060129161392c565b910201905f90565b610dfa565b61396681613928565b6801000000000000000081101561398a5761398691600182018155613935565b9091565b610f49565b6139a361399e6139a892612e4c565b6119a4565b610162565b90565b6139ba6139c091939293610162565b92610162565b82039182116139cb57565b6119d2565b90565b906139dd81610172565b9067ffffffffffffffff8211613a9d57613a01826139fb8554610e7d565b85612f98565b602090601f8311600114613a3557918091613a24935f92613a29575b5050613004565b90555b565b90915001515f80613a1d565b601f19831691613a4485610ea7565b925f5b818110613a8557509160029391856001969410613a6b575b50505002019055613a27565b613a7b910151601f841690612fef565b90555f8080613a5f565b91936020600181928787015181550195019201613a47565b610f49565b90613aac916139d3565b565b5190565b613abc90516101f5565b90565b613ac8826101d7565b9167ffffffffffffffff8311613b2b57613af6613af0600192613aeb86866131c9565b6101e4565b92610fcd565b9204915f5b838110613b085750505050565b6001906020613b1e613b1986613ab2565b612c50565b9401938184015501613afb565b610f49565b90613b3a91613abf565b565b5190565b613b4a9051610288565b90565b90613b5781610275565b9067ffffffffffffffff8211613c3c57613b7d613b8391613b78848661335d565b610282565b9261108a565b60088204915f5b838110613bf357506008830290035f8111613ba6575b50505050565b925f935f5b818110613bc05750505001555f808080613ba0565b9091946020613be7600192613bdc613bd78a613b40565b6133c7565b90856004029061339f565b96019101919091613bab565b5f5f5b60088110613c0d5750906001918185015501613b8a565b95906020613c33600192613c28613c2386613b40565b6133c7565b908a6004029061339f565b92019601613bf6565b610f49565b90613c4b91613b4d565b565b613c579051610162565b90565b613c6490516101c5565b90565b90613d2760e06006613d2d94613c8a5f8201613c845f8801613aae565b90613b30565b613ca360018201613c9d60208801613b3c565b90613c41565b613cbc60028201613cb660408801613c4d565b906120dc565b613cd560038201613ccf60608801613c4d565b906120dc565b613cee60048201613ce860808801613c4d565b906120dc565b613d0760058201613d0160a08801613c4d565b906120dc565b613d1f828201613d1960c08801613c5a565b90612087565b019201613c5a565b90612b50565b565b90613d3991613c67565b565b90613d9860606003613d9e94613d5e5f8201613d585f8801613c4d565b906120dc565b613d7760018201613d7160208801613c4d565b906120dc565b613d9060028201613d8a60408801613aae565b90613b30565b019201613aae565b90613b30565b565b90613daa91613d3b565b565b613dc19160208201915f818403910152611647565b90565b92613eef9294613ecf613ed892613dd96123ba565b50613dfe613de6826101d7565b613df8613df25f6119a7565b91610162565b11612e23565b82613e12613e0c6001612e4f565b916103fa565b101580613f35575b613e2390612ee3565b613ec6613e306003610e5c565b613e43613e3c826119e6565b60036120dc565b98613e56613e516002613925565b61395d565b5050613ebd613e8c613e866002613e80613e706002610e0e565b613e7a600161398f565b906139ab565b90610e1b565b506139d0565b97613e998c5f8b016120dc565b613ea68b60018b01613aa2565b613eb4600160028b01612087565b60038901613d2f565b600a8701613da0565b600e8501613b30565b600f830161364b565b613ee543601083016120dc565b60114391016120dc565b81613f2f613f1d7fc402f15c92cbb1b3436a267bb09e31f369812f7b8165bffecf926e020b895cf0926120bd565b92613f26610132565b91829182613dac565b0390a290565b50613e2383613f4d613f47600a612e6e565b916103fa565b11159050613e1a565b613f5f90612c1c565b90565b613f6b90613f56565b90565b613f7790612c38565b90565b90505190613f8782610aa9565b565b90929192613f9e613f9982612544565b61142c565b9381855260208086019202830192818411613fdb57915b838310613fc25750505050565b60208091613fd08486613f7a565b815201920191613fb5565b610882565b9080601f83011215613ffe57816020613ffb93519101613f89565b90565b61087a565b90602082820312614033575f82015167ffffffffffffffff811161402e5761402b9201613fe0565b90565b61058a565b61013c565b614040610132565b3d5f823e3d90fd5b90505190614055826125f8565b565b9092919261406c614067826125db565b61142c565b93818552602080860192028301928184116140a957915b8383106140905750505050565b6020809161409e8486614048565b815201920191614083565b610882565b9080601f830112156140cc578160206140c993519101614057565b90565b61087a565b90602082820312614101575f82015167ffffffffffffffff81116140fc576140f992016140ae565b90565b61058a565b61013c565b905051906141138261058e565b565b9060208282031261412e5761412b915f01614106565b90565b61013c565b9050519061414082612695565b565b9060208282031261415b57614158915f01614133565b90565b61013c565b61416b61010061142c565b90565b614178608061142c565b90565b9092919261419061418b826124ca565b61142c565b938185526020850190828401116141ac576141aa9261017f565b565b6124c6565b9080601f830112156141cf578160206141cc9351910161417b565b90565b61087a565b90602082820312614204575f82015167ffffffffffffffff81116141ff576141fc92016141b1565b90565b61058a565b61013c565b905051906142168261092f565b565b906020828203126142315761422e915f01614209565b90565b61013c565b61424b909291926142456123ba565b50613f62565b6142825f61425883613f6e565b636f905af190614277879261426b610132565b95869485938493611093565b835260048301610a19565b03915afa9081156149d3575f916149b1575b506142cc5f6142a284613f6e565b6344b0a581906142c188926142b5610132565b95869485938493611093565b835260048301610a19565b03915afa80156149ac57614317915f9161498a575b5060206142ed85613f6e565b63e7c49d819061430c8992614300610132565b96879485938493611093565b835260048301610a19565b03915afa801561498557614362925f91614957575b50602061433886613f6e565b63d030236d906143578a9261434b610132565b97889485938493611093565b835260048301610a19565b03915afa8015614952576143ad935f91614924575b50602061438387613f6e565b630ad350c2906143a28b92614396610132565b98899485938493611093565b835260048301610a19565b03915afa90811561491f576143f9945f926148ef575b5060206143cf88613f6e565b63c4186e06906143ee8c926143e2610132565b998a9485938493611093565b835260048301610a19565b03915afa9283156148ea57614445955f946148ba575b50602061441b89613f6e565b63a997680a9061443a8d9261442e610132565b9a8b9485938493611093565b835260048301610a19565b03915afa9485156148b55761448f965f96614885575b5060208b6144688b613f6e565b61448463e1129163614478610132565b9b8c9485938493611093565b835260048301610a19565b03915afa968715614880575f97614850575b506144aa614160565b975f8901906144b891611083565b60208801906144c6916113e6565b60408701906144d4916113e9565b60608601906144e2916113e9565b60808501906144f0916113e9565b60a08401906144fe916113e9565b60c083019061450c916113f7565b60e082019061451a916113f7565b918161452590613f6e565b9363c8bf0188948195614536610132565b80976145428293611093565b8252600482019061455291610a19565b03815a93602094fa801561484b576145a1955f9161481d575b50602061457785613f6e565b630c67c94e90614596859261458a610132565b9a8b9485938493611093565b835260048301610a19565b03915afa8015614818576145ea965f916147ea575b505f6145c186613f6e565b62954afc906145df86926145d3610132565b9b8c9485938493611093565b835260048301610a19565b03915afa9687156147e5575f976147bd575b50614635905f61460b87613f6e565b63d976f2a79061462a879261461e610132565b96879485938493611093565b835260048301610a19565b03915afa80156147b8576146bb98614686935f9261478e575b5061467461467d929361466b61466261416e565b975f89016113e9565b602087016113e9565b60408501611083565b60608301611083565b905f61469185613f6e565b635e1b5d75906146b084926146a4610132565b9a8b9485938493611093565b835260048301610a19565b03915afa94851561478957614708965f9661475c575b50906146e1602092939495613f6e565b6146fd63a2b8c23e6146f1610132565b998a9485938493611093565b835260048301610a19565b03915afa93841561475757614724955f95614727575b50613dc4565b90565b61474991955060203d8111614750575b6147418183610f5d565b810190614218565b935f61471e565b503d614737565b614038565b6020929196506147806146e1913d805f833e6147788183610f5d565b8101906141d4565b969192506146d1565b614038565b61467d92506147b1614674913d805f833e6147a98183610f5d565b810190614003565b925061464e565b614038565b6146359197506147de903d805f833e6147d68183610f5d565b810190614003565b96906145fc565b614038565b61480b915060203d8111614811575b6148038183610f5d565b810190614115565b5f6145b6565b503d6147f9565b614038565b61483e915060203d8111614844575b6148368183610f5d565b810190614115565b5f61456b565b503d61482c565b614038565b61487291975060203d8111614879575b61486a8183610f5d565b810190614142565b955f6144a1565b503d614860565b614038565b6148a791965060203d81116148ae575b61489f8183610f5d565b810190614142565b945f61445b565b503d614895565b614038565b6148dc91945060203d81116148e3575b6148d48183610f5d565b810190614115565b925f61440f565b503d6148ca565b614038565b61491191925060203d8111614918575b6149098183610f5d565b810190614115565b905f6143c3565b503d6148ff565b614038565b614945915060203d811161494b575b61493d8183610f5d565b810190614115565b5f614377565b503d614933565b614038565b614978915060203d811161497e575b6149708183610f5d565b810190614115565b5f61432c565b503d614966565b614038565b6149a691503d805f833e61499e8183610f5d565b8101906140d1565b5f6142e1565b614038565b6149cd91503d805f833e6149c58183610f5d565b810190614003565b5f614294565b61403856fea26469706673582212206edfc4788b2e69d8f316fa059f71110e1654ec371d2156a7172acca6b2abc45964736f6c634300081f0033","linkReferences":{}},"methodIdentifiers":{"addPolicy(string,(address[],bytes4[],uint256,uint256,uint256,uint256,bool,bool),(uint256,uint256,address[],address[]),address[],uint8)":"b41112c7","addPresetPolicies(uint256[],address[],address)":"bf2d0f5e","deactivatePolicy(uint256)":"eb4a4645","getActivePolicies()":"17a1f828","getPolicy(uint256)":"2b07fce3","getPolicyCount()":"e59771d2","getPolicyLimits(uint256)":"9b26784e","getPolicySigners(uint256)":"c76ed48a","governanceMultisig()":"edf743fe","initialize(address)":"c4d66de8","lockProvisioning()":"a5a2f05e","nextPolicyId()":"cad0b8db","policies(uint256)":"d3e89483","provisioner()":"7e94eab9","provisioningLocked()":"cde00724","reactivatePolicy(uint256)":"a1c5cf66","updatePolicy(uint256,string,(address[],bytes4[],uint256,uint256,uint256,uint256,bool,bool),(uint256,uint256,address[],address[]),address[],uint8)":"e2c0af44"},"id":26}