{"abi":[{"type":"constructor","inputs":[{"name":"_governanceMultisig","type":"address","internalType":"address"}],"stateMutability":"nonpayable"},{"type":"function","name":"addPolicy","inputs":[{"name":"_name","type":"string","internalType":"string"},{"name":"_conditions","type":"tuple","internalType":"struct PolicyRegistry.Conditions","components":[{"name":"targetAddresses","type":"address[]","internalType":"address[]"},{"name":"functionSelectors","type":"bytes4[]","internalType":"bytes4[]"},{"name":"minValue","type":"uint256","internalType":"uint256"},{"name":"maxValue","type":"uint256","internalType":"uint256"},{"name":"timeWindowStart","type":"uint256","internalType":"uint256"},{"name":"timeWindowEnd","type":"uint256","internalType":"uint256"},{"name":"requireVerified","type":"bool","internalType":"bool"},{"name":"requireErc7730","type":"bool","internalType":"bool"}]},{"name":"_limits","type":"tuple","internalType":"struct PolicyRegistry.Limits","components":[{"name":"maxValuePerTxUsd","type":"uint256","internalType":"uint256"},{"name":"maxValueDailyUsd","type":"uint256","internalType":"uint256"},{"name":"allowlist","type":"address[]","internalType":"address[]"},{"name":"denylist","type":"address[]","internalType":"address[]"}]},{"name":"_signers","type":"address[]","internalType":"address[]"},{"name":"_riskWeight","type":"uint8","internalType":"uint8"}],"outputs":[{"name":"","type":"uint256","internalType":"uint256"}],"stateMutability":"nonpayable"},{"type":"function","name":"deactivatePolicy","inputs":[{"name":"_policyId","type":"uint256","internalType":"uint256"}],"outputs":[],"stateMutability":"nonpayable"},{"type":"function","name":"getActivePolicies","inputs":[],"outputs":[{"name":"","type":"tuple[]","internalType":"struct PolicyRegistry.Policy[]","components":[{"name":"id","type":"uint256","internalType":"uint256"},{"name":"name","type":"string","internalType":"string"},{"name":"active","type":"bool","internalType":"bool"},{"name":"conditions","type":"tuple","internalType":"struct PolicyRegistry.Conditions","components":[{"name":"targetAddresses","type":"address[]","internalType":"address[]"},{"name":"functionSelectors","type":"bytes4[]","internalType":"bytes4[]"},{"name":"minValue","type":"uint256","internalType":"uint256"},{"name":"maxValue","type":"uint256","internalType":"uint256"},{"name":"timeWindowStart","type":"uint256","internalType":"uint256"},{"name":"timeWindowEnd","type":"uint256","internalType":"uint256"},{"name":"requireVerified","type":"bool","internalType":"bool"},{"name":"requireErc7730","type":"bool","internalType":"bool"}]},{"name":"limits","type":"tuple","internalType":"struct PolicyRegistry.Limits","components":[{"name":"maxValuePerTxUsd","type":"uint256","internalType":"uint256"},{"name":"maxValueDailyUsd","type":"uint256","internalType":"uint256"},{"name":"allowlist","type":"address[]","internalType":"address[]"},{"name":"denylist","type":"address[]","internalType":"address[]"}]},{"name":"signers","type":"address[]","internalType":"address[]"},{"name":"riskWeight","type":"uint8","internalType":"uint8"},{"name":"createdAt","type":"uint256","internalType":"uint256"},{"name":"updatedAt","type":"uint256","internalType":"uint256"}]}],"stateMutability":"view"},{"type":"function","name":"getPolicy","inputs":[{"name":"_index","type":"uint256","internalType":"uint256"}],"outputs":[{"name":"","type":"tuple","internalType":"struct PolicyRegistry.Policy","components":[{"name":"id","type":"uint256","internalType":"uint256"},{"name":"name","type":"string","internalType":"string"},{"name":"active","type":"bool","internalType":"bool"},{"name":"conditions","type":"tuple","internalType":"struct PolicyRegistry.Conditions","components":[{"name":"targetAddresses","type":"address[]","internalType":"address[]"},{"name":"functionSelectors","type":"bytes4[]","internalType":"bytes4[]"},{"name":"minValue","type":"uint256","internalType":"uint256"},{"name":"maxValue","type":"uint256","internalType":"uint256"},{"name":"timeWindowStart","type":"uint256","internalType":"uint256"},{"name":"timeWindowEnd","type":"uint256","internalType":"uint256"},{"name":"requireVerified","type":"bool","internalType":"bool"},{"name":"requireErc7730","type":"bool","internalType":"bool"}]},{"name":"limits","type":"tuple","internalType":"struct PolicyRegistry.Limits","components":[{"name":"maxValuePerTxUsd","type":"uint256","internalType":"uint256"},{"name":"maxValueDailyUsd","type":"uint256","internalType":"uint256"},{"name":"allowlist","type":"address[]","internalType":"address[]"},{"name":"denylist","type":"address[]","internalType":"address[]"}]},{"name":"signers","type":"address[]","internalType":"address[]"},{"name":"riskWeight","type":"uint8","internalType":"uint8"},{"name":"createdAt","type":"uint256","internalType":"uint256"},{"name":"updatedAt","type":"uint256","internalType":"uint256"}]}],"stateMutability":"view"},{"type":"function","name":"getPolicyCount","inputs":[],"outputs":[{"name":"","type":"uint256","internalType":"uint256"}],"stateMutability":"view"},{"type":"function","name":"getPolicyLimits","inputs":[{"name":"_policyId","type":"uint256","internalType":"uint256"}],"outputs":[{"name":"","type":"tuple","internalType":"struct PolicyRegistry.Limits","components":[{"name":"maxValuePerTxUsd","type":"uint256","internalType":"uint256"},{"name":"maxValueDailyUsd","type":"uint256","internalType":"uint256"},{"name":"allowlist","type":"address[]","internalType":"address[]"},{"name":"denylist","type":"address[]","internalType":"address[]"}]}],"stateMutability":"view"},{"type":"function","name":"getPolicySigners","inputs":[{"name":"_policyId","type":"uint256","internalType":"uint256"}],"outputs":[{"name":"","type":"address[]","internalType":"address[]"}],"stateMutability":"view"},{"type":"function","name":"governanceMultisig","inputs":[],"outputs":[{"name":"","type":"address","internalType":"address"}],"stateMutability":"view"},{"type":"function","name":"nextPolicyId","inputs":[],"outputs":[{"name":"","type":"uint256","internalType":"uint256"}],"stateMutability":"view"},{"type":"function","name":"policies","inputs":[{"name":"","type":"uint256","internalType":"uint256"}],"outputs":[{"name":"id","type":"uint256","internalType":"uint256"},{"name":"name","type":"string","internalType":"string"},{"name":"active","type":"bool","internalType":"bool"},{"name":"conditions","type":"tuple","internalType":"struct PolicyRegistry.Conditions","components":[{"name":"targetAddresses","type":"address[]","internalType":"address[]"},{"name":"functionSelectors","type":"bytes4[]","internalType":"bytes4[]"},{"name":"minValue","type":"uint256","internalType":"uint256"},{"name":"maxValue","type":"uint256","internalType":"uint256"},{"name":"timeWindowStart","type":"uint256","internalType":"uint256"},{"name":"timeWindowEnd","type":"uint256","internalType":"uint256"},{"name":"requireVerified","type":"bool","internalType":"bool"},{"name":"requireErc7730","type":"bool","internalType":"bool"}]},{"name":"limits","type":"tuple","internalType":"struct PolicyRegistry.Limits","components":[{"name":"maxValuePerTxUsd","type":"uint256","internalType":"uint256"},{"name":"maxValueDailyUsd","type":"uint256","internalType":"uint256"},{"name":"allowlist","type":"address[]","internalType":"address[]"},{"name":"denylist","type":"address[]","internalType":"address[]"}]},{"name":"riskWeight","type":"uint8","internalType":"uint8"},{"name":"createdAt","type":"uint256","internalType":"uint256"},{"name":"updatedAt","type":"uint256","internalType":"uint256"}],"stateMutability":"view"},{"type":"function","name":"reactivatePolicy","inputs":[{"name":"_policyId","type":"uint256","internalType":"uint256"}],"outputs":[],"stateMutability":"nonpayable"},{"type":"function","name":"updatePolicy","inputs":[{"name":"_policyId","type":"uint256","internalType":"uint256"},{"name":"_name","type":"string","internalType":"string"},{"name":"_conditions","type":"tuple","internalType":"struct PolicyRegistry.Conditions","components":[{"name":"targetAddresses","type":"address[]","internalType":"address[]"},{"name":"functionSelectors","type":"bytes4[]","internalType":"bytes4[]"},{"name":"minValue","type":"uint256","internalType":"uint256"},{"name":"maxValue","type":"uint256","internalType":"uint256"},{"name":"timeWindowStart","type":"uint256","internalType":"uint256"},{"name":"timeWindowEnd","type":"uint256","internalType":"uint256"},{"name":"requireVerified","type":"bool","internalType":"bool"},{"name":"requireErc7730","type":"bool","internalType":"bool"}]},{"name":"_limits","type":"tuple","internalType":"struct PolicyRegistry.Limits","components":[{"name":"maxValuePerTxUsd","type":"uint256","internalType":"uint256"},{"name":"maxValueDailyUsd","type":"uint256","internalType":"uint256"},{"name":"allowlist","type":"address[]","internalType":"address[]"},{"name":"denylist","type":"address[]","internalType":"address[]"}]},{"name":"_signers","type":"address[]","internalType":"address[]"},{"name":"_riskWeight","type":"uint8","internalType":"uint8"}],"outputs":[],"stateMutability":"nonpayable"}],"bytecode":{"object":"0x608060405234801562000010575f80fd5b506040516200394b3803806200394b8339818101604052810190620000369190620000e1565b805f806101000a81548173ffffffffffffffffffffffffffffffffffffffff021916908373ffffffffffffffffffffffffffffffffffffffff1602179055505062000111565b5f80fd5b5f73ffffffffffffffffffffffffffffffffffffffff82169050919050565b5f620000ab8262000080565b9050919050565b620000bd816200009f565b8114620000c8575f80fd5b50565b5f81519050620000db81620000b2565b92915050565b5f60208284031215620000f957620000f86200007c565b5b5f6200010884828501620000cb565b91505092915050565b61382c806200011f5f395ff3fe608060405234801561000f575f80fd5b50600436106100b2575f3560e01c8063cad0b8db1161006f578063cad0b8db146101b0578063d3e89483146101ce578063e2c0af4414610205578063e59771d214610221578063eb4a46451461023f578063edf743fe1461025b576100b2565b806317a1f828146100b65780632b07fce3146100d45780639b26784e14610104578063a1c5cf6614610134578063b41112c714610150578063c76ed48a14610180575b5f80fd5b6100be610279565b6040516100cb91906122b0565b60405180910390f35b6100ee60048036038101906100e99190612302565b610831565b6040516100fb9190612404565b60405180910390f35b61011e60048036038101906101199190612302565b610caa565b60405161012b919061248b565b60405180910390f35b61014e60048036038101906101499190612302565b610e9d565b005b61016a600480360381019061016591906125cc565b61101c565b60405161017791906126ca565b60405180910390f35b61019a60048036038101906101959190612302565b61125f565b6040516101a7919061274f565b60405180910390f35b6101b861139a565b6040516101c591906126ca565b60405180910390f35b6101e860048036038101906101e39190612302565b6113a0565b6040516101fc989796959493929190612889565b60405180910390f35b61021f600480360381019061021a919061291a565b61174d565b005b610229611a3c565b60405161023691906126ca565b60405180910390f35b61025960048036038101906102549190612302565b611a48565b005b610263611bc7565b6040516102709190612a2b565b60405180910390f35b60605f805b6001805490508110156102e2576001818154811061029f5761029e612a44565b5b905f5260205f2090601202016002015f9054906101000a900460ff16156102cf5781806102cb90612a9e565b9250505b80806102da90612a9e565b91505061027e565b505f8167ffffffffffffffff8111156102fe576102fd612ae5565b5b60405190808252806020026020018201604052801561033757816020015b610324611bea565b81526020019060019003908161031c5790505b5090505f805b600180549050811015610827576001818154811061035e5761035d612a44565b5b905f5260205f2090601202016002015f9054906101000a900460ff1615610814576001818154811061039357610392612a44565b5b905f5260205f209060120201604051806101200160405290815f82015481526020016001820180546103c490612b3f565b80601f01602080910402602001604051908101604052809291908181526020018280546103f090612b3f565b801561043b5780601f106104125761010080835404028352916020019161043b565b820191905f5260205f20905b81548152906001019060200180831161041e57829003601f168201915b50505050508152602001600282015f9054906101000a900460ff1615151515815260200160038201604051806101000160405290815f82018054806020026020016040519081016040528092919081815260200182805480156104f057602002820191905f5260205f20905b815f9054906101000a900473ffffffffffffffffffffffffffffffffffffffff1673ffffffffffffffffffffffffffffffffffffffff16815260200190600101908083116104a7575b505050505081526020016001820180548060200260200160405190810160405280929190818152602001828054801561058757602002820191905f5260205f20905f905b82829054906101000a900460e01b7bffffffffffffffffffffffffffffffffffffffffffffffffffffffff1916815260200190600401906020826003010492830192600103820291508084116105345790505b5050505050815260200160028201548152602001600382015481526020016004820154815260200160058201548152602001600682015f9054906101000a900460ff161515151581526020016006820160019054906101000a900460ff1615151515815250508152602001600a82016040518060800160405290815f8201548152602001600182015481526020016002820180548060200260200160405190810160405280929190818152602001828054801561069657602002820191905f5260205f20905b815f9054906101000a900473ffffffffffffffffffffffffffffffffffffffff1673ffffffffffffffffffffffffffffffffffffffff168152602001906001019080831161064d575b505050505081526020016003820180548060200260200160405190810160405280929190818152602001828054801561072157602002820191905f5260205f20905b815f9054906101000a900473ffffffffffffffffffffffffffffffffffffffff1673ffffffffffffffffffffffffffffffffffffffff16815260200190600101908083116106d8575b5050505050815250508152602001600e82018054806020026020016040519081016040528092919081815260200182805480156107b057602002820191905f5260205f20905b815f9054906101000a900473ffffffffffffffffffffffffffffffffffffffff1673ffffffffffffffffffffffffffffffffffffffff1681526020019060010190808311610767575b50505050508152602001600f82015f9054906101000a900460ff1660ff1660ff168152602001601082015481526020016011820154815250508383806107f590612a9e565b94508151811061080857610807612a44565b5b60200260200101819052505b808061081f90612a9e565b91505061033d565b5081935050505090565b610839611bea565b6001828154811061084d5761084c612a44565b5b905f5260205f209060120201604051806101200160405290815f820154815260200160018201805461087e90612b3f565b80601f01602080910402602001604051908101604052809291908181526020018280546108aa90612b3f565b80156108f55780601f106108cc576101008083540402835291602001916108f5565b820191905f5260205f20905b8154815290600101906020018083116108d857829003601f168201915b50505050508152602001600282015f9054906101000a900460ff1615151515815260200160038201604051806101000160405290815f82018054806020026020016040519081016040528092919081815260200182805480156109aa57602002820191905f5260205f20905b815f9054906101000a900473ffffffffffffffffffffffffffffffffffffffff1673ffffffffffffffffffffffffffffffffffffffff1681526020019060010190808311610961575b5050505050815260200160018201805480602002602001604051908101604052809291908181526020018280548015610a4157602002820191905f5260205f20905f905b82829054906101000a900460e01b7bffffffffffffffffffffffffffffffffffffffffffffffffffffffff1916815260200190600401906020826003010492830192600103820291508084116109ee5790505b5050505050815260200160028201548152602001600382015481526020016004820154815260200160058201548152602001600682015f9054906101000a900460ff161515151581526020016006820160019054906101000a900460ff1615151515815250508152602001600a82016040518060800160405290815f82015481526020016001820154815260200160028201805480602002602001604051908101604052809291908181526020018280548015610b5057602002820191905f5260205f20905b815f9054906101000a900473ffffffffffffffffffffffffffffffffffffffff1673ffffffffffffffffffffffffffffffffffffffff1681526020019060010190808311610b07575b5050505050815260200160038201805480602002602001604051908101604052809291908181526020018280548015610bdb57602002820191905f5260205f20905b815f9054906101000a900473ffffffffffffffffffffffffffffffffffffffff1673ffffffffffffffffffffffffffffffffffffffff1681526020019060010190808311610b92575b5050505050815250508152602001600e8201805480602002602001604051908101604052809291908181526020018280548015610c6a57602002820191905f5260205f20905b815f9054906101000a900473ffffffffffffffffffffffffffffffffffffffff1673ffffffffffffffffffffffffffffffffffffffff1681526020019060010190808311610c21575b50505050508152602001600f82015f9054906101000a900460ff1660ff1660ff168152602001601082015481526020016011820154815250509050919050565b610cb2611c42565b5f5b600180549050811015610e5c578260018281548110610cd657610cd5612a44565b5b905f5260205f2090601202015f015403610e495760018181548110610cfe57610cfd612a44565b5b905f5260205f209060120201600a016040518060800160405290815f82015481526020016001820154815260200160028201805480602002602001604051908101604052809291908181526020018280548015610dad57602002820191905f5260205f20905b815f9054906101000a900473ffffffffffffffffffffffffffffffffffffffff1673ffffffffffffffffffffffffffffffffffffffff1681526020019060010190808311610d64575b5050505050815260200160038201805480602002602001604051908101604052809291908181526020018280548015610e3857602002820191905f5260205f20905b815f9054906101000a900473ffffffffffffffffffffffffffffffffffffffff1673ffffffffffffffffffffffffffffffffffffffff1681526020019060010190808311610def575b505050505081525050915050610e98565b8080610e5490612a9e565b915050610cb4565b506040517f08c379a0000000000000000000000000000000000000000000000000000000008152600401610e8f90612bb9565b60405180910390fd5b919050565b5f8054906101000a900473ffffffffffffffffffffffffffffffffffffffff1673ffffffffffffffffffffffffffffffffffffffff163373ffffffffffffffffffffffffffffffffffffffff1614610f2a576040517f08c379a0000000000000000000000000000000000000000000000000000000008152600401610f2190612c21565b60405180910390fd5b5f5b600180549050811015610fdd578160018281548110610f4e57610f4d612a44565b5b905f5260205f2090601202015f015403610fca576001808281548110610f7757610f76612a44565b5b905f5260205f2090601202016002015f6101000a81548160ff0219169083151502179055504360018281548110610fb157610fb0612a44565b5b905f5260205f2090601202016011018190555050611019565b8080610fd590612a9e565b915050610f2c565b506040517f08c379a000000000000000000000000000000000000000000000000000000000815260040161101090612bb9565b60405180910390fd5b50565b5f805f9054906101000a900473ffffffffffffffffffffffffffffffffffffffff1673ffffffffffffffffffffffffffffffffffffffff163373ffffffffffffffffffffffffffffffffffffffff16146110ab576040517f08c379a00000000000000000000000000000000000000000000000000000000081526004016110a290612c21565b60405180910390fd5b5f84849050116110f0576040517f08c379a00000000000000000000000000000000000000000000000000000000081526004016110e790612c89565b60405180910390fd5b60018260ff16101580156111085750600a8260ff1611155b611147576040517f08c379a000000000000000000000000000000000000000000000000000000000815260040161113e90612cf1565b60405180910390fd5b5f60025f81548092919061115a90612a9e565b9190505590506001808160018154018082558091505003905f5260205f209050505f600180808054905061118e9190612d0f565b8154811061119f5761119e612a44565b5b905f5260205f209060120201905081815f018190555089898260010191826111c8929190612ee9565b506001816002015f6101000a81548160ff021916908315150217905550878160030181816111f69190613754565b9050508681600a01818161120a91906137e8565b905050858582600e019190611220929190611c68565b508381600f015f6101000a81548160ff021916908360ff1602179055504381601001819055504381601101819055508192505050979650505050505050565b60605f5b60018054905081101561135957826001828154811061128557611284612a44565b5b905f5260205f2090601202015f01540361134657600181815481106112ad576112ac612a44565b5b905f5260205f209060120201600e0180548060200260200160405190810160405280929190818152602001828054801561133957602002820191905f5260205f20905b815f9054906101000a900473ffffffffffffffffffffffffffffffffffffffff1673ffffffffffffffffffffffffffffffffffffffff16815260200190600101908083116112f0575b5050505050915050611395565b808061135190612a9e565b915050611263565b506040517f08c379a000000000000000000000000000000000000000000000000000000000815260040161138c90612bb9565b60405180910390fd5b919050565b60025481565b600181815481106113af575f80fd5b905f5260205f2090601202015f91509050805f0154908060010180546113d490612b3f565b80601f016020809104026020016040519081016040528092919081815260200182805461140090612b3f565b801561144b5780601f106114225761010080835404028352916020019161144b565b820191905f5260205f20905b81548152906001019060200180831161142e57829003601f168201915b505050505090806002015f9054906101000a900460ff169080600301604051806101000160405290815f82018054806020026020016040519081016040528092919081815260200182805480156114f457602002820191905f5260205f20905b815f9054906101000a900473ffffffffffffffffffffffffffffffffffffffff1673ffffffffffffffffffffffffffffffffffffffff16815260200190600101908083116114ab575b505050505081526020016001820180548060200260200160405190810160405280929190818152602001828054801561158b57602002820191905f5260205f20905f905b82829054906101000a900460e01b7bffffffffffffffffffffffffffffffffffffffffffffffffffffffff1916815260200190600401906020826003010492830192600103820291508084116115385790505b5050505050815260200160028201548152602001600382015481526020016004820154815260200160058201548152602001600682015f9054906101000a900460ff161515151581526020016006820160019054906101000a900460ff1615151515815250509080600a016040518060800160405290815f8201548152602001600182015481526020016002820180548060200260200160405190810160405280929190818152602001828054801561169657602002820191905f5260205f20905b815f9054906101000a900473ffffffffffffffffffffffffffffffffffffffff1673ffffffffffffffffffffffffffffffffffffffff168152602001906001019080831161164d575b505050505081526020016003820180548060200260200160405190810160405280929190818152602001828054801561172157602002820191905f5260205f20905b815f9054906101000a900473ffffffffffffffffffffffffffffffffffffffff1673ffffffffffffffffffffffffffffffffffffffff16815260200190600101908083116116d8575b5050505050815250509080600f015f9054906101000a900460ff16908060100154908060110154905088565b5f8054906101000a900473ffffffffffffffffffffffffffffffffffffffff1673ffffffffffffffffffffffffffffffffffffffff163373ffffffffffffffffffffffffffffffffffffffff16146117da576040517f08c379a00000000000000000000000000000000000000000000000000000000081526004016117d190612c21565b60405180910390fd5b5f838390501161181f576040517f08c379a000000000000000000000000000000000000000000000000000000000815260040161181690612c89565b60405180910390fd5b60018160ff16101580156118375750600a8160ff1611155b611876576040517f08c379a000000000000000000000000000000000000000000000000000000000815260040161186d90612cf1565b60405180910390fd5b5f5b6001805490508110156119f657886001828154811061189a57611899612a44565b5b905f5260205f2090601202015f0154036119e3578787600183815481106118c4576118c3612a44565b5b905f5260205f20906012020160010191826118e0929190612ee9565b5085600182815481106118f6576118f5612a44565b5b905f5260205f20906012020160030181816119119190613754565b905050846001828154811061192957611928612a44565b5b905f5260205f209060120201600a01818161194491906137e8565b90505083836001838154811061195d5761195c612a44565b5b905f5260205f209060120201600e019190611979929190611c68565b50816001828154811061198f5761198e612a44565b5b905f5260205f209060120201600f015f6101000a81548160ff021916908360ff16021790555043600182815481106119ca576119c9612a44565b5b905f5260205f2090601202016011018190555050611a32565b80806119ee90612a9e565b915050611878565b506040517f08c379a0000000000000000000000000000000000000000000000000000000008152600401611a2990612bb9565b60405180910390fd5b5050505050505050565b5f600180549050905090565b5f8054906101000a900473ffffffffffffffffffffffffffffffffffffffff1673ffffffffffffffffffffffffffffffffffffffff163373ffffffffffffffffffffffffffffffffffffffff1614611ad5576040517f08c379a0000000000000000000000000000000000000000000000000000000008152600401611acc90612c21565b60405180910390fd5b5f5b600180549050811015611b88578160018281548110611af957611af8612a44565b5b905f5260205f2090601202015f015403611b75575f60018281548110611b2257611b21612a44565b5b905f5260205f2090601202016002015f6101000a81548160ff0219169083151502179055504360018281548110611b5c57611b5b612a44565b5b905f5260205f2090601202016011018190555050611bc4565b8080611b8090612a9e565b915050611ad7565b506040517f08c379a0000000000000000000000000000000000000000000000000000000008152600401611bbb90612bb9565b60405180910390fd5b50565b5f8054906101000a900473ffffffffffffffffffffffffffffffffffffffff1681565b6040518061012001604052805f8152602001606081526020015f15158152602001611c13611d05565b8152602001611c20611c42565b8152602001606081526020015f60ff1681526020015f81526020015f81525090565b60405180608001604052805f81526020015f815260200160608152602001606081525090565b828054828255905f5260205f20908101928215611cf4579160200282015b82811115611cf357823573ffffffffffffffffffffffffffffffffffffffff16825f6101000a81548173ffffffffffffffffffffffffffffffffffffffff021916908373ffffffffffffffffffffffffffffffffffffffff16021790555091602001919060010190611c86565b5b509050611d019190611d48565b5090565b60405180610100016040528060608152602001606081526020015f81526020015f81526020015f81526020015f81526020015f151581526020015f151581525090565b5b80821115611d5f575f815f905550600101611d49565b5090565b5f81519050919050565b5f82825260208201905092915050565b5f819050602082019050919050565b5f819050919050565b611d9e81611d8c565b82525050565b5f81519050919050565b5f82825260208201905092915050565b5f5b83811015611ddb578082015181840152602081019050611dc0565b5f8484015250505050565b5f601f19601f8301169050919050565b5f611e0082611da4565b611e0a8185611dae565b9350611e1a818560208601611dbe565b611e2381611de6565b840191505092915050565b5f8115159050919050565b611e4281611e2e565b82525050565b5f81519050919050565b5f82825260208201905092915050565b5f819050602082019050919050565b5f73ffffffffffffffffffffffffffffffffffffffff82169050919050565b5f611e9a82611e71565b9050919050565b611eaa81611e90565b82525050565b5f611ebb8383611ea1565b60208301905092915050565b5f602082019050919050565b5f611edd82611e48565b611ee78185611e52565b9350611ef283611e62565b805f5b83811015611f22578151611f098882611eb0565b9750611f1483611ec7565b925050600181019050611ef5565b5085935050505092915050565b5f81519050919050565b5f82825260208201905092915050565b5f819050602082019050919050565b5f7fffffffff0000000000000000000000000000000000000000000000000000000082169050919050565b611f8c81611f58565b82525050565b5f611f9d8383611f83565b60208301905092915050565b5f602082019050919050565b5f611fbf82611f2f565b611fc98185611f39565b9350611fd483611f49565b805f5b83811015612004578151611feb8882611f92565b9750611ff683611fa9565b925050600181019050611fd7565b5085935050505092915050565b5f61010083015f8301518482035f86015261202c8282611ed3565b915050602083015184820360208601526120468282611fb5565b915050604083015161205b6040860182611d95565b50606083015161206e6060860182611d95565b5060808301516120816080860182611d95565b5060a083015161209460a0860182611d95565b5060c08301516120a760c0860182611e39565b5060e08301516120ba60e0860182611e39565b508091505092915050565b5f608083015f8301516120da5f860182611d95565b5060208301516120ed6020860182611d95565b50604083015184820360408601526121058282611ed3565b9150506060830151848203606086015261211f8282611ed3565b9150508091505092915050565b5f60ff82169050919050565b6121418161212c565b82525050565b5f61012083015f83015161215d5f860182611d95565b50602083015184820360208601526121758282611df6565b915050604083015161218a6040860182611e39565b50606083015184820360608601526121a28282612011565b915050608083015184820360808601526121bc82826120c5565b91505060a083015184820360a08601526121d68282611ed3565b91505060c08301516121eb60c0860182612138565b5060e08301516121fe60e0860182611d95565b50610100830151612213610100860182611d95565b508091505092915050565b5f6122298383612147565b905092915050565b5f602082019050919050565b5f61224782611d63565b6122518185611d6d565b93508360208202850161226385611d7d565b805f5b8581101561229e578484038952815161227f858261221e565b945061228a83612231565b925060208a01995050600181019050612266565b50829750879550505050505092915050565b5f6020820190508181035f8301526122c8818461223d565b905092915050565b5f80fd5b5f80fd5b6122e181611d8c565b81146122eb575f80fd5b50565b5f813590506122fc816122d8565b92915050565b5f60208284031215612317576123166122d0565b5b5f612324848285016122ee565b91505092915050565b5f61012083015f8301516123435f860182611d95565b506020830151848203602086015261235b8282611df6565b91505060408301516123706040860182611e39565b50606083015184820360608601526123888282612011565b915050608083015184820360808601526123a282826120c5565b91505060a083015184820360a08601526123bc8282611ed3565b91505060c08301516123d160c0860182612138565b5060e08301516123e460e0860182611d95565b506101008301516123f9610100860182611d95565b508091505092915050565b5f6020820190508181035f83015261241c818461232d565b905092915050565b5f608083015f8301516124395f860182611d95565b50602083015161244c6020860182611d95565b50604083015184820360408601526124648282611ed3565b9150506060830151848203606086015261247e8282611ed3565b9150508091505092915050565b5f6020820190508181035f8301526124a38184612424565b905092915050565b5f80fd5b5f80fd5b5f80fd5b5f8083601f8401126124cc576124cb6124ab565b5b8235905067ffffffffffffffff8111156124e9576124e86124af565b5b602083019150836001820283011115612505576125046124b3565b5b9250929050565b5f80fd5b5f61010082840312156125265761252561250c565b5b81905092915050565b5f608082840312156125445761254361250c565b5b81905092915050565b5f8083601f840112612562576125616124ab565b5b8235905067ffffffffffffffff81111561257f5761257e6124af565b5b60208301915083602082028301111561259b5761259a6124b3565b5b9250929050565b6125ab8161212c565b81146125b5575f80fd5b50565b5f813590506125c6816125a2565b92915050565b5f805f805f805f60a0888a0312156125e7576125e66122d0565b5b5f88013567ffffffffffffffff811115612604576126036122d4565b5b6126108a828b016124b7565b9750975050602088013567ffffffffffffffff811115612633576126326122d4565b5b61263f8a828b01612510565b955050604088013567ffffffffffffffff8111156126605761265f6122d4565b5b61266c8a828b0161252f565b945050606088013567ffffffffffffffff81111561268d5761268c6122d4565b5b6126998a828b0161254d565b935093505060806126ac8a828b016125b8565b91505092959891949750929550565b6126c481611d8c565b82525050565b5f6020820190506126dd5f8301846126bb565b92915050565b5f82825260208201905092915050565b5f6126fd82611e48565b61270781856126e3565b935061271283611e62565b805f5b838110156127425781516127298882611eb0565b975061273483611ec7565b925050600181019050612715565b5085935050505092915050565b5f6020820190508181035f83015261276781846126f3565b905092915050565b5f82825260208201905092915050565b5f61278982611da4565b612793818561276f565b93506127a3818560208601611dbe565b6127ac81611de6565b840191505092915050565b6127c081611e2e565b82525050565b5f61010083015f8301518482035f8601526127e18282611ed3565b915050602083015184820360208601526127fb8282611fb5565b91505060408301516128106040860182611d95565b5060608301516128236060860182611d95565b5060808301516128366080860182611d95565b5060a083015161284960a0860182611d95565b5060c083015161285c60c0860182611e39565b5060e083015161286f60e0860182611e39565b508091505092915050565b6128838161212c565b82525050565b5f6101008201905061289d5f83018b6126bb565b81810360208301526128af818a61277f565b90506128be60408301896127b7565b81810360608301526128d081886127c6565b905081810360808301526128e48187612424565b90506128f360a083018661287a565b61290060c08301856126bb565b61290d60e08301846126bb565b9998505050505050505050565b5f805f805f805f8060c0898b031215612936576129356122d0565b5b5f6129438b828c016122ee565b985050602089013567ffffffffffffffff811115612964576129636122d4565b5b6129708b828c016124b7565b9750975050604089013567ffffffffffffffff811115612993576129926122d4565b5b61299f8b828c01612510565b955050606089013567ffffffffffffffff8111156129c0576129bf6122d4565b5b6129cc8b828c0161252f565b945050608089013567ffffffffffffffff8111156129ed576129ec6122d4565b5b6129f98b828c0161254d565b935093505060a0612a0c8b828c016125b8565b9150509295985092959890939650565b612a2581611e90565b82525050565b5f602082019050612a3e5f830184612a1c565b92915050565b7f4e487b71000000000000000000000000000000000000000000000000000000005f52603260045260245ffd5b7f4e487b71000000000000000000000000000000000000000000000000000000005f52601160045260245ffd5b5f612aa882611d8c565b91507fffffffffffffffffffffffffffffffffffffffffffffffffffffffffffffffff8203612ada57612ad9612a71565b5b600182019050919050565b7f4e487b71000000000000000000000000000000000000000000000000000000005f52604160045260245ffd5b7f4e487b71000000000000000000000000000000000000000000000000000000005f52602260045260245ffd5b5f6002820490506001821680612b5657607f821691505b602082108103612b6957612b68612b12565b5b50919050565b7f506f6c696379206e6f7420666f756e64000000000000000000000000000000005f82015250565b5f612ba360108361276f565b9150612bae82612b6f565b602082019050919050565b5f6020820190508181035f830152612bd081612b97565b9050919050565b7f4f6e6c7920676f7665726e616e6365206d756c746973696700000000000000005f82015250565b5f612c0b60188361276f565b9150612c1682612bd7565b602082019050919050565b5f6020820190508181035f830152612c3881612bff565b9050919050565b7f4d7573742068617665207369676e6572730000000000000000000000000000005f82015250565b5f612c7360118361276f565b9150612c7e82612c3f565b602082019050919050565b5f6020820190508181035f830152612ca081612c67565b9050919050565b7f57656967687420312d31300000000000000000000000000000000000000000005f82015250565b5f612cdb600b8361276f565b9150612ce682612ca7565b602082019050919050565b5f6020820190508181035f830152612d0881612ccf565b9050919050565b5f612d1982611d8c565b9150612d2483611d8c565b9250828203905081811115612d3c57612d3b612a71565b5b92915050565b5f82905092915050565b5f819050815f5260205f209050919050565b5f6020601f8301049050919050565b5f82821b905092915050565b5f60088302612da87fffffffffffffffffffffffffffffffffffffffffffffffffffffffffffffffff82612d6d565b612db28683612d6d565b95508019841693508086168417925050509392505050565b5f819050919050565b5f612ded612de8612de384611d8c565b612dca565b611d8c565b9050919050565b5f819050919050565b612e0683612dd3565b612e1a612e1282612df4565b848454612d79565b825550505050565b5f90565b612e2e612e22565b612e39818484612dfd565b505050565b5b81811015612e5c57612e515f82612e26565b600181019050612e3f565b5050565b601f821115612ea157612e7281612d4c565b612e7b84612d5e565b81016020851015612e8a578190505b612e9e612e9685612d5e565b830182612e3e565b50505b505050565b5f82821c905092915050565b5f612ec15f1984600802612ea6565b1980831691505092915050565b5f612ed98383612eb2565b9150826002028217905092915050565b612ef38383612d42565b67ffffffffffffffff811115612f0c57612f0b612ae5565b5b612f168254612b3f565b612f21828285612e60565b5f601f831160018114612f4e575f8415612f3c578287013590505b612f468582612ece565b865550612fad565b601f198416612f5c86612d4c565b5f5b82811015612f8357848901358255600182019150602085019450602081019050612f5e565b86831015612fa05784890135612f9c601f891682612eb2565b8355505b6001600288020188555050505b50505050505050565b5f80fd5b5f80fd5b5f80fd5b5f8083356001602003843603038112612fde57612fdd612fb6565b5b80840192508235915067ffffffffffffffff82111561300057612fff612fba565b5b60208301925060208202360383131561301c5761301b612fbe565b5b509250929050565b5f81549050919050565b5f8190506001806001038301049050919050565b5f819050815f5260205f209050919050565b5b81811015613072576130675f82612e26565b600181019050613055565b5050565b6130a67fffffffffffffffffffffffffffffffffffffffffffffffffffffffffffffffff83602003600802612ea6565b815481168255505050565b818310156130ea576130c28261302e565b6130cb8461302e565b6130d483613042565b8181018382016130e48183613054565b50505050505b505050565b6801000000000000000082111561310957613108612ae5565b5b61311281613024565b8282556131208382846130b1565b505050565b5f82905092915050565b61313881611e90565b8114613142575f80fd5b50565b5f81356131518161312f565b80915050919050565b5f819050919050565b5f819050919050565b6131768383613125565b67ffffffffffffffff81111561318f5761318e612ae5565b5b61319981836130ef565b6131a28361315a565b6131ab83613042565b600183045f5b818110156131e8575f6131c385613145565b6131cc81613163565b80925060208701965050508082850155506001810190506131b1565b5050505050505050565b6131fd83838361316c565b505050565b5f808335600160200384360303811261321e5761321d612fb6565b5b80840192508235915067ffffffffffffffff8211156132405761323f612fba565b5b60208301925060208202360383131561325c5761325b612fbe565b5b509250929050565b5f81549050919050565b5f819050600860016008038301049050919050565b5f819050815f5260205f209050919050565b5b818110156132b3576132a85f82612e26565b600181019050613296565b5050565b8183101561330e576132c88261326e565b6132d18461326e565b6132da83613283565b818101838201600460088906025f8111156132fd576132fc8160018503613076565b5b6133078284613295565b5050505050505b505050565b6801000000000000000082111561332d5761332c612ae5565b5b61333681613264565b8282556133448382846132b7565b505050565b5f82905092915050565b61335c81611f58565b8114613366575f80fd5b50565b5f813561337581613353565b80915050919050565b5f819050919050565b5f6008830261339a63ffffffff82612d6d565b6133a48683612d6d565b95508019841693508086168417925050509392505050565b5f8160e01c9050919050565b5f6133d2826133bc565b9050919050565b6133e38383613349565b67ffffffffffffffff8111156133fc576133fb612ae5565b5b6134068183613313565b61340f8361337e565b61341883613283565b600883045f5b81811015613479575f805b60088110156134675761343b86613369565b613444816133c8565b613452818460040286613387565b93506020880197505050600181019050613429565b5080828501555060018101905061341e565b506008810284035f8111156134d0575f805b828110156134c85761349c86613369565b6134a5816133c8565b6134b3818460040286613387565b9350602088019750505060018101905061348b565b508083850155505b5050505050505050565b6134e58383836133d9565b505050565b5f81356134f6816122d8565b80915050919050565b5f815f1b9050919050565b5f7fffffffffffffffffffffffffffffffffffffffffffffffffffffffffffffffff613535846134ff565b9350801983169250808416831791505092915050565b61355482612dd3565b61356761356082612df4565b835461350a565b8255505050565b61357781611e2e565b8114613581575f80fd5b50565b5f81356135908161356e565b80915050919050565b5f60ff6135a5846134ff565b9350801983169250808416831791505092915050565b5f6135c582611e2e565b9050919050565b5f819050919050565b6135de826135bb565b6135f16135ea826135cc565b8354613599565b8255505050565b5f8160081b9050919050565b5f61ff00613611846135f8565b9350801983169250808416831791505092915050565b613630826135bb565b61364361363c826135cc565b8354613604565b8255505050565b5f81015f830161365a8185612fc2565b6136658183866131f2565b50505050600181016020830161367b8185613202565b6136868183866134da565b5050505060028101604083018061369c816134ea565b90506136a8818461354b565b5050506003810160608301806136bd816134ea565b90506136c9818461354b565b5050506004810160808301806136de816134ea565b90506136ea818461354b565b5050506005810160a08301806136ff816134ea565b905061370b818461354b565b5050506006810160c083018061372081613584565b905061372c81846135d5565b5050506006810160e083018061374181613584565b905061374d8184613627565b5050505050565b61375e828261364a565b5050565b5f81015f830180613772816134ea565b905061377e818461354b565b505050600181016020830180613793816134ea565b905061379f818461354b565b50505060028101604083016137b48185612fc2565b6137bf8183866131f2565b5050505060038101606083016137d58185612fc2565b6137e08183866131f2565b505050505050565b6137f28282613762565b505056fea26469706673582212206c78b08a299015ec4d305fdd776c2994e91a2f261dc9bb66c3d69aa83e89ac4564736f6c63430008140033","linkReferences":{}},"methodIdentifiers":{"addPolicy(string,(address[],bytes4[],uint256,uint256,uint256,uint256,bool,bool),(uint256,uint256,address[],address[]),address[],uint8)":"b41112c7","deactivatePolicy(uint256)":"eb4a4645","getActivePolicies()":"17a1f828","getPolicy(uint256)":"2b07fce3","getPolicyCount()":"e59771d2","getPolicyLimits(uint256)":"9b26784e","getPolicySigners(uint256)":"c76ed48a","governanceMultisig()":"edf743fe","nextPolicyId()":"cad0b8db","policies(uint256)":"d3e89483","reactivatePolicy(uint256)":"a1c5cf66","updatePolicy(uint256,string,(address[],bytes4[],uint256,uint256,uint256,uint256,bool,bool),(uint256,uint256,address[],address[]),address[],uint8)":"e2c0af44"},"id":23}