{"abi":[{"type":"function","name":"activeMachines","inputs":[{"name":"","type":"uint256","internalType":"uint256"}],"outputs":[{"name":"","type":"address","internalType":"address"}],"stateMutability":"view"},{"type":"function","name":"addTeeMachine","inputs":[{"name":"_teeId","type":"address","internalType":"address"}],"outputs":[],"stateMutability":"nonpayable"},{"type":"function","name":"getActiveTeeMachines","inputs":[{"name":"","type":"uint256","internalType":"uint256"}],"outputs":[{"name":"","type":"address[]","internalType":"address[]"}],"stateMutability":"view"},{"type":"function","name":"getRandomTeeIds","inputs":[{"name":"","type":"uint256","internalType":"uint256"},{"name":"_count","type":"uint256","internalType":"uint256"}],"outputs":[{"name":"","type":"address[]","internalType":"address[]"}],"stateMutability":"pure"},{"type":"function","name":"getTeeMachine","inputs":[{"name":"","type":"address","internalType":"address"}],"outputs":[{"name":"extensionId","type":"uint256","internalType":"uint256"},{"name":"initialOwner","type":"address","internalType":"address"},{"name":"codeHash","type":"bytes32","internalType":"bytes32"},{"name":"platform","type":"bytes32","internalType":"bytes32"},{"name":"pubKey","type":"tuple","internalType":"struct ITeeMachineRegistry.PublicKey","components":[{"name":"x","type":"bytes32","internalType":"bytes32"},{"name":"y","type":"bytes32","internalType":"bytes32"}]}],"stateMutability":"pure"},{"type":"function","name":"isActiveTee","inputs":[{"name":"","type":"address","internalType":"address"}],"outputs":[{"name":"","type":"bool","internalType":"bool"}],"stateMutability":"view"},{"type":"function","name":"isTeeMachineActive","inputs":[{"name":"_teeId","type":"address","internalType":"address"}],"outputs":[{"name":"","type":"bool","internalType":"bool"}],"stateMutability":"view"}],"bytecode":{"object":"0x608060405234601c57600e6020565b610a6361002b8239610a6390f35b6026565b60405190565b5f80fdfe60806040526004361015610013575b6105a2565b61001d5f3561008c565b806345f1f0f0146100875780635ede508f1461008257806388662fc21461007d5780638d775ab714610078578063a555bd4714610073578063fecf70bb1461006e5763feeabcbf0361000e5761056c565b61050c565b6104d2565b6103e2565b610318565b6102b8565b61019a565b60e01c90565b60405190565b5f80fd5b5f80fd5b90565b6100ac816100a0565b036100b357565b5f80fd5b905035906100c4826100a3565b565b906020828203126100df576100dc915f016100b7565b90565b61009c565b5190565b60209181520190565b60200190565b60018060a01b031690565b61010b906100f7565b90565b61011790610102565b9052565b906101288160209361010e565b0190565b60200190565b9061014f610149610142846100e4565b80936100e8565b926100f1565b905f5b81811061015f5750505090565b909192610178610172600192865161011b565b9461012c565b9101919091610152565b6101979160208201915f818403910152610132565b90565b346101ca576101c66101b56101b03660046100c6565b6106b9565b6101bd610092565b91829182610182565b0390f35b610098565b6101d881610102565b036101df57565b5f80fd5b905035906101f0826101cf565b565b9060208282031261020b57610208915f016101e3565b90565b61009c565b610219906100a0565b9052565b61022690610102565b9052565b90565b6102369061022a565b9052565b6102439061022a565b9052565b906020806102699361025f5f8201515f86019061023a565b015191019061023a565b565b909594926102b6946102a56102af9261029b60809661029160c088019c5f890190610210565b602087019061021d565b604085019061022d565b606083019061022d565b0190610247565b565b346102ec576102e86102d36102ce3660046101f2565b6107b6565b916102df959395610092565b9586958661026b565b0390f35b610098565b151590565b6102ff906102f1565b9052565b9190610316905f602085019401906102f6565b565b346103485761034461033361032e3660046101f2565b61086a565b61033b610092565b91829182610303565b0390f35b610098565b90565b61036461035f610369926100f7565b61034d565b6100f7565b90565b61037590610350565b90565b6103819061036c565b90565b9061038e90610378565b5f5260205260405f2090565b1c90565b60ff1690565b6103b49060086103b9930261039a565b61039e565b90565b906103c791546103a4565b90565b6103df906103da5f915f92610384565b6103bc565b90565b346104125761040e6103fd6103f83660046101f2565b6103ca565b610405610092565b91829182610303565b0390f35b610098565b634e487b7160e01b5f52603260045260245ffd5b5490565b5f5260205f2090565b6104418161042b565b82101561045b5761045360019161042f565b910201905f90565b610417565b60018060a01b031690565b61047b906008610480930261039a565b610460565b90565b9061048e915461046b565b90565b600161049c8161042b565b8210156104b9576104b6916104b091610438565b90610483565b90565b5f80fd5b91906104d0905f6020850194019061021d565b565b34610502576104fe6104ed6104e83660046100c6565b610491565b6104f5610092565b918291826104bd565b0390f35b610098565b5f0190565b3461053a5761052461051f3660046101f2565b61098d565b61052c610092565b8061053681610507565b0390f35b610098565b9190604083820312610567578061055b610564925f86016100b7565b936020016100b7565b90565b61009c565b3461059d5761059961058861058236600461053f565b90610a17565b610590610092565b91829182610182565b0390f35b610098565b5f80fd5b606090565b60209181520190565b5f1c90565b6105c56105ca916105b4565b610460565b90565b6105d790546105b9565b90565b60010190565b906105fd6105f76105f08461042b565b80936105ab565b9261042f565b905f5b81811061060d5750505090565b90919261062d610627600192610622876105cd565b61011b565b946105da565b9101919091610600565b90610641916105e0565b90565b601f801991011690565b634e487b7160e01b5f52604160045260245ffd5b9061066c90610644565b810190811067ffffffffffffffff82111761068657604052565b61064e565b906106ab6106a49261069b610092565b93848092610637565b0383610662565b565b6106b69061068b565b90565b506106c26105a6565b506106cd60016106ad565b90565b5f90565b5f90565b5f90565b906106ef6106e8610092565b9283610662565b565b6106fb60406106dc565b90565b5f90565b61070a6106f1565b90602080836107176106fe565b8152016107226106fe565b81525050565b610730610702565b90565b90565b61074a61074561074f92610733565b61034d565b6100f7565b90565b61075b90610736565b90565b5f1b90565b61077761077261077c92610733565b61075e565b61022a565b90565b61078960406106dc565b90565b906107969061022a565b9052565b6107ae6107a96107b392610733565b61034d565b6100a0565b90565b506107bf6106d0565b506107c86106d4565b506107d16106d8565b506107da6106d8565b506107e3610728565b505f6107ee5f610752565b916107f85f610763565b916108025f610763565b9161083e61080f5f610763565b61083861081b5f610763565b61082f61082661077f565b935f850161078c565b6020830161078c565b9261079a565b9493929190565b5f90565b61085561085a916105b4565b61039e565b90565b6108679054610849565b90565b61088061088591610879610845565b505f610384565b61085d565b90565b9061089460ff9161075e565b9181191691161790565b6108a7906102f1565b90565b90565b906108c26108bd6108c99261089e565b6108aa565b8254610888565b9055565b90565b5f5260205f2090565b5490565b6108e6816108d9565b821015610900576108f86001916108d0565b910201905f90565b610417565b1b90565b9190600861092991029161092360018060a01b0384610905565b92610905565b9181191691161790565b90565b919061094c61094761095493610378565b610933565b908354610909565b9055565b90815491680100000000000000008310156109885782610980916001610986950181556108dd565b90610936565b565b61064e565b6109b5906109a660016109a15f8490610384565b6108ad565b6109b060016108cd565b610958565b565b67ffffffffffffffff81116109cf5760208091020190565b61064e565b906109e66109e1836109b7565b6106dc565b918252565b369037565b90610a156109fd836109d4565b92602080610a0b86936109b7565b92019103906109eb565b565b50610a2a90610a246105a6565b506109f0565b9056fea2646970667358221220d904ac81219df910bb3f671cb31e397d44cdb48de9759c55e3b5974e58caea2364736f6c634300081f0033","linkReferences":{}},"methodIdentifiers":{"activeMachines(uint256)":"a555bd47","addTeeMachine(address)":"fecf70bb","getActiveTeeMachines(uint256)":"45f1f0f0","getRandomTeeIds(uint256,uint256)":"feeabcbf","getTeeMachine(address)":"5ede508f","isActiveTee(address)":"8d775ab7","isTeeMachineActive(address)":"88662fc2"},"id":36}