{"abi":[{"type":"function","name":"entries","inputs":[{"name":"","type":"uint256","internalType":"uint256"}],"outputs":[{"name":"evaluationId","type":"bytes32","internalType":"bytes32"},{"name":"policyId","type":"uint256","internalType":"uint256"},{"name":"policyName","type":"string","internalType":"string"},{"name":"riskScore","type":"uint8","internalType":"uint8"},{"name":"checkResults","type":"uint16","internalType":"uint16"},{"name":"requiredSigners","type":"uint8","internalType":"uint8"},{"name":"totalSigners","type":"uint8","internalType":"uint8"},{"name":"timestamp","type":"uint256","internalType":"uint256"}],"stateMutability":"view"},{"type":"function","name":"getEntriesByPolicy","inputs":[{"name":"_policyId","type":"uint256","internalType":"uint256"}],"outputs":[{"name":"","type":"tuple[]","internalType":"struct AuditLog.AuditEntry[]","components":[{"name":"evaluationId","type":"bytes32","internalType":"bytes32"},{"name":"policyId","type":"uint256","internalType":"uint256"},{"name":"policyName","type":"string","internalType":"string"},{"name":"riskScore","type":"uint8","internalType":"uint8"},{"name":"checkResults","type":"uint16","internalType":"uint16"},{"name":"requiredSigners","type":"uint8","internalType":"uint8"},{"name":"totalSigners","type":"uint8","internalType":"uint8"},{"name":"timestamp","type":"uint256","internalType":"uint256"}]}],"stateMutability":"view"},{"type":"function","name":"getEntry","inputs":[{"name":"_index","type":"uint256","internalType":"uint256"}],"outputs":[{"name":"","type":"tuple","internalType":"struct AuditLog.AuditEntry","components":[{"name":"evaluationId","type":"bytes32","internalType":"bytes32"},{"name":"policyId","type":"uint256","internalType":"uint256"},{"name":"policyName","type":"string","internalType":"string"},{"name":"riskScore","type":"uint8","internalType":"uint8"},{"name":"checkResults","type":"uint16","internalType":"uint16"},{"name":"requiredSigners","type":"uint8","internalType":"uint8"},{"name":"totalSigners","type":"uint8","internalType":"uint8"},{"name":"timestamp","type":"uint256","internalType":"uint256"}]}],"stateMutability":"view"},{"type":"function","name":"getEntryCount","inputs":[],"outputs":[{"name":"","type":"uint256","internalType":"uint256"}],"stateMutability":"view"},{"type":"function","name":"postEntry","inputs":[{"name":"_entry","type":"tuple","internalType":"struct AuditLog.AuditEntry","components":[{"name":"evaluationId","type":"bytes32","internalType":"bytes32"},{"name":"policyId","type":"uint256","internalType":"uint256"},{"name":"policyName","type":"string","internalType":"string"},{"name":"riskScore","type":"uint8","internalType":"uint8"},{"name":"checkResults","type":"uint16","internalType":"uint16"},{"name":"requiredSigners","type":"uint8","internalType":"uint8"},{"name":"totalSigners","type":"uint8","internalType":"uint8"},{"name":"timestamp","type":"uint256","internalType":"uint256"}]}],"outputs":[],"stateMutability":"nonpayable"}],"bytecode":{"object":"0x608060405234801561000f575f80fd5b5061142b8061001d5f395ff3fe608060405234801561000f575f80fd5b5060043610610055575f3560e01c80637a360e651461005957806386a555fe146100775780638c300f4e146100a7578063b30906d4146100c3578063bae78d7b146100fa575b5f80fd5b61006161012a565b60405161006e91906106c1565b60405180910390f35b610091600480360381019061008c919061070c565b610135565b60405161009e9190610987565b60405180910390f35b6100c160048036038101906100bc91906109ca565b6103b9565b005b6100dd60048036038101906100d8919061070c565b6103f2565b6040516100f1989796959493929190610a86565b60405180910390f35b610114600480360381019061010f919061070c565b6104fe565b6040516101219190610bb6565b60405180910390f35b5f8080549050905090565b60605f805b5f8054905081101561019157835f828154811061015a57610159610bd6565b5b905f5260205f209060050201600101540361017e57818061017a90610c30565b9250505b808061018990610c30565b91505061013a565b505f8167ffffffffffffffff8111156101ad576101ac610c77565b5b6040519080825280602002602001820160405280156101e657816020015b6101d361065b565b8152602001906001900390816101cb5790505b5090505f805b5f805490508110156103ad57855f828154811061020c5761020b610bd6565b5b905f5260205f209060050201600101540361039a575f818154811061023457610233610bd6565b5b905f5260205f209060050201604051806101000160405290815f82015481526020016001820154815260200160028201805461026f90610cd1565b80601f016020809104026020016040519081016040528092919081815260200182805461029b90610cd1565b80156102e65780601f106102bd576101008083540402835291602001916102e6565b820191905f5260205f20905b8154815290600101906020018083116102c957829003601f168201915b50505050508152602001600382015f9054906101000a900460ff1660ff1660ff1681526020016003820160019054906101000a900461ffff1661ffff1661ffff1681526020016003820160039054906101000a900460ff1660ff1660ff1681526020016003820160049054906101000a900460ff1660ff1660ff16815260200160048201548152505083838061037b90610c30565b94508151811061038e5761038d610bd6565b5b60200260200101819052505b80806103a590610c30565b9150506101ec565b50819350505050919050565b5f81908060018154018082558091505060019003905f5260205f2090600502015f9091909190915081816103ed91906113e7565b505050565b5f8181548110610400575f80fd5b905f5260205f2090600502015f91509050805f01549080600101549080600201805461042b90610cd1565b80601f016020809104026020016040519081016040528092919081815260200182805461045790610cd1565b80156104a25780601f10610479576101008083540402835291602001916104a2565b820191905f5260205f20905b81548152906001019060200180831161048557829003601f168201915b505050505090806003015f9054906101000a900460ff16908060030160019054906101000a900461ffff16908060030160039054906101000a900460ff16908060030160049054906101000a900460ff16908060040154905088565b61050661065b565b5f828154811061051957610518610bd6565b5b905f5260205f209060050201604051806101000160405290815f82015481526020016001820154815260200160028201805461055490610cd1565b80601f016020809104026020016040519081016040528092919081815260200182805461058090610cd1565b80156105cb5780601f106105a2576101008083540402835291602001916105cb565b820191905f5260205f20905b8154815290600101906020018083116105ae57829003601f168201915b50505050508152602001600382015f9054906101000a900460ff1660ff1660ff1681526020016003820160019054906101000a900461ffff1661ffff1661ffff1681526020016003820160039054906101000a900460ff1660ff1660ff1681526020016003820160049054906101000a900460ff1660ff1660ff1681526020016004820154815250509050919050565b6040518061010001604052805f80191681526020015f8152602001606081526020015f60ff1681526020015f61ffff1681526020015f60ff1681526020015f60ff1681526020015f81525090565b5f819050919050565b6106bb816106a9565b82525050565b5f6020820190506106d45f8301846106b2565b92915050565b5f80fd5b5f80fd5b6106eb816106a9565b81146106f5575f80fd5b50565b5f81359050610706816106e2565b92915050565b5f60208284031215610721576107206106da565b5b5f61072e848285016106f8565b91505092915050565b5f81519050919050565b5f82825260208201905092915050565b5f819050602082019050919050565b5f819050919050565b61077281610760565b82525050565b610781816106a9565b82525050565b5f81519050919050565b5f82825260208201905092915050565b5f5b838110156107be5780820151818401526020810190506107a3565b5f8484015250505050565b5f601f19601f8301169050919050565b5f6107e382610787565b6107ed8185610791565b93506107fd8185602086016107a1565b610806816107c9565b840191505092915050565b5f60ff82169050919050565b61082681610811565b82525050565b5f61ffff82169050919050565b6108428161082c565b82525050565b5f61010083015f83015161085e5f860182610769565b5060208301516108716020860182610778565b506040830151848203604086015261088982826107d9565b915050606083015161089e606086018261081d565b5060808301516108b16080860182610839565b5060a08301516108c460a086018261081d565b5060c08301516108d760c086018261081d565b5060e08301516108ea60e0860182610778565b508091505092915050565b5f6109008383610848565b905092915050565b5f602082019050919050565b5f61091e82610737565b6109288185610741565b93508360208202850161093a85610751565b805f5b85811015610975578484038952815161095685826108f5565b945061096183610908565b925060208a0199505060018101905061093d565b50829750879550505050505092915050565b5f6020820190508181035f83015261099f8184610914565b905092915050565b5f80fd5b5f61010082840312156109c1576109c06109a7565b5b81905092915050565b5f602082840312156109df576109de6106da565b5b5f82013567ffffffffffffffff8111156109fc576109fb6106de565b5b610a08848285016109ab565b91505092915050565b610a1a81610760565b82525050565b5f82825260208201905092915050565b5f610a3a82610787565b610a448185610a20565b9350610a548185602086016107a1565b610a5d816107c9565b840191505092915050565b610a7181610811565b82525050565b610a808161082c565b82525050565b5f61010082019050610a9a5f83018b610a11565b610aa7602083018a6106b2565b8181036040830152610ab98189610a30565b9050610ac86060830188610a68565b610ad56080830187610a77565b610ae260a0830186610a68565b610aef60c0830185610a68565b610afc60e08301846106b2565b9998505050505050505050565b5f61010083015f830151610b1f5f860182610769565b506020830151610b326020860182610778565b5060408301518482036040860152610b4a82826107d9565b9150506060830151610b5f606086018261081d565b506080830151610b726080860182610839565b5060a0830151610b8560a086018261081d565b5060c0830151610b9860c086018261081d565b5060e0830151610bab60e0860182610778565b508091505092915050565b5f6020820190508181035f830152610bce8184610b09565b905092915050565b7f4e487b71000000000000000000000000000000000000000000000000000000005f52603260045260245ffd5b7f4e487b71000000000000000000000000000000000000000000000000000000005f52601160045260245ffd5b5f610c3a826106a9565b91507fffffffffffffffffffffffffffffffffffffffffffffffffffffffffffffffff8203610c6c57610c6b610c03565b5b600182019050919050565b7f4e487b71000000000000000000000000000000000000000000000000000000005f52604160045260245ffd5b7f4e487b71000000000000000000000000000000000000000000000000000000005f52602260045260245ffd5b5f6002820490506001821680610ce857607f821691505b602082108103610cfb57610cfa610ca4565b5b50919050565b610d0a81610760565b8114610d14575f80fd5b50565b5f8135610d2381610d01565b80915050919050565b5f815f1b9050919050565b5f7fffffffffffffffffffffffffffffffffffffffffffffffffffffffffffffffff610d6284610d2c565b9350801983169250808416831791505092915050565b5f610d8282610760565b9050919050565b5f815f1c9050919050565b5f610d9e82610d89565b9050919050565b610dae82610d78565b610dc1610dba82610d94565b8354610d37565b8255505050565b5f8135610dd4816106e2565b80915050919050565b5f819050919050565b5f610e00610dfb610df6846106a9565b610ddd565b6106a9565b9050919050565b5f819050919050565b610e1982610de6565b610e2c610e2582610e07565b8354610d37565b8255505050565b5f80fd5b5f80fd5b5f80fd5b5f8083356001602003843603038112610e5b57610e5a610e33565b5b80840192508235915067ffffffffffffffff821115610e7d57610e7c610e37565b5b602083019250600182023603831315610e9957610e98610e3b565b5b509250929050565b5f82905092915050565b5f819050815f5260205f209050919050565b5f6020601f8301049050919050565b5f82821b905092915050565b5f60088302610f077fffffffffffffffffffffffffffffffffffffffffffffffffffffffffffffffff82610ecc565b610f118683610ecc565b95508019841693508086168417925050509392505050565b610f3283610de6565b610f46610f3e82610e07565b848454610ed8565b825550505050565b5f90565b610f5a610f4e565b610f65818484610f29565b505050565b5b81811015610f8857610f7d5f82610f52565b600181019050610f6b565b5050565b601f821115610fcd57610f9e81610eab565b610fa784610ebd565b81016020851015610fb6578190505b610fca610fc285610ebd565b830182610f6a565b50505b505050565b5f82821c905092915050565b5f610fed5f1984600802610fd2565b1980831691505092915050565b5f6110058383610fde565b9150826002028217905092915050565b61101f8383610ea1565b67ffffffffffffffff81111561103857611037610c77565b5b6110428254610cd1565b61104d828285610f8c565b5f601f83116001811461107a575f8415611068578287013590505b6110728582610ffa565b8655506110d9565b601f19841661108886610eab565b5f5b828110156110af5784890135825560018201915060208501945060208101905061108a565b868310156110cc57848901356110c8601f891682610fde565b8355505b6001600288020188555050505b50505050505050565b6110ed838383611015565b505050565b6110fb81610811565b8114611105575f80fd5b50565b5f8135611114816110f2565b80915050919050565b5f60ff61112984610d2c565b9350801983169250808416831791505092915050565b5f61115961115461114f84610811565b610ddd565b610811565b9050919050565b5f819050919050565b6111728261113f565b61118561117e82611160565b835461111d565b8255505050565b6111958161082c565b811461119f575f80fd5b50565b5f81356111ae8161118c565b80915050919050565b5f8160081b9050919050565b5f62ffff006111d1846111b7565b9350801983169250808416831791505092915050565b5f6112016111fc6111f78461082c565b610ddd565b61082c565b9050919050565b5f819050919050565b61121a826111e7565b61122d61122682611208565b83546111c3565b8255505050565b5f8160181b9050919050565b5f63ff00000061124f84611234565b9350801983169250808416831791505092915050565b61126e8261113f565b61128161127a82611160565b8354611240565b8255505050565b5f8160201b9050919050565b5f64ff000000006112a484611288565b9350801983169250808416831791505092915050565b6112c38261113f565b6112d66112cf82611160565b8354611294565b8255505050565b5f81015f8301806112ed81610d17565b90506112f98184610da5565b50505060018101602083018061130e81610dc8565b905061131a8184610e10565b505050600281016040830161132f8185610e3f565b61133a8183866110e2565b5050505060038101606083018061135081611108565b905061135c8184611169565b505050600381016080830180611371816111a2565b905061137d8184611211565b5050506003810160a083018061139281611108565b905061139e8184611265565b5050506003810160c08301806113b381611108565b90506113bf81846112ba565b5050506004810160e08301806113d481610dc8565b90506113e08184610e10565b5050505050565b6113f182826112dd565b505056fea26469706673582212205e32a03eb4301df3596389700efb868f0eea5c2ea5cbcd89da1f78d2c0ff246364736f6c63430008140033","linkReferences":{}},"methodIdentifiers":{"entries(uint256)":"b30906d4","getEntriesByPolicy(uint256)":"86a555fe","getEntry(uint256)":"bae78d7b","getEntryCount()":"7a360e65","postEntry((bytes32,uint256,string,uint8,uint16,uint8,uint8,uint256))":"8c300f4e"},"id":19}