{"abi":[{"type":"constructor","inputs":[],"stateMutability":"nonpayable"},{"type":"function","name":"entries","inputs":[{"name":"","type":"uint256","internalType":"uint256"}],"outputs":[{"name":"evaluationId","type":"bytes32","internalType":"bytes32"},{"name":"policyId","type":"uint256","internalType":"uint256"},{"name":"policyName","type":"string","internalType":"string"},{"name":"riskScore","type":"uint8","internalType":"uint8"},{"name":"checkResults","type":"uint16","internalType":"uint16"},{"name":"requiredSigners","type":"uint8","internalType":"uint8"},{"name":"totalSigners","type":"uint8","internalType":"uint8"},{"name":"timestamp","type":"uint256","internalType":"uint256"}],"stateMutability":"view"},{"type":"function","name":"getEntriesByPolicy","inputs":[{"name":"_policyId","type":"uint256","internalType":"uint256"}],"outputs":[{"name":"","type":"tuple[]","internalType":"struct AuditLog.AuditEntry[]","components":[{"name":"evaluationId","type":"bytes32","internalType":"bytes32"},{"name":"policyId","type":"uint256","internalType":"uint256"},{"name":"policyName","type":"string","internalType":"string"},{"name":"riskScore","type":"uint8","internalType":"uint8"},{"name":"checkResults","type":"uint16","internalType":"uint16"},{"name":"requiredSigners","type":"uint8","internalType":"uint8"},{"name":"totalSigners","type":"uint8","internalType":"uint8"},{"name":"timestamp","type":"uint256","internalType":"uint256"}]}],"stateMutability":"view"},{"type":"function","name":"getEntry","inputs":[{"name":"_index","type":"uint256","internalType":"uint256"}],"outputs":[{"name":"","type":"tuple","internalType":"struct AuditLog.AuditEntry","components":[{"name":"evaluationId","type":"bytes32","internalType":"bytes32"},{"name":"policyId","type":"uint256","internalType":"uint256"},{"name":"policyName","type":"string","internalType":"string"},{"name":"riskScore","type":"uint8","internalType":"uint8"},{"name":"checkResults","type":"uint16","internalType":"uint16"},{"name":"requiredSigners","type":"uint8","internalType":"uint8"},{"name":"totalSigners","type":"uint8","internalType":"uint8"},{"name":"timestamp","type":"uint256","internalType":"uint256"}]}],"stateMutability":"view"},{"type":"function","name":"getEntryCount","inputs":[],"outputs":[{"name":"","type":"uint256","internalType":"uint256"}],"stateMutability":"view"},{"type":"function","name":"postEntry","inputs":[{"name":"_entry","type":"tuple","internalType":"struct AuditLog.AuditEntry","components":[{"name":"evaluationId","type":"bytes32","internalType":"bytes32"},{"name":"policyId","type":"uint256","internalType":"uint256"},{"name":"policyName","type":"string","internalType":"string"},{"name":"riskScore","type":"uint8","internalType":"uint8"},{"name":"checkResults","type":"uint16","internalType":"uint16"},{"name":"requiredSigners","type":"uint8","internalType":"uint8"},{"name":"totalSigners","type":"uint8","internalType":"uint8"},{"name":"timestamp","type":"uint256","internalType":"uint256"}]}],"outputs":[],"stateMutability":"nonpayable"},{"type":"function","name":"postEntryMemory","inputs":[{"name":"_entry","type":"tuple","internalType":"struct AuditLog.AuditEntry","components":[{"name":"evaluationId","type":"bytes32","internalType":"bytes32"},{"name":"policyId","type":"uint256","internalType":"uint256"},{"name":"policyName","type":"string","internalType":"string"},{"name":"riskScore","type":"uint8","internalType":"uint8"},{"name":"checkResults","type":"uint16","internalType":"uint16"},{"name":"requiredSigners","type":"uint8","internalType":"uint8"},{"name":"totalSigners","type":"uint8","internalType":"uint8"},{"name":"timestamp","type":"uint256","internalType":"uint256"}]}],"outputs":[],"stateMutability":"nonpayable"}],"bytecode":{"object":"0x608060405234601c57600e6020565b61177861002b823961177890f35b6026565b60405190565b5f80fdfe60806040526004361015610013575b610b15565b61001d5f3561007c565b80636c2c677b146100775780637a360e651461007257806386a555fe1461006d5780638c300f4e14610068578063b30906d4146100635763bae78d7b0361000e57610ae0565b6109ef565b61061b565b610599565b61038a565b610326565b60e01c90565b60405190565b5f80fd5b5f80fd5b5f80fd5b5f80fd5b601f801991011690565b634e487b7160e01b5f52604160045260245ffd5b906100c090610098565b810190811067ffffffffffffffff8211176100da57604052565b6100a2565b906100f26100eb610082565b92836100b6565b565b5f80fd5b90565b610104816100f8565b0361010b57565b5f80fd5b9050359061011c826100fb565b565b90565b61012a8161011e565b0361013157565b5f80fd5b9050359061014282610121565b565b5f80fd5b5f80fd5b67ffffffffffffffff811161016a57610166602091610098565b0190565b6100a2565b90825f939282370152565b9092919261018f61018a8261014c565b6100df565b938185526020850190828401116101ab576101a99261016f565b565b610148565b9080601f830112156101ce578160206101cb9335910161017a565b90565b610144565b60ff1690565b6101e2816101d3565b036101e957565b5f80fd5b905035906101fa826101d9565b565b61ffff1690565b61020c816101fc565b0361021357565b5f80fd5b9050359061022482610203565b565b919091610100818403126102e75761023f6101006100df565b9261024c815f840161010f565b5f85015261025d8160208401610135565b602085015260408201359167ffffffffffffffff83116102e257610286826102db9483016101b0565b604086015261029882606083016101ed565b60608601526102aa8260808301610217565b60808601526102bc8260a083016101ed565b60a08601526102ce8260c083016101ed565b60c086015260e001610135565b60e0830152565b6100f4565b610094565b9060208282031261031c575f82013567ffffffffffffffff8111610317576103149201610226565b90565b610090565b61008c565b5f0190565b346103545761033e6103393660046102ec565b61105f565b610346610082565b8061035081610321565b0390f35b610088565b5f91031261036357565b61008c565b6103719061011e565b9052565b9190610388905f60208501940190610368565b565b346103ba5761039a366004610359565b6103b66103a5611074565b6103ad610082565b91829182610375565b0390f35b610088565b906020828203126103d8576103d5915f01610135565b90565b61008c565b5190565b60209181520190565b60200190565b6103f9906100f8565b9052565b6104069061011e565b9052565b5190565b60209181520190565b90825f9392825e0152565b61044161044a60209361044f936104388161040a565b9384809361040e565b95869101610417565b610098565b0190565b61045c906101d3565b9052565b610469906101fc565b9052565b906105049060e0806104b1610100840161048d5f8801515f8701906103f0565b61049f602088015160208701906103fd565b60408701518582036040870152610422565b946104c460608201516060860190610453565b6104d660808201516080860190610460565b6104e860a082015160a0860190610453565b6104fa60c082015160c0860190610453565b01519101906103fd565b90565b906105119161046d565b90565b60200190565b9061052e610527836103dd565b80926103e1565b908161053f602083028401946103ea565b925f915b83831061055257505050505090565b9091929394602061057461056e83856001950387528951610507565b97610514565b9301930191939290610543565b6105969160208201915f81840391015261051a565b90565b346105c9576105c56105b46105af3660046103bf565b611337565b6105bc610082565b91829182610581565b0390f35b610088565b5f80fd5b90816101009103126105e15790565b6105ce565b90602082820312610616575f82013567ffffffffffffffff81116106115761060e92016105d2565b90565b610090565b61008c565b346106495761063361062e3660046105e6565b611702565b61063b610082565b8061064581610321565b0390f35b610088565b634e487b7160e01b5f52603260045260245ffd5b5490565b5f5260205f2090565b61067881610662565b8210156106925761068a600591610666565b910201905f90565b61064e565b5f1c90565b90565b6106ab6106b091610697565b61069c565b90565b6106bd905461069f565b90565b90565b6106cf6106d491610697565b6106c0565b90565b6106e190546106c3565b90565b634e487b7160e01b5f52602260045260245ffd5b9060016002830492168015610718575b602083101461071357565b6106e4565b91607f1691610708565b5f5260205f2090565b905f929180549061074561073e836106f8565b809461040e565b916001811690815f1461079c5750600114610760575b505050565b61076d9192939450610722565b915f925b81841061078457505001905f808061075b565b60018160209295939554848601520191019290610771565b92949550505060ff19168252151560200201905f808061075b565b906107c19161072b565b90565b906107e46107dd926107d4610082565b938480926107b7565b03836100b6565b565b60ff1690565b6107f86107fd91610697565b6107e6565b90565b61080a90546107ec565b90565b60081c90565b61ffff1690565b61082661082b9161080d565b610813565b90565b610838905461081a565b90565b60181c90565b61084d6108529161083b565b6107e6565b90565b61085f9054610841565b90565b60201c90565b61087461087991610862565b6107e6565b90565b6108869054610868565b90565b60019061089582610662565b81101561090f576108a59161066f565b50906108b25f83016106b3565b916108bf600182016106d7565b916108cc600283016107c4565b916108d960038201610800565b916108e66003830161082e565b916108f360038201610855565b9161090c60046109056003850161087c565b93016106d7565b90565b5f80fd5b61091c906100f8565b9052565b60209181520190565b6109486109516020936109569361093f8161040a565b93848093610920565b95869101610417565b610098565b0190565b610963906101d3565b9052565b610970906101fc565b9052565b939897956109d260e0966109c86109bd886109e6986109b06109ed9e996109a66109dc9a5f6101008701960190610913565b60208d0190610368565b8a820360408c0152610929565b9c606089019061095a565b6080870190610967565b60a085019061095a565b60c083019061095a565b0190610368565b565b34610a2957610a25610a0a610a053660046103bf565b610889565b94610a1c989698949194939293610082565b98899889610974565b0390f35b610088565b90610ac59060e080610a726101008401610a4e5f8801515f8701906103f0565b610a60602088015160208701906103fd565b60408701518582036040870152610422565b94610a8560608201516060860190610453565b610a9760808201516080860190610460565b610aa960a082015160a0860190610453565b610abb60c082015160c0860190610453565b01519101906103fd565b90565b610add9160208201915f818403910152610a2e565b90565b34610b1057610b0c610afb610af63660046103bf565b611722565b610b03610082565b91829182610ac8565b0390f35b610088565b5f80fd5b90565b5f5260205f2090565b5490565b610b3281610b25565b821015610b4c57610b44600591610b1c565b910201905f90565b61064e565b634e487b7160e01b5f525f60045260245ffd5b610b6e90516100f8565b90565b5f1b90565b90610b825f1991610b71565b9181191691161790565b610b95906100f8565b90565b610ba190610697565b90565b90610bb9610bb4610bc092610b8c565b610b98565b8254610b76565b9055565b610bce905161011e565b90565b90565b610be8610be3610bed9261011e565b610bd1565b61011e565b90565b90565b90610c08610c03610c0f92610bd4565b610bf0565b8254610b76565b9055565b5190565b601f602091010490565b1b90565b91906008610c40910291610c3a5f1984610c21565b92610c21565b9181191691161790565b9190610c60610c5b610c6893610bd4565b610bf0565b908354610c25565b9055565b5f90565b610c8291610c7c610c6c565b91610c4a565b565b5b818110610c90575050565b80610c9d5f600193610c70565b01610c85565b9190601f8111610cb3575b505050565b610cbf610ce493610722565b906020610ccb84610c17565b83019310610cec575b610cdd90610c17565b0190610c84565b5f8080610cae565b9150610cdd81929050610cd4565b1c90565b90610d0e905f1990600802610cfa565b191690565b81610d1d91610cfe565b906002021790565b90610d2f8161040a565b9067ffffffffffffffff8211610def57610d5382610d4d85546106f8565b85610ca3565b602090601f8311600114610d8757918091610d76935f92610d7b575b5050610d13565b90555b565b90915001515f80610d6f565b601f19831691610d9685610722565b925f5b818110610dd757509160029391856001969410610dbd575b50505002019055610d79565b610dcd910151601f841690610cfe565b90555f8080610db1565b91936020600181928787015181550195019201610d99565b6100a2565b90610dfe91610d25565b565b610e0a90516101d3565b90565b90610e1960ff91610b71565b9181191691161790565b610e37610e32610e3c926101d3565b610bd1565b6101d3565b90565b90565b90610e57610e52610e5e92610e23565b610e3f565b8254610e0d565b9055565b610e6c90516101fc565b90565b60081b90565b90610e8362ffff0091610e6f565b9181191691161790565b610ea1610e9c610ea6926101fc565b610bd1565b6101fc565b90565b90565b90610ec1610ebc610ec892610e8d565b610ea9565b8254610e75565b9055565b60181b90565b90610ee163ff00000091610ecc565b9181191691161790565b90610f00610efb610f0792610e23565b610e3f565b8254610ed2565b9055565b60201b90565b90610f2164ff0000000091610f0b565b9181191691161790565b90610f40610f3b610f4792610e23565b610e3f565b8254610f11565b9055565b9061100c60e0600461101294610f6e5f8201610f685f8801610b64565b90610ba4565b610f8760018201610f8160208801610bc4565b90610bf3565b610fa060028201610f9a60408801610c13565b90610df4565b610fb960038201610fb360608801610e00565b90610e42565b610fd260038201610fcc60808801610e62565b90610eac565b610feb60038201610fe560a08801610e00565b90610eeb565b61100460038201610ffe60c08801610e00565b90610f2b565b019201610bc4565b90610bf3565b565b91906110255761102391610f4b565b565b610b51565b908154916801000000000000000083101561105a578261105291600161105895018155610b29565b90611014565b565b6100a2565b6110729061106d6001610b19565b61102a565b565b61107c610c6c565b506110876001610662565b90565b606090565b90565b6110a66110a16110ab9261108f565b610bd1565b61011e565b90565b60016110ba910161011e565b90565b634e487b7160e01b5f52601160045260245ffd5b6110da9061011e565b5f1981146110e85760010190565b6110bd565b67ffffffffffffffff81116111055760208091020190565b6100a2565b9061111c611117836110ed565b6100df565b918252565b61112c6101006100df565b90565b5f90565b5f90565b606090565b5f90565b5f90565b61114c611121565b906020808080808080808961115f61112f565b81520161116a611133565b815201611175611137565b81520161118061113c565b81520161118b611140565b81520161119661113c565b8152016111a161113c565b8152016111ac611133565b81525050565b6111ba611144565b90565b5f5b8281106111cb57505050565b6020906111d66111b2565b81840152016111bf565b906112056111ed8361110a565b926020806111fb86936110ed565b92019103906111bd565b565b90611211826103dd565b811015611222576020809102010190565b61064e565b90611231906100f8565b9052565b9061123f9061011e565b9052565b52565b90611250906101d3565b9052565b9061125e906101fc565b9052565b906113296113206004611273611121565b9461128a6112825f83016106b3565b5f8801611227565b6112a2611299600183016106d7565b60208801611235565b6112ba6112b1600283016107c4565b60408801611243565b6112d26112c960038301610800565b60608801611246565b6112ea6112e16003830161082e565b60808801611254565b6113026112f960038301610855565b60a08801611246565b61131a6113116003830161087c565b60c08801611246565b016106d7565b60e08401611235565b565b61133490611262565b90565b61133f61108a565b506113495f611092565b6113525f611092565b5b8061136f6113696113646001610662565b61011e565b9161011e565b10156113c75761138c600161138581849061066f565b50016106d7565b61139e6113988561011e565b9161011e565b146113b2575b6113ad906110ae565b611353565b906113bf6113ad916110d1565b9190506113a4565b506113d1906111e0565b6113da5f611092565b906113e45f611092565b5b806114016113fb6113f66001610662565b61011e565b9161011e565b101561147f5761143f90611422600161141b81849061066f565b50016106d7565b61143461142e8761011e565b9161011e565b14611444575b6110ae565b6113e5565b6114786114536001839061066f565b5084611468611461886110d1565b979261132b565b6114728383611207565b52611207565b515061143a565b5091505090565b35611490816100fb565b90565b3561149d81610121565b90565b5f80fd5b5f80fd5b5f80fd5b9035906001602003813603038212156114ee570180359067ffffffffffffffff82116114e9576020019160018202360383136114e457565b6114a8565b6114a4565b6114a0565b5090565b9161150290826114f3565b9067ffffffffffffffff82116115c1576115268261152085546106f8565b85610ca3565b5f90601f831160011461155957918091611548935f9261154d575b5050610d13565b90555b565b90915001355f80611541565b601f1983169161156885610722565b925f5b8181106115a95750916002939185600196941061158f575b5050500201905561154b565b61159f910135601f841690610cfe565b90555f8080611583565b9193602060018192878701358155019501920161156b565b6100a2565b906115d192916114f7565b565b356115dd816101d9565b90565b356115ea81610203565b90565b906116af60e060046116b5946116105f820161160a5f8801611486565b90610ba4565b6116296001820161162360208801611493565b90610bf3565b6116436002820161163d60408801886114ac565b916115c6565b61165c60038201611656606088016115d3565b90610e42565b6116756003820161166f608088016115e0565b90610eac565b61168e6003820161168860a088016115d3565b90610eeb565b6116a7600382016116a160c088016115d3565b90610f2b565b019201611493565b90610bf3565b565b91906116c8576116c6916115ed565b565b610b51565b90815491680100000000000000008310156116fd57826116f59160016116fb95018155610b29565b906116b7565b565b6100a2565b611715906117106001610b19565b6116cd565b565b61171f611144565b90565b61173961173f91611731611717565b50600161066f565b5061132b565b9056fea2646970667358221220d15c0257c56b72e5ecf411997cd337889e5dc3037d22b13149c6ce5770d9960464736f6c634300081f0033","linkReferences":{}},"methodIdentifiers":{"entries(uint256)":"b30906d4","getEntriesByPolicy(uint256)":"86a555fe","getEntry(uint256)":"bae78d7b","getEntryCount()":"7a360e65","postEntry((bytes32,uint256,string,uint8,uint16,uint8,uint8,uint256))":"8c300f4e","postEntryMemory((bytes32,uint256,string,uint8,uint16,uint8,uint8,uint256))":"6c2c677b"},"id":22}