{"abi":[{"type":"function","name":"entries","inputs":[{"name":"","type":"uint256","internalType":"uint256"}],"outputs":[{"name":"evaluationId","type":"bytes32","internalType":"bytes32"},{"name":"policyId","type":"uint256","internalType":"uint256"},{"name":"policyName","type":"string","internalType":"string"},{"name":"riskScore","type":"uint8","internalType":"uint8"},{"name":"checkResults","type":"uint16","internalType":"uint16"},{"name":"requiredSigners","type":"uint8","internalType":"uint8"},{"name":"totalSigners","type":"uint8","internalType":"uint8"},{"name":"timestamp","type":"uint256","internalType":"uint256"}],"stateMutability":"view"},{"type":"function","name":"getEntriesByPolicy","inputs":[{"name":"_policyId","type":"uint256","internalType":"uint256"}],"outputs":[{"name":"","type":"tuple[]","internalType":"struct AuditLog.AuditEntry[]","components":[{"name":"evaluationId","type":"bytes32","internalType":"bytes32"},{"name":"policyId","type":"uint256","internalType":"uint256"},{"name":"policyName","type":"string","internalType":"string"},{"name":"riskScore","type":"uint8","internalType":"uint8"},{"name":"checkResults","type":"uint16","internalType":"uint16"},{"name":"requiredSigners","type":"uint8","internalType":"uint8"},{"name":"totalSigners","type":"uint8","internalType":"uint8"},{"name":"timestamp","type":"uint256","internalType":"uint256"}]}],"stateMutability":"view"},{"type":"function","name":"getEntry","inputs":[{"name":"_index","type":"uint256","internalType":"uint256"}],"outputs":[{"name":"","type":"tuple","internalType":"struct AuditLog.AuditEntry","components":[{"name":"evaluationId","type":"bytes32","internalType":"bytes32"},{"name":"policyId","type":"uint256","internalType":"uint256"},{"name":"policyName","type":"string","internalType":"string"},{"name":"riskScore","type":"uint8","internalType":"uint8"},{"name":"checkResults","type":"uint16","internalType":"uint16"},{"name":"requiredSigners","type":"uint8","internalType":"uint8"},{"name":"totalSigners","type":"uint8","internalType":"uint8"},{"name":"timestamp","type":"uint256","internalType":"uint256"}]}],"stateMutability":"view"},{"type":"function","name":"getEntryCount","inputs":[],"outputs":[{"name":"","type":"uint256","internalType":"uint256"}],"stateMutability":"view"},{"type":"function","name":"postEntry","inputs":[{"name":"_entry","type":"tuple","internalType":"struct AuditLog.AuditEntry","components":[{"name":"evaluationId","type":"bytes32","internalType":"bytes32"},{"name":"policyId","type":"uint256","internalType":"uint256"},{"name":"policyName","type":"string","internalType":"string"},{"name":"riskScore","type":"uint8","internalType":"uint8"},{"name":"checkResults","type":"uint16","internalType":"uint16"},{"name":"requiredSigners","type":"uint8","internalType":"uint8"},{"name":"totalSigners","type":"uint8","internalType":"uint8"},{"name":"timestamp","type":"uint256","internalType":"uint256"}]}],"outputs":[],"stateMutability":"nonpayable"},{"type":"function","name":"postEntryMemory","inputs":[{"name":"_entry","type":"tuple","internalType":"struct AuditLog.AuditEntry","components":[{"name":"evaluationId","type":"bytes32","internalType":"bytes32"},{"name":"policyId","type":"uint256","internalType":"uint256"},{"name":"policyName","type":"string","internalType":"string"},{"name":"riskScore","type":"uint8","internalType":"uint8"},{"name":"checkResults","type":"uint16","internalType":"uint16"},{"name":"requiredSigners","type":"uint8","internalType":"uint8"},{"name":"totalSigners","type":"uint8","internalType":"uint8"},{"name":"timestamp","type":"uint256","internalType":"uint256"}]}],"outputs":[],"stateMutability":"nonpayable"}],"bytecode":{"object":"0x608060405234801561000f575f80fd5b5061187b8061001d5f395ff3fe608060405234801561000f575f80fd5b5060043610610060575f3560e01c80636c2c677b146100645780637a360e651461008057806386a555fe1461009e5780638c300f4e146100ce578063b30906d4146100ea578063bae78d7b14610121575b5f80fd5b61007e60048036038101906100799190610abf565b610151565b005b610088610235565b6040516100959190610b15565b60405180910390f35b6100b860048036038101906100b39190610b2e565b610240565b6040516100c59190610d77565b60405180910390f35b6100e860048036038101906100e39190610dba565b6104c4565b005b61010460048036038101906100ff9190610b2e565b6104fd565b604051610118989796959493929190610e76565b60405180910390f35b61013b60048036038101906101369190610b2e565b610609565b6040516101489190610fa6565b60405180910390f35b5f81908060018154018082558091505060019003905f5260205f2090600502015f909190919091505f820151815f01556020820151816001015560408201518160020190816101a091906111c0565b506060820151816003015f6101000a81548160ff021916908360ff16021790555060808201518160030160016101000a81548161ffff021916908361ffff16021790555060a08201518160030160036101000a81548160ff021916908360ff16021790555060c08201518160030160046101000a81548160ff021916908360ff16021790555060e08201518160040155505050565b5f8080549050905090565b60605f805b5f8054905081101561029c57835f82815481106102655761026461128f565b5b905f5260205f2090600502016001015403610289578180610285906112e9565b9250505b8080610294906112e9565b915050610245565b505f8167ffffffffffffffff8111156102b8576102b76107d9565b5b6040519080825280602002602001820160405280156102f157816020015b6102de610766565b8152602001906001900390816102d65790505b5090505f805b5f805490508110156104b857855f82815481106103175761031661128f565b5b905f5260205f20906005020160010154036104a5575f818154811061033f5761033e61128f565b5b905f5260205f209060050201604051806101000160405290815f82015481526020016001820154815260200160028201805461037a90610ff3565b80601f01602080910402602001604051908101604052809291908181526020018280546103a690610ff3565b80156103f15780601f106103c8576101008083540402835291602001916103f1565b820191905f5260205f20905b8154815290600101906020018083116103d457829003601f168201915b50505050508152602001600382015f9054906101000a900460ff1660ff1660ff1681526020016003820160019054906101000a900461ffff1661ffff1661ffff1681526020016003820160039054906101000a900460ff1660ff1660ff1681526020016003820160049054906101000a900460ff1660ff1660ff168152602001600482015481525050838380610486906112e9565b9450815181106104995761049861128f565b5b60200260200101819052505b80806104b0906112e9565b9150506102f7565b50819350505050919050565b5f81908060018154018082558091505060019003905f5260205f2090600502015f9091909190915081816104f89190611837565b505050565b5f818154811061050b575f80fd5b905f5260205f2090600502015f91509050805f01549080600101549080600201805461053690610ff3565b80601f016020809104026020016040519081016040528092919081815260200182805461056290610ff3565b80156105ad5780601f10610584576101008083540402835291602001916105ad565b820191905f5260205f20905b81548152906001019060200180831161059057829003601f168201915b505050505090806003015f9054906101000a900460ff16908060030160019054906101000a900461ffff16908060030160039054906101000a900460ff16908060030160049054906101000a900460ff16908060040154905088565b610611610766565b5f82815481106106245761062361128f565b5b905f5260205f209060050201604051806101000160405290815f82015481526020016001820154815260200160028201805461065f90610ff3565b80601f016020809104026020016040519081016040528092919081815260200182805461068b90610ff3565b80156106d65780601f106106ad576101008083540402835291602001916106d6565b820191905f5260205f20905b8154815290600101906020018083116106b957829003601f168201915b50505050508152602001600382015f9054906101000a900460ff1660ff1660ff1681526020016003820160019054906101000a900461ffff1661ffff1661ffff1681526020016003820160039054906101000a900460ff1660ff1660ff1681526020016003820160049054906101000a900460ff1660ff1660ff1681526020016004820154815250509050919050565b6040518061010001604052805f80191681526020015f8152602001606081526020015f60ff1681526020015f61ffff1681526020015f60ff1681526020015f60ff1681526020015f81525090565b5f604051905090565b5f80fd5b5f80fd5b5f80fd5b5f601f19601f8301169050919050565b7f4e487b71000000000000000000000000000000000000000000000000000000005f52604160045260245ffd5b61080f826107c9565b810181811067ffffffffffffffff8211171561082e5761082d6107d9565b5b80604052505050565b5f6108406107b4565b905061084c8282610806565b919050565b5f80fd5b5f819050919050565b61086781610855565b8114610871575f80fd5b50565b5f813590506108828161085e565b92915050565b5f819050919050565b61089a81610888565b81146108a4575f80fd5b50565b5f813590506108b581610891565b92915050565b5f80fd5b5f80fd5b5f67ffffffffffffffff8211156108dd576108dc6107d9565b5b6108e6826107c9565b9050602081019050919050565b828183375f83830152505050565b5f61091361090e846108c3565b610837565b90508281526020810184848401111561092f5761092e6108bf565b5b61093a8482856108f3565b509392505050565b5f82601f830112610956576109556108bb565b5b8135610966848260208601610901565b91505092915050565b5f60ff82169050919050565b6109848161096f565b811461098e575f80fd5b50565b5f8135905061099f8161097b565b92915050565b5f61ffff82169050919050565b6109bb816109a5565b81146109c5575f80fd5b50565b5f813590506109d6816109b2565b92915050565b5f61010082840312156109f2576109f16107c5565b5b6109fd610100610837565b90505f610a0c84828501610874565b5f830152506020610a1f848285016108a7565b602083015250604082013567ffffffffffffffff811115610a4357610a42610851565b5b610a4f84828501610942565b6040830152506060610a6384828501610991565b6060830152506080610a77848285016109c8565b60808301525060a0610a8b84828501610991565b60a08301525060c0610a9f84828501610991565b60c08301525060e0610ab3848285016108a7565b60e08301525092915050565b5f60208284031215610ad457610ad36107bd565b5b5f82013567ffffffffffffffff811115610af157610af06107c1565b5b610afd848285016109dc565b91505092915050565b610b0f81610888565b82525050565b5f602082019050610b285f830184610b06565b92915050565b5f60208284031215610b4357610b426107bd565b5b5f610b50848285016108a7565b91505092915050565b5f81519050919050565b5f82825260208201905092915050565b5f819050602082019050919050565b610b8b81610855565b82525050565b610b9a81610888565b82525050565b5f81519050919050565b5f82825260208201905092915050565b5f5b83811015610bd7578082015181840152602081019050610bbc565b5f8484015250505050565b5f610bec82610ba0565b610bf68185610baa565b9350610c06818560208601610bba565b610c0f816107c9565b840191505092915050565b610c238161096f565b82525050565b610c32816109a5565b82525050565b5f61010083015f830151610c4e5f860182610b82565b506020830151610c616020860182610b91565b5060408301518482036040860152610c798282610be2565b9150506060830151610c8e6060860182610c1a565b506080830151610ca16080860182610c29565b5060a0830151610cb460a0860182610c1a565b5060c0830151610cc760c0860182610c1a565b5060e0830151610cda60e0860182610b91565b508091505092915050565b5f610cf08383610c38565b905092915050565b5f602082019050919050565b5f610d0e82610b59565b610d188185610b63565b935083602082028501610d2a85610b73565b805f5b85811015610d655784840389528151610d468582610ce5565b9450610d5183610cf8565b925060208a01995050600181019050610d2d565b50829750879550505050505092915050565b5f6020820190508181035f830152610d8f8184610d04565b905092915050565b5f80fd5b5f6101008284031215610db157610db0610d97565b5b81905092915050565b5f60208284031215610dcf57610dce6107bd565b5b5f82013567ffffffffffffffff811115610dec57610deb6107c1565b5b610df884828501610d9b565b91505092915050565b610e0a81610855565b82525050565b5f82825260208201905092915050565b5f610e2a82610ba0565b610e348185610e10565b9350610e44818560208601610bba565b610e4d816107c9565b840191505092915050565b610e618161096f565b82525050565b610e70816109a5565b82525050565b5f61010082019050610e8a5f83018b610e01565b610e97602083018a610b06565b8181036040830152610ea98189610e20565b9050610eb86060830188610e58565b610ec56080830187610e67565b610ed260a0830186610e58565b610edf60c0830185610e58565b610eec60e0830184610b06565b9998505050505050505050565b5f61010083015f830151610f0f5f860182610b82565b506020830151610f226020860182610b91565b5060408301518482036040860152610f3a8282610be2565b9150506060830151610f4f6060860182610c1a565b506080830151610f626080860182610c29565b5060a0830151610f7560a0860182610c1a565b5060c0830151610f8860c0860182610c1a565b5060e0830151610f9b60e0860182610b91565b508091505092915050565b5f6020820190508181035f830152610fbe8184610ef9565b905092915050565b7f4e487b71000000000000000000000000000000000000000000000000000000005f52602260045260245ffd5b5f600282049050600182168061100a57607f821691505b60208210810361101d5761101c610fc6565b5b50919050565b5f819050815f5260205f209050919050565b5f6020601f8301049050919050565b5f82821b905092915050565b5f6008830261107f7fffffffffffffffffffffffffffffffffffffffffffffffffffffffffffffffff82611044565b6110898683611044565b95508019841693508086168417925050509392505050565b5f819050919050565b5f6110c46110bf6110ba84610888565b6110a1565b610888565b9050919050565b5f819050919050565b6110dd836110aa565b6110f16110e9826110cb565b848454611050565b825550505050565b5f90565b6111056110f9565b6111108184846110d4565b505050565b5b81811015611133576111285f826110fd565b600181019050611116565b5050565b601f8211156111785761114981611023565b61115284611035565b81016020851015611161578190505b61117561116d85611035565b830182611115565b50505b505050565b5f82821c905092915050565b5f6111985f198460080261117d565b1980831691505092915050565b5f6111b08383611189565b9150826002028217905092915050565b6111c982610ba0565b67ffffffffffffffff8111156111e2576111e16107d9565b5b6111ec8254610ff3565b6111f7828285611137565b5f60209050601f831160018114611228575f8415611216578287015190505b61122085826111a5565b865550611287565b601f19841661123686611023565b5f5b8281101561125d57848901518255600182019150602085019450602081019050611238565b8683101561127a5784890151611276601f891682611189565b8355505b6001600288020188555050505b505050505050565b7f4e487b71000000000000000000000000000000000000000000000000000000005f52603260045260245ffd5b7f4e487b71000000000000000000000000000000000000000000000000000000005f52601160045260245ffd5b5f6112f382610888565b91507fffffffffffffffffffffffffffffffffffffffffffffffffffffffffffffffff8203611325576113246112bc565b5b600182019050919050565b5f813561133c8161085e565b80915050919050565b5f815f1b9050919050565b5f7fffffffffffffffffffffffffffffffffffffffffffffffffffffffffffffffff61137b84611345565b9350801983169250808416831791505092915050565b5f61139b82610855565b9050919050565b5f815f1c9050919050565b5f6113b7826113a2565b9050919050565b6113c782611391565b6113da6113d3826113ad565b8354611350565b8255505050565b5f81356113ed81610891565b80915050919050565b6113ff826110aa565b61141261140b826110cb565b8354611350565b8255505050565b5f80fd5b5f80fd5b5f80fd5b5f808335600160200384360303811261144157611440611419565b5b80840192508235915067ffffffffffffffff8211156114635761146261141d565b5b60208301925060018202360383131561147f5761147e611421565b5b509250929050565b5f82905092915050565b61149b8383611487565b67ffffffffffffffff8111156114b4576114b36107d9565b5b6114be8254610ff3565b6114c9828285611137565b5f601f8311600181146114f6575f84156114e4578287013590505b6114ee85826111a5565b865550611555565b601f19841661150486611023565b5f5b8281101561152b57848901358255600182019150602085019450602081019050611506565b868310156115485784890135611544601f891682611189565b8355505b6001600288020188555050505b50505050505050565b611569838383611491565b505050565b5f813561157a8161097b565b80915050919050565b5f60ff61158f84611345565b9350801983169250808416831791505092915050565b5f6115bf6115ba6115b58461096f565b6110a1565b61096f565b9050919050565b5f819050919050565b6115d8826115a5565b6115eb6115e4826115c6565b8354611583565b8255505050565b5f81356115fe816109b2565b80915050919050565b5f8160081b9050919050565b5f62ffff0061162184611607565b9350801983169250808416831791505092915050565b5f61165161164c611647846109a5565b6110a1565b6109a5565b9050919050565b5f819050919050565b61166a82611637565b61167d61167682611658565b8354611613565b8255505050565b5f8160181b9050919050565b5f63ff00000061169f84611684565b9350801983169250808416831791505092915050565b6116be826115a5565b6116d16116ca826115c6565b8354611690565b8255505050565b5f8160201b9050919050565b5f64ff000000006116f4846116d8565b9350801983169250808416831791505092915050565b611713826115a5565b61172661171f826115c6565b83546116e4565b8255505050565b5f81015f83018061173d81611330565b905061174981846113be565b50505060018101602083018061175e816113e1565b905061176a81846113f6565b505050600281016040830161177f8185611425565b61178a81838661155e565b505050506003810160608301806117a08161156e565b90506117ac81846115cf565b5050506003810160808301806117c1816115f2565b90506117cd8184611661565b5050506003810160a08301806117e28161156e565b90506117ee81846116b5565b5050506003810160c08301806118038161156e565b905061180f818461170a565b5050506004810160e0830180611824816113e1565b905061183081846113f6565b5050505050565b611841828261172d565b505056fea26469706673582212209b307a05c73766f7db3a5b6ca41db3787ebe79bbb182c0e0e53239ccd04f9dfb64736f6c63430008140033","linkReferences":{}},"methodIdentifiers":{"entries(uint256)":"b30906d4","getEntriesByPolicy(uint256)":"86a555fe","getEntry(uint256)":"bae78d7b","getEntryCount()":"7a360e65","postEntry((bytes32,uint256,string,uint8,uint16,uint8,uint8,uint256))":"8c300f4e","postEntryMemory((bytes32,uint256,string,uint8,uint16,uint8,uint8,uint256))":"6c2c677b"},"id":20}