{"abi":[{"type":"constructor","inputs":[{"name":"name","type":"string","internalType":"string"},{"name":"symbol","type":"string","internalType":"string"},{"name":"initialSupply","type":"uint256","internalType":"uint256"}],"stateMutability":"nonpayable"},{"type":"function","name":"allowance","inputs":[{"name":"owner","type":"address","internalType":"address"},{"name":"spender","type":"address","internalType":"address"}],"outputs":[{"name":"","type":"uint256","internalType":"uint256"}],"stateMutability":"view"},{"type":"function","name":"approve","inputs":[{"name":"spender","type":"address","internalType":"address"},{"name":"amount","type":"uint256","internalType":"uint256"}],"outputs":[{"name":"","type":"bool","internalType":"bool"}],"stateMutability":"nonpayable"},{"type":"function","name":"balanceOf","inputs":[{"name":"account","type":"address","internalType":"address"}],"outputs":[{"name":"","type":"uint256","internalType":"uint256"}],"stateMutability":"view"},{"type":"function","name":"batchMint","inputs":[{"name":"recipients","type":"address[]","internalType":"address[]"},{"name":"amounts","type":"uint256[]","internalType":"uint256[]"}],"outputs":[],"stateMutability":"nonpayable"},{"type":"function","name":"decimals","inputs":[],"outputs":[{"name":"","type":"uint8","internalType":"uint8"}],"stateMutability":"view"},{"type":"function","name":"decreaseAllowance","inputs":[{"name":"spender","type":"address","internalType":"address"},{"name":"subtractedValue","type":"uint256","internalType":"uint256"}],"outputs":[{"name":"","type":"bool","internalType":"bool"}],"stateMutability":"nonpayable"},{"type":"function","name":"distributeToMultisig","inputs":[{"name":"multisigWallet","type":"address","internalType":"address"},{"name":"signers","type":"address[]","internalType":"address[]"},{"name":"amountPerAddress","type":"uint256","internalType":"uint256"}],"outputs":[],"stateMutability":"nonpayable"},{"type":"function","name":"getTokenInfo","inputs":[{"name":"account","type":"address","internalType":"address"}],"outputs":[{"name":"tokenName","type":"string","internalType":"string"},{"name":"tokenSymbol","type":"string","internalType":"string"},{"name":"tokenDecimals","type":"uint8","internalType":"uint8"},{"name":"totalSupplyValue","type":"uint256","internalType":"uint256"},{"name":"accountBalance","type":"uint256","internalType":"uint256"}],"stateMutability":"view"},{"type":"function","name":"increaseAllowance","inputs":[{"name":"spender","type":"address","internalType":"address"},{"name":"addedValue","type":"uint256","internalType":"uint256"}],"outputs":[{"name":"","type":"bool","internalType":"bool"}],"stateMutability":"nonpayable"},{"type":"function","name":"mint","inputs":[{"name":"to","type":"address","internalType":"address"},{"name":"amount","type":"uint256","internalType":"uint256"}],"outputs":[],"stateMutability":"nonpayable"},{"type":"function","name":"name","inputs":[],"outputs":[{"name":"","type":"string","internalType":"string"}],"stateMutability":"view"},{"type":"function","name":"owner","inputs":[],"outputs":[{"name":"","type":"address","internalType":"address"}],"stateMutability":"view"},{"type":"function","name":"renounceOwnership","inputs":[],"outputs":[],"stateMutability":"nonpayable"},{"type":"function","name":"symbol","inputs":[],"outputs":[{"name":"","type":"string","internalType":"string"}],"stateMutability":"view"},{"type":"function","name":"totalSupply","inputs":[],"outputs":[{"name":"","type":"uint256","internalType":"uint256"}],"stateMutability":"view"},{"type":"function","name":"transfer","inputs":[{"name":"recipient","type":"address","internalType":"address"},{"name":"amount","type":"uint256","internalType":"uint256"}],"outputs":[{"name":"","type":"bool","internalType":"bool"}],"stateMutability":"nonpayable"},{"type":"function","name":"transferFrom","inputs":[{"name":"sender","type":"address","internalType":"address"},{"name":"recipient","type":"address","internalType":"address"},{"name":"amount","type":"uint256","internalType":"uint256"}],"outputs":[{"name":"","type":"bool","internalType":"bool"}],"stateMutability":"nonpayable"},{"type":"function","name":"transferOwnership","inputs":[{"name":"newOwner","type":"address","internalType":"address"}],"outputs":[],"stateMutability":"nonpayable"},{"type":"event","name":"Approval","inputs":[{"name":"owner","type":"address","indexed":true,"internalType":"address"},{"name":"spender","type":"address","indexed":true,"internalType":"address"},{"name":"value","type":"uint256","indexed":false,"internalType":"uint256"}],"anonymous":false},{"type":"event","name":"OwnershipTransferred","inputs":[{"name":"previousOwner","type":"address","indexed":true,"internalType":"address"},{"name":"newOwner","type":"address","indexed":true,"internalType":"address"}],"anonymous":false},{"type":"event","name":"Transfer","inputs":[{"name":"from","type":"address","indexed":true,"internalType":"address"},{"name":"to","type":"address","indexed":true,"internalType":"address"},{"name":"value","type":"uint256","indexed":false,"internalType":"uint256"}],"anonymous":false}],"bytecode":{"object":"0x6080604052346100305761001a6100146101bb565b91610278565b610022610035565b611cd56108958239611cd590f35b61003b565b60405190565b5f80fd5b601f801991011690565b634e487b7160e01b5f52604160045260245ffd5b906100679061003f565b810190811060018060401b0382111761007f57604052565b610049565b90610097610090610035565b928361005d565b565b5f80fd5b5f80fd5b5f80fd5b5f80fd5b60018060401b0381116100c5576100c160209161003f565b0190565b610049565b90825f9392825e0152565b909291926100ea6100e5826100a9565b610084565b9381855260208501908284011161010657610104926100ca565b565b6100a5565b9080601f8301121561012957816020610126935191016100d5565b90565b6100a1565b90565b61013a8161012e565b0361014157565b5f80fd5b9050519061015282610131565b565b90916060828403126101b6575f82015160018060401b0381116101b1578361017d91840161010b565b9260208301519060018060401b0382116101ac576101a0816101a993860161010b565b93604001610145565b90565b61009d565b61009d565b610099565b6101d961256a803803806101ce81610084565b928339810190610154565b909192565b90565b60ff1690565b90565b6101fe6101f9610203926101de565b6101e7565b6101e1565b90565b61021060126101ea565b90565b634e487b7160e01b5f52601160045260245ffd5b610230906101e1565b604d811161023e57600a0a90565b610213565b6102526102589193929361012e565b9261012e565b9161026483820261012e565b92818404149015171561027357565b610213565b6102a79291610286916102a9565b6102a1339161029b610296610206565b610227565b90610243565b906106f0565b565b906102b391610516565b6102c36102be6107b7565b610833565b565b5190565b634e487b7160e01b5f52602260045260245ffd5b90600160028304921680156102fd575b60208310146102f857565b6102c9565b91607f16916102ed565b5f5260205f2090565b601f602091010490565b1b90565b919060086103399102916103335f198461031a565b9261031a565b9181191691161790565b61035761035261035c9261012e565b6101e7565b61012e565b90565b90565b919061037861037361038093610343565b61035f565b90835461031e565b9055565b5f90565b61039a91610394610384565b91610362565b565b5b8181106103a8575050565b806103b55f600193610388565b0161039d565b9190601f81116103cb575b505050565b6103d76103fc93610307565b9060206103e384610310565b83019310610404575b6103f590610310565b019061039c565b5f80806103c6565b91506103f5819290506103ec565b1c90565b90610426905f1990600802610412565b191690565b8161043591610416565b906002021790565b90610447816102c5565b9060018060401b038211610505576104698261046385546102dd565b856103bb565b602090601f831160011461049d5791809161048c935f92610491575b505061042b565b90555b565b90915001515f80610485565b601f198316916104ac85610307565b925f5b8181106104ed575091600293918560019694106104d3575b5050500201905561048f565b6104e3910151601f841690610416565b90555f80806104c7565b919360206001819287870151815501950192016104af565b610049565b906105149161043d565b565b9061052561052c92600361050a565b600461050a565b565b90565b60018060a01b031690565b61055061054b6105559261052e565b6101e7565b610531565b90565b6105619061053c565b90565b61056d90610531565b90565b60209181520190565b5f7f45524332303a206d696e7420746f20746865207a65726f206164647265737300910152565b6105ad601f602092610570565b6105b681610579565b0190565b6105cf9060208101905f8183039101526105a0565b90565b156105d957565b6105e1610035565b62461bcd60e51b8152806105f7600482016105ba565b0390fd5b5f1c90565b90565b61060f610614916105fb565b610600565b90565b6106219054610603565b90565b6106336106399193929361012e565b9261012e565b820180921161064457565b610213565b5f1b90565b9061065a5f1991610649565b9181191691161790565b9061067961067461068092610343565b61035f565b825461064e565b9055565b61069861069361069d92610531565b6101e7565b610531565b90565b6106a990610684565b90565b6106b5906106a0565b90565b906106c2906106ac565b5f5260205260405f2090565b6106d79061012e565b9052565b91906106ee905f602085019401906106ce565b565b906107168261070f6107096107045f610558565b610564565b91610564565b14156105d2565b61073361072c826107276002610617565b610624565b6002610664565b61075a816107546107455f86906106b8565b9161074f83610617565b610624565b90610664565b6107635f610558565b9190916107ae61079c6107967fddf252ad1be2c89b69c2b068fc378daa952ba7f163c4a11628f55a4df523b3ef936106ac565b936106ac565b936107a5610035565b918291826106db565b0390a3565b5f90565b6107bf6107b3565b503390565b60018060a01b031690565b6107db6107e0916105fb565b6107c4565b90565b6107ed90546107cf565b90565b9061080160018060a01b0391610649565b9181191691161790565b90565b9061082361081e61082a926106ac565b61080b565b82546107f0565b9055565b5f0190565b61083d60056107e3565b61084882600561080e565b9061087c6108767f8be0079c531659141344cd1fd0a4f28419497f9722a3daafe3b4186f6b6457e0936106ac565b916106ac565b91610885610035565b8061088f8161082e565b0390a356fe60806040526004361015610013575b6108cd565b61001d5f3561013c565b806306fdde0314610137578063095ea7b31461013257806318160ddd1461012d5780631f69565f1461012857806323b872dd14610123578063313ce5671461011e578063395093511461011957806340c10f1914610114578063685731071461010f57806370a082311461010a578063715018a6146101055780638da5cb5b1461010057806395d89b41146100fb578063a457c2d7146100f6578063a9059cbb146100f1578063dd62ed3e146100ec578063f2fde38b146100e75763fc66f1ab0361000e57610896565b610810565b6107da565b610777565b610741565b61070c565b6106d7565b610682565b61064d565b610616565b6104f9565b6104be565b610489565b61043e565b6103cb565b61030f565b6102b7565b6101ca565b60e01c90565b60405190565b5f80fd5b5f80fd5b5f91031261015a57565b61014c565b5190565b60209181520190565b90825f9392825e0152565b601f801991011690565b6101a06101a96020936101ae936101978161015f565b93848093610163565b9586910161016c565b610177565b0190565b6101c79160208201915f818403910152610181565b90565b346101fa576101da366004610150565b6101f66101e5610a2a565b6101ed610142565b918291826101b2565b0390f35b610148565b5f80fd5b60018060a01b031690565b61021790610203565b90565b6102238161020e565b0361022a57565b5f80fd5b9050359061023b8261021a565b565b90565b6102498161023d565b0361025057565b5f80fd5b9050359061026182610240565b565b919060408382031261028b578061027f610288925f860161022e565b93602001610254565b90565b61014c565b151590565b61029e90610290565b9052565b91906102b5905f60208501940190610295565b565b346102e8576102e46102d36102cd366004610263565b90610a44565b6102db610142565b918291826102a2565b0390f35b610148565b6102f69061023d565b9052565b919061030d905f602085019401906102ed565b565b3461033f5761031f366004610150565b61033b61032a610a93565b610332610142565b918291826102fa565b0390f35b610148565b9060208282031261035d5761035a915f0161022e565b90565b61014c565b60ff1690565b61037190610362565b9052565b906103c9946103b86103ad60809561039f6103c2959b9a989b60a08801908882035f8a0152610181565b908682036020880152610181565b986040850190610368565b60608301906102ed565b01906102ed565b565b346103ff576103fb6103e66103e1366004610344565b610aad565b916103f2959395610142565b95869586610375565b0390f35b610148565b90916060828403126104395761043661041f845f850161022e565b9361042d816020860161022e565b93604001610254565b90565b61014c565b3461046f5761046b61045a610454366004610404565b91610c28565b610462610142565b918291826102a2565b0390f35b610148565b9190610487905f60208501940190610368565b565b346104b957610499366004610150565b6104b56104a4610cc1565b6104ac610142565b91829182610474565b0390f35b610148565b346104ef576104eb6104da6104d4366004610263565b90610d10565b6104e2610142565b918291826102a2565b0390f35b610148565b5f0190565b346105285761051261050c366004610263565b90610eb9565b61051a610142565b80610524816104f4565b0390f35b610148565b5f80fd5b5f80fd5b5f80fd5b909182601f830112156105735781359167ffffffffffffffff831161056e57602001926020830284011161056957565b610535565b610531565b61052d565b909182601f830112156105b25781359167ffffffffffffffff83116105ad5760200192602083028401116105a857565b610535565b610531565b61052d565b9091604082840312610611575f82013567ffffffffffffffff811161060c57836105e2918401610539565b929093602082013567ffffffffffffffff8111610607576106039201610578565b9091565b6101ff565b6101ff565b61014c565b34610648576106326106293660046105b7565b929190916110ce565b61063a610142565b80610644816104f4565b0390f35b610148565b3461067d57610679610668610663366004610344565b6110dc565b610670610142565b918291826102fa565b0390f35b610148565b346106b057610692366004610150565b61069a611169565b6106a2610142565b806106ac816104f4565b0390f35b610148565b6106be9061020e565b9052565b91906106d5905f602085019401906106b5565b565b34610707576106e7366004610150565b6107036106f26111a3565b6106fa610142565b918291826106c2565b0390f35b610148565b3461073c5761071c366004610150565b6107386107276111b9565b61072f610142565b918291826101b2565b0390f35b610148565b346107725761076e61075d610757366004610263565b90611277565b610765610142565b918291826102a2565b0390f35b610148565b346107a8576107a461079361078d366004610263565b906112e4565b61079b610142565b918291826102a2565b0390f35b610148565b91906040838203126107d557806107c96107d2925f860161022e565b9360200161022e565b90565b61014c565b3461080b576108076107f66107f03660046107ad565b90611306565b6107fe610142565b918291826102fa565b0390f35b610148565b3461083e57610828610823366004610344565b61143b565b610830610142565b8061083a816104f4565b0390f35b610148565b906060828203126108915761085a815f840161022e565b92602083013567ffffffffffffffff811161088c5761087e83610889928601610539565b939094604001610254565b90565b6101ff565b61014c565b346108c8576108b26108a9366004610843565b92919091611531565b6108ba610142565b806108c4816104f4565b0390f35b610148565b5f80fd5b606090565b634e487b7160e01b5f52602260045260245ffd5b906001600283049216801561090a575b602083101461090557565b6108d6565b91607f16916108fa565b60209181520190565b5f5260205f2090565b905f9291805490610940610939836108ea565b8094610914565b916001811690815f14610997575060011461095b575b505050565b610968919293945061091d565b915f925b81841061097f57505001905f8080610956565b6001816020929593955484860152019101929061096c565b92949550505060ff19168252151560200201905f8080610956565b906109bc91610926565b90565b634e487b7160e01b5f52604160045260245ffd5b906109dd90610177565b810190811067ffffffffffffffff8211176109f757604052565b6109bf565b90610a1c610a1592610a0c610142565b938480926109b2565b03836109d3565b565b610a27906109fc565b90565b610a326108d1565b50610a3d6003610a1e565b90565b5f90565b610a6191610a50610a40565b50610a5961153f565b9190916116f6565b600190565b5f90565b5f1c90565b90565b610a7e610a8391610a6a565b610a6f565b90565b610a909054610a72565b90565b610a9b610a66565b50610aa66002610a86565b90565b5f90565b90610ab66108d1565b50610abf6108d1565b50610ac8610aa9565b50610ad1610a66565b50610ada610a66565b50610ae3610a2a565b91610aec6111b9565b92610af5610cc1565b92610b07610b01610a93565b936110dc565b919493929190565b90565b610b26610b21610b2b92610203565b610b0f565b610203565b90565b610b3790610b12565b90565b610b4390610b2e565b90565b90610b5090610b3a565b5f5260205260405f2090565b90610b6690610b3a565b5f5260205260405f2090565b60207f6c6c6f77616e6365000000000000000000000000000000000000000000000000917f45524332303a207472616e7366657220616d6f756e74206578636565647320615f8201520152565b610bcc6028604092610163565b610bd581610b72565b0190565b610bee9060208101905f818303910152610bbf565b90565b15610bf857565b610c00610142565b62461bcd60e51b815280610c1660048201610bd9565b0390fd5b90610c25910361023d565b90565b610c42610c9d9392610c38610a40565b50829084916119aa565b610c97610c6a610c65610c5760018590610b46565b610c5f61153f565b90610b5c565b610a86565b91610c8883610c81610c7b8761023d565b9161023d565b1015610bf1565b92610c9161153f565b92610c1a565b916116f6565b600190565b90565b610cb9610cb4610cbe92610ca2565b610b0f565b610362565b90565b610cc9610aa9565b50610cd46012610ca5565b90565b634e487b7160e01b5f52601160045260245ffd5b610cfa610d009193929361023d565b9261023d565b8201809211610d0b57565b610cd7565b90610d5991610d1d610a40565b50610d53610d2961153f565b92610d4e610d4984610d446001610d3e61153f565b90610b46565b610b5c565b610a86565b610ceb565b916116f6565b600190565b5f7f4f776e61626c653a2063616c6c6572206973206e6f7420746865206f776e6572910152565b610d9160208092610163565b610d9a81610d5e565b0190565b610db39060208101905f818303910152610d85565b90565b15610dbd57565b610dc5610142565b62461bcd60e51b815280610ddb60048201610d9e565b0390fd5b90610e1391610e0e610def6111a3565b610e08610e02610dfd61153f565b61020e565b9161020e565b14610db6565b610e92565b565b610e1f6012610ca5565b90565b90565b610e39610e34610e3e92610e22565b610b0f565b61023d565b90565b610e4a90610362565b604d8111610e5857600a0a90565b610cd7565b610e6c610e729193929361023d565b9261023d565b91610e7e83820261023d565b928184041490151715610e8d57565b610cd7565b90610eb1610eb79291610eab610ea6610e15565b610e41565b90610e5d565b90611b3d565b565b90610ec391610ddf565b565b90610efb939291610ef6610ed76111a3565b610ef0610eea610ee561153f565b61020e565b9161020e565b14610db6565b61100d565b565b5090565b5090565b5f7f4c656e677468206d69736d617463680000000000000000000000000000000000910152565b610f39600f602092610163565b610f4281610f05565b0190565b610f5b9060208101905f818303910152610f2c565b90565b15610f6557565b610f6d610142565b62461bcd60e51b815280610f8360048201610f46565b0390fd5b90565b610f9e610f99610fa392610f87565b610b0f565b61023d565b90565b6001610fb2910161023d565b90565b634e487b7160e01b5f52603260045260245ffd5b9190811015610fd9576020020190565b610fb5565b35610fe88161021a565b90565b9190811015610ffb576020020190565b610fb5565b3561100a81610240565b90565b9392919361104161101f828490610efd565b61103b611035611030898890610f01565b61023d565b9161023d565b14610f5e565b61104a5f610f8a565b5b8061106861106261105d858790610efd565b61023d565b9161023d565b10156110c6576110c1906110bc61108961108485878591610fc9565b610fde565b6110b66110a061109b8b8a8791610feb565b611000565b6110b06110ab610e15565b610e41565b90610e5d565b90611b3d565b610fa6565b61104b565b505050509050565b906110da939291610ec5565b565b6110f26110f7916110eb610a66565b505f610b5c565b610a86565b90565b6111246111056111a3565b61111e61111861111361153f565b61020e565b9161020e565b14610db6565b61112c611156565b565b61114261113d61114792610f87565b610b0f565b610203565b90565b6111539061112e565b90565b6111676111625f61114a565b611c3e565b565b6111716110fa565b565b5f90565b60018060a01b031690565b61118e61119391610a6a565b611177565b90565b6111a09054611182565b90565b6111ab611173565b506111b66005611196565b90565b6111c16108d1565b506111cc6004610a1e565b90565b60207f207a65726f000000000000000000000000000000000000000000000000000000917f45524332303a2064656372656173656420616c6c6f77616e63652062656c6f775f8201520152565b6112296025604092610163565b611232816111cf565b0190565b61124b9060208101905f81830391015261121c565b90565b1561125557565b61125d610142565b62461bcd60e51b81528061127360048201611236565b0390fd5b6112df91611283610a40565b506112d96112ac6112a76112a0600161129a61153f565b90610b46565b8590610b5c565b610a86565b916112ca836112c36112bd8461023d565b9161023d565b101561124e565b6112d261153f565b9392610c1a565b916116f6565b600190565b611301916112f0610a40565b506112f961153f565b9190916119aa565b600190565b61132b9161132161132692611319610a66565b506001610b46565b610b5c565b610a86565b90565b6113619061135c61133d6111a3565b61135661135061134b61153f565b61020e565b9161020e565b14610db6565b61140b565b565b60207f6464726573730000000000000000000000000000000000000000000000000000917f4f776e61626c653a206e6577206f776e657220697320746865207a65726f20615f8201520152565b6113bd6026604092610163565b6113c681611363565b0190565b6113df9060208101905f8183039101526113b0565b90565b156113e957565b6113f1610142565b62461bcd60e51b815280611407600482016113ca565b0390fd5b611439906114348161142d6114276114225f61114a565b61020e565b9161020e565b14156113e2565b611c3e565b565b6114449061132e565b565b9061147c9392916114776114586111a3565b61147161146b61146661153f565b61020e565b9161020e565b14610db6565b61147e565b565b6114b8909493946114b261149c87611496600a610e25565b90610e5d565b6114ac6114a7610e15565b610e41565b90610e5d565b90611b3d565b6114c15f610f8a565b5b806114df6114d96114d4858790610efd565b61023d565b9161023d565b101561152a57611525906115206115006114fb85878591610fc9565b610fde565b61151a8861151461150f610e15565b610e41565b90610e5d565b90611b3d565b610fa6565b6114c2565b5050509050565b9061153d939291611446565b565b611547611173565b503390565b60207f7265737300000000000000000000000000000000000000000000000000000000917f45524332303a20617070726f76652066726f6d20746865207a65726f206164645f8201520152565b6115a66024604092610163565b6115af8161154c565b0190565b6115c89060208101905f818303910152611599565b90565b156115d257565b6115da610142565b62461bcd60e51b8152806115f0600482016115b3565b0390fd5b60207f7373000000000000000000000000000000000000000000000000000000000000917f45524332303a20617070726f766520746f20746865207a65726f2061646472655f8201520152565b61164e6022604092610163565b611657816115f4565b0190565b6116709060208101905f818303910152611641565b90565b1561167a57565b611682610142565b62461bcd60e51b8152806116986004820161165b565b0390fd5b5f1b90565b906116ad5f199161169c565b9181191691161790565b6116cb6116c66116d09261023d565b610b0f565b61023d565b90565b90565b906116eb6116e66116f2926116b7565b6116d3565b82546116a1565b9055565b91909161171e8161171761171161170c5f61114a565b61020e565b9161020e565b14156115cb565b6117438361173c6117366117315f61114a565b61020e565b9161020e565b1415611673565b6117628261175d61175660018590610b46565b8690610b5c565b6116d6565b9190916117ad61179b6117957f8c5be1e5ebec7d5bd14f71427d1e84f3dd0314c0f7b2291e5b200ac8c7c3b92593610b3a565b93610b3a565b936117a4610142565b918291826102fa565b0390a3565b60207f6472657373000000000000000000000000000000000000000000000000000000917f45524332303a207472616e736665722066726f6d20746865207a65726f2061645f8201520152565b61180c6025604092610163565b611815816117b2565b0190565b61182e9060208101905f8183039101526117ff565b90565b1561183857565b611840610142565b62461bcd60e51b81528061185660048201611819565b0390fd5b60207f6573730000000000000000000000000000000000000000000000000000000000917f45524332303a207472616e7366657220746f20746865207a65726f20616464725f8201520152565b6118b46023604092610163565b6118bd8161185a565b0190565b6118d69060208101905f8183039101526118a7565b90565b156118e057565b6118e8610142565b62461bcd60e51b8152806118fe600482016118c1565b0390fd5b60207f616c616e63650000000000000000000000000000000000000000000000000000917f45524332303a207472616e7366657220616d6f756e74206578636565647320625f8201520152565b61195c6026604092610163565b61196581611902565b0190565b61197e9060208101905f81830391015261194f565b90565b1561198857565b611990610142565b62461bcd60e51b8152806119a660048201611969565b0390fd5b9190916119d2816119cb6119c56119c05f61114a565b61020e565b9161020e565b1415611831565b6119f7836119f06119ea6119e55f61114a565b61020e565b9161020e565b14156118d9565b611a44611a34611a10611a0b5f8590610b5c565b610a86565b611a2d81611a26611a208861023d565b9161023d565b1015611981565b8490610c1a565b611a3f5f8490610b5c565b6116d6565b611a6b82611a65611a565f8790610b5c565b91611a6083610a86565b610ceb565b906116d6565b919091611ab6611aa4611a9e7fddf252ad1be2c89b69c2b068fc378daa952ba7f163c4a11628f55a4df523b3ef93610b3a565b93610b3a565b93611aad610142565b918291826102fa565b0390a3565b5f7f45524332303a206d696e7420746f20746865207a65726f206164647265737300910152565b611aef601f602092610163565b611af881611abb565b0190565b611b119060208101905f818303910152611ae2565b90565b15611b1b57565b611b23610142565b62461bcd60e51b815280611b3960048201611afc565b0390fd5b90611b6382611b5c611b56611b515f61114a565b61020e565b9161020e565b1415611b14565b611b80611b7982611b746002610a86565b610ceb565b60026116d6565b611ba781611ba1611b925f8690610b5c565b91611b9c83610a86565b610ceb565b906116d6565b611bb05f61114a565b919091611bfb611be9611be37fddf252ad1be2c89b69c2b068fc378daa952ba7f163c4a11628f55a4df523b3ef93610b3a565b93610b3a565b93611bf2610142565b918291826102fa565b0390a3565b90611c1160018060a01b039161169c565b9181191691161790565b90565b90611c33611c2e611c3a92610b3a565b611c1b565b8254611c00565b9055565b611c486005611196565b611c53826005611c1e565b90611c87611c817f8be0079c531659141344cd1fd0a4f28419497f9722a3daafe3b4186f6b6457e093610b3a565b91610b3a565b91611c90610142565b80611c9a816104f4565b0390a356fea26469706673582212207eac7ea69ab08708634dd7ed9bc95aae36df511338f5cee5bfb6f7c738198b7b64736f6c634300081f0033","linkReferences":{}},"methodIdentifiers":{"allowance(address,address)":"dd62ed3e","approve(address,uint256)":"095ea7b3","balanceOf(address)":"70a08231","batchMint(address[],uint256[])":"68573107","decimals()":"313ce567","decreaseAllowance(address,uint256)":"a457c2d7","distributeToMultisig(address,address[],uint256)":"fc66f1ab","getTokenInfo(address)":"1f69565f","increaseAllowance(address,uint256)":"39509351","mint(address,uint256)":"40c10f19","name()":"06fdde03","owner()":"8da5cb5b","renounceOwnership()":"715018a6","symbol()":"95d89b41","totalSupply()":"18160ddd","transfer(address,uint256)":"a9059cbb","transferFrom(address,address,uint256)":"23b872dd","transferOwnership(address)":"f2fde38b"},"id":21}