{"abi":[{"type":"constructor","inputs":[{"name":"_auditLog","type":"address","internalType":"address"}],"stateMutability":"nonpayable"},{"type":"receive","stateMutability":"payable"},{"type":"function","name":"approvalCount","inputs":[{"name":"","type":"uint256","internalType":"uint256"}],"outputs":[{"name":"","type":"uint256","internalType":"uint256"}],"stateMutability":"view"},{"type":"function","name":"approveTx","inputs":[{"name":"_txId","type":"uint256","internalType":"uint256"}],"outputs":[],"stateMutability":"nonpayable"},{"type":"function","name":"auditLog","inputs":[],"outputs":[{"name":"","type":"address","internalType":"contract AuditLog"}],"stateMutability":"view"},{"type":"function","name":"executeTx","inputs":[{"name":"_txId","type":"uint256","internalType":"uint256"}],"outputs":[],"stateMutability":"nonpayable"},{"type":"function","name":"getTransaction","inputs":[{"name":"_txId","type":"uint256","internalType":"uint256"}],"outputs":[{"name":"target","type":"address","internalType":"address"},{"name":"data","type":"bytes","internalType":"bytes"},{"name":"value","type":"uint256","internalType":"uint256"},{"name":"nonce","type":"uint256","internalType":"uint256"},{"name":"executed","type":"bool","internalType":"bool"},{"name":"evaluated","type":"bool","internalType":"bool"},{"name":"requiredSigners","type":"uint8","internalType":"uint8"},{"name":"riskScore","type":"uint8","internalType":"uint8"},{"name":"checkResults","type":"uint16","internalType":"uint16"},{"name":"matchedPolicyId","type":"uint256","internalType":"uint256"}],"stateMutability":"view"},{"type":"function","name":"hasApproved","inputs":[{"name":"","type":"uint256","internalType":"uint256"},{"name":"","type":"address","internalType":"address"}],"outputs":[{"name":"","type":"bool","internalType":"bool"}],"stateMutability":"view"},{"type":"function","name":"submitEvaluation","inputs":[{"name":"_txId","type":"uint256","internalType":"uint256"},{"name":"_matchedPolicyId","type":"uint256","internalType":"uint256"},{"name":"_riskScore","type":"uint8","internalType":"uint8"},{"name":"_requiredSigners","type":"uint8","internalType":"uint8"},{"name":"_signers","type":"address[]","internalType":"address[]"},{"name":"_checkResults","type":"uint16","internalType":"uint16"}],"outputs":[],"stateMutability":"nonpayable"},{"type":"function","name":"submitTransaction","inputs":[{"name":"_target","type":"address","internalType":"address"},{"name":"_data","type":"bytes","internalType":"bytes"},{"name":"_nonce","type":"uint256","internalType":"uint256"}],"outputs":[{"name":"","type":"uint256","internalType":"uint256"}],"stateMutability":"payable"},{"type":"function","name":"transactions","inputs":[{"name":"","type":"uint256","internalType":"uint256"}],"outputs":[{"name":"target","type":"address","internalType":"address"},{"name":"data","type":"bytes","internalType":"bytes"},{"name":"value","type":"uint256","internalType":"uint256"},{"name":"nonce","type":"uint256","internalType":"uint256"},{"name":"executed","type":"bool","internalType":"bool"},{"name":"requiredSigners","type":"uint8","internalType":"uint8"},{"name":"riskScore","type":"uint8","internalType":"uint8"},{"name":"checkResults","type":"uint16","internalType":"uint16"},{"name":"matchedPolicyId","type":"uint256","internalType":"uint256"},{"name":"evaluated","type":"bool","internalType":"bool"}],"stateMutability":"view"},{"type":"function","name":"txCount","inputs":[],"outputs":[{"name":"","type":"uint256","internalType":"uint256"}],"stateMutability":"view"}],"bytecode":{"object":"0x608060405234801561000f575f5ffd5b50604051611e22380380611e22833981810160405281019061003191906100d4565b805f5f6101000a81548173ffffffffffffffffffffffffffffffffffffffff021916908373ffffffffffffffffffffffffffffffffffffffff160217905550506100ff565b5f5ffd5b5f73ffffffffffffffffffffffffffffffffffffffff82169050919050565b5f6100a38261007a565b9050919050565b6100b381610099565b81146100bd575f5ffd5b50565b5f815190506100ce816100aa565b92915050565b5f602082840312156100e9576100e8610076565b5b5f6100f6848285016100c0565b91505092915050565b611d168061010c5f395ff3fe608060405260043610610094575f3560e01c806354b5fe801161005857806354b5fe80146101ae5780635a2d6ebd146101d65780639ace38c214610200578063e05afb6814610245578063ffb3a6b0146102755761009b565b80631087393a1461009f5780632358d5a8146100c757806333ea3dc8146101035780633c5406871461014857806340ad01ea146101725761009b565b3661009b57005b5f5ffd5b3480156100aa575f5ffd5b506100c560048036038101906100c09190610e51565b61029d565b005b3480156100d2575f5ffd5b506100ed60048036038101906100e89190610ed6565b610559565b6040516100fa9190610f2e565b60405180910390f35b34801561010e575f5ffd5b5061012960048036038101906101249190610e51565b610583565b60405161013f9a9998979695949392919061100c565b60405180910390f35b348015610153575f5ffd5b5061015c6106dc565b60405161016991906110ad565b60405180910390f35b34801561017d575f5ffd5b5061019860048036038101906101939190610e51565b6106e2565b6040516101a591906110ad565b60405180910390f35b3480156101b9575f5ffd5b506101d460048036038101906101cf9190610e51565b6106f7565b005b3480156101e1575f5ffd5b506101ea610908565b6040516101f79190611121565b60405180910390f35b34801561020b575f5ffd5b5061022660048036038101906102219190610e51565b61092c565b60405161023c9a9998979695949392919061113a565b60405180910390f35b61025f600480360381019061025a919061123c565b610a60565b60405161026c91906110ad565b60405180910390f35b348015610280575f5ffd5b5061029b60048036038101906102969190611356565b610b02565b005b5f60025f8381526020019081526020015f209050806008015f9054906101000a900460ff16610301576040517f08c379a00000000000000000000000000000000000000000000000000000000081526004016102f89061145a565b60405180910390fd5b806004015f9054906101000a900460ff1615610352576040517f08c379a0000000000000000000000000000000000000000000000000000000008152600401610349906114c2565b60405180910390fd5b60035f8381526020019081526020015f205f3373ffffffffffffffffffffffffffffffffffffffff1673ffffffffffffffffffffffffffffffffffffffff1681526020019081526020015f205f9054906101000a900460ff16156103eb576040517f08c379a00000000000000000000000000000000000000000000000000000000081526004016103e29061152a565b60405180910390fd5b5f5f90505f5f90505b8260050180549050811015610489573373ffffffffffffffffffffffffffffffffffffffff168360050182815481106104305761042f611548565b5b905f5260205f20015f9054906101000a900473ffffffffffffffffffffffffffffffffffffffff1673ffffffffffffffffffffffffffffffffffffffff160361047c5760019150610489565b80806001019150506103f4565b50806104ca576040517f08c379a00000000000000000000000000000000000000000000000000000000081526004016104c1906115e5565b60405180910390fd5b600160035f8581526020019081526020015f205f3373ffffffffffffffffffffffffffffffffffffffff1673ffffffffffffffffffffffffffffffffffffffff1681526020019081526020015f205f6101000a81548160ff02191690831515021790555060045f8481526020019081526020015f205f81548092919061054f90611630565b9190505550505050565b6003602052815f5260405f20602052805f5260405f205f915091509054906101000a900460ff1681565b5f60605f5f5f5f5f5f5f5f5f60025f8d81526020019081526020015f209050805f015f9054906101000a900473ffffffffffffffffffffffffffffffffffffffff168160010182600201548360030154846004015f9054906101000a900460ff16856008015f9054906101000a900460ff168660040160019054906101000a900460ff16876006015f9054906101000a900460ff168860060160019054906101000a900461ffff16896007015488805461063c906116a4565b80601f0160208091040260200160405190810160405280929190818152602001828054610668906116a4565b80156106b35780601f1061068a576101008083540402835291602001916106b3565b820191905f5260205f20905b81548152906001019060200180831161069657829003601f168201915b505050505098509a509a509a509a509a509a509a509a509a509a50509193959799509193959799565b60015481565b6004602052805f5260405f205f915090505481565b5f60025f8381526020019081526020015f209050806008015f9054906101000a900460ff1661075b576040517f08c379a00000000000000000000000000000000000000000000000000000000081526004016107529061145a565b60405180910390fd5b806004015f9054906101000a900460ff16156107ac576040517f08c379a00000000000000000000000000000000000000000000000000000000081526004016107a3906114c2565b60405180910390fd5b8060040160019054906101000a900460ff1660ff1660045f8481526020019081526020015f20541015610814576040517f08c379a000000000000000000000000000000000000000000000000000000000815260040161080b9061171e565b60405180910390fd5b6001816004015f6101000a81548160ff0219169083151502179055505f815f015f9054906101000a900473ffffffffffffffffffffffffffffffffffffffff1673ffffffffffffffffffffffffffffffffffffffff1682600201548360010160405161088091906117d8565b5f6040518083038185875af1925050503d805f81146108ba576040519150601f19603f3d011682016040523d82523d5f602084013e6108bf565b606091505b5050905080610903576040517f08c379a00000000000000000000000000000000000000000000000000000000081526004016108fa90611838565b60405180910390fd5b505050565b5f5f9054906101000a900473ffffffffffffffffffffffffffffffffffffffff1681565b6002602052805f5260405f205f91509050805f015f9054906101000a900473ffffffffffffffffffffffffffffffffffffffff1690806001018054610970906116a4565b80601f016020809104026020016040519081016040528092919081815260200182805461099c906116a4565b80156109e75780601f106109be576101008083540402835291602001916109e7565b820191905f5260205f20905b8154815290600101906020018083116109ca57829003601f168201915b505050505090806002015490806003015490806004015f9054906101000a900460ff16908060040160019054906101000a900460ff1690806006015f9054906101000a900460ff16908060060160019054906101000a900461ffff1690806007015490806008015f9054906101000a900460ff1690508a565b5f5f60015f815480929190610a7490611630565b9190505590505f60025f8381526020019081526020015f20905086815f015f6101000a81548173ffffffffffffffffffffffffffffffffffffffff021916908373ffffffffffffffffffffffffffffffffffffffff1602179055508585826001019182610ae2929190611a12565b503481600201819055508381600301819055508192505050949350505050565b5f60025f8981526020019081526020015f209050806008015f9054906101000a900460ff1615610b67576040517f08c379a0000000000000000000000000000000000000000000000000000000008152600401610b5e90611b29565b60405180910390fd5b806004015f9054906101000a900460ff1615610bb8576040517f08c379a0000000000000000000000000000000000000000000000000000000008152600401610baf906114c2565b60405180910390fd5b6001816008015f6101000a81548160ff021916908315150217905550848160040160016101000a81548160ff021916908360ff1602179055508383826005019190610c04929190610d5e565b5085816006015f6101000a81548160ff021916908360ff160217905550818160060160016101000a81548161ffff021916908361ffff1602179055508681600701819055505f5f9054906101000a900473ffffffffffffffffffffffffffffffffffffffff1673ffffffffffffffffffffffffffffffffffffffff16638c300f4e60405180610100016040528084600301548b42604051602001610caa93929190611b47565b6040516020818303038152906040528051906020012081526020018a815260200160405180602001604052805f81525081526020018960ff1681526020018561ffff1681526020018860ff1681526020018787905060ff168152602001428152506040518263ffffffff1660e01b8152600401610d279190611cc0565b5f604051808303815f87803b158015610d3e575f5ffd5b505af1158015610d50573d5f5f3e3d5ffd5b505050505050505050505050565b828054828255905f5260205f20908101928215610dea579160200282015b82811115610de957823573ffffffffffffffffffffffffffffffffffffffff16825f6101000a81548173ffffffffffffffffffffffffffffffffffffffff021916908373ffffffffffffffffffffffffffffffffffffffff16021790555091602001919060010190610d7c565b5b509050610df79190610dfb565b5090565b5b80821115610e12575f815f905550600101610dfc565b5090565b5f5ffd5b5f5ffd5b5f819050919050565b610e3081610e1e565b8114610e3a575f5ffd5b50565b5f81359050610e4b81610e27565b92915050565b5f60208284031215610e6657610e65610e16565b5b5f610e7384828501610e3d565b91505092915050565b5f73ffffffffffffffffffffffffffffffffffffffff82169050919050565b5f610ea582610e7c565b9050919050565b610eb581610e9b565b8114610ebf575f5ffd5b50565b5f81359050610ed081610eac565b92915050565b5f5f60408385031215610eec57610eeb610e16565b5b5f610ef985828601610e3d565b9250506020610f0a85828601610ec2565b9150509250929050565b5f8115159050919050565b610f2881610f14565b82525050565b5f602082019050610f415f830184610f1f565b92915050565b610f5081610e9b565b82525050565b5f81519050919050565b5f82825260208201905092915050565b8281835e5f83830152505050565b5f601f19601f8301169050919050565b5f610f9882610f56565b610fa28185610f60565b9350610fb2818560208601610f70565b610fbb81610f7e565b840191505092915050565b610fcf81610e1e565b82525050565b5f60ff82169050919050565b610fea81610fd5565b82525050565b5f61ffff82169050919050565b61100681610ff0565b82525050565b5f610140820190506110205f83018d610f47565b8181036020830152611032818c610f8e565b9050611041604083018b610fc6565b61104e606083018a610fc6565b61105b6080830189610f1f565b61106860a0830188610f1f565b61107560c0830187610fe1565b61108260e0830186610fe1565b611090610100830185610ffd565b61109e610120830184610fc6565b9b9a5050505050505050505050565b5f6020820190506110c05f830184610fc6565b92915050565b5f819050919050565b5f6110e96110e46110df84610e7c565b6110c6565b610e7c565b9050919050565b5f6110fa826110cf565b9050919050565b5f61110b826110f0565b9050919050565b61111b81611101565b82525050565b5f6020820190506111345f830184611112565b92915050565b5f6101408201905061114e5f83018d610f47565b8181036020830152611160818c610f8e565b905061116f604083018b610fc6565b61117c606083018a610fc6565b6111896080830189610f1f565b61119660a0830188610fe1565b6111a360c0830187610fe1565b6111b060e0830186610ffd565b6111be610100830185610fc6565b6111cc610120830184610f1f565b9b9a5050505050505050505050565b5f5ffd5b5f5ffd5b5f5ffd5b5f5f83601f8401126111fc576111fb6111db565b5b8235905067ffffffffffffffff811115611219576112186111df565b5b602083019150836001820283011115611235576112346111e3565b5b9250929050565b5f5f5f5f6060858703121561125457611253610e16565b5b5f61126187828801610ec2565b945050602085013567ffffffffffffffff81111561128257611281610e1a565b5b61128e878288016111e7565b935093505060406112a187828801610e3d565b91505092959194509250565b6112b681610fd5565b81146112c0575f5ffd5b50565b5f813590506112d1816112ad565b92915050565b5f5f83601f8401126112ec576112eb6111db565b5b8235905067ffffffffffffffff811115611309576113086111df565b5b602083019150836020820283011115611325576113246111e3565b5b9250929050565b61133581610ff0565b811461133f575f5ffd5b50565b5f813590506113508161132c565b92915050565b5f5f5f5f5f5f5f60c0888a03121561137157611370610e16565b5b5f61137e8a828b01610e3d565b975050602061138f8a828b01610e3d565b96505060406113a08a828b016112c3565b95505060606113b18a828b016112c3565b945050608088013567ffffffffffffffff8111156113d2576113d1610e1a565b5b6113de8a828b016112d7565b935093505060a06113f18a828b01611342565b91505092959891949750929550565b5f82825260208201905092915050565b7f4e6f7420796574206576616c75617465642062792054454500000000000000005f82015250565b5f611444601883611400565b915061144f82611410565b602082019050919050565b5f6020820190508181035f83015261147181611438565b9050919050565b7f416c7265616479206578656375746564000000000000000000000000000000005f82015250565b5f6114ac601083611400565b91506114b782611478565b602082019050919050565b5f6020820190508181035f8301526114d9816114a0565b9050919050565b7f416c726561647920617070726f766564000000000000000000000000000000005f82015250565b5f611514601083611400565b915061151f826114e0565b602082019050919050565b5f6020820190508181035f83015261154181611508565b9050919050565b7f4e487b71000000000000000000000000000000000000000000000000000000005f52603260045260245ffd5b7f4e6f7420696e207265717569726564207369676e65722073657420666f7220745f8201527f686973207472616e73616374696f6e0000000000000000000000000000000000602082015250565b5f6115cf602f83611400565b91506115da82611575565b604082019050919050565b5f6020820190508181035f8301526115fc816115c3565b9050919050565b7f4e487b71000000000000000000000000000000000000000000000000000000005f52601160045260245ffd5b5f61163a82610e1e565b91507fffffffffffffffffffffffffffffffffffffffffffffffffffffffffffffffff820361166c5761166b611603565b5b600182019050919050565b7f4e487b71000000000000000000000000000000000000000000000000000000005f52602260045260245ffd5b5f60028204905060018216806116bb57607f821691505b6020821081036116ce576116cd611677565b5b50919050565b7f496e73756666696369656e7420617070726f76616c73000000000000000000005f82015250565b5f611708601683611400565b9150611713826116d4565b602082019050919050565b5f6020820190508181035f830152611735816116fc565b9050919050565b5f81905092915050565b5f819050815f5260205f209050919050565b5f8154611764816116a4565b61176e818661173c565b9450600182165f8114611788576001811461179d576117cf565b60ff19831686528115158202860193506117cf565b6117a685611746565b5f5b838110156117c7578154818901526001820191506020810190506117a8565b838801955050505b50505092915050565b5f6117e38284611758565b915081905092915050565b7f457865637574696f6e206661696c6564000000000000000000000000000000005f82015250565b5f611822601083611400565b915061182d826117ee565b602082019050919050565b5f6020820190508181035f83015261184f81611816565b9050919050565b5f82905092915050565b7f4e487b71000000000000000000000000000000000000000000000000000000005f52604160045260245ffd5b5f6020601f8301049050919050565b5f82821b905092915050565b5f600883026118d77fffffffffffffffffffffffffffffffffffffffffffffffffffffffffffffffff8261189c565b6118e1868361189c565b95508019841693508086168417925050509392505050565b5f61191361190e61190984610e1e565b6110c6565b610e1e565b9050919050565b5f819050919050565b61192c836118f9565b6119406119388261191a565b8484546118a8565b825550505050565b5f5f905090565b611957611948565b611962818484611923565b505050565b5b818110156119855761197a5f8261194f565b600181019050611968565b5050565b601f8211156119ca5761199b81611746565b6119a48461188d565b810160208510156119b3578190505b6119c76119bf8561188d565b830182611967565b50505b505050565b5f82821c905092915050565b5f6119ea5f19846008026119cf565b1980831691505092915050565b5f611a0283836119db565b9150826002028217905092915050565b611a1c8383611856565b67ffffffffffffffff811115611a3557611a34611860565b5b611a3f82546116a4565b611a4a828285611989565b5f601f831160018114611a77575f8415611a65578287013590505b611a6f85826119f7565b865550611ad6565b601f198416611a8586611746565b5f5b82811015611aac57848901358255600182019150602085019450602081019050611a87565b86831015611ac95784890135611ac5601f8916826119db565b8355505b6001600288020188555050505b50505050505050565b7f416c7265616479206576616c75617465640000000000000000000000000000005f82015250565b5f611b13601183611400565b9150611b1e82611adf565b602082019050919050565b5f6020820190508181035f830152611b4081611b07565b9050919050565b5f606082019050611b5a5f830186610fc6565b611b676020830185610fc6565b611b746040830184610fc6565b949350505050565b5f819050919050565b611b8e81611b7c565b82525050565b611b9d81610e1e565b82525050565b5f81519050919050565b5f82825260208201905092915050565b5f611bc782611ba3565b611bd18185611bad565b9350611be1818560208601610f70565b611bea81610f7e565b840191505092915050565b611bfe81610fd5565b82525050565b611c0d81610ff0565b82525050565b5f61010083015f830151611c295f860182611b85565b506020830151611c3c6020860182611b94565b5060408301518482036040860152611c548282611bbd565b9150506060830151611c696060860182611bf5565b506080830151611c7c6080860182611c04565b5060a0830151611c8f60a0860182611bf5565b5060c0830151611ca260c0860182611bf5565b5060e0830151611cb560e0860182611b94565b508091505092915050565b5f6020820190508181035f830152611cd88184611c13565b90509291505056fea2646970667358221220965a7185d79840bac3850a2c547a4d1e7f70059113d31b7dee11dbf2bdaec26064736f6c634300081f0033","linkReferences":{}},"methodIdentifiers":{"approvalCount(uint256)":"40ad01ea","approveTx(uint256)":"1087393a","auditLog()":"5a2d6ebd","executeTx(uint256)":"54b5fe80","getTransaction(uint256)":"33ea3dc8","hasApproved(uint256,address)":"2358d5a8","submitEvaluation(uint256,uint256,uint8,uint8,address[],uint16)":"ffb3a6b0","submitTransaction(address,bytes,uint256)":"e05afb68","transactions(uint256)":"9ace38c2","txCount()":"3c540687"},"id":1}