{"abi":[{"type":"constructor","inputs":[{"name":"_registry","type":"address","internalType":"address"},{"name":"_machineRegistry","type":"address","internalType":"address"}],"stateMutability":"nonpayable"},{"type":"function","name":"extensionId","inputs":[],"outputs":[{"name":"","type":"uint256","internalType":"uint256"}],"stateMutability":"view"},{"type":"function","name":"sendEvaluate","inputs":[{"name":"_encryptedMessage","type":"bytes","internalType":"bytes"}],"outputs":[{"name":"","type":"bytes32","internalType":"bytes32"}],"stateMutability":"payable"},{"type":"function","name":"setExtensionIdManual","inputs":[{"name":"_id","type":"uint256","internalType":"uint256"}],"outputs":[],"stateMutability":"nonpayable"},{"type":"function","name":"teeExtensionRegistry","inputs":[],"outputs":[{"name":"","type":"address","internalType":"contract ITeeExtensionRegistry"}],"stateMutability":"view"},{"type":"function","name":"teeMachineRegistry","inputs":[],"outputs":[{"name":"","type":"address","internalType":"contract ITeeMachineRegistry"}],"stateMutability":"view"}],"bytecode":{"object":"0x60c060405234801561000f575f5ffd5b50604051610d31380380610d31833981810160405281019061003191906100fe565b8173ffffffffffffffffffffffffffffffffffffffff1660808173ffffffffffffffffffffffffffffffffffffffff16815250508073ffffffffffffffffffffffffffffffffffffffff1660a08173ffffffffffffffffffffffffffffffffffffffff1681525050505061013c565b5f5ffd5b5f73ffffffffffffffffffffffffffffffffffffffff82169050919050565b5f6100cd826100a4565b9050919050565b6100dd816100c3565b81146100e7575f5ffd5b50565b5f815190506100f8816100d4565b92915050565b5f5f60408385031215610114576101136100a0565b5b5f610121858286016100ea565b9250506020610132858286016100ea565b9150509250929050565b60805160a051610bc661016b5f395f818161016a015261033901525f818161029201526103ae0152610bc65ff3fe608060405260043610610049575f3560e01c806351a3c0b11461004d578063524967d71461007d57806362d7076e146100a757806374f9dd18146100d1578063a435d58a146100f9575b5f5ffd5b61006760048036038101906100629190610473565b610123565b60405161007491906104d6565b60405180910390f35b348015610088575f5ffd5b50610091610337565b60405161009e9190610569565b60405180910390f35b3480156100b2575f5ffd5b506100bb61035b565b6040516100c8919061059a565b60405180910390f35b3480156100dc575f5ffd5b506100f760048036038101906100f291906105dd565b610360565b005b348015610104575f5ffd5b5061010d6103ac565b60405161011a9190610628565b60405180910390f35b5f5f5f5403610167576040517f08c379a000000000000000000000000000000000000000000000000000000000815260040161015e9061069b565b60405180910390fd5b5f7f000000000000000000000000000000000000000000000000000000000000000073ffffffffffffffffffffffffffffffffffffffff1663feeabcbf5f5460016040518363ffffffff1660e01b81526004016101c59291906106f2565b5f60405180830381865afa1580156101df573d5f5f3e3d5ffd5b505050506040513d5f823e3d601f19601f82011682018060405250810190610207919061089c565b90506102116103d0565b7f4556414c554154455f5249534b00000000000000000000000000000000000000815f0181815250505f81602001818152505084848080601f0160208091040260200160405190810160405280939291908181526020018383808284375f81840152601f19601f8201169050808301925050505050505081604001819052507f000000000000000000000000000000000000000000000000000000000000000073ffffffffffffffffffffffffffffffffffffffff166366a2c0283484846040518463ffffffff1660e01b81526004016102ec929190610a9e565b60206040518083038185885af1158015610308573d5f5f3e3d5ffd5b50505050506040513d601f19601f8201168201806040525081019061032d9190610afd565b9250505092915050565b7f000000000000000000000000000000000000000000000000000000000000000081565b5f5481565b5f5f54146103a3576040517f08c379a000000000000000000000000000000000000000000000000000000000815260040161039a90610b72565b60405180910390fd5b805f8190555050565b7f000000000000000000000000000000000000000000000000000000000000000081565b6040518060c001604052805f81526020015f8152602001606081526020015f81526020015f81526020015f81525090565b5f604051905090565b5f5ffd5b5f5ffd5b5f5ffd5b5f5ffd5b5f5ffd5b5f5f83601f84011261043357610432610412565b5b8235905067ffffffffffffffff8111156104505761044f610416565b5b60208301915083600182028301111561046c5761046b61041a565b5b9250929050565b5f5f602083850312156104895761048861040a565b5b5f83013567ffffffffffffffff8111156104a6576104a561040e565b5b6104b28582860161041e565b92509250509250929050565b5f819050919050565b6104d0816104be565b82525050565b5f6020820190506104e95f8301846104c7565b92915050565b5f73ffffffffffffffffffffffffffffffffffffffff82169050919050565b5f819050919050565b5f61053161052c610527846104ef565b61050e565b6104ef565b9050919050565b5f61054282610517565b9050919050565b5f61055382610538565b9050919050565b61056381610549565b82525050565b5f60208201905061057c5f83018461055a565b92915050565b5f819050919050565b61059481610582565b82525050565b5f6020820190506105ad5f83018461058b565b92915050565b6105bc81610582565b81146105c6575f5ffd5b50565b5f813590506105d7816105b3565b92915050565b5f602082840312156105f2576105f161040a565b5b5f6105ff848285016105c9565b91505092915050565b5f61061282610538565b9050919050565b61062281610608565b82525050565b5f60208201905061063b5f830184610619565b92915050565b5f82825260208201905092915050565b7f457874656e73696f6e204944206e6f74207365740000000000000000000000005f82015250565b5f610685601483610641565b915061069082610651565b602082019050919050565b5f6020820190508181035f8301526106b281610679565b9050919050565b5f819050919050565b5f6106dc6106d76106d2846106b9565b61050e565b610582565b9050919050565b6106ec816106c2565b82525050565b5f6040820190506107055f83018561058b565b61071260208301846106e3565b9392505050565b5f601f19601f8301169050919050565b7f4e487b71000000000000000000000000000000000000000000000000000000005f52604160045260245ffd5b61075f82610719565b810181811067ffffffffffffffff8211171561077e5761077d610729565b5b80604052505050565b5f610790610401565b905061079c8282610756565b919050565b5f67ffffffffffffffff8211156107bb576107ba610729565b5b602082029050602081019050919050565b5f6107d6826104ef565b9050919050565b6107e6816107cc565b81146107f0575f5ffd5b50565b5f81519050610801816107dd565b92915050565b5f610819610814846107a1565b610787565b9050808382526020820190506020840283018581111561083c5761083b61041a565b5b835b81811015610865578061085188826107f3565b84526020840193505060208101905061083e565b5050509392505050565b5f82601f83011261088357610882610412565b5b8151610893848260208601610807565b91505092915050565b5f602082840312156108b1576108b061040a565b5b5f82015167ffffffffffffffff8111156108ce576108cd61040e565b5b6108da8482850161086f565b91505092915050565b5f81519050919050565b5f82825260208201905092915050565b5f819050602082019050919050565b610915816107cc565b82525050565b5f610926838361090c565b60208301905092915050565b5f602082019050919050565b5f610948826108e3565b61095281856108ed565b935061095d836108fd565b805f5b8381101561098d578151610974888261091b565b975061097f83610932565b925050600181019050610960565b5085935050505092915050565b6109a3816104be565b82525050565b5f81519050919050565b5f82825260208201905092915050565b8281835e5f83830152505050565b5f6109db826109a9565b6109e581856109b3565b93506109f58185602086016109c3565b6109fe81610719565b840191505092915050565b610a1281610582565b82525050565b5f60c083015f830151610a2d5f86018261099a565b506020830151610a40602086018261099a565b5060408301518482036040860152610a5882826109d1565b9150506060830151610a6d6060860182610a09565b506080830151610a806080860182610a09565b5060a0830151610a9360a0860182610a09565b508091505092915050565b5f6040820190508181035f830152610ab6818561093e565b90508181036020830152610aca8184610a18565b90509392505050565b610adc816104be565b8114610ae6575f5ffd5b50565b5f81519050610af781610ad3565b92915050565b5f60208284031215610b1257610b1161040a565b5b5f610b1f84828501610ae9565b91505092915050565b7f416c7265616479207365740000000000000000000000000000000000000000005f82015250565b5f610b5c600b83610641565b9150610b6782610b28565b602082019050919050565b5f6020820190508181035f830152610b8981610b50565b905091905056fea26469706673582212204135634a4e214a383adc610c2cb36dd170a34e0ec9263b9d048eccb2beca9ed764736f6c634300081f0033","linkReferences":{}},"methodIdentifiers":{"extensionId()":"62d7076e","sendEvaluate(bytes)":"51a3c0b1","setExtensionIdManual(uint256)":"74f9dd18","teeExtensionRegistry()":"a435d58a","teeMachineRegistry()":"524967d7"},"id":0}