{"abi":[{"type":"constructor","inputs":[],"stateMutability":"nonpayable"},{"type":"function","name":"getPresetCount","inputs":[],"outputs":[{"name":"","type":"uint256","internalType":"uint256"}],"stateMutability":"view"},{"type":"function","name":"presetAllowlist","inputs":[{"name":"_id","type":"uint256","internalType":"uint256"}],"outputs":[{"name":"","type":"address[]","internalType":"address[]"}],"stateMutability":"view"},{"type":"function","name":"presetDenylist","inputs":[{"name":"_id","type":"uint256","internalType":"uint256"}],"outputs":[{"name":"","type":"address[]","internalType":"address[]"}],"stateMutability":"view"},{"type":"function","name":"presetFunctionSelectors","inputs":[{"name":"_id","type":"uint256","internalType":"uint256"}],"outputs":[{"name":"","type":"bytes4[]","internalType":"bytes4[]"}],"stateMutability":"view"},{"type":"function","name":"presetMaxValue","inputs":[{"name":"_id","type":"uint256","internalType":"uint256"}],"outputs":[{"name":"","type":"uint256","internalType":"uint256"}],"stateMutability":"view"},{"type":"function","name":"presetMaxValueDailyUsd","inputs":[{"name":"_id","type":"uint256","internalType":"uint256"}],"outputs":[{"name":"","type":"uint256","internalType":"uint256"}],"stateMutability":"view"},{"type":"function","name":"presetMaxValuePerTxUsd","inputs":[{"name":"_id","type":"uint256","internalType":"uint256"}],"outputs":[{"name":"","type":"uint256","internalType":"uint256"}],"stateMutability":"view"},{"type":"function","name":"presetMinValue","inputs":[{"name":"_id","type":"uint256","internalType":"uint256"}],"outputs":[{"name":"","type":"uint256","internalType":"uint256"}],"stateMutability":"view"},{"type":"function","name":"presetName","inputs":[{"name":"_id","type":"uint256","internalType":"uint256"}],"outputs":[{"name":"","type":"string","internalType":"string"}],"stateMutability":"view"},{"type":"function","name":"presetRequireErc7730","inputs":[{"name":"_id","type":"uint256","internalType":"uint256"}],"outputs":[{"name":"","type":"bool","internalType":"bool"}],"stateMutability":"view"},{"type":"function","name":"presetRequireVerified","inputs":[{"name":"_id","type":"uint256","internalType":"uint256"}],"outputs":[{"name":"","type":"bool","internalType":"bool"}],"stateMutability":"view"},{"type":"function","name":"presetRiskWeight","inputs":[{"name":"_id","type":"uint256","internalType":"uint256"}],"outputs":[{"name":"","type":"uint8","internalType":"uint8"}],"stateMutability":"view"},{"type":"function","name":"presetTargetAddresses","inputs":[{"name":"_id","type":"uint256","internalType":"uint256"}],"outputs":[{"name":"","type":"address[]","internalType":"address[]"}],"stateMutability":"view"},{"type":"function","name":"presetTimeWindowEnd","inputs":[{"name":"_id","type":"uint256","internalType":"uint256"}],"outputs":[{"name":"","type":"uint256","internalType":"uint256"}],"stateMutability":"view"},{"type":"function","name":"presetTimeWindowStart","inputs":[{"name":"_id","type":"uint256","internalType":"uint256"}],"outputs":[{"name":"","type":"uint256","internalType":"uint256"}],"stateMutability":"view"}],"bytecode":{"object":"0x60806040523461002757610011610d75565b61001961002c565b61121361138c823961121390f35b610032565b60405190565b5f80fd5b90565b90565b90565b90565b61005661005161005b92610039565b61003f565b61003c565b90565b601f801991011690565b634e487b7160e01b5f52604160045260245ffd5b906100869061005e565b810190811060018060401b0382111761009e57604052565b610068565b906100b66100af61002c565b928361007c565b565b60018060401b0381116100ce5760208091020190565b610068565b906100e56100e0836100b8565b6100a3565b918252565b369037565b906101146100fc836100d3565b9260208061010a86936100b8565b92019103906100ea565b565b60018060401b03811161012c5760208091020190565b610068565b9061014361013e83610116565b6100a3565b918252565b369037565b9061017261015a83610131565b926020806101688693610116565b9201910390610148565b565b61017f6101c06100a3565b90565b60018060401b03811161019e5761019a60209161005e565b0190565b610068565b906101b56101b083610182565b6100a3565b918252565b5f7f4c6f772d56616c7565205472616e736665720000000000000000000000000000910152565b6101eb60126101a3565b906101f8602083016101ba565b565b6102026101e1565b90565b52565b52565b52565b906102189061003c565b9052565b151590565b9061022b9061021c565b9052565b90565b61024661024161024b9261022f565b61003f565b61003c565b90565b90565b61026561026061026a9261024e565b61003f565b61003c565b90565b90565b60ff1690565b61028a61028561028f9261026d565b61003f565b610270565b90565b9061029c90610270565b9052565b5f5260205f2090565b634e487b7160e01b5f52603260045260245ffd5b5490565b6102ca816102bd565b8210156102e4576102dc600d916102a0565b910201905f90565b6102a9565b634e487b7160e01b5f525f60045260245ffd5b5190565b5190565b634e487b7160e01b5f52602260045260245ffd5b9060016002830492168015610338575b602083101461033357565b610304565b91607f1691610328565b5f5260205f2090565b601f602091010490565b1b90565b9190600861037491029161036e5f1984610355565b92610355565b9181191691161790565b61039261038d6103979261003c565b61003f565b61003c565b90565b90565b91906103b36103ae6103bb9361037e565b61039a565b908354610359565b9055565b5f90565b6103d5916103cf6103bf565b9161039d565b565b5b8181106103e3575050565b806103f05f6001936103c3565b016103d8565b9190601f8111610406575b505050565b61041261043793610342565b90602061041e8461034b565b8301931061043f575b6104309061034b565b01906103d7565b5f8080610401565b915061043081929050610427565b1c90565b90610461905f199060080261044d565b191690565b8161047091610451565b906002021790565b9061048281610300565b9060018060401b038211610540576104a48261049e8554610318565b856103f6565b602090601f83116001146104d8579180916104c7935f926104cc575b5050610466565b90555b565b90915001515f806104c0565b601f198316916104e785610342565b925f5b8181106105285750916002939185600196941061050e575b505050020190556104ca565b61051e910151601f841690610451565b90555f8080610502565b919360206001819287870151815501950192016104ea565b610068565b9061054f91610478565b565b5190565b5490565b600190818003010490565b5f5260205f2090565b5b818110610579575050565b806105865f6001936103c3565b0161056e565b9061059f905f199060200360080261044d565b8154169055565b90918281106105b5575b505050565b6105d36105cd6105c76105de95610559565b92610559565b92610564565b91820191019061056d565b5f80806105b0565b9068010000000000000000811161060f578161060461060d93610555565b908281556105a6565b565b610068565b5190565b60018060a01b031690565b61062c90610618565b90565b6106399051610623565b90565b60200190565b90565b61064e82610614565b9160018060401b0383116106af5761067a61067460019261066f86866105e6565b61063c565b92610564565b9204915f5b83811061068c5750505050565b60019060206106a261069d8661062f565b610642565b940193818401550161067f565b610068565b906106be91610645565b565b5190565b5490565b60089060018203010490565b5f5260205f2090565b5b8181106106e9575050565b806106f65f6001936103c3565b016106de565b91909182821061070c575b505050565b6004600861071c610744956106c8565b61072e610728866106c8565b946106d4565b93840193019306025f811161074c575b506106dd565b5f8080610707565b610759906001830361058c565b5f61073e565b90680100000000000000008111610788578161077d610786936106c4565b908281556106fc565b565b610068565b5190565b63ffffffff60e01b1690565b6107a79051610791565b90565b60200190565b919060086107ce9102916107c863ffffffff84610355565b92610355565b9181191691161790565b60e01c90565b6107e7906107d8565b90565b906107f48161078d565b9060018060401b0382116108d75761081861081e91610813848661075f565b6107aa565b926106d4565b60088204915f5b83811061088e57506008830290035f8111610841575b50505050565b925f935f5b81811061085b5750505001555f80808061083b565b90919460206108826001926108776108728a61079d565b6107de565b9085600402906107b0565b96019101919091610846565b5f5f5b600881106108a85750906001918185015501610825565b959060206108ce6001926108c36108be8661079d565b6107de565b908a600402906107b0565b92019601610891565b610068565b906108e6916107ea565b565b6108f2905161003c565b90565b5f1b90565b906109065f19916108f5565b9181191691161790565b9061092561092061092c9261037e565b61039a565b82546108fa565b9055565b61093a905161021c565b90565b9061094960ff916108f5565b9181191691161790565b61095c9061021c565b90565b90565b9061097761097261097e92610953565b61095f565b825461093d565b9055565b60081b90565b9061099561ff0091610982565b9181191691161790565b906109b46109af6109bb92610953565b61095f565b8254610988565b9055565b6109c99051610270565b90565b6109e06109db6109e592610270565b61003f565b610270565b90565b90565b90610a006109fb610a07926109cc565b6109e8565b825461093d565b9055565b90610b686101a0600c610b6e94610a2f5f8201610a295f88016102fc565b90610545565b610a4860018201610a4260208801610551565b906106b4565b610a6160028201610a5b604088016106c0565b906108dc565b610a7a60038201610a74606088016108e8565b90610910565b610a9360048201610a8d608088016108e8565b90610910565b610aac60058201610aa660a088016108e8565b90610910565b610ac560068201610abf60c088016108e8565b90610910565b610ade60078201610ad860e08801610930565b90610962565b610af860078201610af26101008801610930565b9061099f565b610b1260088201610b0c61012088016108e8565b90610910565b610b2c60098201610b2661014088016108e8565b90610910565b610b46600a8201610b406101608801610551565b906106b4565b610b60600b8201610b5a6101808801610551565b906106b4565b0192016109bf565b906109eb565b565b9190610b8157610b7f91610a0b565b565b6102e9565b9081549168010000000000000000831015610bb65782610bae916001610bb4950181556102c1565b90610b70565b565b610068565b5f7f486967682d56616c7565205472616e7366657200000000000000000000000000910152565b610bec60136101a3565b90610bf960208301610bbb565b565b610c03610be2565b90565b90565b610c1d610c18610c2292610c06565b61003f565b61003c565b90565b90565b610c3c610c37610c4192610c25565b61003f565b61003c565b90565b90565b610c5b610c56610c6092610c44565b61003f565b610270565b90565b5f7f5472656173757279204d616e6167656d656e7400000000000000000000000000910152565b610c9460136101a3565b90610ca160208301610c63565b565b610cab610c8a565b90565b90565b610cc5610cc0610cca92610cae565b61003f565b610270565b90565b5f7f4465466920496e746572616374696f6e00000000000000000000000000000000910152565b610cfe60106101a3565b90610d0b60208301610ccd565b565b610d15610cf4565b90565b90565b610d2f610d2a610d3492610d18565b61003f565b61003c565b90565b90565b610d4e610d49610d5392610d37565b61003f565b61003c565b90565b90565b610d6d610d68610d7292610d56565b61003f565b610270565b90565b5f610d7f90610036565b5f610d8990610042565b610d92906100ef565b5f610d9c90610042565b610da59061014d565b5f5f195f5f195f5f90683635c9adc5dea000009269021e19e0c9bab2400000945f610dcf90610042565b610dd8906100ef565b965f610de390610042565b610dec906100ef565b9860029a610df8610174565b9c8d610e026101fa565b5f820190610e0f91610205565b60200190610e1c91610208565b60408d0190610e2a9161020b565b610e3390610042565b60608c0190610e419161020e565b60808b0190610e4f9161020e565b610e5890610042565b60a08a0190610e669161020e565b60c0890190610e749161020e565b60e0880190610e8291610221565b610100870190610e9191610221565b610e9a90610232565b610120860190610ea99161020e565b610eb290610251565b610140850190610ec19161020e565b610160840190610ed091610208565b610180830190610edf91610208565b610ee890610276565b6101a0820190610ef791610292565b610f0091610b86565b5f610f0a90610036565b5f610f1490610042565b610f1d906100ef565b5f610f2790610042565b610f309061014d565b683635c9adc5dea000005f195f5f195f5f90690a968163f0a57b4000009269152d02c7e14af6800000945f610f6490610042565b610f6d906100ef565b965f610f7890610042565b610f81906100ef565b9860059a610f8d610174565b9c8d610f97610bfb565b5f820190610fa491610205565b60200190610fb191610208565b60408d0190610fbf9161020b565b610fc890610232565b60608c0190610fd69161020e565b60808b0190610fe49161020e565b610fed90610042565b60a08a0190610ffb9161020e565b60c08901906110099161020e565b60e088019061101791610221565b61010087019061102691610221565b61102f90610c09565b61012086019061103e9161020e565b61104790610c28565b6101408501906110569161020e565b61016084019061106591610208565b61018083019061107491610208565b61107d90610c47565b6101a082019061108c91610292565b61109591610b86565b5f61109f90610036565b5f6110a990610042565b6110b2906100ef565b5f6110bc90610042565b6110c59061014d565b5f5f195f5f196001805f19925f19945f6110de90610042565b6110e7906100ef565b965f6110f290610042565b6110fb906100ef565b9860099a611107610174565b9c8d611111610ca3565b5f82019061111e91610205565b6020019061112b91610208565b60408d01906111399161020b565b61114290610042565b60608c01906111509161020e565b60808b019061115e9161020e565b61116790610042565b60a08a01906111759161020e565b60c08901906111839161020e565b60e088019061119191610221565b6101008701906111a091610221565b6101208601906111af9161020e565b6101408501906111be9161020e565b6101608401906111cd91610208565b6101808301906111dc91610208565b6111e590610cb1565b6101a08201906111f491610292565b6111fd91610b86565b5f61120790610036565b5f61121190610042565b61121a906100ef565b5f61122490610042565b61122d9061014d565b5f5f195f5f195f5f9069054b40b1f852bda00000926934f086f3b33b68400000945f61125890610042565b611261906100ef565b965f61126c90610042565b611275906100ef565b9860069a611281610174565b9c8d61128b610d0d565b5f82019061129891610205565b602001906112a591610208565b60408d01906112b39161020b565b6112bc90610042565b60608c01906112ca9161020e565b60808b01906112d89161020e565b6112e190610042565b60a08a01906112ef9161020e565b60c08901906112fd9161020e565b60e088019061130b91610221565b61010087019061131a91610221565b61132390610d1b565b6101208601906113329161020e565b61133b90610d3a565b61014085019061134a9161020e565b61016084019061135991610208565b61018083019061136891610208565b61137190610d59565b6101a082019061138091610292565b61138991610b86565b56fe60806040526004361015610013575b6106ca565b61001d5f3561010b565b8062954afc146101065780630ad350c2146101015780630c67c94e146100fc57806344b0a581146100f75780635e1b5d75146100f25780636f905af1146100ed57806387e31445146100e8578063a2b8c23e146100e3578063a997680a146100de578063c4186e06146100d9578063c8bf0188146100d4578063d030236d146100cf578063d976f2a7146100ca578063e1129163146100c55763e7c49d810361000e57610695565b610660565b61062b565b6105f6565b6105c1565b61058c565b610557565b6104fb565b61049e565b61045a565b610425565b610385565b6102a5565b610270565b610219565b60e01c90565b60405190565b5f80fd5b5f80fd5b90565b61012b8161011f565b0361013257565b5f80fd5b9050359061014382610122565b565b9060208282031261015e5761015b915f01610136565b90565b61011b565b5190565b60209181520190565b60200190565b60018060a01b031690565b61018a90610176565b90565b61019690610181565b9052565b906101a78160209361018d565b0190565b60200190565b906101ce6101c86101c184610163565b8093610167565b92610170565b905f5b8181106101de5750505090565b9091926101f76101f1600192865161019a565b946101ab565b91019190916101d1565b6102169160208201915f8184039101526101b1565b90565b346102495761024561023461022f366004610145565b6108ba565b61023c610111565b91829182610201565b0390f35b610117565b6102579061011f565b9052565b919061026e905f6020850194019061024e565b565b346102a05761029c61028b610286366004610145565b610928565b610293610111565b9182918261025b565b0390f35b610117565b346102d5576102d16102c06102bb366004610145565b61096e565b6102c8610111565b9182918261025b565b0390f35b610117565b5190565b60209181520190565b60200190565b63ffffffff60e01b1690565b610302906102ed565b9052565b90610313816020936102f9565b0190565b60200190565b9061033a61033461032d846102da565b80936102de565b926102e7565b905f5b81811061034a5750505090565b90919261036361035d6001928651610306565b94610317565b910191909161033d565b6103829160208201915f81840391015261031d565b90565b346103b5576103b16103a061039b366004610145565b610d2e565b6103a8610111565b9182918261036d565b0390f35b610117565b5190565b60209181520190565b90825f9392825e0152565b601f801991011690565b6103fb610404602093610409936103f2816103ba565b938480936103be565b958691016103c7565b6103d2565b0190565b6104229160208201915f8184039101526103dc565b90565b346104555761045161044061043b366004610145565b610e90565b610448610111565b9182918261040d565b0390f35b610117565b3461048a57610486610475610470366004610145565b610ed5565b61047d610111565b91829182610201565b0390f35b610117565b5f91031261049957565b61011b565b346104ce576104ae36600461048f565b6104ca6104b9610f1b565b6104c1610111565b9182918261025b565b0390f35b610117565b60ff1690565b6104e2906104d3565b9052565b91906104f9905f602085019401906104d9565b565b3461052b57610527610516610511366004610145565b610f5b565b61051e610111565b918291826104e6565b0390f35b610117565b151590565b61053e90610530565b9052565b9190610555905f60208501940190610535565b565b346105875761058361057261056d366004610145565b610fcc565b61057a610111565b91829182610542565b0390f35b610117565b346105bc576105b86105a76105a2366004610145565b611012565b6105af610111565b9182918261025b565b0390f35b610117565b346105f1576105ed6105dc6105d7366004610145565b611058565b6105e4610111565b9182918261025b565b0390f35b610117565b346106265761062261061161060c366004610145565b61109e565b610619610111565b9182918261025b565b0390f35b610117565b3461065b57610657610646610641366004610145565b6110e4565b61064e610111565b91829182610201565b0390f35b610117565b346106905761068c61067b610676366004610145565b611151565b610683610111565b91829182610542565b0390f35b610117565b346106c5576106c16106b06106ab366004610145565b611197565b6106b8610111565b9182918261025b565b0390f35b610117565b5f80fd5b606090565b5490565b5f7f507265736574206e6f7420666f756e6400000000000000000000000000000000910152565b61070b60106020926103be565b610714816106d7565b0190565b61072d9060208101905f8183039101526106fe565b90565b1561073757565b61073f610111565b62461bcd60e51b81528061075560048201610718565b0390fd5b634e487b7160e01b5f52603260045260245ffd5b5f5260205f2090565b61077f816106d3565b82101561079957610791600d9161076d565b910201905f90565b610759565b5490565b60209181520190565b5f5260205f2090565b5f1c90565b60018060a01b031690565b6107d06107d5916107b4565b6107b9565b90565b6107e290546107c4565b90565b60010190565b906108086108026107fb8461079e565b80936107a2565b926107ab565b905f5b8181106108185750505090565b90919261083861083260019261082d876107d8565b61019a565b946107e5565b910191909161080b565b9061084c916107eb565b90565b634e487b7160e01b5f52604160045260245ffd5b9061086d906103d2565b810190811067ffffffffffffffff82111761088757604052565b61084f565b906108ac6108a59261089c610111565b93848092610842565b0383610863565b565b6108b79061088c565b90565b600a6108f66108fd926108cb6106ce565b506108f0816108ea6108e46108df5f6106d3565b61011f565b9161011f565b10610730565b5f610776565b50016108ae565b90565b5f90565b90565b610913610918916107b4565b610904565b90565b6109259054610907565b90565b600561096461096b92610939610900565b5061095e8161095861095261094d5f6106d3565b61011f565b9161011f565b10610730565b5f610776565b500161091b565b90565b60096109aa6109b19261097f610900565b506109a48161099e6109986109935f6106d3565b61011f565b9161011f565b10610730565b5f610776565b500161091b565b90565b606090565b5490565b60209181520190565b5f5260205f2090565b60e01b90565b6109de906109cf565b90565b6109ed6109f2916107b4565b6109d5565b90565b60201c90565b610a07610a0c916109f5565b6109d5565b90565b60401c90565b610a21610a2691610a0f565b6109d5565b90565b60601c90565b610a3b610a4091610a29565b6109d5565b90565b60801c90565b610a55610a5a91610a43565b6109d5565b90565b60a01c90565b610a6f610a7491610a5d565b6109d5565b90565b60c01c90565b610a89610a8e91610a77565b6109d5565b90565b610a9d610aa29161010b565b6109d5565b90565b90600190610ac5610abf610ab8856109b9565b80936109bd565b936109c6565b5f92610c2f575b6001610ad9575b50505090565b5490808310610c0d575b808310610beb575b808310610bc9575b808310610ba7575b808310610b85575b808310610b63575b808310610b41575b8210610b20575b80610ad3565b82610b3860019394610b33602094610a91565b6102f9565b0191015f610b1a565b9192602081610b5a600193610b5586610a7d565b6102f9565b01930191610b13565b9192602081610b7c600193610b7786610a63565b6102f9565b01930191610b0b565b9192602081610b9e600193610b9986610a49565b6102f9565b01930191610b03565b9192602081610bc0600193610bbb86610a2f565b6102f9565b01930191610afb565b9192602081610be2600193610bdd86610a15565b6102f9565b01930191610af3565b9192602081610c04600193610bff866109fb565b6102f9565b01930191610aeb565b9192602081610c26600193610c21866109e1565b6102f9565b01930191610ae3565b5b81600160080384011015610acc579260016020610ce3610ce8600894838080808080808f5497610c6881610c638b6109e1565b6102f9565b01610c7b81610c768a6109fb565b6102f9565b01610c8e81610c8989610a15565b6102f9565b01610ca181610c9c88610a2f565b6102f9565b01610cb481610caf87610a49565b6102f9565b01610cc781610cc286610a63565b6102f9565b01610cda81610cd585610a7d565b6102f9565b01928391610a91565b6102f9565b019401920191610c30565b90610cfd91610aa5565b90565b90610d20610d1992610d10610111565b93848092610cf3565b0383610863565b565b610d2b90610d00565b90565b6002610d6a610d7192610d3f6109b4565b50610d6481610d5e610d58610d535f6106d3565b61011f565b9161011f565b10610730565b5f610776565b5001610d22565b90565b606090565b634e487b7160e01b5f52602260045260245ffd5b9060016002830492168015610dad575b6020831014610da857565b610d79565b91607f1691610d9d565b60209181520190565b5f5260205f2090565b905f9291805490610de3610ddc83610d8d565b8094610db7565b916001811690815f14610e3a5750600114610dfe575b505050565b610e0b9192939450610dc0565b915f925b818410610e2257505001905f8080610df9565b60018160209295939554848601520191019290610e0f565b92949550505060ff19168252151560200201905f8080610df9565b90610e5f91610dc9565b90565b90610e82610e7b92610e72610111565b93848092610e55565b0383610863565b565b610e8d90610e62565b90565b5f610ecb610ed292610ea0610d74565b50610ec581610ebf610eb9610eb4876106d3565b61011f565b9161011f565b10610730565b82610776565b5001610e84565b90565b6001610f11610f1892610ee66106ce565b50610f0b81610f05610eff610efa5f6106d3565b61011f565b9161011f565b10610730565b5f610776565b50016108ae565b90565b610f23610900565b50610f2d5f6106d3565b90565b5f90565b60ff1690565b610f46610f4b916107b4565b610f34565b90565b610f589054610f3a565b90565b600c610f97610f9e92610f6c610f30565b50610f9181610f8b610f85610f805f6106d3565b61011f565b9161011f565b10610730565b5f610776565b5001610f4e565b90565b5f90565b60ff1690565b610fb7610fbc916107b4565b610fa5565b90565b610fc99054610fab565b90565b600761100861100f92610fdd610fa1565b5061100281610ffc610ff6610ff15f6106d3565b61011f565b9161011f565b10610730565b5f610776565b5001610fbf565b90565b600661104e61105592611023610900565b506110488161104261103c6110375f6106d3565b61011f565b9161011f565b10610730565b5f610776565b500161091b565b90565b600861109461109b92611069610900565b5061108e8161108861108261107d5f6106d3565b61011f565b9161011f565b10610730565b5f610776565b500161091b565b90565b60046110da6110e1926110af610900565b506110d4816110ce6110c86110c35f6106d3565b61011f565b9161011f565b10610730565b5f610776565b500161091b565b90565b600b611120611127926110f56106ce565b5061111a8161111461110e6111095f6106d3565b61011f565b9161011f565b10610730565b5f610776565b50016108ae565b90565b60081c90565b61113c6111419161112a565b610fa5565b90565b61114e9054611130565b90565b600761118d61119492611162610fa1565b506111878161118161117b6111765f6106d3565b61011f565b9161011f565b10610730565b5f610776565b5001611144565b90565b60036111d36111da926111a8610900565b506111cd816111c76111c16111bc5f6106d3565b61011f565b9161011f565b10610730565b5f610776565b500161091b565b9056fea2646970667358221220b51b1fdb5ccb1f7afa7790acd4de54318c31b9dbf32044362a4f79a1bd4149f264736f6c634300081f0033","linkReferences":{}},"methodIdentifiers":{"getPresetCount()":"87e31445","presetAllowlist(uint256)":"00954afc","presetDenylist(uint256)":"d976f2a7","presetFunctionSelectors(uint256)":"44b0a581","presetMaxValue(uint256)":"d030236d","presetMaxValueDailyUsd(uint256)":"0c67c94e","presetMaxValuePerTxUsd(uint256)":"c8bf0188","presetMinValue(uint256)":"e7c49d81","presetName(uint256)":"5e1b5d75","presetRequireErc7730(uint256)":"e1129163","presetRequireVerified(uint256)":"a997680a","presetRiskWeight(uint256)":"a2b8c23e","presetTargetAddresses(uint256)":"6f905af1","presetTimeWindowEnd(uint256)":"c4186e06","presetTimeWindowStart(uint256)":"0ad350c2"},"id":27}