{"abi":[{"type":"constructor","inputs":[],"stateMutability":"nonpayable"},{"type":"function","name":"getPresetCount","inputs":[],"outputs":[{"name":"","type":"uint256","internalType":"uint256"}],"stateMutability":"view"},{"type":"function","name":"presetAllowlist","inputs":[{"name":"_id","type":"uint256","internalType":"uint256"}],"outputs":[{"name":"","type":"address[]","internalType":"address[]"}],"stateMutability":"view"},{"type":"function","name":"presetDenylist","inputs":[{"name":"_id","type":"uint256","internalType":"uint256"}],"outputs":[{"name":"","type":"address[]","internalType":"address[]"}],"stateMutability":"view"},{"type":"function","name":"presetFunctionSelectors","inputs":[{"name":"_id","type":"uint256","internalType":"uint256"}],"outputs":[{"name":"","type":"bytes4[]","internalType":"bytes4[]"}],"stateMutability":"view"},{"type":"function","name":"presetMaxValue","inputs":[{"name":"_id","type":"uint256","internalType":"uint256"}],"outputs":[{"name":"","type":"uint256","internalType":"uint256"}],"stateMutability":"view"},{"type":"function","name":"presetMaxValueDailyUsd","inputs":[{"name":"_id","type":"uint256","internalType":"uint256"}],"outputs":[{"name":"","type":"uint256","internalType":"uint256"}],"stateMutability":"view"},{"type":"function","name":"presetMaxValuePerTxUsd","inputs":[{"name":"_id","type":"uint256","internalType":"uint256"}],"outputs":[{"name":"","type":"uint256","internalType":"uint256"}],"stateMutability":"view"},{"type":"function","name":"presetMinValue","inputs":[{"name":"_id","type":"uint256","internalType":"uint256"}],"outputs":[{"name":"","type":"uint256","internalType":"uint256"}],"stateMutability":"view"},{"type":"function","name":"presetName","inputs":[{"name":"_id","type":"uint256","internalType":"uint256"}],"outputs":[{"name":"","type":"string","internalType":"string"}],"stateMutability":"view"},{"type":"function","name":"presetRequireErc7730","inputs":[{"name":"_id","type":"uint256","internalType":"uint256"}],"outputs":[{"name":"","type":"bool","internalType":"bool"}],"stateMutability":"view"},{"type":"function","name":"presetRequireVerified","inputs":[{"name":"_id","type":"uint256","internalType":"uint256"}],"outputs":[{"name":"","type":"bool","internalType":"bool"}],"stateMutability":"view"},{"type":"function","name":"presetRiskWeight","inputs":[{"name":"_id","type":"uint256","internalType":"uint256"}],"outputs":[{"name":"","type":"uint8","internalType":"uint8"}],"stateMutability":"view"},{"type":"function","name":"presetTargetAddresses","inputs":[{"name":"_id","type":"uint256","internalType":"uint256"}],"outputs":[{"name":"","type":"address[]","internalType":"address[]"}],"stateMutability":"view"},{"type":"function","name":"presetTimeWindowEnd","inputs":[{"name":"_id","type":"uint256","internalType":"uint256"}],"outputs":[{"name":"","type":"uint256","internalType":"uint256"}],"stateMutability":"view"},{"type":"function","name":"presetTimeWindowStart","inputs":[{"name":"_id","type":"uint256","internalType":"uint256"}],"outputs":[{"name":"","type":"uint256","internalType":"uint256"}],"stateMutability":"view"}],"bytecode":{"object":"0x608060405234801562000010575f80fd5b505f604051806101c001604052806040518060400160405280601281526020017f4c6f772d56616c7565205472616e73666572000000000000000000000000000081525081526020015f67ffffffffffffffff81111562000076576200007562000f93565b5b604051908082528060200260200182016040528015620000a55781602001602082028036833780820191505090505b5081526020015f67ffffffffffffffff811115620000c857620000c762000f93565b5b604051908082528060200260200182016040528015620000f75781602001602082028036833780820191505090505b5081526020015f81526020017fffffffffffffffffffffffffffffffffffffffffffffffffffffffffffffffff81526020015f81526020017fffffffffffffffffffffffffffffffffffffffffffffffffffffffffffffffff81526020015f151581526020015f15158152602001683635c9adc5dea00000815260200169021e19e0c9bab240000081526020015f67ffffffffffffffff811115620001a157620001a062000f93565b5b604051908082528060200260200182016040528015620001d05781602001602082028036833780820191505090505b5081526020015f67ffffffffffffffff811115620001f357620001f262000f93565b5b604051908082528060200260200182016040528015620002225781602001602082028036833780820191505090505b508152602001600260ff16815250908060018154018082558091505060019003905f5260205f2090600d02015f909190919091505f820151815f0190816200026b9190620011f7565b5060208201518160010190805190602001906200028a92919062000e39565b506040820151816002019080519060200190620002a992919062000ec5565b50606082015181600301556080820151816004015560a0820151816005015560c0820151816006015560e0820151816007015f6101000a81548160ff0219169083151502179055506101008201518160070160016101000a81548160ff0219169083151502179055506101208201518160080155610140820151816009015561016082015181600a0190805190602001906200034792919062000e39565b5061018082015181600b0190805190602001906200036792919062000e39565b506101a082015181600c015f6101000a81548160ff021916908360ff16021790555050505f604051806101c001604052806040518060400160405280601381526020017f486967682d56616c7565205472616e736665720000000000000000000000000081525081526020015f67ffffffffffffffff811115620003f057620003ef62000f93565b5b6040519080825280602002602001820160405280156200041f5781602001602082028036833780820191505090505b5081526020015f67ffffffffffffffff81111562000442576200044162000f93565b5b604051908082528060200260200182016040528015620004715781602001602082028036833780820191505090505b508152602001683635c9adc5dea0000081526020017fffffffffffffffffffffffffffffffffffffffffffffffffffffffffffffffff81526020015f81526020017fffffffffffffffffffffffffffffffffffffffffffffffffffffffffffffffff81526020015f151581526020015f15158152602001690a968163f0a57b400000815260200169152d02c7e14af680000081526020015f67ffffffffffffffff81111562000525576200052462000f93565b5b604051908082528060200260200182016040528015620005545781602001602082028036833780820191505090505b5081526020015f67ffffffffffffffff81111562000577576200057662000f93565b5b604051908082528060200260200182016040528015620005a65781602001602082028036833780820191505090505b508152602001600560ff16815250908060018154018082558091505060019003905f5260205f2090600d02015f909190919091505f820151815f019081620005ef9190620011f7565b5060208201518160010190805190602001906200060e92919062000e39565b5060408201518160020190805190602001906200062d92919062000ec5565b50606082015181600301556080820151816004015560a0820151816005015560c0820151816006015560e0820151816007015f6101000a81548160ff0219169083151502179055506101008201518160070160016101000a81548160ff0219169083151502179055506101208201518160080155610140820151816009015561016082015181600a019080519060200190620006cb92919062000e39565b5061018082015181600b019080519060200190620006eb92919062000e39565b506101a082015181600c015f6101000a81548160ff021916908360ff16021790555050505f604051806101c001604052806040518060400160405280601381526020017f5472656173757279204d616e6167656d656e740000000000000000000000000081525081526020015f67ffffffffffffffff81111562000774576200077362000f93565b5b604051908082528060200260200182016040528015620007a35781602001602082028036833780820191505090505b5081526020015f67ffffffffffffffff811115620007c657620007c562000f93565b5b604051908082528060200260200182016040528015620007f55781602001602082028036833780820191505090505b5081526020015f81526020017fffffffffffffffffffffffffffffffffffffffffffffffffffffffffffffffff81526020015f81526020017fffffffffffffffffffffffffffffffffffffffffffffffffffffffffffffffff81526020016001151581526020016001151581526020017fffffffffffffffffffffffffffffffffffffffffffffffffffffffffffffffff81526020017fffffffffffffffffffffffffffffffffffffffffffffffffffffffffffffffff81526020015f67ffffffffffffffff811115620008ce57620008cd62000f93565b5b604051908082528060200260200182016040528015620008fd5781602001602082028036833780820191505090505b5081526020015f67ffffffffffffffff81111562000920576200091f62000f93565b5b6040519080825280602002602001820160405280156200094f5781602001602082028036833780820191505090505b508152602001600960ff16815250908060018154018082558091505060019003905f5260205f2090600d02015f909190919091505f820151815f019081620009989190620011f7565b506020820151816001019080519060200190620009b792919062000e39565b506040820151816002019080519060200190620009d692919062000ec5565b50606082015181600301556080820151816004015560a0820151816005015560c0820151816006015560e0820151816007015f6101000a81548160ff0219169083151502179055506101008201518160070160016101000a81548160ff0219169083151502179055506101208201518160080155610140820151816009015561016082015181600a01908051906020019062000a7492919062000e39565b5061018082015181600b01908051906020019062000a9492919062000e39565b506101a082015181600c015f6101000a81548160ff021916908360ff16021790555050505f604051806101c001604052806040518060400160405280601081526020017f4465466920496e746572616374696f6e0000000000000000000000000000000081525081526020015f67ffffffffffffffff81111562000b1d5762000b1c62000f93565b5b60405190808252806020026020018201604052801562000b4c5781602001602082028036833780820191505090505b5081526020015f67ffffffffffffffff81111562000b6f5762000b6e62000f93565b5b60405190808252806020026020018201604052801562000b9e5781602001602082028036833780820191505090505b5081526020015f81526020017fffffffffffffffffffffffffffffffffffffffffffffffffffffffffffffffff81526020015f81526020017fffffffffffffffffffffffffffffffffffffffffffffffffffffffffffffffff81526020015f151581526020015f1515815260200169054b40b1f852bda0000081526020016934f086f3b33b6840000081526020015f67ffffffffffffffff81111562000c495762000c4862000f93565b5b60405190808252806020026020018201604052801562000c785781602001602082028036833780820191505090505b5081526020015f67ffffffffffffffff81111562000c9b5762000c9a62000f93565b5b60405190808252806020026020018201604052801562000cca5781602001602082028036833780820191505090505b508152602001600660ff16815250908060018154018082558091505060019003905f5260205f2090600d02015f909190919091505f820151815f01908162000d139190620011f7565b50602082015181600101908051906020019062000d3292919062000e39565b50604082015181600201908051906020019062000d5192919062000ec5565b50606082015181600301556080820151816004015560a0820151816005015560c0820151816006015560e0820151816007015f6101000a81548160ff0219169083151502179055506101008201518160070160016101000a81548160ff0219169083151502179055506101208201518160080155610140820151816009015561016082015181600a01908051906020019062000def92919062000e39565b5061018082015181600b01908051906020019062000e0f92919062000e39565b506101a082015181600c015f6101000a81548160ff021916908360ff1602179055505050620012db565b828054828255905f5260205f2090810192821562000eb2579160200282015b8281111562000eb1578251825f6101000a81548173ffffffffffffffffffffffffffffffffffffffff021916908373ffffffffffffffffffffffffffffffffffffffff1602179055509160200191906001019062000e58565b5b50905062000ec1919062000f76565b5090565b828054828255905f5260205f209060070160089004810192821562000f63579160200282015f5b8382111562000f2f57835183826101000a81548163ffffffff021916908360e01c0217905550926020019260040160208160030104928301926001030262000eec565b801562000f615782816101000a81549063ffffffff021916905560040160208160030104928301926001030262000f2f565b505b50905062000f72919062000f76565b5090565b5b8082111562000f8f575f815f90555060010162000f77565b5090565b7f4e487b71000000000000000000000000000000000000000000000000000000005f52604160045260245ffd5b5f81519050919050565b7f4e487b71000000000000000000000000000000000000000000000000000000005f52602260045260245ffd5b5f60028204905060018216806200100f57607f821691505b60208210810362001025576200102462000fca565b5b50919050565b5f819050815f5260205f209050919050565b5f6020601f8301049050919050565b5f82821b905092915050565b5f60088302620010897fffffffffffffffffffffffffffffffffffffffffffffffffffffffffffffffff826200104c565b6200109586836200104c565b95508019841693508086168417925050509392505050565b5f819050919050565b5f819050919050565b5f620010df620010d9620010d384620010ad565b620010b6565b620010ad565b9050919050565b5f819050919050565b620010fa83620010bf565b620011126200110982620010e6565b84845462001058565b825550505050565b5f90565b620011286200111a565b62001135818484620010ef565b505050565b5b818110156200115c57620011505f826200111e565b6001810190506200113b565b5050565b601f821115620011ab5762001175816200102b565b62001180846200103d565b8101602085101562001190578190505b620011a86200119f856200103d565b8301826200113a565b50505b505050565b5f82821c905092915050565b5f620011cd5f1984600802620011b0565b1980831691505092915050565b5f620011e78383620011bc565b9150826002028217905092915050565b620012028262000fc0565b67ffffffffffffffff8111156200121e576200121d62000f93565b5b6200122a825462000ff7565b6200123782828562001160565b5f60209050601f8311600181146200126d575f841562001258578287015190505b620012648582620011da565b865550620012d3565b601f1984166200127d866200102b565b5f5b82811015620012a6578489015182556001820191506020850194506020810190506200127f565b86831015620012c65784890151620012c2601f891682620011bc565b8355505b6001600288020188555050505b505050505050565b61117880620012e95f395ff3fe608060405234801561000f575f80fd5b50600436106100f2575f3560e01c8063a2b8c23e11610095578063d030236d11610064578063d030236d146102f4578063d976f2a714610324578063e112916314610354578063e7c49d8114610384576100f2565b8063a2b8c23e14610234578063a997680a14610264578063c4186e0614610294578063c8bf0188146102c4576100f2565b806344b0a581116100d157806344b0a581146101865780635e1b5d75146101b65780636f905af1146101e657806387e3144514610216576100f2565b8062954afc146100f65780630ad350c2146101265780630c67c94e14610156575b5f80fd5b610110600480360381019061010b9190610ce3565b6103b4565b60405161011d9190610df5565b60405180910390f35b610140600480360381019061013b9190610ce3565b6104a7565b60405161014d9190610e24565b60405180910390f35b610170600480360381019061016b9190610ce3565b610518565b60405161017d9190610e24565b60405180910390f35b6101a0600480360381019061019b9190610ce3565b610589565b6040516101ad9190610f1f565b60405180910390f35b6101d060048036038101906101cb9190610ce3565b610688565b6040516101dd9190610fc9565b60405180910390f35b61020060048036038101906101fb9190610ce3565b61077f565b60405161020d9190610df5565b60405180910390f35b61021e610872565b60405161022b9190610e24565b60405180910390f35b61024e60048036038101906102499190610ce3565b61087d565b60405161025b9190611004565b60405180910390f35b61027e60048036038101906102799190610ce3565b6108fa565b60405161028b9190611037565b60405180910390f35b6102ae60048036038101906102a99190610ce3565b610977565b6040516102bb9190610e24565b60405180910390f35b6102de60048036038101906102d99190610ce3565b6109e8565b6040516102eb9190610e24565b60405180910390f35b61030e60048036038101906103099190610ce3565b610a59565b60405161031b9190610e24565b60405180910390f35b61033e60048036038101906103399190610ce3565b610aca565b60405161034b9190610df5565b60405180910390f35b61036e60048036038101906103699190610ce3565b610bbd565b60405161037b9190611037565b60405180910390f35b61039e60048036038101906103999190610ce3565b610c3b565b6040516103ab9190610e24565b60405180910390f35b60605f8054905082106103fc576040517f08c379a00000000000000000000000000000000000000000000000000000000081526004016103f39061109a565b60405180910390fd5b5f828154811061040f5761040e6110b8565b5b905f5260205f2090600d0201600a0180548060200260200160405190810160405280929190818152602001828054801561049b57602002820191905f5260205f20905b815f9054906101000a900473ffffffffffffffffffffffffffffffffffffffff1673ffffffffffffffffffffffffffffffffffffffff1681526020019060010190808311610452575b50505050509050919050565b5f808054905082106104ee576040517f08c379a00000000000000000000000000000000000000000000000000000000081526004016104e59061109a565b60405180910390fd5b5f8281548110610501576105006110b8565b5b905f5260205f2090600d0201600501549050919050565b5f8080549050821061055f576040517f08c379a00000000000000000000000000000000000000000000000000000000081526004016105569061109a565b60405180910390fd5b5f8281548110610572576105716110b8565b5b905f5260205f2090600d0201600901549050919050565b60605f8054905082106105d1576040517f08c379a00000000000000000000000000000000000000000000000000000000081526004016105c89061109a565b60405180910390fd5b5f82815481106105e4576105e36110b8565b5b905f5260205f2090600d020160020180548060200260200160405190810160405280929190818152602001828054801561067c57602002820191905f5260205f20905f905b82829054906101000a900460e01b7bffffffffffffffffffffffffffffffffffffffffffffffffffffffff1916815260200190600401906020826003010492830192600103820291508084116106295790505b50505050509050919050565b60605f8054905082106106d0576040517f08c379a00000000000000000000000000000000000000000000000000000000081526004016106c79061109a565b60405180910390fd5b5f82815481106106e3576106e26110b8565b5b905f5260205f2090600d02015f0180546106fc90611112565b80601f016020809104026020016040519081016040528092919081815260200182805461072890611112565b80156107735780601f1061074a57610100808354040283529160200191610773565b820191905f5260205f20905b81548152906001019060200180831161075657829003601f168201915b50505050509050919050565b60605f8054905082106107c7576040517f08c379a00000000000000000000000000000000000000000000000000000000081526004016107be9061109a565b60405180910390fd5b5f82815481106107da576107d96110b8565b5b905f5260205f2090600d020160010180548060200260200160405190810160405280929190818152602001828054801561086657602002820191905f5260205f20905b815f9054906101000a900473ffffffffffffffffffffffffffffffffffffffff1673ffffffffffffffffffffffffffffffffffffffff168152602001906001019080831161081d575b50505050509050919050565b5f8080549050905090565b5f808054905082106108c4576040517f08c379a00000000000000000000000000000000000000000000000000000000081526004016108bb9061109a565b60405180910390fd5b5f82815481106108d7576108d66110b8565b5b905f5260205f2090600d0201600c015f9054906101000a900460ff169050919050565b5f80805490508210610941576040517f08c379a00000000000000000000000000000000000000000000000000000000081526004016109389061109a565b60405180910390fd5b5f8281548110610954576109536110b8565b5b905f5260205f2090600d02016007015f9054906101000a900460ff169050919050565b5f808054905082106109be576040517f08c379a00000000000000000000000000000000000000000000000000000000081526004016109b59061109a565b60405180910390fd5b5f82815481106109d1576109d06110b8565b5b905f5260205f2090600d0201600601549050919050565b5f80805490508210610a2f576040517f08c379a0000000000000000000000000000000000000000000000000000000008152600401610a269061109a565b60405180910390fd5b5f8281548110610a4257610a416110b8565b5b905f5260205f2090600d0201600801549050919050565b5f80805490508210610aa0576040517f08c379a0000000000000000000000000000000000000000000000000000000008152600401610a979061109a565b60405180910390fd5b5f8281548110610ab357610ab26110b8565b5b905f5260205f2090600d0201600401549050919050565b60605f805490508210610b12576040517f08c379a0000000000000000000000000000000000000000000000000000000008152600401610b099061109a565b60405180910390fd5b5f8281548110610b2557610b246110b8565b5b905f5260205f2090600d0201600b01805480602002602001604051908101604052809291908181526020018280548015610bb157602002820191905f5260205f20905b815f9054906101000a900473ffffffffffffffffffffffffffffffffffffffff1673ffffffffffffffffffffffffffffffffffffffff1681526020019060010190808311610b68575b50505050509050919050565b5f80805490508210610c04576040517f08c379a0000000000000000000000000000000000000000000000000000000008152600401610bfb9061109a565b60405180910390fd5b5f8281548110610c1757610c166110b8565b5b905f5260205f2090600d020160070160019054906101000a900460ff169050919050565b5f80805490508210610c82576040517f08c379a0000000000000000000000000000000000000000000000000000000008152600401610c799061109a565b60405180910390fd5b5f8281548110610c9557610c946110b8565b5b905f5260205f2090600d0201600301549050919050565b5f80fd5b5f819050919050565b610cc281610cb0565b8114610ccc575f80fd5b50565b5f81359050610cdd81610cb9565b92915050565b5f60208284031215610cf857610cf7610cac565b5b5f610d0584828501610ccf565b91505092915050565b5f81519050919050565b5f82825260208201905092915050565b5f819050602082019050919050565b5f73ffffffffffffffffffffffffffffffffffffffff82169050919050565b5f610d6082610d37565b9050919050565b610d7081610d56565b82525050565b5f610d818383610d67565b60208301905092915050565b5f602082019050919050565b5f610da382610d0e565b610dad8185610d18565b9350610db883610d28565b805f5b83811015610de8578151610dcf8882610d76565b9750610dda83610d8d565b925050600181019050610dbb565b5085935050505092915050565b5f6020820190508181035f830152610e0d8184610d99565b905092915050565b610e1e81610cb0565b82525050565b5f602082019050610e375f830184610e15565b92915050565b5f81519050919050565b5f82825260208201905092915050565b5f819050602082019050919050565b5f7fffffffff0000000000000000000000000000000000000000000000000000000082169050919050565b610e9a81610e66565b82525050565b5f610eab8383610e91565b60208301905092915050565b5f602082019050919050565b5f610ecd82610e3d565b610ed78185610e47565b9350610ee283610e57565b805f5b83811015610f12578151610ef98882610ea0565b9750610f0483610eb7565b925050600181019050610ee5565b5085935050505092915050565b5f6020820190508181035f830152610f378184610ec3565b905092915050565b5f81519050919050565b5f82825260208201905092915050565b5f5b83811015610f76578082015181840152602081019050610f5b565b5f8484015250505050565b5f601f19601f8301169050919050565b5f610f9b82610f3f565b610fa58185610f49565b9350610fb5818560208601610f59565b610fbe81610f81565b840191505092915050565b5f6020820190508181035f830152610fe18184610f91565b905092915050565b5f60ff82169050919050565b610ffe81610fe9565b82525050565b5f6020820190506110175f830184610ff5565b92915050565b5f8115159050919050565b6110318161101d565b82525050565b5f60208201905061104a5f830184611028565b92915050565b7f507265736574206e6f7420666f756e64000000000000000000000000000000005f82015250565b5f611084601083610f49565b915061108f82611050565b602082019050919050565b5f6020820190508181035f8301526110b181611078565b9050919050565b7f4e487b71000000000000000000000000000000000000000000000000000000005f52603260045260245ffd5b7f4e487b71000000000000000000000000000000000000000000000000000000005f52602260045260245ffd5b5f600282049050600182168061112957607f821691505b60208210810361113c5761113b6110e5565b5b5091905056fea2646970667358221220d3369a18b79b60a01e58580148d71cc98e5e998084b5180930b0e447d8eef6fa64736f6c63430008140033","linkReferences":{}},"methodIdentifiers":{"getPresetCount()":"87e31445","presetAllowlist(uint256)":"00954afc","presetDenylist(uint256)":"d976f2a7","presetFunctionSelectors(uint256)":"44b0a581","presetMaxValue(uint256)":"d030236d","presetMaxValueDailyUsd(uint256)":"0c67c94e","presetMaxValuePerTxUsd(uint256)":"c8bf0188","presetMinValue(uint256)":"e7c49d81","presetName(uint256)":"5e1b5d75","presetRequireErc7730(uint256)":"e1129163","presetRequireVerified(uint256)":"a997680a","presetRiskWeight(uint256)":"a2b8c23e","presetTargetAddresses(uint256)":"6f905af1","presetTimeWindowEnd(uint256)":"c4186e06","presetTimeWindowStart(uint256)":"0ad350c2"},"id":26}