{"abi":[{"type":"constructor","inputs":[{"name":"_walletSingleton","type":"address","internalType":"address"},{"name":"_teeExtensionRegistry","type":"address","internalType":"address"},{"name":"_presetPolicyRegistry","type":"address","internalType":"address"}],"stateMutability":"nonpayable"},{"type":"function","name":"createWallet","inputs":[{"name":"_signers","type":"address[]","internalType":"address[]"},{"name":"_presetPolicyIds","type":"uint256[]","internalType":"uint256[]"}],"outputs":[{"name":"","type":"tuple","internalType":"struct WalletFactory.WalletDeployment","components":[{"name":"wallet","type":"address","internalType":"address"},{"name":"governance","type":"address","internalType":"address"},{"name":"policyRegistry","type":"address","internalType":"address"},{"name":"auditLog","type":"address","internalType":"address"}]}],"stateMutability":"nonpayable"},{"type":"function","name":"createWalletNoPresets","inputs":[{"name":"_signers","type":"address[]","internalType":"address[]"}],"outputs":[{"name":"","type":"tuple","internalType":"struct WalletFactory.WalletDeployment","components":[{"name":"wallet","type":"address","internalType":"address"},{"name":"governance","type":"address","internalType":"address"},{"name":"policyRegistry","type":"address","internalType":"address"},{"name":"auditLog","type":"address","internalType":"address"}]}],"stateMutability":"nonpayable"},{"type":"function","name":"presetPolicyRegistry","inputs":[],"outputs":[{"name":"","type":"address","internalType":"address"}],"stateMutability":"view"},{"type":"function","name":"teeExtensionRegistry","inputs":[],"outputs":[{"name":"","type":"address","internalType":"address"}],"stateMutability":"view"},{"type":"function","name":"walletSingleton","inputs":[],"outputs":[{"name":"","type":"address","internalType":"address"}],"stateMutability":"view"},{"type":"event","name":"WalletCreated","inputs":[{"name":"wallet","type":"address","indexed":true,"internalType":"address"},{"name":"governance","type":"address","indexed":true,"internalType":"address"},{"name":"policyRegistry","type":"address","indexed":false,"internalType":"address"},{"name":"auditLog","type":"address","indexed":false,"internalType":"address"},{"name":"signers","type":"address[]","indexed":false,"internalType":"address[]"}],"anonymous":false}],"bytecode":{"object":"0x60e060405234801562000010575f80fd5b506040516200a1803803806200a180833981810160405281019062000036919062000140565b8273ffffffffffffffffffffffffffffffffffffffff1660808173ffffffffffffffffffffffffffffffffffffffff16815250508173ffffffffffffffffffffffffffffffffffffffff1660a08173ffffffffffffffffffffffffffffffffffffffff16815250508073ffffffffffffffffffffffffffffffffffffffff1660c08173ffffffffffffffffffffffffffffffffffffffff168152505050505062000199565b5f80fd5b5f73ffffffffffffffffffffffffffffffffffffffff82169050919050565b5f6200010a82620000df565b9050919050565b6200011c81620000fe565b811462000127575f80fd5b50565b5f815190506200013a8162000111565b92915050565b5f805f606084860312156200015a5762000159620000db565b5b5f62000169868287016200012a565b93505060206200017c868287016200012a565b92505060406200018f868287016200012a565b9150509250925092565b60805160a05160c051619fa7620001d95f395f8181610134015261041b01525f818161037e01526105fd01525f818161033401526106210152619fa75ff3fe608060405234801562000010575f80fd5b50600436106200005c575f3560e01c8063081c84791462000060578063675be7531462000082578063844332f514620000b8578063a435d58a14620000ee578063f4491b9e1462000110575b5f80fd5b6200006a62000132565b60405162000079919062000800565b60405180910390f35b620000a060048036038101906200009a919062000896565b62000156565b604051620000af919062000955565b60405180910390f35b620000d66004803603810190620000d09190620009ce565b6200023b565b604051620000e5919062000955565b60405180910390f35b620000f8620005fb565b60405162000107919062000800565b60405180910390f35b6200011a6200061f565b60405162000129919062000800565b60405180910390f35b7f000000000000000000000000000000000000000000000000000000000000000081565b6200016062000717565b5f8067ffffffffffffffff8111156200017e576200017d62000a59565b5b604051908082528060200260200182016040528015620001ad5781602001602082028036833780820191505090505b5090503073ffffffffffffffffffffffffffffffffffffffff1663844332f58585846040518463ffffffff1660e01b8152600401620001ef9392919062000c42565b6080604051808303815f875af11580156200020c573d5f803e3d5ffd5b505050506040513d601f19601f8201168201806040525081019062000232919062000d7d565b91505092915050565b6200024562000717565b5f85859050116200028d576040517f08c379a0000000000000000000000000000000000000000000000000000000008152600401620002849062000e0b565b60405180910390fd5b5f85856040516200029e9062000793565b620002ab92919062000e2b565b604051809103905ff080158015620002c5573d5f803e3d5ffd5b5090505f81604051620002d890620007a1565b620002e4919062000800565b604051809103905ff080158015620002fe573d5f803e3d5ffd5b5090505f6040516200031090620007af565b604051809103905ff0801580156200032a573d5f803e3d5ffd5b5090505f620003597f000000000000000000000000000000000000000000000000000000000000000062000643565b90505f8190508073ffffffffffffffffffffffffffffffffffffffff1663c0c53b8b847f0000000000000000000000000000000000000000000000000000000000000000886040518463ffffffff1660e01b8152600401620003be9392919062000e4f565b5f604051808303815f87803b158015620003d6575f80fd5b505af1158015620003e9573d5f803e3d5ffd5b505050505f888890501115620004a4578373ffffffffffffffffffffffffffffffffffffffff1663bf2d0f5e89898d8d7f00000000000000000000000000000000000000000000000000000000000000006040518663ffffffff1660e01b81526004016200045c95949392919062000ef9565b5f604051808303815f875af115801562000478573d5f803e3d5ffd5b505050506040513d5f823e3d601f19601f82011682018060405250810190620004a2919062001048565b505b8373ffffffffffffffffffffffffffffffffffffffff1663a5a2f05e6040518163ffffffff1660e01b81526004015f604051808303815f87803b158015620004ea575f80fd5b505af1158015620004fd573d5f803e3d5ffd5b505050505f60405180608001604052808473ffffffffffffffffffffffffffffffffffffffff1681526020018773ffffffffffffffffffffffffffffffffffffffff1681526020018673ffffffffffffffffffffffffffffffffffffffff1681526020018573ffffffffffffffffffffffffffffffffffffffff1681525090508573ffffffffffffffffffffffffffffffffffffffff168373ffffffffffffffffffffffffffffffffffffffff167f8afb8a529e7ca59256172278d3c172516ed229e214e3321fc4ade7f2f7d68d2f87878f8f604051620005e2949392919062001097565b60405180910390a3809650505050505050949350505050565b7f000000000000000000000000000000000000000000000000000000000000000081565b7f000000000000000000000000000000000000000000000000000000000000000081565b5f6040517f3d602d80600a3d3981f3363d3d373d3d3d363d7300000000000000000000000081528260601b60148201527f5af43d82803e903d91602b57fd5bf3000000000000000000000000000000000060288201526037815ff09150505f73ffffffffffffffffffffffffffffffffffffffff168173ffffffffffffffffffffffffffffffffffffffff160362000712576040517f08c379a0000000000000000000000000000000000000000000000000000000008152600401620007099062001129565b60405180910390fd5b919050565b60405180608001604052805f73ffffffffffffffffffffffffffffffffffffffff1681526020015f73ffffffffffffffffffffffffffffffffffffffff1681526020015f73ffffffffffffffffffffffffffffffffffffffff1681526020015f73ffffffffffffffffffffffffffffffffffffffff1681525090565b612215806200114a83390190565b61537b806200335f83390190565b61189880620086da83390190565b5f73ffffffffffffffffffffffffffffffffffffffff82169050919050565b5f620007e882620007bd565b9050919050565b620007fa81620007dc565b82525050565b5f602082019050620008155f830184620007ef565b92915050565b5f604051905090565b5f80fd5b5f80fd5b5f80fd5b5f80fd5b5f80fd5b5f8083601f84011262000850576200084f6200082c565b5b8235905067ffffffffffffffff81111562000870576200086f62000830565b5b6020830191508360208202830111156200088f576200088e62000834565b5b9250929050565b5f8060208385031215620008af57620008ae62000824565b5b5f83013567ffffffffffffffff811115620008cf57620008ce62000828565b5b620008dd8582860162000838565b92509250509250929050565b620008f481620007dc565b82525050565b608082015f820151620009105f850182620008e9565b506020820151620009256020850182620008e9565b5060408201516200093a6040850182620008e9565b5060608201516200094f6060850182620008e9565b50505050565b5f6080820190506200096a5f830184620008fa565b92915050565b5f8083601f8401126200098857620009876200082c565b5b8235905067ffffffffffffffff811115620009a857620009a762000830565b5b602083019150836020820283011115620009c757620009c662000834565b5b9250929050565b5f805f8060408587031215620009e957620009e862000824565b5b5f85013567ffffffffffffffff81111562000a095762000a0862000828565b5b62000a178782880162000838565b9450945050602085013567ffffffffffffffff81111562000a3d5762000a3c62000828565b5b62000a4b8782880162000970565b925092505092959194509250565b7f4e487b71000000000000000000000000000000000000000000000000000000005f52604160045260245ffd5b5f82825260208201905092915050565b5f819050919050565b5f62000aac8383620008e9565b60208301905092915050565b62000ac381620007dc565b811462000ace575f80fd5b50565b5f8135905062000ae18162000ab8565b92915050565b5f62000af7602084018462000ad1565b905092915050565b5f602082019050919050565b5f62000b18838562000a86565b935062000b258262000a96565b805f5b8581101562000b655762000b3d828462000ae7565b62000b49888262000a9f565b975062000b568362000aff565b92505060018101905062000b28565b5085925050509392505050565b5f81519050919050565b5f82825260208201905092915050565b5f819050602082019050919050565b5f819050919050565b62000baf8162000b9b565b82525050565b5f62000bc2838362000ba4565b60208301905092915050565b5f602082019050919050565b5f62000be68262000b72565b62000bf2818562000b7c565b935062000bff8362000b8c565b805f5b8381101562000c3557815162000c19888262000bb5565b975062000c268362000bce565b92505060018101905062000c02565b5085935050505092915050565b5f6040820190508181035f83015262000c5d81858762000b0b565b9050818103602083015262000c73818462000bda565b9050949350505050565b5f80fd5b5f601f19601f8301169050919050565b62000c9c8262000c81565b810181811067ffffffffffffffff8211171562000cbe5762000cbd62000a59565b5b80604052505050565b5f62000cd26200081b565b905062000ce0828262000c91565b919050565b5f8151905062000cf58162000ab8565b92915050565b5f6080828403121562000d135762000d1262000c7d565b5b62000d1f608062000cc7565b90505f62000d308482850162000ce5565b5f83015250602062000d458482850162000ce5565b602083015250604062000d5b8482850162000ce5565b604083015250606062000d718482850162000ce5565b60608301525092915050565b5f6080828403121562000d955762000d9462000824565b5b5f62000da48482850162000cfb565b91505092915050565b5f82825260208201905092915050565b7f4e656564207369676e65727300000000000000000000000000000000000000005f82015250565b5f62000df3600c8362000dad565b915062000e008262000dbd565b602082019050919050565b5f6020820190508181035f83015262000e248162000de5565b9050919050565b5f6020820190508181035f83015262000e4681848662000b0b565b90509392505050565b5f60608201905062000e645f830186620007ef565b62000e736020830185620007ef565b62000e826040830184620007ef565b949350505050565b5f80fd5b82818337505050565b5f62000ea4838562000b7c565b93507f07ffffffffffffffffffffffffffffffffffffffffffffffffffffffffffffff83111562000eda5762000ed962000e8a565b5b60208302925062000eed83858462000e8e565b82840190509392505050565b5f6060820190508181035f83015262000f1481878962000e97565b9050818103602083015262000f2b81858762000b0b565b905062000f3c6040830184620007ef565b9695505050505050565b5f67ffffffffffffffff82111562000f635762000f6262000a59565b5b602082029050602081019050919050565b62000f7f8162000b9b565b811462000f8a575f80fd5b50565b5f8151905062000f9d8162000f74565b92915050565b5f62000fb962000fb38462000f46565b62000cc7565b9050808382526020820190506020840283018581111562000fdf5762000fde62000834565b5b835b818110156200100c578062000ff7888262000f8d565b84526020840193505060208101905062000fe1565b5050509392505050565b5f82601f8301126200102d576200102c6200082c565b5b81516200103f84826020860162000fa3565b91505092915050565b5f6020828403121562001060576200105f62000824565b5b5f82015167ffffffffffffffff81111562001080576200107f62000828565b5b6200108e8482850162001016565b91505092915050565b5f606082019050620010ac5f830187620007ef565b620010bb6020830186620007ef565b8181036040830152620010d081848662000b0b565b905095945050505050565b7f455243313136373a20637265617465206661696c6564000000000000000000005f82015250565b5f6200111160168362000dad565b91506200111e82620010db565b602082019050919050565b5f6020820190508181035f830152620011428162001103565b905091905056fe608060405234801562000010575f80fd5b5060405162002215380380620022158339818101604052810190620000369190620004a9565b5f8151116200007c576040517f08c379a0000000000000000000000000000000000000000000000000000000008152600401620000739062000556565b60405180910390fd5b5f5b8151811015620002c3575f73ffffffffffffffffffffffffffffffffffffffff16828281518110620000b557620000b462000576565b5b602002602001015173ffffffffffffffffffffffffffffffffffffffff160362000116576040517f08c379a00000000000000000000000000000000000000000000000000000000081526004016200010d90620005f1565b60405180910390fd5b60015f8383815181106200012f576200012e62000576565b5b602002602001015173ffffffffffffffffffffffffffffffffffffffff1673ffffffffffffffffffffffffffffffffffffffff1681526020019081526020015f205f9054906101000a900460ff1615620001c0576040517f08c379a0000000000000000000000000000000000000000000000000000000008152600401620001b7906200065f565b60405180910390fd5b5f828281518110620001d757620001d662000576565b5b6020026020010151908060018154018082558091505060019003905f5260205f20015f9091909190916101000a81548173ffffffffffffffffffffffffffffffffffffffff021916908373ffffffffffffffffffffffffffffffffffffffff1602179055506001805f84848151811062000256576200025562000576565b5b602002602001015173ffffffffffffffffffffffffffffffffffffffff1673ffffffffffffffffffffffffffffffffffffffff1681526020019081526020015f205f6101000a81548160ff0219169083151502179055508080620002ba90620006b5565b9150506200007e565b505062000701565b5f604051905090565b5f80fd5b5f80fd5b5f80fd5b5f601f19601f8301169050919050565b7f4e487b71000000000000000000000000000000000000000000000000000000005f52604160045260245ffd5b6200032882620002e0565b810181811067ffffffffffffffff821117156200034a5762000349620002f0565b5b80604052505050565b5f6200035e620002cb565b90506200036c82826200031d565b919050565b5f67ffffffffffffffff8211156200038e576200038d620002f0565b5b602082029050602081019050919050565b5f80fd5b5f73ffffffffffffffffffffffffffffffffffffffff82169050919050565b5f620003ce82620003a3565b9050919050565b620003e081620003c2565b8114620003eb575f80fd5b50565b5f81519050620003fe81620003d5565b92915050565b5f6200041a620004148462000371565b62000353565b9050808382526020820190506020840283018581111562000440576200043f6200039f565b5b835b818110156200046d5780620004588882620003ee565b84526020840193505060208101905062000442565b5050509392505050565b5f82601f8301126200048e576200048d620002dc565b5b8151620004a084826020860162000404565b91505092915050565b5f60208284031215620004c157620004c0620002d4565b5b5f82015167ffffffffffffffff811115620004e157620004e0620002d8565b5b620004ef8482850162000477565b91505092915050565b5f82825260208201905092915050565b7f4e656564207369676e65727300000000000000000000000000000000000000005f82015250565b5f6200053e600c83620004f8565b91506200054b8262000508565b602082019050919050565b5f6020820190508181035f8301526200056f8162000530565b9050919050565b7f4e487b71000000000000000000000000000000000000000000000000000000005f52603260045260245ffd5b7f5a65726f206164647265737300000000000000000000000000000000000000005f82015250565b5f620005d9600c83620004f8565b9150620005e682620005a3565b602082019050919050565b5f6020820190508181035f8301526200060a81620005cb565b9050919050565b7f4475706c6963617465207369676e6572000000000000000000000000000000005f82015250565b5f62000647601083620004f8565b9150620006548262000611565b602082019050919050565b5f6020820190508181035f830152620006788162000639565b9050919050565b7f4e487b71000000000000000000000000000000000000000000000000000000005f52601160045260245ffd5b5f819050919050565b5f620006c182620006ac565b91507fffffffffffffffffffffffffffffffffffffffffffffffffffffffffffffffff8203620006f657620006f56200067f565b5b600182019050919050565b611b06806200070f5f395ff3fe608060405234801561000f575f80fd5b50600436106100a7575f3560e01c806394cf795e1161006f57806394cf795e146101a1578063b715be81146101bf578063b759f954146101dd578063c7f758a8146101f9578063da35c66414610229578063fe0d94c114610247576100a7565b8063013cf08b146100ab5780632079fb9a146100e15780632358d5a8146101115780633153fedb146101415780637df73e2714610171575b5f80fd5b6100c560048036038101906100c09190610d33565b610263565b6040516100d89796959493929190610ea2565b60405180910390f35b6100fb60048036038101906100f69190610d33565b6103d8565b6040516101089190610f1d565b60405180910390f35b61012b60048036038101906101269190610f60565b610412565b6040516101389190610f9e565b60405180910390f35b61015b6004803603810190610156919061106d565b61043c565b60405161016891906110fe565b60405180910390f35b61018b60048036038101906101869190611117565b6105ea565b6040516101989190610f9e565b60405180910390f35b6101a9610607565b6040516101b691906111f9565b60405180910390f35b6101c7610691565b6040516101d491906110fe565b60405180910390f35b6101f760048036038101906101f29190610d33565b61069c565b005b610213600480360381019061020e9190610d33565b6108a4565b6040516102209190611367565b60405180910390f35b610231610a7b565b60405161023e91906110fe565b60405180910390f35b610261600480360381019061025c9190610d33565b610a81565b005b6003602052805f5260405f205f91509050805f015490806001015f9054906101000a900473ffffffffffffffffffffffffffffffffffffffff16908060020180546102ad906113b4565b80601f01602080910402602001604051908101604052809291908181526020018280546102d9906113b4565b80156103245780601f106102fb57610100808354040283529160200191610324565b820191905f5260205f20905b81548152906001019060200180831161030757829003601f168201915b505050505090806003018054610339906113b4565b80601f0160208091040260200160405190810160405280929190818152602001828054610365906113b4565b80156103b05780601f10610387576101008083540402835291602001916103b0565b820191905f5260205f20905b81548152906001019060200180831161039357829003601f168201915b505050505090806004015490806005015f9054906101000a900460ff16908060060154905087565b5f81815481106103e6575f80fd5b905f5260205f20015f915054906101000a900473ffffffffffffffffffffffffffffffffffffffff1681565b6004602052815f5260405f20602052805f5260405f205f915091509054906101000a900460ff1681565b5f60015f3373ffffffffffffffffffffffffffffffffffffffff1673ffffffffffffffffffffffffffffffffffffffff1681526020019081526020015f205f9054906101000a900460ff166104c6576040517f08c379a00000000000000000000000000000000000000000000000000000000081526004016104bd9061142e565b60405180910390fd5b5f60025f8154809291906104d990611479565b9190505590505f60035f8381526020019081526020015f20905081815f018190555087816001015f6101000a81548173ffffffffffffffffffffffffffffffffffffffff021916908373ffffffffffffffffffffffffffffffffffffffff1602179055508686826002019182610550929190611694565b5084848260030191826105649291906117c3565b5060018160040181905550438160060181905550600160045f8481526020019081526020015f205f3373ffffffffffffffffffffffffffffffffffffffff1673ffffffffffffffffffffffffffffffffffffffff1681526020019081526020015f205f6101000a81548160ff021916908315150217905550819250505095945050505050565b6001602052805f5260405f205f915054906101000a900460ff1681565b60605f80548060200260200160405190810160405280929190818152602001828054801561068757602002820191905f5260205f20905b815f9054906101000a900473ffffffffffffffffffffffffffffffffffffffff1673ffffffffffffffffffffffffffffffffffffffff168152602001906001019080831161063e575b5050505050905090565b5f8080549050905090565b60015f3373ffffffffffffffffffffffffffffffffffffffff1673ffffffffffffffffffffffffffffffffffffffff1681526020019081526020015f205f9054906101000a900460ff16610725576040517f08c379a000000000000000000000000000000000000000000000000000000000815260040161071c9061142e565b60405180910390fd5b5f60035f8381526020019081526020015f209050806005015f9054906101000a900460ff161561078a576040517f08c379a0000000000000000000000000000000000000000000000000000000008152600401610781906118da565b60405180910390fd5b60045f8381526020019081526020015f205f3373ffffffffffffffffffffffffffffffffffffffff1673ffffffffffffffffffffffffffffffffffffffff1681526020019081526020015f205f9054906101000a900460ff1615610823576040517f08c379a000000000000000000000000000000000000000000000000000000000815260040161081a90611942565b60405180910390fd5b600160045f8481526020019081526020015f205f3373ffffffffffffffffffffffffffffffffffffffff1673ffffffffffffffffffffffffffffffffffffffff1681526020019081526020015f205f6101000a81548160ff021916908315150217905550806004015f81548092919061089b90611479565b91905055505050565b6108ac610ca8565b60035f8381526020019081526020015f206040518060e00160405290815f8201548152602001600182015f9054906101000a900473ffffffffffffffffffffffffffffffffffffffff1673ffffffffffffffffffffffffffffffffffffffff1673ffffffffffffffffffffffffffffffffffffffff168152602001600282018054610936906113b4565b80601f0160208091040260200160405190810160405280929190818152602001828054610962906113b4565b80156109ad5780601f10610984576101008083540402835291602001916109ad565b820191905f5260205f20905b81548152906001019060200180831161099057829003601f168201915b505050505081526020016003820180546109c6906113b4565b80601f01602080910402602001604051908101604052809291908181526020018280546109f2906113b4565b8015610a3d5780601f10610a1457610100808354040283529160200191610a3d565b820191905f5260205f20905b815481529060010190602001808311610a2057829003601f168201915b5050505050815260200160048201548152602001600582015f9054906101000a900460ff161515151581526020016006820154815250509050919050565b60025481565b60015f3373ffffffffffffffffffffffffffffffffffffffff1673ffffffffffffffffffffffffffffffffffffffff1681526020019081526020015f205f9054906101000a900460ff16610b0a576040517f08c379a0000000000000000000000000000000000000000000000000000000008152600401610b019061142e565b60405180910390fd5b5f60035f8381526020019081526020015f209050806005015f9054906101000a900460ff1615610b6f576040517f08c379a0000000000000000000000000000000000000000000000000000000008152600401610b66906118da565b60405180910390fd5b5f80549050816004015414610bb9576040517f08c379a0000000000000000000000000000000000000000000000000000000008152600401610bb0906119aa565b60405180910390fd5b6001816005015f6101000a81548160ff0219169083151502179055505f816001015f9054906101000a900473ffffffffffffffffffffffffffffffffffffffff1673ffffffffffffffffffffffffffffffffffffffff1682600201604051610c219190611a52565b5f604051808303815f865af19150503d805f8114610c5a576040519150601f19603f3d011682016040523d82523d5f602084013e610c5f565b606091505b5050905080610ca3576040517f08c379a0000000000000000000000000000000000000000000000000000000008152600401610c9a90611ab2565b60405180910390fd5b505050565b6040518060e001604052805f81526020015f73ffffffffffffffffffffffffffffffffffffffff16815260200160608152602001606081526020015f81526020015f151581526020015f81525090565b5f80fd5b5f80fd5b5f819050919050565b610d1281610d00565b8114610d1c575f80fd5b50565b5f81359050610d2d81610d09565b92915050565b5f60208284031215610d4857610d47610cf8565b5b5f610d5584828501610d1f565b91505092915050565b610d6781610d00565b82525050565b5f73ffffffffffffffffffffffffffffffffffffffff82169050919050565b5f610d9682610d6d565b9050919050565b610da681610d8c565b82525050565b5f81519050919050565b5f82825260208201905092915050565b5f5b83811015610de3578082015181840152602081019050610dc8565b5f8484015250505050565b5f601f19601f8301169050919050565b5f610e0882610dac565b610e128185610db6565b9350610e22818560208601610dc6565b610e2b81610dee565b840191505092915050565b5f81519050919050565b5f82825260208201905092915050565b5f610e5a82610e36565b610e648185610e40565b9350610e74818560208601610dc6565b610e7d81610dee565b840191505092915050565b5f8115159050919050565b610e9c81610e88565b82525050565b5f60e082019050610eb55f83018a610d5e565b610ec26020830189610d9d565b8181036040830152610ed48188610dfe565b90508181036060830152610ee88187610e50565b9050610ef76080830186610d5e565b610f0460a0830185610e93565b610f1160c0830184610d5e565b98975050505050505050565b5f602082019050610f305f830184610d9d565b92915050565b610f3f81610d8c565b8114610f49575f80fd5b50565b5f81359050610f5a81610f36565b92915050565b5f8060408385031215610f7657610f75610cf8565b5b5f610f8385828601610d1f565b9250506020610f9485828601610f4c565b9150509250929050565b5f602082019050610fb15f830184610e93565b92915050565b5f80fd5b5f80fd5b5f80fd5b5f8083601f840112610fd857610fd7610fb7565b5b8235905067ffffffffffffffff811115610ff557610ff4610fbb565b5b60208301915083600182028301111561101157611010610fbf565b5b9250929050565b5f8083601f84011261102d5761102c610fb7565b5b8235905067ffffffffffffffff81111561104a57611049610fbb565b5b60208301915083600182028301111561106657611065610fbf565b5b9250929050565b5f805f805f6060868803121561108657611085610cf8565b5b5f61109388828901610f4c565b955050602086013567ffffffffffffffff8111156110b4576110b3610cfc565b5b6110c088828901610fc3565b9450945050604086013567ffffffffffffffff8111156110e3576110e2610cfc565b5b6110ef88828901611018565b92509250509295509295909350565b5f6020820190506111115f830184610d5e565b92915050565b5f6020828403121561112c5761112b610cf8565b5b5f61113984828501610f4c565b91505092915050565b5f81519050919050565b5f82825260208201905092915050565b5f819050602082019050919050565b61117481610d8c565b82525050565b5f611185838361116b565b60208301905092915050565b5f602082019050919050565b5f6111a782611142565b6111b1818561114c565b93506111bc8361115c565b805f5b838110156111ec5781516111d3888261117a565b97506111de83611191565b9250506001810190506111bf565b5085935050505092915050565b5f6020820190508181035f830152611211818461119d565b905092915050565b61122281610d00565b82525050565b5f82825260208201905092915050565b5f61124282610dac565b61124c8185611228565b935061125c818560208601610dc6565b61126581610dee565b840191505092915050565b5f82825260208201905092915050565b5f61128a82610e36565b6112948185611270565b93506112a4818560208601610dc6565b6112ad81610dee565b840191505092915050565b6112c181610e88565b82525050565b5f60e083015f8301516112dc5f860182611219565b5060208301516112ef602086018261116b565b50604083015184820360408601526113078282611238565b915050606083015184820360608601526113218282611280565b91505060808301516113366080860182611219565b5060a083015161134960a08601826112b8565b5060c083015161135c60c0860182611219565b508091505092915050565b5f6020820190508181035f83015261137f81846112c7565b905092915050565b7f4e487b71000000000000000000000000000000000000000000000000000000005f52602260045260245ffd5b5f60028204905060018216806113cb57607f821691505b6020821081036113de576113dd611387565b5b50919050565b7f4e6f742061207369676e657200000000000000000000000000000000000000005f82015250565b5f611418600c83610e40565b9150611423826113e4565b602082019050919050565b5f6020820190508181035f8301526114458161140c565b9050919050565b7f4e487b71000000000000000000000000000000000000000000000000000000005f52601160045260245ffd5b5f61148382610d00565b91507fffffffffffffffffffffffffffffffffffffffffffffffffffffffffffffffff82036114b5576114b461144c565b5b600182019050919050565b5f82905092915050565b7f4e487b71000000000000000000000000000000000000000000000000000000005f52604160045260245ffd5b5f819050815f5260205f209050919050565b5f6020601f8301049050919050565b5f82821b905092915050565b5f600883026115537fffffffffffffffffffffffffffffffffffffffffffffffffffffffffffffffff82611518565b61155d8683611518565b95508019841693508086168417925050509392505050565b5f819050919050565b5f61159861159361158e84610d00565b611575565b610d00565b9050919050565b5f819050919050565b6115b18361157e565b6115c56115bd8261159f565b848454611524565b825550505050565b5f90565b6115d96115cd565b6115e48184846115a8565b505050565b5b81811015611607576115fc5f826115d1565b6001810190506115ea565b5050565b601f82111561164c5761161d816114f7565b61162684611509565b81016020851015611635578190505b61164961164185611509565b8301826115e9565b50505b505050565b5f82821c905092915050565b5f61166c5f1984600802611651565b1980831691505092915050565b5f611684838361165d565b9150826002028217905092915050565b61169e83836114c0565b67ffffffffffffffff8111156116b7576116b66114ca565b5b6116c182546113b4565b6116cc82828561160b565b5f601f8311600181146116f9575f84156116e7578287013590505b6116f18582611679565b865550611758565b601f198416611707866114f7565b5f5b8281101561172e57848901358255600182019150602085019450602081019050611709565b8683101561174b5784890135611747601f89168261165d565b8355505b6001600288020188555050505b50505050505050565b5f82905092915050565b5f819050815f5260205f209050919050565b601f8211156117be5761178f8161176b565b61179884611509565b810160208510156117a7578190505b6117bb6117b385611509565b8301826115e9565b50505b505050565b6117cd8383611761565b67ffffffffffffffff8111156117e6576117e56114ca565b5b6117f082546113b4565b6117fb82828561177d565b5f601f831160018114611828575f8415611816578287013590505b6118208582611679565b865550611887565b601f1984166118368661176b565b5f5b8281101561185d57848901358255600182019150602085019450602081019050611838565b8683101561187a5784890135611876601f89168261165d565b8355505b6001600288020188555050505b50505050505050565b7f416c7265616479206578656375746564000000000000000000000000000000005f82015250565b5f6118c4601083610e40565b91506118cf82611890565b602082019050919050565b5f6020820190508181035f8301526118f1816118b8565b9050919050565b7f416c726561647920617070726f766564000000000000000000000000000000005f82015250565b5f61192c601083610e40565b9150611937826118f8565b602082019050919050565b5f6020820190508181035f83015261195981611920565b9050919050565b7f4e6f7420616c6c207369676e65727320617070726f76656400000000000000005f82015250565b5f611994601883610e40565b915061199f82611960565b602082019050919050565b5f6020820190508181035f8301526119c181611988565b9050919050565b5f81905092915050565b5f81546119de816113b4565b6119e881866119c8565b9450600182165f8114611a025760018114611a1757611a49565b60ff1983168652811515820286019350611a49565b611a20856114f7565b5f5b83811015611a4157815481890152600182019150602081019050611a22565b838801955050505b50505092915050565b5f611a5d82846119d2565b915081905092915050565b7f457865637574696f6e206661696c6564000000000000000000000000000000005f82015250565b5f611a9c601083610e40565b9150611aa782611a68565b602082019050919050565b5f6020820190508181035f830152611ac981611a90565b905091905056fea26469706673582212205e83db4ec81164a73609a1fbf648dcffbdb9f4a110460f84548b31d6ae78cebf64736f6c63430008140033608060405234801562000010575f80fd5b506040516200537b3803806200537b833981810160405281019062000036919062000121565b805f806101000a81548173ffffffffffffffffffffffffffffffffffffffff021916908373ffffffffffffffffffffffffffffffffffffffff1602179055503360015f6101000a81548173ffffffffffffffffffffffffffffffffffffffff021916908373ffffffffffffffffffffffffffffffffffffffff1602179055505062000151565b5f80fd5b5f73ffffffffffffffffffffffffffffffffffffffff82169050919050565b5f620000eb82620000c0565b9050919050565b620000fd81620000df565b811462000108575f80fd5b50565b5f815190506200011b81620000f2565b92915050565b5f60208284031215620001395762000138620000bc565b5b5f62000148848285016200010b565b91505092915050565b61521c806200015f5f395ff3fe608060405234801561000f575f80fd5b50600436106100fe575f3560e01c8063c76ed48a11610095578063e2c0af4411610064578063e2c0af44146102c7578063e59771d2146102e3578063eb4a464514610301578063edf743fe1461031d576100fe565b8063c76ed48a14610224578063cad0b8db14610254578063cde0072414610272578063d3e8948314610290576100fe565b8063a1c5cf66116100d1578063a1c5cf661461019e578063a5a2f05e146101ba578063b41112c7146101c4578063bf2d0f5e146101f4576100fe565b806317a1f828146101025780632b07fce3146101205780637e94eab9146101505780639b26784e1461016e575b5f80fd5b61010a61033b565b6040516101179190613144565b60405180910390f35b61013a6004803603810190610135919061319f565b6108f3565b60405161014791906132a1565b60405180910390f35b610158610d6c565b60405161016591906132d0565b60405180910390f35b6101886004803603810190610183919061319f565b610d91565b6040516101959190613350565b60405180910390f35b6101b860048036038101906101b3919061319f565b610f84565b005b6101c2611104565b005b6101de60048036038101906101d99190613491565b61122b565b6040516101eb919061358f565b60405180910390f35b61020e60048036038101906102099190613627565b6113d9565b60405161021b9190613760565b60405180910390f35b61023e6004803603810190610239919061319f565b6115da565b60405161024b91906137ec565b60405180910390f35b61025c611715565b604051610269919061358f565b60405180910390f35b61027a61171b565b604051610287919061381b565b60405180910390f35b6102aa60048036038101906102a5919061319f565b61172e565b6040516102be98979695949392919061393f565b60405180910390f35b6102e160048036038101906102dc91906139d0565b611adb565b005b6102eb611dca565b6040516102f8919061358f565b60405180910390f35b61031b6004803603810190610316919061319f565b611dd6565b005b610325611f55565b60405161033291906132d0565b60405180910390f35b60605f805b6002805490508110156103a4576002818154811061036157610360613ad2565b5b905f5260205f2090601202016002015f9054906101000a900460ff161561039157818061038d90613b2c565b9250505b808061039c90613b2c565b915050610340565b505f8167ffffffffffffffff8111156103c0576103bf613b73565b5b6040519080825280602002602001820160405280156103f957816020015b6103e661294d565b8152602001906001900390816103de5790505b5090505f805b6002805490508110156108e957600281815481106104205761041f613ad2565b5b905f5260205f2090601202016002015f9054906101000a900460ff16156108d6576002818154811061045557610454613ad2565b5b905f5260205f209060120201604051806101200160405290815f820154815260200160018201805461048690613bcd565b80601f01602080910402602001604051908101604052809291908181526020018280546104b290613bcd565b80156104fd5780601f106104d4576101008083540402835291602001916104fd565b820191905f5260205f20905b8154815290600101906020018083116104e057829003601f168201915b50505050508152602001600282015f9054906101000a900460ff1615151515815260200160038201604051806101000160405290815f82018054806020026020016040519081016040528092919081815260200182805480156105b257602002820191905f5260205f20905b815f9054906101000a900473ffffffffffffffffffffffffffffffffffffffff1673ffffffffffffffffffffffffffffffffffffffff1681526020019060010190808311610569575b505050505081526020016001820180548060200260200160405190810160405280929190818152602001828054801561064957602002820191905f5260205f20905f905b82829054906101000a900460e01b7bffffffffffffffffffffffffffffffffffffffffffffffffffffffff1916815260200190600401906020826003010492830192600103820291508084116105f65790505b5050505050815260200160028201548152602001600382015481526020016004820154815260200160058201548152602001600682015f9054906101000a900460ff161515151581526020016006820160019054906101000a900460ff1615151515815250508152602001600a82016040518060800160405290815f8201548152602001600182015481526020016002820180548060200260200160405190810160405280929190818152602001828054801561075857602002820191905f5260205f20905b815f9054906101000a900473ffffffffffffffffffffffffffffffffffffffff1673ffffffffffffffffffffffffffffffffffffffff168152602001906001019080831161070f575b50505050508152602001600382018054806020026020016040519081016040528092919081815260200182805480156107e357602002820191905f5260205f20905b815f9054906101000a900473ffffffffffffffffffffffffffffffffffffffff1673ffffffffffffffffffffffffffffffffffffffff168152602001906001019080831161079a575b5050505050815250508152602001600e820180548060200260200160405190810160405280929190818152602001828054801561087257602002820191905f5260205f20905b815f9054906101000a900473ffffffffffffffffffffffffffffffffffffffff1673ffffffffffffffffffffffffffffffffffffffff1681526020019060010190808311610829575b50505050508152602001600f82015f9054906101000a900460ff1660ff1660ff168152602001601082015481526020016011820154815250508383806108b790613b2c565b9450815181106108ca576108c9613ad2565b5b60200260200101819052505b80806108e190613b2c565b9150506103ff565b5081935050505090565b6108fb61294d565b6002828154811061090f5761090e613ad2565b5b905f5260205f209060120201604051806101200160405290815f820154815260200160018201805461094090613bcd565b80601f016020809104026020016040519081016040528092919081815260200182805461096c90613bcd565b80156109b75780601f1061098e576101008083540402835291602001916109b7565b820191905f5260205f20905b81548152906001019060200180831161099a57829003601f168201915b50505050508152602001600282015f9054906101000a900460ff1615151515815260200160038201604051806101000160405290815f8201805480602002602001604051908101604052809291908181526020018280548015610a6c57602002820191905f5260205f20905b815f9054906101000a900473ffffffffffffffffffffffffffffffffffffffff1673ffffffffffffffffffffffffffffffffffffffff1681526020019060010190808311610a23575b5050505050815260200160018201805480602002602001604051908101604052809291908181526020018280548015610b0357602002820191905f5260205f20905f905b82829054906101000a900460e01b7bffffffffffffffffffffffffffffffffffffffffffffffffffffffff191681526020019060040190602082600301049283019260010382029150808411610ab05790505b5050505050815260200160028201548152602001600382015481526020016004820154815260200160058201548152602001600682015f9054906101000a900460ff161515151581526020016006820160019054906101000a900460ff1615151515815250508152602001600a82016040518060800160405290815f82015481526020016001820154815260200160028201805480602002602001604051908101604052809291908181526020018280548015610c1257602002820191905f5260205f20905b815f9054906101000a900473ffffffffffffffffffffffffffffffffffffffff1673ffffffffffffffffffffffffffffffffffffffff1681526020019060010190808311610bc9575b5050505050815260200160038201805480602002602001604051908101604052809291908181526020018280548015610c9d57602002820191905f5260205f20905b815f9054906101000a900473ffffffffffffffffffffffffffffffffffffffff1673ffffffffffffffffffffffffffffffffffffffff1681526020019060010190808311610c54575b5050505050815250508152602001600e8201805480602002602001604051908101604052809291908181526020018280548015610d2c57602002820191905f5260205f20905b815f9054906101000a900473ffffffffffffffffffffffffffffffffffffffff1673ffffffffffffffffffffffffffffffffffffffff1681526020019060010190808311610ce3575b50505050508152602001600f82015f9054906101000a900460ff1660ff1660ff168152602001601082015481526020016011820154815250509050919050565b60015f9054906101000a900473ffffffffffffffffffffffffffffffffffffffff1681565b610d996129a5565b5f5b600280549050811015610f43578260028281548110610dbd57610dbc613ad2565b5b905f5260205f2090601202015f015403610f305760028181548110610de557610de4613ad2565b5b905f5260205f209060120201600a016040518060800160405290815f82015481526020016001820154815260200160028201805480602002602001604051908101604052809291908181526020018280548015610e9457602002820191905f5260205f20905b815f9054906101000a900473ffffffffffffffffffffffffffffffffffffffff1673ffffffffffffffffffffffffffffffffffffffff1681526020019060010190808311610e4b575b5050505050815260200160038201805480602002602001604051908101604052809291908181526020018280548015610f1f57602002820191905f5260205f20905b815f9054906101000a900473ffffffffffffffffffffffffffffffffffffffff1673ffffffffffffffffffffffffffffffffffffffff1681526020019060010190808311610ed6575b505050505081525050915050610f7f565b8080610f3b90613b2c565b915050610d9b565b506040517f08c379a0000000000000000000000000000000000000000000000000000000008152600401610f7690613c47565b60405180910390fd5b919050565b5f8054906101000a900473ffffffffffffffffffffffffffffffffffffffff1673ffffffffffffffffffffffffffffffffffffffff163373ffffffffffffffffffffffffffffffffffffffff1614611011576040517f08c379a000000000000000000000000000000000000000000000000000000000815260040161100890613caf565b60405180910390fd5b5f5b6002805490508110156110c557816002828154811061103557611034613ad2565b5b905f5260205f2090601202015f0154036110b25760016002828154811061105f5761105e613ad2565b5b905f5260205f2090601202016002015f6101000a81548160ff021916908315150217905550436002828154811061109957611098613ad2565b5b905f5260205f2090601202016011018190555050611101565b80806110bd90613b2c565b915050611013565b506040517f08c379a00000000000000000000000000000000000000000000000000000000081526004016110f890613c47565b60405180910390fd5b50565b60015f9054906101000a900473ffffffffffffffffffffffffffffffffffffffff1673ffffffffffffffffffffffffffffffffffffffff163373ffffffffffffffffffffffffffffffffffffffff1614611193576040517f08c379a000000000000000000000000000000000000000000000000000000000815260040161118a90613d17565b60405180910390fd5b600160149054906101000a900460ff16156111e3576040517f08c379a00000000000000000000000000000000000000000000000000000000081526004016111da90613d7f565b60405180910390fd5b60018060146101000a81548160ff0219169083151502179055507f07342bbc2fa54fca88a6147bc8057a318f326325ca459c6419e674d5ac7e20ab60405160405180910390a1565b5f805f9054906101000a900473ffffffffffffffffffffffffffffffffffffffff1673ffffffffffffffffffffffffffffffffffffffff163373ffffffffffffffffffffffffffffffffffffffff1614806112eb5750600160149054906101000a900460ff161580156112ea575060015f9054906101000a900473ffffffffffffffffffffffffffffffffffffffff1673ffffffffffffffffffffffffffffffffffffffff163373ffffffffffffffffffffffffffffffffffffffff16145b5b61132a576040517f08c379a000000000000000000000000000000000000000000000000000000000815260040161132190613de7565b60405180910390fd5b6113cc88888080601f0160208091040260200160405190810160405280939291908181526020018383808284375f81840152601f19601f820116905080830192505050505050508761137b9061412b565b87611385906141ea565b8787808060200260200160405190810160405280939291908181526020018383602002808284375f81840152601f19601f8201169050808301925050505050505086611f78565b9050979650505050505050565b60605f8054906101000a900473ffffffffffffffffffffffffffffffffffffffff1673ffffffffffffffffffffffffffffffffffffffff163373ffffffffffffffffffffffffffffffffffffffff1614806114995750600160149054906101000a900460ff16158015611498575060015f9054906101000a900473ffffffffffffffffffffffffffffffffffffffff1673ffffffffffffffffffffffffffffffffffffffff163373ffffffffffffffffffffffffffffffffffffffff16145b5b6114d8576040517f08c379a00000000000000000000000000000000000000000000000000000000081526004016114cf90613de7565b60405180910390fd5b5f8686905090505f8167ffffffffffffffff8111156114fa576114f9613b73565b5b6040519080825280602002602001820160405280156115285781602001602082028036833780820191505090505b5090505f5b828110156115cb57611599858a8a8481811061154c5761154b613ad2565b5b905060200201358989808060200260200160405190810160405280939291908181526020018383602002808284375f81840152601f19601f8201169050808301925050505050505061223a565b8282815181106115ac576115ab613ad2565b5b60200260200101818152505080806115c390613b2c565b91505061152d565b50809250505095945050505050565b60605f5b6002805490508110156116d4578260028281548110611600576115ff613ad2565b5b905f5260205f2090601202015f0154036116c1576002818154811061162857611627613ad2565b5b905f5260205f209060120201600e018054806020026020016040519081016040528092919081815260200182805480156116b457602002820191905f5260205f20905b815f9054906101000a900473ffffffffffffffffffffffffffffffffffffffff1673ffffffffffffffffffffffffffffffffffffffff168152602001906001019080831161166b575b5050505050915050611710565b80806116cc90613b2c565b9150506115de565b506040517f08c379a000000000000000000000000000000000000000000000000000000000815260040161170790613c47565b60405180910390fd5b919050565b60035481565b600160149054906101000a900460ff1681565b6002818154811061173d575f80fd5b905f5260205f2090601202015f91509050805f01549080600101805461176290613bcd565b80601f016020809104026020016040519081016040528092919081815260200182805461178e90613bcd565b80156117d95780601f106117b0576101008083540402835291602001916117d9565b820191905f5260205f20905b8154815290600101906020018083116117bc57829003601f168201915b505050505090806002015f9054906101000a900460ff169080600301604051806101000160405290815f820180548060200260200160405190810160405280929190818152602001828054801561188257602002820191905f5260205f20905b815f9054906101000a900473ffffffffffffffffffffffffffffffffffffffff1673ffffffffffffffffffffffffffffffffffffffff1681526020019060010190808311611839575b505050505081526020016001820180548060200260200160405190810160405280929190818152602001828054801561191957602002820191905f5260205f20905f905b82829054906101000a900460e01b7bffffffffffffffffffffffffffffffffffffffffffffffffffffffff1916815260200190600401906020826003010492830192600103820291508084116118c65790505b5050505050815260200160028201548152602001600382015481526020016004820154815260200160058201548152602001600682015f9054906101000a900460ff161515151581526020016006820160019054906101000a900460ff1615151515815250509080600a016040518060800160405290815f82015481526020016001820154815260200160028201805480602002602001604051908101604052809291908181526020018280548015611a2457602002820191905f5260205f20905b815f9054906101000a900473ffffffffffffffffffffffffffffffffffffffff1673ffffffffffffffffffffffffffffffffffffffff16815260200190600101908083116119db575b5050505050815260200160038201805480602002602001604051908101604052809291908181526020018280548015611aaf57602002820191905f5260205f20905b815f9054906101000a900473ffffffffffffffffffffffffffffffffffffffff1673ffffffffffffffffffffffffffffffffffffffff1681526020019060010190808311611a66575b5050505050815250509080600f015f9054906101000a900460ff16908060100154908060110154905088565b5f8054906101000a900473ffffffffffffffffffffffffffffffffffffffff1673ffffffffffffffffffffffffffffffffffffffff163373ffffffffffffffffffffffffffffffffffffffff1614611b68576040517f08c379a0000000000000000000000000000000000000000000000000000000008152600401611b5f90613caf565b60405180910390fd5b5f8383905011611bad576040517f08c379a0000000000000000000000000000000000000000000000000000000008152600401611ba490614246565b60405180910390fd5b60018160ff1610158015611bc55750600a8160ff1611155b611c04576040517f08c379a0000000000000000000000000000000000000000000000000000000008152600401611bfb906142ae565b60405180910390fd5b5f5b600280549050811015611d84578860028281548110611c2857611c27613ad2565b5b905f5260205f2090601202015f015403611d7157878760028381548110611c5257611c51613ad2565b5b905f5260205f2090601202016001019182611c6e929190614473565b508560028281548110611c8457611c83613ad2565b5b905f5260205f2090601202016003018181611c9f9190614c9c565b9050508460028281548110611cb757611cb6613ad2565b5b905f5260205f209060120201600a018181611cd29190614d30565b905050838360028381548110611ceb57611cea613ad2565b5b905f5260205f209060120201600e019190611d079291906129cb565b508160028281548110611d1d57611d1c613ad2565b5b905f5260205f209060120201600f015f6101000a81548160ff021916908360ff1602179055504360028281548110611d5857611d57613ad2565b5b905f5260205f2090601202016011018190555050611dc0565b8080611d7c90613b2c565b915050611c06565b506040517f08c379a0000000000000000000000000000000000000000000000000000000008152600401611db790613c47565b60405180910390fd5b5050505050505050565b5f600280549050905090565b5f8054906101000a900473ffffffffffffffffffffffffffffffffffffffff1673ffffffffffffffffffffffffffffffffffffffff163373ffffffffffffffffffffffffffffffffffffffff1614611e63576040517f08c379a0000000000000000000000000000000000000000000000000000000008152600401611e5a90613caf565b60405180910390fd5b5f5b600280549050811015611f16578160028281548110611e8757611e86613ad2565b5b905f5260205f2090601202015f015403611f03575f60028281548110611eb057611eaf613ad2565b5b905f5260205f2090601202016002015f6101000a81548160ff0219169083151502179055504360028281548110611eea57611ee9613ad2565b5b905f5260205f2090601202016011018190555050611f52565b8080611f0e90613b2c565b915050611e65565b506040517f08c379a0000000000000000000000000000000000000000000000000000000008152600401611f4990613c47565b60405180910390fd5b50565b5f8054906101000a900473ffffffffffffffffffffffffffffffffffffffff1681565b5f80835111611fbc576040517f08c379a0000000000000000000000000000000000000000000000000000000008152600401611fb390614246565b60405180910390fd5b60018260ff1610158015611fd45750600a8260ff1611155b612013576040517f08c379a000000000000000000000000000000000000000000000000000000000815260040161200a906142ae565b60405180910390fd5b5f60035f81548092919061202690613b2c565b919050559050600260018160018154018082558091505003905f5260205f209050505f6002600160028054905061205d9190614d3e565b8154811061206e5761206d613ad2565b5b905f5260205f209060120201905081815f0181905550878160010190816120959190614d71565b506001816002015f6101000a81548160ff02191690831515021790555086816003015f820151815f0190805190602001906120d1929190612a68565b5060208201518160010190805190602001906120ee929190612aef565b5060408201518160020155606082015181600301556080820151816004015560a0820151816005015560c0820151816006015f6101000a81548160ff02191690831515021790555060e08201518160060160016101000a81548160ff0219169083151502179055509050508581600a015f820151815f015560208201518160010155604082015181600201908051906020019061218c929190612a68565b5060608201518160030190805190602001906121a9929190612a68565b509050508481600e0190805190602001906121c5929190612a68565b508381600f015f6101000a81548160ff021916908360ff160217905550438160100181905550438160110181905550817fc402f15c92cbb1b3436a267bb09e31f369812f7b8165bffecf926e020b895cf0896040516122249190614e40565b60405180910390a2819250505095945050505050565b5f808490505f6040518061010001604052808373ffffffffffffffffffffffffffffffffffffffff16636f905af1886040518263ffffffff1660e01b8152600401612285919061358f565b5f60405180830381865afa15801561229f573d5f803e3d5ffd5b505050506040513d5f823e3d601f19601f820116820180604052508101906122c79190614f09565b81526020018373ffffffffffffffffffffffffffffffffffffffff166344b0a581886040518263ffffffff1660e01b8152600401612305919061358f565b5f60405180830381865afa15801561231f573d5f803e3d5ffd5b505050506040513d5f823e3d601f19601f820116820180604052508101906123479190614ff9565b81526020018373ffffffffffffffffffffffffffffffffffffffff1663e7c49d81886040518263ffffffff1660e01b8152600401612385919061358f565b602060405180830381865afa1580156123a0573d5f803e3d5ffd5b505050506040513d601f19601f820116820180604052508101906123c49190615054565b81526020018373ffffffffffffffffffffffffffffffffffffffff1663d030236d886040518263ffffffff1660e01b8152600401612402919061358f565b602060405180830381865afa15801561241d573d5f803e3d5ffd5b505050506040513d601f19601f820116820180604052508101906124419190615054565b81526020018373ffffffffffffffffffffffffffffffffffffffff16630ad350c2886040518263ffffffff1660e01b815260040161247f919061358f565b602060405180830381865afa15801561249a573d5f803e3d5ffd5b505050506040513d601f19601f820116820180604052508101906124be9190615054565b81526020018373ffffffffffffffffffffffffffffffffffffffff1663c4186e06886040518263ffffffff1660e01b81526004016124fc919061358f565b602060405180830381865afa158015612517573d5f803e3d5ffd5b505050506040513d601f19601f8201168201806040525081019061253b9190615054565b81526020018373ffffffffffffffffffffffffffffffffffffffff1663a997680a886040518263ffffffff1660e01b8152600401612579919061358f565b602060405180830381865afa158015612594573d5f803e3d5ffd5b505050506040513d601f19601f820116820180604052508101906125b89190615093565b151581526020018373ffffffffffffffffffffffffffffffffffffffff1663e1129163886040518263ffffffff1660e01b81526004016125f8919061358f565b602060405180830381865afa158015612613573d5f803e3d5ffd5b505050506040513d601f19601f820116820180604052508101906126379190615093565b151581525090505f60405180608001604052808473ffffffffffffffffffffffffffffffffffffffff1663c8bf0188896040518263ffffffff1660e01b8152600401612683919061358f565b602060405180830381865afa15801561269e573d5f803e3d5ffd5b505050506040513d601f19601f820116820180604052508101906126c29190615054565b81526020018473ffffffffffffffffffffffffffffffffffffffff16630c67c94e896040518263ffffffff1660e01b8152600401612700919061358f565b602060405180830381865afa15801561271b573d5f803e3d5ffd5b505050506040513d601f19601f8201168201806040525081019061273f9190615054565b81526020018473ffffffffffffffffffffffffffffffffffffffff1662954afc896040518263ffffffff1660e01b815260040161277c919061358f565b5f60405180830381865afa158015612796573d5f803e3d5ffd5b505050506040513d5f823e3d601f19601f820116820180604052508101906127be9190614f09565b81526020018473ffffffffffffffffffffffffffffffffffffffff1663d976f2a7896040518263ffffffff1660e01b81526004016127fc919061358f565b5f60405180830381865afa158015612816573d5f803e3d5ffd5b505050506040513d5f823e3d601f19601f8201168201806040525081019061283e9190614f09565b81525090506129418373ffffffffffffffffffffffffffffffffffffffff16635e1b5d75886040518263ffffffff1660e01b815260040161287f919061358f565b5f60405180830381865afa158015612899573d5f803e3d5ffd5b505050506040513d5f823e3d601f19601f820116820180604052508101906128c19190615160565b8383888773ffffffffffffffffffffffffffffffffffffffff1663a2b8c23e8c6040518263ffffffff1660e01b81526004016128fd919061358f565b602060405180830381865afa158015612918573d5f803e3d5ffd5b505050506040513d601f19601f8201168201806040525081019061293c91906151bb565b611f78565b93505050509392505050565b6040518061012001604052805f8152602001606081526020015f15158152602001612976612b99565b81526020016129836129a5565b8152602001606081526020015f60ff1681526020015f81526020015f81525090565b60405180608001604052805f81526020015f815260200160608152602001606081525090565b828054828255905f5260205f20908101928215612a57579160200282015b82811115612a5657823573ffffffffffffffffffffffffffffffffffffffff16825f6101000a81548173ffffffffffffffffffffffffffffffffffffffff021916908373ffffffffffffffffffffffffffffffffffffffff160217905550916020019190600101906129e9565b5b509050612a649190612bdc565b5090565b828054828255905f5260205f20908101928215612ade579160200282015b82811115612add578251825f6101000a81548173ffffffffffffffffffffffffffffffffffffffff021916908373ffffffffffffffffffffffffffffffffffffffff16021790555091602001919060010190612a86565b5b509050612aeb9190612bdc565b5090565b828054828255905f5260205f2090600701600890048101928215612b88579160200282015f5b83821115612b5657835183826101000a81548163ffffffff021916908360e01c02179055509260200192600401602081600301049283019260010302612b15565b8015612b865782816101000a81549063ffffffff0219169055600401602081600301049283019260010302612b56565b505b509050612b959190612bdc565b5090565b60405180610100016040528060608152602001606081526020015f81526020015f81526020015f81526020015f81526020015f151581526020015f151581525090565b5b80821115612bf3575f815f905550600101612bdd565b5090565b5f81519050919050565b5f82825260208201905092915050565b5f819050602082019050919050565b5f819050919050565b612c3281612c20565b82525050565b5f81519050919050565b5f82825260208201905092915050565b5f5b83811015612c6f578082015181840152602081019050612c54565b5f8484015250505050565b5f601f19601f8301169050919050565b5f612c9482612c38565b612c9e8185612c42565b9350612cae818560208601612c52565b612cb781612c7a565b840191505092915050565b5f8115159050919050565b612cd681612cc2565b82525050565b5f81519050919050565b5f82825260208201905092915050565b5f819050602082019050919050565b5f73ffffffffffffffffffffffffffffffffffffffff82169050919050565b5f612d2e82612d05565b9050919050565b612d3e81612d24565b82525050565b5f612d4f8383612d35565b60208301905092915050565b5f602082019050919050565b5f612d7182612cdc565b612d7b8185612ce6565b9350612d8683612cf6565b805f5b83811015612db6578151612d9d8882612d44565b9750612da883612d5b565b925050600181019050612d89565b5085935050505092915050565b5f81519050919050565b5f82825260208201905092915050565b5f819050602082019050919050565b5f7fffffffff0000000000000000000000000000000000000000000000000000000082169050919050565b612e2081612dec565b82525050565b5f612e318383612e17565b60208301905092915050565b5f602082019050919050565b5f612e5382612dc3565b612e5d8185612dcd565b9350612e6883612ddd565b805f5b83811015612e98578151612e7f8882612e26565b9750612e8a83612e3d565b925050600181019050612e6b565b5085935050505092915050565b5f61010083015f8301518482035f860152612ec08282612d67565b91505060208301518482036020860152612eda8282612e49565b9150506040830151612eef6040860182612c29565b506060830151612f026060860182612c29565b506080830151612f156080860182612c29565b5060a0830151612f2860a0860182612c29565b5060c0830151612f3b60c0860182612ccd565b5060e0830151612f4e60e0860182612ccd565b508091505092915050565b5f608083015f830151612f6e5f860182612c29565b506020830151612f816020860182612c29565b5060408301518482036040860152612f998282612d67565b91505060608301518482036060860152612fb38282612d67565b9150508091505092915050565b5f60ff82169050919050565b612fd581612fc0565b82525050565b5f61012083015f830151612ff15f860182612c29565b50602083015184820360208601526130098282612c8a565b915050604083015161301e6040860182612ccd565b50606083015184820360608601526130368282612ea5565b915050608083015184820360808601526130508282612f59565b91505060a083015184820360a086015261306a8282612d67565b91505060c083015161307f60c0860182612fcc565b5060e083015161309260e0860182612c29565b506101008301516130a7610100860182612c29565b508091505092915050565b5f6130bd8383612fdb565b905092915050565b5f602082019050919050565b5f6130db82612bf7565b6130e58185612c01565b9350836020820285016130f785612c11565b805f5b85811015613132578484038952815161311385826130b2565b945061311e836130c5565b925060208a019950506001810190506130fa565b50829750879550505050505092915050565b5f6020820190508181035f83015261315c81846130d1565b905092915050565b5f604051905090565b5f80fd5b5f80fd5b61317e81612c20565b8114613188575f80fd5b50565b5f8135905061319981613175565b92915050565b5f602082840312156131b4576131b361316d565b5b5f6131c18482850161318b565b91505092915050565b5f61012083015f8301516131e05f860182612c29565b50602083015184820360208601526131f88282612c8a565b915050604083015161320d6040860182612ccd565b50606083015184820360608601526132258282612ea5565b9150506080830151848203608086015261323f8282612f59565b91505060a083015184820360a08601526132598282612d67565b91505060c083015161326e60c0860182612fcc565b5060e083015161328160e0860182612c29565b50610100830151613296610100860182612c29565b508091505092915050565b5f6020820190508181035f8301526132b981846131ca565b905092915050565b6132ca81612d24565b82525050565b5f6020820190506132e35f8301846132c1565b92915050565b5f608083015f8301516132fe5f860182612c29565b5060208301516133116020860182612c29565b50604083015184820360408601526133298282612d67565b915050606083015184820360608601526133438282612d67565b9150508091505092915050565b5f6020820190508181035f83015261336881846132e9565b905092915050565b5f80fd5b5f80fd5b5f80fd5b5f8083601f84011261339157613390613370565b5b8235905067ffffffffffffffff8111156133ae576133ad613374565b5b6020830191508360018202830111156133ca576133c9613378565b5b9250929050565b5f80fd5b5f61010082840312156133eb576133ea6133d1565b5b81905092915050565b5f60808284031215613409576134086133d1565b5b81905092915050565b5f8083601f84011261342757613426613370565b5b8235905067ffffffffffffffff81111561344457613443613374565b5b6020830191508360208202830111156134605761345f613378565b5b9250929050565b61347081612fc0565b811461347a575f80fd5b50565b5f8135905061348b81613467565b92915050565b5f805f805f805f60a0888a0312156134ac576134ab61316d565b5b5f88013567ffffffffffffffff8111156134c9576134c8613171565b5b6134d58a828b0161337c565b9750975050602088013567ffffffffffffffff8111156134f8576134f7613171565b5b6135048a828b016133d5565b955050604088013567ffffffffffffffff81111561352557613524613171565b5b6135318a828b016133f4565b945050606088013567ffffffffffffffff81111561355257613551613171565b5b61355e8a828b01613412565b935093505060806135718a828b0161347d565b91505092959891949750929550565b61358981612c20565b82525050565b5f6020820190506135a25f830184613580565b92915050565b5f8083601f8401126135bd576135bc613370565b5b8235905067ffffffffffffffff8111156135da576135d9613374565b5b6020830191508360208202830111156135f6576135f5613378565b5b9250929050565b61360681612d24565b8114613610575f80fd5b50565b5f81359050613621816135fd565b92915050565b5f805f805f606086880312156136405761363f61316d565b5b5f86013567ffffffffffffffff81111561365d5761365c613171565b5b613669888289016135a8565b9550955050602086013567ffffffffffffffff81111561368c5761368b613171565b5b61369888828901613412565b935093505060406136ab88828901613613565b9150509295509295909350565b5f81519050919050565b5f82825260208201905092915050565b5f819050602082019050919050565b5f6136ec8383612c29565b60208301905092915050565b5f602082019050919050565b5f61370e826136b8565b61371881856136c2565b9350613723836136d2565b805f5b8381101561375357815161373a88826136e1565b9750613745836136f8565b925050600181019050613726565b5085935050505092915050565b5f6020820190508181035f8301526137788184613704565b905092915050565b5f82825260208201905092915050565b5f61379a82612cdc565b6137a48185613780565b93506137af83612cf6565b805f5b838110156137df5781516137c68882612d44565b97506137d183612d5b565b9250506001810190506137b2565b5085935050505092915050565b5f6020820190508181035f8301526138048184613790565b905092915050565b61381581612cc2565b82525050565b5f60208201905061382e5f83018461380c565b92915050565b5f82825260208201905092915050565b5f61384e82612c38565b6138588185613834565b9350613868818560208601612c52565b61387181612c7a565b840191505092915050565b5f61010083015f8301518482035f8601526138978282612d67565b915050602083015184820360208601526138b18282612e49565b91505060408301516138c66040860182612c29565b5060608301516138d96060860182612c29565b5060808301516138ec6080860182612c29565b5060a08301516138ff60a0860182612c29565b5060c083015161391260c0860182612ccd565b5060e083015161392560e0860182612ccd565b508091505092915050565b61393981612fc0565b82525050565b5f610100820190506139535f83018b613580565b8181036020830152613965818a613844565b9050613974604083018961380c565b8181036060830152613986818861387c565b9050818103608083015261399a81876132e9565b90506139a960a0830186613930565b6139b660c0830185613580565b6139c360e0830184613580565b9998505050505050505050565b5f805f805f805f8060c0898b0312156139ec576139eb61316d565b5b5f6139f98b828c0161318b565b985050602089013567ffffffffffffffff811115613a1a57613a19613171565b5b613a268b828c0161337c565b9750975050604089013567ffffffffffffffff811115613a4957613a48613171565b5b613a558b828c016133d5565b955050606089013567ffffffffffffffff811115613a7657613a75613171565b5b613a828b828c016133f4565b945050608089013567ffffffffffffffff811115613aa357613aa2613171565b5b613aaf8b828c01613412565b935093505060a0613ac28b828c0161347d565b9150509295985092959890939650565b7f4e487b71000000000000000000000000000000000000000000000000000000005f52603260045260245ffd5b7f4e487b71000000000000000000000000000000000000000000000000000000005f52601160045260245ffd5b5f613b3682612c20565b91507fffffffffffffffffffffffffffffffffffffffffffffffffffffffffffffffff8203613b6857613b67613aff565b5b600182019050919050565b7f4e487b71000000000000000000000000000000000000000000000000000000005f52604160045260245ffd5b7f4e487b71000000000000000000000000000000000000000000000000000000005f52602260045260245ffd5b5f6002820490506001821680613be457607f821691505b602082108103613bf757613bf6613ba0565b5b50919050565b7f506f6c696379206e6f7420666f756e64000000000000000000000000000000005f82015250565b5f613c31601083613834565b9150613c3c82613bfd565b602082019050919050565b5f6020820190508181035f830152613c5e81613c25565b9050919050565b7f4f6e6c7920676f7665726e616e6365206d756c746973696700000000000000005f82015250565b5f613c99601883613834565b9150613ca482613c65565b602082019050919050565b5f6020820190508181035f830152613cc681613c8d565b9050919050565b7f4f6e6c792070726f766973696f6e6572000000000000000000000000000000005f82015250565b5f613d01601083613834565b9150613d0c82613ccd565b602082019050919050565b5f6020820190508181035f830152613d2e81613cf5565b9050919050565b7f416c7265616479206c6f636b65640000000000000000000000000000000000005f82015250565b5f613d69600e83613834565b9150613d7482613d35565b602082019050919050565b5f6020820190508181035f830152613d9681613d5d565b9050919050565b7f4f6e6c7920676f7665726e616e6365206f722070726f766973696f6e657200005f82015250565b5f613dd1601e83613834565b9150613ddc82613d9d565b602082019050919050565b5f6020820190508181035f830152613dfe81613dc5565b9050919050565b5f80fd5b613e1282612c7a565b810181811067ffffffffffffffff82111715613e3157613e30613b73565b5b80604052505050565b5f613e43613164565b9050613e4f8282613e09565b919050565b5f80fd5b5f67ffffffffffffffff821115613e7257613e71613b73565b5b602082029050602081019050919050565b5f613e95613e9084613e58565b613e3a565b90508083825260208201905060208402830185811115613eb857613eb7613378565b5b835b81811015613ee15780613ecd8882613613565b845260208401935050602081019050613eba565b5050509392505050565b5f82601f830112613eff57613efe613370565b5b8135613f0f848260208601613e83565b91505092915050565b5f67ffffffffffffffff821115613f3257613f31613b73565b5b602082029050602081019050919050565b613f4c81612dec565b8114613f56575f80fd5b50565b5f81359050613f6781613f43565b92915050565b5f613f7f613f7a84613f18565b613e3a565b90508083825260208201905060208402830185811115613fa257613fa1613378565b5b835b81811015613fcb5780613fb78882613f59565b845260208401935050602081019050613fa4565b5050509392505050565b5f82601f830112613fe957613fe8613370565b5b8135613ff9848260208601613f6d565b91505092915050565b61400b81612cc2565b8114614015575f80fd5b50565b5f8135905061402681614002565b92915050565b5f610100828403121561404257614041613e05565b5b61404d610100613e3a565b90505f82013567ffffffffffffffff81111561406c5761406b613e54565b5b61407884828501613eeb565b5f83015250602082013567ffffffffffffffff81111561409b5761409a613e54565b5b6140a784828501613fd5565b60208301525060406140bb8482850161318b565b60408301525060606140cf8482850161318b565b60608301525060806140e38482850161318b565b60808301525060a06140f78482850161318b565b60a08301525060c061410b84828501614018565b60c08301525060e061411f84828501614018565b60e08301525092915050565b5f614136368361402c565b9050919050565b5f6080828403121561415257614151613e05565b5b61415c6080613e3a565b90505f61416b8482850161318b565b5f83015250602061417e8482850161318b565b602083015250604082013567ffffffffffffffff8111156141a2576141a1613e54565b5b6141ae84828501613eeb565b604083015250606082013567ffffffffffffffff8111156141d2576141d1613e54565b5b6141de84828501613eeb565b60608301525092915050565b5f6141f5368361413d565b9050919050565b7f4d7573742068617665207369676e6572730000000000000000000000000000005f82015250565b5f614230601183613834565b915061423b826141fc565b602082019050919050565b5f6020820190508181035f83015261425d81614224565b9050919050565b7f57656967687420312d31300000000000000000000000000000000000000000005f82015250565b5f614298600b83613834565b91506142a382614264565b602082019050919050565b5f6020820190508181035f8301526142c58161428c565b9050919050565b5f82905092915050565b5f819050815f5260205f209050919050565b5f6020601f8301049050919050565b5f82821b905092915050565b5f600883026143327fffffffffffffffffffffffffffffffffffffffffffffffffffffffffffffffff826142f7565b61433c86836142f7565b95508019841693508086168417925050509392505050565b5f819050919050565b5f61437761437261436d84612c20565b614354565b612c20565b9050919050565b5f819050919050565b6143908361435d565b6143a461439c8261437e565b848454614303565b825550505050565b5f90565b6143b86143ac565b6143c3818484614387565b505050565b5b818110156143e6576143db5f826143b0565b6001810190506143c9565b5050565b601f82111561442b576143fc816142d6565b614405846142e8565b81016020851015614414578190505b614428614420856142e8565b8301826143c8565b50505b505050565b5f82821c905092915050565b5f61444b5f1984600802614430565b1980831691505092915050565b5f614463838361443c565b9150826002028217905092915050565b61447d83836142cc565b67ffffffffffffffff81111561449657614495613b73565b5b6144a08254613bcd565b6144ab8282856143ea565b5f601f8311600181146144d8575f84156144c6578287013590505b6144d08582614458565b865550614537565b601f1984166144e6866142d6565b5f5b8281101561450d578489013582556001820191506020850194506020810190506144e8565b8683101561452a5784890135614526601f89168261443c565b8355505b6001600288020188555050505b50505050505050565b5f80fd5b5f80fd5b5f80fd5b5f808335600160200384360303811261456857614567614540565b5b80840192508235915067ffffffffffffffff82111561458a57614589614544565b5b6020830192506020820236038313156145a6576145a5614548565b5b509250929050565b5f81549050919050565b5f8190506001806001038301049050919050565b5f819050815f5260205f209050919050565b5b818110156145fc576145f15f826143b0565b6001810190506145df565b5050565b6146307fffffffffffffffffffffffffffffffffffffffffffffffffffffffffffffffff83602003600802614430565b815481168255505050565b818310156146745761464c826145b8565b614655846145b8565b61465e836145cc565b81810183820161466e81836145de565b50505050505b505050565b6801000000000000000082111561469357614692613b73565b5b61469c816145ae565b8282556146aa83828461463b565b505050565b5f82905092915050565b5f81356146c5816135fd565b80915050919050565b5f819050919050565b5f819050919050565b6146ea83836146af565b67ffffffffffffffff81111561470357614702613b73565b5b61470d8183614679565b614716836146ce565b61471f836145cc565b600183045f5b8181101561475c575f614737856146b9565b614740816146d7565b8092506020870196505050808285015550600181019050614725565b5050505050505050565b6147718383836146e0565b505050565b5f808335600160200384360303811261479257614791614540565b5b80840192508235915067ffffffffffffffff8211156147b4576147b3614544565b5b6020830192506020820236038313156147d0576147cf614548565b5b509250929050565b5f81549050919050565b5f819050600860016008038301049050919050565b5f819050815f5260205f209050919050565b5b818110156148275761481c5f826143b0565b60018101905061480a565b5050565b818310156148825761483c826147e2565b614845846147e2565b61484e836147f7565b818101838201600460088906025f811115614871576148708160018503614600565b5b61487b8284614809565b5050505050505b505050565b680100000000000000008211156148a1576148a0613b73565b5b6148aa816147d8565b8282556148b883828461482b565b505050565b5f82905092915050565b5f81356148d381613f43565b80915050919050565b5f819050919050565b5f600883026148f863ffffffff826142f7565b61490286836142f7565b95508019841693508086168417925050509392505050565b5f8160e01c9050919050565b5f6149308261491a565b9050919050565b61494183836148bd565b67ffffffffffffffff81111561495a57614959613b73565b5b6149648183614887565b61496d836148dc565b614976836147f7565b600883045f5b818110156149d7575f805b60088110156149c557614999866148c7565b6149a281614926565b6149b08184600402866148e5565b93506020880197505050600181019050614987565b5080828501555060018101905061497c565b506008810284035f811115614a2e575f805b82811015614a26576149fa866148c7565b614a0381614926565b614a118184600402866148e5565b935060208801975050506001810190506149e9565b508083850155505b5050505050505050565b614a43838383614937565b505050565b5f8135614a5481613175565b80915050919050565b5f815f1b9050919050565b5f7fffffffffffffffffffffffffffffffffffffffffffffffffffffffffffffffff614a9384614a5d565b9350801983169250808416831791505092915050565b614ab28261435d565b614ac5614abe8261437e565b8354614a68565b8255505050565b5f8135614ad881614002565b80915050919050565b5f60ff614aed84614a5d565b9350801983169250808416831791505092915050565b5f614b0d82612cc2565b9050919050565b5f819050919050565b614b2682614b03565b614b39614b3282614b14565b8354614ae1565b8255505050565b5f8160081b9050919050565b5f61ff00614b5984614b40565b9350801983169250808416831791505092915050565b614b7882614b03565b614b8b614b8482614b14565b8354614b4c565b8255505050565b5f81015f8301614ba2818561454c565b614bad818386614766565b505050506001810160208301614bc38185614776565b614bce818386614a38565b50505050600281016040830180614be481614a48565b9050614bf08184614aa9565b505050600381016060830180614c0581614a48565b9050614c118184614aa9565b505050600481016080830180614c2681614a48565b9050614c328184614aa9565b5050506005810160a0830180614c4781614a48565b9050614c538184614aa9565b5050506006810160c0830180614c6881614acc565b9050614c748184614b1d565b5050506006810160e0830180614c8981614acc565b9050614c958184614b6f565b5050505050565b614ca68282614b92565b5050565b5f81015f830180614cba81614a48565b9050614cc68184614aa9565b505050600181016020830180614cdb81614a48565b9050614ce78184614aa9565b5050506002810160408301614cfc818561454c565b614d07818386614766565b505050506003810160608301614d1d818561454c565b614d28818386614766565b505050505050565b614d3a8282614caa565b5050565b5f614d4882612c20565b9150614d5383612c20565b9250828203905081811115614d6b57614d6a613aff565b5b92915050565b614d7a82612c38565b67ffffffffffffffff811115614d9357614d92613b73565b5b614d9d8254613bcd565b614da88282856143ea565b5f60209050601f831160018114614dd9575f8415614dc7578287015190505b614dd18582614458565b865550614e38565b601f198416614de7866142d6565b5f5b82811015614e0e57848901518255600182019150602085019450602081019050614de9565b86831015614e2b5784890151614e27601f89168261443c565b8355505b6001600288020188555050505b505050505050565b5f6020820190508181035f830152614e588184613844565b905092915050565b5f81519050614e6e816135fd565b92915050565b5f614e86614e8184613e58565b613e3a565b90508083825260208201905060208402830185811115614ea957614ea8613378565b5b835b81811015614ed25780614ebe8882614e60565b845260208401935050602081019050614eab565b5050509392505050565b5f82601f830112614ef057614eef613370565b5b8151614f00848260208601614e74565b91505092915050565b5f60208284031215614f1e57614f1d61316d565b5b5f82015167ffffffffffffffff811115614f3b57614f3a613171565b5b614f4784828501614edc565b91505092915050565b5f81519050614f5e81613f43565b92915050565b5f614f76614f7184613f18565b613e3a565b90508083825260208201905060208402830185811115614f9957614f98613378565b5b835b81811015614fc25780614fae8882614f50565b845260208401935050602081019050614f9b565b5050509392505050565b5f82601f830112614fe057614fdf613370565b5b8151614ff0848260208601614f64565b91505092915050565b5f6020828403121561500e5761500d61316d565b5b5f82015167ffffffffffffffff81111561502b5761502a613171565b5b61503784828501614fcc565b91505092915050565b5f8151905061504e81613175565b92915050565b5f602082840312156150695761506861316d565b5b5f61507684828501615040565b91505092915050565b5f8151905061508d81614002565b92915050565b5f602082840312156150a8576150a761316d565b5b5f6150b58482850161507f565b91505092915050565b5f80fd5b5f67ffffffffffffffff8211156150dc576150db613b73565b5b6150e582612c7a565b9050602081019050919050565b5f6151046150ff846150c2565b613e3a565b9050828152602081018484840111156151205761511f6150be565b5b61512b848285612c52565b509392505050565b5f82601f83011261514757615146613370565b5b81516151578482602086016150f2565b91505092915050565b5f602082840312156151755761517461316d565b5b5f82015167ffffffffffffffff81111561519257615191613171565b5b61519e84828501615133565b91505092915050565b5f815190506151b581613467565b92915050565b5f602082840312156151d0576151cf61316d565b5b5f6151dd848285016151a7565b9150509291505056fea2646970667358221220b04823b92cca7ee31a8d5568b9daef90d499399930efb66f7bcf804fdf157eef64736f6c63430008140033608060405234801561000f575f80fd5b5061187b8061001d5f395ff3fe608060405234801561000f575f80fd5b5060043610610060575f3560e01c80636c2c677b146100645780637a360e651461008057806386a555fe1461009e5780638c300f4e146100ce578063b30906d4146100ea578063bae78d7b14610121575b5f80fd5b61007e60048036038101906100799190610abf565b610151565b005b610088610235565b6040516100959190610b15565b60405180910390f35b6100b860048036038101906100b39190610b2e565b610240565b6040516100c59190610d77565b60405180910390f35b6100e860048036038101906100e39190610dba565b6104c4565b005b61010460048036038101906100ff9190610b2e565b6104fd565b604051610118989796959493929190610e76565b60405180910390f35b61013b60048036038101906101369190610b2e565b610609565b6040516101489190610fa6565b60405180910390f35b5f81908060018154018082558091505060019003905f5260205f2090600502015f909190919091505f820151815f01556020820151816001015560408201518160020190816101a091906111c0565b506060820151816003015f6101000a81548160ff021916908360ff16021790555060808201518160030160016101000a81548161ffff021916908361ffff16021790555060a08201518160030160036101000a81548160ff021916908360ff16021790555060c08201518160030160046101000a81548160ff021916908360ff16021790555060e08201518160040155505050565b5f8080549050905090565b60605f805b5f8054905081101561029c57835f82815481106102655761026461128f565b5b905f5260205f2090600502016001015403610289578180610285906112e9565b9250505b8080610294906112e9565b915050610245565b505f8167ffffffffffffffff8111156102b8576102b76107d9565b5b6040519080825280602002602001820160405280156102f157816020015b6102de610766565b8152602001906001900390816102d65790505b5090505f805b5f805490508110156104b857855f82815481106103175761031661128f565b5b905f5260205f20906005020160010154036104a5575f818154811061033f5761033e61128f565b5b905f5260205f209060050201604051806101000160405290815f82015481526020016001820154815260200160028201805461037a90610ff3565b80601f01602080910402602001604051908101604052809291908181526020018280546103a690610ff3565b80156103f15780601f106103c8576101008083540402835291602001916103f1565b820191905f5260205f20905b8154815290600101906020018083116103d457829003601f168201915b50505050508152602001600382015f9054906101000a900460ff1660ff1660ff1681526020016003820160019054906101000a900461ffff1661ffff1661ffff1681526020016003820160039054906101000a900460ff1660ff1660ff1681526020016003820160049054906101000a900460ff1660ff1660ff168152602001600482015481525050838380610486906112e9565b9450815181106104995761049861128f565b5b60200260200101819052505b80806104b0906112e9565b9150506102f7565b50819350505050919050565b5f81908060018154018082558091505060019003905f5260205f2090600502015f9091909190915081816104f89190611837565b505050565b5f818154811061050b575f80fd5b905f5260205f2090600502015f91509050805f01549080600101549080600201805461053690610ff3565b80601f016020809104026020016040519081016040528092919081815260200182805461056290610ff3565b80156105ad5780601f10610584576101008083540402835291602001916105ad565b820191905f5260205f20905b81548152906001019060200180831161059057829003601f168201915b505050505090806003015f9054906101000a900460ff16908060030160019054906101000a900461ffff16908060030160039054906101000a900460ff16908060030160049054906101000a900460ff16908060040154905088565b610611610766565b5f82815481106106245761062361128f565b5b905f5260205f209060050201604051806101000160405290815f82015481526020016001820154815260200160028201805461065f90610ff3565b80601f016020809104026020016040519081016040528092919081815260200182805461068b90610ff3565b80156106d65780601f106106ad576101008083540402835291602001916106d6565b820191905f5260205f20905b8154815290600101906020018083116106b957829003601f168201915b50505050508152602001600382015f9054906101000a900460ff1660ff1660ff1681526020016003820160019054906101000a900461ffff1661ffff1661ffff1681526020016003820160039054906101000a900460ff1660ff1660ff1681526020016003820160049054906101000a900460ff1660ff1660ff1681526020016004820154815250509050919050565b6040518061010001604052805f80191681526020015f8152602001606081526020015f60ff1681526020015f61ffff1681526020015f60ff1681526020015f60ff1681526020015f81525090565b5f604051905090565b5f80fd5b5f80fd5b5f80fd5b5f601f19601f8301169050919050565b7f4e487b71000000000000000000000000000000000000000000000000000000005f52604160045260245ffd5b61080f826107c9565b810181811067ffffffffffffffff8211171561082e5761082d6107d9565b5b80604052505050565b5f6108406107b4565b905061084c8282610806565b919050565b5f80fd5b5f819050919050565b61086781610855565b8114610871575f80fd5b50565b5f813590506108828161085e565b92915050565b5f819050919050565b61089a81610888565b81146108a4575f80fd5b50565b5f813590506108b581610891565b92915050565b5f80fd5b5f80fd5b5f67ffffffffffffffff8211156108dd576108dc6107d9565b5b6108e6826107c9565b9050602081019050919050565b828183375f83830152505050565b5f61091361090e846108c3565b610837565b90508281526020810184848401111561092f5761092e6108bf565b5b61093a8482856108f3565b509392505050565b5f82601f830112610956576109556108bb565b5b8135610966848260208601610901565b91505092915050565b5f60ff82169050919050565b6109848161096f565b811461098e575f80fd5b50565b5f8135905061099f8161097b565b92915050565b5f61ffff82169050919050565b6109bb816109a5565b81146109c5575f80fd5b50565b5f813590506109d6816109b2565b92915050565b5f61010082840312156109f2576109f16107c5565b5b6109fd610100610837565b90505f610a0c84828501610874565b5f830152506020610a1f848285016108a7565b602083015250604082013567ffffffffffffffff811115610a4357610a42610851565b5b610a4f84828501610942565b6040830152506060610a6384828501610991565b6060830152506080610a77848285016109c8565b60808301525060a0610a8b84828501610991565b60a08301525060c0610a9f84828501610991565b60c08301525060e0610ab3848285016108a7565b60e08301525092915050565b5f60208284031215610ad457610ad36107bd565b5b5f82013567ffffffffffffffff811115610af157610af06107c1565b5b610afd848285016109dc565b91505092915050565b610b0f81610888565b82525050565b5f602082019050610b285f830184610b06565b92915050565b5f60208284031215610b4357610b426107bd565b5b5f610b50848285016108a7565b91505092915050565b5f81519050919050565b5f82825260208201905092915050565b5f819050602082019050919050565b610b8b81610855565b82525050565b610b9a81610888565b82525050565b5f81519050919050565b5f82825260208201905092915050565b5f5b83811015610bd7578082015181840152602081019050610bbc565b5f8484015250505050565b5f610bec82610ba0565b610bf68185610baa565b9350610c06818560208601610bba565b610c0f816107c9565b840191505092915050565b610c238161096f565b82525050565b610c32816109a5565b82525050565b5f61010083015f830151610c4e5f860182610b82565b506020830151610c616020860182610b91565b5060408301518482036040860152610c798282610be2565b9150506060830151610c8e6060860182610c1a565b506080830151610ca16080860182610c29565b5060a0830151610cb460a0860182610c1a565b5060c0830151610cc760c0860182610c1a565b5060e0830151610cda60e0860182610b91565b508091505092915050565b5f610cf08383610c38565b905092915050565b5f602082019050919050565b5f610d0e82610b59565b610d188185610b63565b935083602082028501610d2a85610b73565b805f5b85811015610d655784840389528151610d468582610ce5565b9450610d5183610cf8565b925060208a01995050600181019050610d2d565b50829750879550505050505092915050565b5f6020820190508181035f830152610d8f8184610d04565b905092915050565b5f80fd5b5f6101008284031215610db157610db0610d97565b5b81905092915050565b5f60208284031215610dcf57610dce6107bd565b5b5f82013567ffffffffffffffff811115610dec57610deb6107c1565b5b610df884828501610d9b565b91505092915050565b610e0a81610855565b82525050565b5f82825260208201905092915050565b5f610e2a82610ba0565b610e348185610e10565b9350610e44818560208601610bba565b610e4d816107c9565b840191505092915050565b610e618161096f565b82525050565b610e70816109a5565b82525050565b5f61010082019050610e8a5f83018b610e01565b610e97602083018a610b06565b8181036040830152610ea98189610e20565b9050610eb86060830188610e58565b610ec56080830187610e67565b610ed260a0830186610e58565b610edf60c0830185610e58565b610eec60e0830184610b06565b9998505050505050505050565b5f61010083015f830151610f0f5f860182610b82565b506020830151610f226020860182610b91565b5060408301518482036040860152610f3a8282610be2565b9150506060830151610f4f6060860182610c1a565b506080830151610f626080860182610c29565b5060a0830151610f7560a0860182610c1a565b5060c0830151610f8860c0860182610c1a565b5060e0830151610f9b60e0860182610b91565b508091505092915050565b5f6020820190508181035f830152610fbe8184610ef9565b905092915050565b7f4e487b71000000000000000000000000000000000000000000000000000000005f52602260045260245ffd5b5f600282049050600182168061100a57607f821691505b60208210810361101d5761101c610fc6565b5b50919050565b5f819050815f5260205f209050919050565b5f6020601f8301049050919050565b5f82821b905092915050565b5f6008830261107f7fffffffffffffffffffffffffffffffffffffffffffffffffffffffffffffffff82611044565b6110898683611044565b95508019841693508086168417925050509392505050565b5f819050919050565b5f6110c46110bf6110ba84610888565b6110a1565b610888565b9050919050565b5f819050919050565b6110dd836110aa565b6110f16110e9826110cb565b848454611050565b825550505050565b5f90565b6111056110f9565b6111108184846110d4565b505050565b5b81811015611133576111285f826110fd565b600181019050611116565b5050565b601f8211156111785761114981611023565b61115284611035565b81016020851015611161578190505b61117561116d85611035565b830182611115565b50505b505050565b5f82821c905092915050565b5f6111985f198460080261117d565b1980831691505092915050565b5f6111b08383611189565b9150826002028217905092915050565b6111c982610ba0565b67ffffffffffffffff8111156111e2576111e16107d9565b5b6111ec8254610ff3565b6111f7828285611137565b5f60209050601f831160018114611228575f8415611216578287015190505b61122085826111a5565b865550611287565b601f19841661123686611023565b5f5b8281101561125d57848901518255600182019150602085019450602081019050611238565b8683101561127a5784890151611276601f891682611189565b8355505b6001600288020188555050505b505050505050565b7f4e487b71000000000000000000000000000000000000000000000000000000005f52603260045260245ffd5b7f4e487b71000000000000000000000000000000000000000000000000000000005f52601160045260245ffd5b5f6112f382610888565b91507fffffffffffffffffffffffffffffffffffffffffffffffffffffffffffffffff8203611325576113246112bc565b5b600182019050919050565b5f813561133c8161085e565b80915050919050565b5f815f1b9050919050565b5f7fffffffffffffffffffffffffffffffffffffffffffffffffffffffffffffffff61137b84611345565b9350801983169250808416831791505092915050565b5f61139b82610855565b9050919050565b5f815f1c9050919050565b5f6113b7826113a2565b9050919050565b6113c782611391565b6113da6113d3826113ad565b8354611350565b8255505050565b5f81356113ed81610891565b80915050919050565b6113ff826110aa565b61141261140b826110cb565b8354611350565b8255505050565b5f80fd5b5f80fd5b5f80fd5b5f808335600160200384360303811261144157611440611419565b5b80840192508235915067ffffffffffffffff8211156114635761146261141d565b5b60208301925060018202360383131561147f5761147e611421565b5b509250929050565b5f82905092915050565b61149b8383611487565b67ffffffffffffffff8111156114b4576114b36107d9565b5b6114be8254610ff3565b6114c9828285611137565b5f601f8311600181146114f6575f84156114e4578287013590505b6114ee85826111a5565b865550611555565b601f19841661150486611023565b5f5b8281101561152b57848901358255600182019150602085019450602081019050611506565b868310156115485784890135611544601f891682611189565b8355505b6001600288020188555050505b50505050505050565b611569838383611491565b505050565b5f813561157a8161097b565b80915050919050565b5f60ff61158f84611345565b9350801983169250808416831791505092915050565b5f6115bf6115ba6115b58461096f565b6110a1565b61096f565b9050919050565b5f819050919050565b6115d8826115a5565b6115eb6115e4826115c6565b8354611583565b8255505050565b5f81356115fe816109b2565b80915050919050565b5f8160081b9050919050565b5f62ffff0061162184611607565b9350801983169250808416831791505092915050565b5f61165161164c611647846109a5565b6110a1565b6109a5565b9050919050565b5f819050919050565b61166a82611637565b61167d61167682611658565b8354611613565b8255505050565b5f8160181b9050919050565b5f63ff00000061169f84611684565b9350801983169250808416831791505092915050565b6116be826115a5565b6116d16116ca826115c6565b8354611690565b8255505050565b5f8160201b9050919050565b5f64ff000000006116f4846116d8565b9350801983169250808416831791505092915050565b611713826115a5565b61172661171f826115c6565b83546116e4565b8255505050565b5f81015f83018061173d81611330565b905061174981846113be565b50505060018101602083018061175e816113e1565b905061176a81846113f6565b505050600281016040830161177f8185611425565b61178a81838661155e565b505050506003810160608301806117a08161156e565b90506117ac81846115cf565b5050506003810160808301806117c1816115f2565b90506117cd8184611661565b5050506003810160a08301806117e28161156e565b90506117ee81846116b5565b5050506003810160c08301806118038161156e565b905061180f818461170a565b5050506004810160e0830180611824816113e1565b905061183081846113f6565b5050505050565b611841828261172d565b505056fea26469706673582212209b307a05c73766f7db3a5b6ca41db3787ebe79bbb182c0e0e53239ccd04f9dfb64736f6c63430008140033a264697066735822122099a5f9518bc432a871faa9a920195d944440831a3a814fa3590fee903fb54a4764736f6c63430008140033","linkReferences":{}},"methodIdentifiers":{"createWallet(address[],uint256[])":"844332f5","createWalletNoPresets(address[])":"675be753","presetPolicyRegistry()":"081c8479","teeExtensionRegistry()":"a435d58a","walletSingleton()":"f4491b9e"},"id":28}