{"abi":[{"type":"constructor","inputs":[{"name":"_walletSingleton","type":"address","internalType":"address"},{"name":"_governanceSingleton","type":"address","internalType":"address"},{"name":"_policyRegistrySingleton","type":"address","internalType":"address"},{"name":"_auditLogSingleton","type":"address","internalType":"address"},{"name":"_teeExtensionRegistry","type":"address","internalType":"address"},{"name":"_presetPolicyRegistry","type":"address","internalType":"address"}],"stateMutability":"nonpayable"},{"type":"function","name":"auditLogSingleton","inputs":[],"outputs":[{"name":"","type":"address","internalType":"address"}],"stateMutability":"view"},{"type":"function","name":"createWallet","inputs":[{"name":"_signers","type":"address[]","internalType":"address[]"},{"name":"_presetPolicyIds","type":"uint256[]","internalType":"uint256[]"}],"outputs":[{"name":"","type":"tuple","internalType":"struct WalletFactory.WalletDeployment","components":[{"name":"wallet","type":"address","internalType":"address"},{"name":"governance","type":"address","internalType":"address"},{"name":"policyRegistry","type":"address","internalType":"address"},{"name":"auditLog","type":"address","internalType":"address"}]}],"stateMutability":"nonpayable"},{"type":"function","name":"createWalletNoPresets","inputs":[{"name":"_signers","type":"address[]","internalType":"address[]"}],"outputs":[{"name":"","type":"tuple","internalType":"struct WalletFactory.WalletDeployment","components":[{"name":"wallet","type":"address","internalType":"address"},{"name":"governance","type":"address","internalType":"address"},{"name":"policyRegistry","type":"address","internalType":"address"},{"name":"auditLog","type":"address","internalType":"address"}]}],"stateMutability":"nonpayable"},{"type":"function","name":"creatorWalletCount","inputs":[{"name":"","type":"address","internalType":"address"}],"outputs":[{"name":"","type":"uint256","internalType":"uint256"}],"stateMutability":"view"},{"type":"function","name":"creatorWallets","inputs":[{"name":"","type":"address","internalType":"address"},{"name":"","type":"uint256","internalType":"uint256"}],"outputs":[{"name":"wallet","type":"address","internalType":"address"},{"name":"governance","type":"address","internalType":"address"},{"name":"policyRegistry","type":"address","internalType":"address"},{"name":"auditLog","type":"address","internalType":"address"}],"stateMutability":"view"},{"type":"function","name":"getWalletForCreatorAtIndex","inputs":[{"name":"_creator","type":"address","internalType":"address"},{"name":"_index","type":"uint256","internalType":"uint256"}],"outputs":[{"name":"","type":"tuple","internalType":"struct WalletFactory.WalletDeployment","components":[{"name":"wallet","type":"address","internalType":"address"},{"name":"governance","type":"address","internalType":"address"},{"name":"policyRegistry","type":"address","internalType":"address"},{"name":"auditLog","type":"address","internalType":"address"}]}],"stateMutability":"view"},{"type":"function","name":"getWalletsForCreator","inputs":[{"name":"_creator","type":"address","internalType":"address"}],"outputs":[{"name":"","type":"tuple[]","internalType":"struct WalletFactory.WalletDeployment[]","components":[{"name":"wallet","type":"address","internalType":"address"},{"name":"governance","type":"address","internalType":"address"},{"name":"policyRegistry","type":"address","internalType":"address"},{"name":"auditLog","type":"address","internalType":"address"}]}],"stateMutability":"view"},{"type":"function","name":"governanceSingleton","inputs":[],"outputs":[{"name":"","type":"address","internalType":"address"}],"stateMutability":"view"},{"type":"function","name":"policyRegistrySingleton","inputs":[],"outputs":[{"name":"","type":"address","internalType":"address"}],"stateMutability":"view"},{"type":"function","name":"presetPolicyRegistry","inputs":[],"outputs":[{"name":"","type":"address","internalType":"address"}],"stateMutability":"view"},{"type":"function","name":"teeExtensionRegistry","inputs":[],"outputs":[{"name":"","type":"address","internalType":"address"}],"stateMutability":"view"},{"type":"function","name":"walletSingleton","inputs":[],"outputs":[{"name":"","type":"address","internalType":"address"}],"stateMutability":"view"},{"type":"event","name":"WalletCreated","inputs":[{"name":"creator","type":"address","indexed":true,"internalType":"address"},{"name":"wallet","type":"address","indexed":true,"internalType":"address"},{"name":"governance","type":"address","indexed":true,"internalType":"address"},{"name":"policyRegistry","type":"address","indexed":false,"internalType":"address"},{"name":"auditLog","type":"address","indexed":false,"internalType":"address"},{"name":"signers","type":"address[]","indexed":false,"internalType":"address[]"}],"anonymous":false}],"bytecode":{"object":"0x61014060405234610099576100216100156101a4565b949390939291926101ca565b61002961009e565b6119a96101e1823960805181818161091c01526114bc015260a0518181816106d7015261138d015260c05181818161062501526113b7015260e0518181816103e101526113e101526101005181818161067e0152611502015261012051818181610101015261170a01526119a990f35b6100a4565b60405190565b5f80fd5b601f801991011690565b634e487b7160e01b5f52604160045260245ffd5b906100d0906100a8565b810190811060018060401b038211176100e857604052565b6100b2565b906101006100f961009e565b92836100c6565b565b5f80fd5b60018060a01b031690565b61011a90610106565b90565b61012681610111565b0361012d57565b5f80fd5b9050519061013e8261011d565b565b909160c08284031261019f57610158835f8401610131565b926101668160208501610131565b926101748260408301610131565b9261019c6101858460608501610131565b936101938160808601610131565b9360a001610131565b90565b610102565b6101c2611b8a803803806101b7816100ed565b928339810190610140565b909192939495565b60805260a05260c05260e052610100526101205256fe60806040526004361015610013575b610973565b61001d5f356100dc565b8063081c8479146100d7578063099f4fea146100d257806329347238146100cd57806360820464146100c8578063675be753146100c3578063844332f5146100be578063848102cd146100b9578063a435d58a146100b4578063b12d43a8146100af578063c49117f5146100aa578063ca0ccf94146100a55763f4491b9e0361000e5761093e565b6108e0565b61077e565b6106f9565b6106a0565b610647565b6105ea565b610516565b610403565b6103aa565b61028e565b61015c565b60e01c90565b60405190565b5f80fd5b5f80fd5b5f9103126100fa57565b6100ec565b7f000000000000000000000000000000000000000000000000000000000000000090565b60018060a01b031690565b61013790610123565b90565b6101439061012e565b9052565b919061015a905f6020850194019061013a565b565b3461018c5761016c3660046100f0565b6101886101776100ff565b61017f6100e2565b91829182610147565b0390f35b6100e8565b5f80fd5b61019e8161012e565b036101a557565b5f80fd5b905035906101b682610195565b565b906020828203126101d1576101ce915f016101a9565b90565b6100ec565b90565b6101ed6101e86101f292610123565b6101d6565b610123565b90565b6101fe906101d9565b90565b61020a906101f5565b90565b9061021790610201565b5f5260205260405f2090565b1c90565b90565b61023a90600861023f9302610223565b610227565b90565b9061024d915461022a565b90565b610266906102616001915f9261020d565b610242565b90565b90565b61027590610269565b9052565b919061028c905f6020850194019061026c565b565b346102be576102ba6102a96102a43660046101b8565b610250565b6102b16100e2565b91829182610279565b0390f35b6100e8565b5190565b60209181520190565b60200190565b6102df9061012e565b9052565b90606080610329936102fb5f8201515f8601906102d6565b61030d602082015160208601906102d6565b61031f604082015160408601906102d6565b01519101906102d6565b565b90610338816080936102e3565b0190565b60200190565b9061035f610359610352846102c3565b80936102c7565b926102d0565b905f5b81811061036f5750505090565b909192610388610382600192865161032b565b9461033c565b9101919091610362565b6103a79160208201915f818403910152610342565b90565b346103da576103d66103c56103c03660046101b8565b610af7565b6103cd6100e2565b91829182610392565b0390f35b6100e8565b7f000000000000000000000000000000000000000000000000000000000000000090565b34610433576104133660046100f0565b61042f61041e6103df565b6104266100e2565b91829182610147565b0390f35b6100e8565b5f80fd5b5f80fd5b5f80fd5b909182601f8301121561047e5781359167ffffffffffffffff831161047957602001926020830284011161047457565b610440565b61043c565b610438565b906020828203126104b4575f82013567ffffffffffffffff81116104af576104ab9201610444565b9091565b610191565b6100ec565b906060806104ff936104d15f8201515f8601906102d6565b6104e3602082015160208601906102d6565b6104f5604082015160408601906102d6565b01519101906102d6565b565b9190610514905f608085019401906104b9565b565b346105475761054361053261052c366004610483565b90610dd7565b61053a6100e2565b91829182610501565b0390f35b6100e8565b909182601f830112156105865781359167ffffffffffffffff831161058157602001926020830284011161057c57565b610440565b61043c565b610438565b90916040828403126105e5575f82013567ffffffffffffffff81116105e057836105b6918401610444565b929093602082013567ffffffffffffffff81116105db576105d7920161054c565b9091565b610191565b610191565b6100ec565b3461061e5761061a61060961060036600461058b565b92919091611356565b6106116100e2565b91829182610501565b0390f35b6100e8565b7f000000000000000000000000000000000000000000000000000000000000000090565b34610677576106573660046100f0565b610673610662610623565b61066a6100e2565b91829182610147565b0390f35b6100e8565b7f000000000000000000000000000000000000000000000000000000000000000090565b346106d0576106b03660046100f0565b6106cc6106bb61067c565b6106c36100e2565b91829182610147565b0390f35b6100e8565b7f000000000000000000000000000000000000000000000000000000000000000090565b34610729576107093660046100f0565b6107256107146106d5565b61071c6100e2565b91829182610147565b0390f35b6100e8565b61073781610269565b0361073e57565b5f80fd5b9050359061074f8261072e565b565b9190604083820312610779578061076d610776925f86016101a9565b93602001610742565b90565b6100ec565b346107af576107ab61079a610794366004610751565b90611829565b6107a26100e2565b91829182610501565b0390f35b6100e8565b906107be90610201565b5f5260205260405f2090565b634e487b7160e01b5f52603260045260245ffd5b5490565b5f5260205f2090565b6107f4816107de565b82101561080e576108066004916107e2565b910201905f90565b6107ca565b5f1c90565b60018060a01b031690565b61082f61083491610813565b610818565b90565b6108419054610823565b90565b61084e905f6107b4565b90610858826107de565b81101561089e57610868916107eb565b50906108755f8301610837565b9161088260018201610837565b9161089b600361089460028501610837565b9301610837565b90565b5f80fd5b6108d76108de946108cd6060949897956108c3608086019a5f87019061013a565b602085019061013a565b604083019061013a565b019061013a565b565b34610915576109116108fc6108f6366004610751565b90610844565b906109089492946100e2565b948594856108a2565b0390f35b6100e8565b7f000000000000000000000000000000000000000000000000000000000000000090565b3461096e5761094e3660046100f0565b61096a61095961091a565b6109616100e2565b91829182610147565b0390f35b6100e8565b5f80fd5b606090565b601f801991011690565b634e487b7160e01b5f52604160045260245ffd5b906109a49061097c565b810190811067ffffffffffffffff8211176109be57604052565b610986565b906109d66109cf6100e2565b928361099a565b565b67ffffffffffffffff81116109f05760208091020190565b610986565b90610a07610a02836109d8565b6109c3565b918252565b90610a169061012e565b9052565b610a2460806109c3565b90565b90610a8e610a856003610a38610a1a565b94610a4f610a475f8301610837565b5f8801610a0c565b610a67610a5e60018301610837565b60208801610a0c565b610a7f610a7660028301610837565b60408801610a0c565b01610837565b60608401610a0c565b565b610a9990610a27565b90565b90610aa6826107de565b610aaf816109f5565b92610abd60208501916107e2565b5f915b838310610acd5750505050565b60046020600192610add85610a90565b815201920192019190610ac0565b610af490610a9c565b90565b610b0d610b1291610b06610977565b505f6107b4565b610aeb565b90565b5f90565b610b21610a1a565b90602080808085610b30610b15565b815201610b3b610b15565b815201610b46610b15565b815201610b51610b15565b81525050565b610b5f610b19565b90565b90565b610b79610b74610b7e92610b62565b6101d6565b610269565b90565b67ffffffffffffffff8111610b995760208091020190565b610986565b90610bb0610bab83610b81565b6109c3565b918252565b369037565b90610bdf610bc783610b9e565b92602080610bd58693610b81565b9201910390610bb5565b565b610bea906101f5565b90565b5f80fd5b60e01b90565b5f80fd5b90505190610c0882610195565b565b9190608083820312610c6857610c6190610c2460806109c3565b93610c31825f8301610bfb565b5f860152610c428260208301610bfb565b6020860152610c548260408301610bfb565b6040860152606001610bfb565b6060830152565b610bf7565b90608082820312610c8657610c83915f01610c0a565b90565b6100ec565b60209181520190565b90565b90610ca4816020936102d6565b0190565b50610cb79060208101906101a9565b90565b60200190565b91610cce82610cd492610c8b565b92610c94565b90815f905b828210610ce7575050505090565b90919293610d09610d03600192610cfe8886610ca8565b610c97565b95610cba565b920190929192610cd9565b5190565b60209181520190565b60200190565b610d3090610269565b9052565b90610d4181602093610d27565b0190565b60200190565b90610d68610d62610d5b84610d14565b8093610d18565b92610d21565b905f5b818110610d785750505090565b909192610d91610d8b6001928651610d34565b94610d45565b9101919091610d6b565b91610dc49391610db69160408501918583035f870152610cc0565b916020818403910152610d4b565b90565b610dcf6100e2565b3d5f823e3d90fd5b90608090610de3610b57565b50610df5610df05f610b65565b610bba565b92610e235f610e0330610be1565b92610e2e63844332f5919597610e176100e2565b98899788968795610bf1565b855260048501610d9b565b03925af1908115610e72575f91610e44575b5090565b610e65915060803d8111610e6b575b610e5d818361099a565b810190610c6d565b5f610e40565b503d610e53565b610dc7565b5090565b60209181520190565b5f7f4e656564207369676e6572730000000000000000000000000000000000000000910152565b610eb8600c602092610e7b565b610ec181610e84565b0190565b610eda9060208101905f818303910152610eab565b90565b15610ee457565b610eec6100e2565b62461bcd60e51b815280610f0260048201610ec5565b0390fd5b610f0f906101d9565b90565b610f1b90610f06565b90565b610f27906101d9565b90565b610f3390610f1e565b90565b610f3f906101f5565b90565b5f910312610f4c57565b6100ec565b9091610f689260208301925f818503910152610cc0565b90565b610f74906101f5565b90565b610f80906101d9565b90565b610f8c90610f77565b90565b610f98906101d9565b90565b610fa490610f8f565b90565b610fb0906101f5565b90565b604090610fdc610fe39496959396610fd260608401985f85019061013a565b602083019061013a565b019061013a565b565b5090565b90505190610ff68261072e565b565b9092919261100d61100882610b81565b6109c3565b938185526020808601920283019281841161104a57915b8383106110315750505050565b6020809161103f8486610fe9565b815201920191611024565b610440565b9080601f8301121561106d5781602061106a93519101610ff8565b90565b610438565b906020828203126110a2575f82015167ffffffffffffffff811161109d5761109a920161104f565b90565b610191565b6100ec565b5f80fd5b9037565b9091826110bb91610d18565b9160018060fb1b0381116110de57829160206110da92029384916110ab565b0190565b6110a7565b95949261111b946111056111139360409560608b01918b83035f8d01526110af565b9188830360208a0152610cc0565b94019061013a565b565b5f0190565b61112c60806109c3565b90565b90565b5f5260205f2090565b5490565b6111488161113b565b8210156111625761115a600491611132565b910201905f90565b6107ca565b634e487b7160e01b5f525f60045260245ffd5b611184905161012e565b90565b5f1b90565b9061119d60018060a01b0391611187565b9181191691161790565b90565b906111bf6111ba6111c692610201565b6111a7565b825461118c565b9055565b906112276060600361122d946111ed5f82016111e75f880161117a565b906111aa565b611206600182016112006020880161117a565b906111aa565b61121f600282016112196040880161117a565b906111aa565b01920161117a565b906111aa565b565b91906112405761123e916111ca565b565b611167565b9081549168010000000000000000831015611275578261126d9160016112739501815561113f565b9061122f565b565b610986565b61128661128b91610813565b610227565b90565b611298905461127a565b90565b634e487b7160e01b5f52601160045260245ffd5b6112b890610269565b5f1981146112c65760010190565b61129b565b906112d75f1991611187565b9181191691161790565b6112f56112f06112fa92610269565b6101d6565b610269565b90565b90565b9061131561131061131c926112e1565b6112fd565b82546112cb565b9055565b611346611353959394929461133c60608401965f85019061013a565b602083019061013a565b6040818503910152610cc0565b90565b909192611361610b57565b50611388611370838590610e77565b61138261137c5f610b65565b91610269565b11610edd565b6113b17f00000000000000000000000000000000000000000000000000000000000000006118ff565b906113db7f00000000000000000000000000000000000000000000000000000000000000006118ff565b926114057f00000000000000000000000000000000000000000000000000000000000000006118ff565b9561140f84610f12565b61142161141b87610f2a565b91610f36565b63a224cee7848992803b156118245761144d5f80946114586114416100e2565b97889687958694610bf1565b845260048401610f51565b03925af1801561181f576117f3575b5061147181610f6b565b63c4d66de886823b156117ee576114a79261149c5f80946114906100e2565b96879586948593610bf1565b835260048301610147565b03925af180156117e9576117bd575b506114e07f00000000000000000000000000000000000000000000000000000000000000006118ff565b936114fa6114f56114f087610f83565b610f9b565b610fa7565b63c0c53b8b8a7f0000000000000000000000000000000000000000000000000000000000000000928992813b156117b8575f61154991611554829661153d6100e2565b98899788968795610bf1565b855260048501610fb3565b03925af180156117b357611787575b5061156f838290610fe5565b61158161157b5f610b65565b91610269565b116116eb575b506115929150610f6b565b63a5a2f05e90803b156116e6576115b5915f916115ad6100e2565b938492610bf1565b82528183816115c66004820161111d565b03925af180156116e1576116b5575b50816116138461160a876116018b936115f86115ef611122565b975f8901610a0c565b60208701610a0c565b60408501610a0c565b60608301610a0c565b9561163161162a6116255f33906107b4565b61112f565b8890611245565b6116576116406001339061020d565b61165161164c8261128e565b6112af565b90611300565b6116af3393949591929661169d6116976116917fd786a13da528ce7a87a4e8046aad0d6d7d518475269e00186a3368f61c98f90397610201565b97610201565b97610201565b976116a66100e2565b94859485611320565b0390a490565b6116d4905f3d81116116da575b6116cc818361099a565b810190610f42565b5f6115d5565b503d6116c2565b610dc7565b610bed565b5f906116f683610f6b565b61173e8363bf2d0f5e9693966117498d8a907f0000000000000000000000000000000000000000000000000000000000000000916117326100e2565b9b8c998a988997610bf1565b8752600487016110e3565b03925af19182156117825761159292611762575b611587565b61177d903d805f833e611775818361099a565b810190611072565b61175d565b610dc7565b6117a6905f3d81116117ac575b61179e818361099a565b810190610f42565b5f611563565b503d611794565b610dc7565b610bed565b6117dc905f3d81116117e2575b6117d4818361099a565b810190610f42565b5f6114b6565b503d6117ca565b610dc7565b610bed565b611812905f3d8111611818575b61180a818361099a565b810190610f42565b5f611467565b503d611800565b610dc7565b610bed565b61184e916118436118489261183c610b57565b505f6107b4565b6107eb565b50610a90565b90565b5f90565b61186961186461186e92610b62565b6101d6565b610123565b90565b61187a90611855565b90565b5f7f455243313136373a20637265617465206661696c656400000000000000000000910152565b6118b16016602092610e7b565b6118ba8161187d565b0190565b6118d39060208101905f8183039101526118a4565b90565b156118dd57565b6118e56100e2565b62461bcd60e51b8152806118fb600482016118be565b0390fd5b60379061190a611851565b5060405190733d602d80600a3d3981f3363d3d373d3d3d363d7360601b825260601b60148201526e5af43d82803e903d91602b57fd5bf360881b60288201525ff0906119718261196a61196461195f5f611871565b61012e565b9161012e565b14156118d6565b56fea2646970667358221220c0087b78cdd739c6c7ac962c55660ed689f8f7391c45ff4c32e18bb61ddadef464736f6c634300081f0033","linkReferences":{}},"methodIdentifiers":{"auditLogSingleton()":"60820464","createWallet(address[],uint256[])":"844332f5","createWalletNoPresets(address[])":"675be753","creatorWalletCount(address)":"099f4fea","creatorWallets(address,uint256)":"ca0ccf94","getWalletForCreatorAtIndex(address,uint256)":"c49117f5","getWalletsForCreator(address)":"29347238","governanceSingleton()":"b12d43a8","policyRegistrySingleton()":"848102cd","presetPolicyRegistry()":"081c8479","teeExtensionRegistry()":"a435d58a","walletSingleton()":"f4491b9e"},"id":29}