{"abi":[{"type":"constructor","inputs":[{"name":"_walletSingleton","type":"address","internalType":"address"},{"name":"_teeExtensionRegistry","type":"address","internalType":"address"},{"name":"_presetPolicyRegistry","type":"address","internalType":"address"}],"stateMutability":"nonpayable"},{"type":"function","name":"createWallet","inputs":[{"name":"_signers","type":"address[]","internalType":"address[]"},{"name":"_presetPolicyIds","type":"uint256[]","internalType":"uint256[]"}],"outputs":[{"name":"","type":"tuple","internalType":"struct WalletFactory.WalletDeployment","components":[{"name":"wallet","type":"address","internalType":"address"},{"name":"governance","type":"address","internalType":"address"},{"name":"policyRegistry","type":"address","internalType":"address"},{"name":"auditLog","type":"address","internalType":"address"}]}],"stateMutability":"nonpayable"},{"type":"function","name":"createWalletNoPresets","inputs":[{"name":"_signers","type":"address[]","internalType":"address[]"}],"outputs":[{"name":"","type":"tuple","internalType":"struct WalletFactory.WalletDeployment","components":[{"name":"wallet","type":"address","internalType":"address"},{"name":"governance","type":"address","internalType":"address"},{"name":"policyRegistry","type":"address","internalType":"address"},{"name":"auditLog","type":"address","internalType":"address"}]}],"stateMutability":"nonpayable"},{"type":"function","name":"presetPolicyRegistry","inputs":[],"outputs":[{"name":"","type":"address","internalType":"address"}],"stateMutability":"view"},{"type":"function","name":"teeExtensionRegistry","inputs":[],"outputs":[{"name":"","type":"address","internalType":"address"}],"stateMutability":"view"},{"type":"function","name":"walletSingleton","inputs":[],"outputs":[{"name":"","type":"address","internalType":"address"}],"stateMutability":"view"},{"type":"event","name":"WalletCreated","inputs":[{"name":"wallet","type":"address","indexed":true,"internalType":"address"},{"name":"governance","type":"address","indexed":true,"internalType":"address"},{"name":"policyRegistry","type":"address","indexed":false,"internalType":"address"},{"name":"auditLog","type":"address","indexed":false,"internalType":"address"},{"name":"signers","type":"address[]","indexed":false,"internalType":"address[]"}],"anonymous":false}],"bytecode":{"object":"0x60e060405234801561000f575f5ffd5b50604051619f06380380619f0683398181016040528101906100319190610133565b8273ffffffffffffffffffffffffffffffffffffffff1660808173ffffffffffffffffffffffffffffffffffffffff16815250508173ffffffffffffffffffffffffffffffffffffffff1660a08173ffffffffffffffffffffffffffffffffffffffff16815250508073ffffffffffffffffffffffffffffffffffffffff1660c08173ffffffffffffffffffffffffffffffffffffffff1681525050505050610183565b5f5ffd5b5f73ffffffffffffffffffffffffffffffffffffffff82169050919050565b5f610102826100d9565b9050919050565b610112816100f8565b811461011c575f5ffd5b50565b5f8151905061012d81610109565b92915050565b5f5f5f6060848603121561014a576101496100d5565b5b5f6101578682870161011f565b93505060206101688682870161011f565b92505060406101798682870161011f565b9150509250925092565b60805160a05160c051619d446101c25f395f818161011501526103d801525f818161034001526105b101525f81816102f701526105d50152619d445ff3fe608060405234801561000f575f5ffd5b5060043610610055575f3560e01c8063081c847914610059578063675be75314610077578063844332f5146100a7578063a435d58a146100d7578063f4491b9e146100f5575b5f5ffd5b610061610113565b60405161006e91906107aa565b60405180910390f35b610091600480360381019061008c9190610835565b610137565b60405161009e91906108e2565b60405180910390f35b6100c160048036038101906100bc9190610950565b610211565b6040516100ce91906108e2565b60405180910390f35b6100df6105af565b6040516100ec91906107aa565b60405180910390f35b6100fd6105d3565b60405161010a91906107aa565b60405180910390f35b7f000000000000000000000000000000000000000000000000000000000000000081565b61013f6106c8565b5f5f67ffffffffffffffff81111561015a576101596109ce565b5b6040519080825280602002602001820160405280156101885781602001602082028036833780820191505090505b5090503073ffffffffffffffffffffffffffffffffffffffff1663844332f58585846040518463ffffffff1660e01b81526004016101c893929190610b92565b6080604051808303815f875af11580156101e4573d5f5f3e3d5ffd5b505050506040513d601f19601f820116820180604052508101906102089190610cb1565b91505092915050565b6102196106c8565b5f858590501161025e576040517f08c379a000000000000000000000000000000000000000000000000000000000815260040161025590610d36565b60405180910390fd5b5f858560405161026d90610744565b610278929190610d54565b604051809103905ff080158015610291573d5f5f3e3d5ffd5b5090505f816040516102a290610751565b6102ac91906107aa565b604051809103905ff0801580156102c5573d5f5f3e3d5ffd5b5090505f6040516102d59061075e565b604051809103905ff0801580156102ee573d5f5f3e3d5ffd5b5090505f61031b7f00000000000000000000000000000000000000000000000000000000000000006105f7565b90505f8190508073ffffffffffffffffffffffffffffffffffffffff1663c0c53b8b847f0000000000000000000000000000000000000000000000000000000000000000886040518463ffffffff1660e01b815260040161037e93929190610d76565b5f604051808303815f87803b158015610395575f5ffd5b505af11580156103a7573d5f5f3e3d5ffd5b505050505f88889050111561045c578373ffffffffffffffffffffffffffffffffffffffff1663bf2d0f5e89898d8d7f00000000000000000000000000000000000000000000000000000000000000006040518663ffffffff1660e01b8152600401610417959493929190610e13565b5f604051808303815f875af1158015610432573d5f5f3e3d5ffd5b505050506040513d5f823e3d601f19601f8201168201806040525081019061045a9190610f44565b505b8373ffffffffffffffffffffffffffffffffffffffff1663a5a2f05e6040518163ffffffff1660e01b81526004015f604051808303815f87803b1580156104a1575f5ffd5b505af11580156104b3573d5f5f3e3d5ffd5b505050505f60405180608001604052808473ffffffffffffffffffffffffffffffffffffffff1681526020018773ffffffffffffffffffffffffffffffffffffffff1681526020018673ffffffffffffffffffffffffffffffffffffffff1681526020018573ffffffffffffffffffffffffffffffffffffffff1681525090508573ffffffffffffffffffffffffffffffffffffffff168373ffffffffffffffffffffffffffffffffffffffff167f8afb8a529e7ca59256172278d3c172516ed229e214e3321fc4ade7f2f7d68d2f87878f8f6040516105969493929190610f8b565b60405180910390a3809650505050505050949350505050565b7f000000000000000000000000000000000000000000000000000000000000000081565b7f000000000000000000000000000000000000000000000000000000000000000081565b5f6040517f3d602d80600a3d3981f3363d3d373d3d3d363d7300000000000000000000000081528260601b60148201527f5af43d82803e903d91602b57fd5bf3000000000000000000000000000000000060288201526037815ff09150505f73ffffffffffffffffffffffffffffffffffffffff168173ffffffffffffffffffffffffffffffffffffffff16036106c3576040517f08c379a00000000000000000000000000000000000000000000000000000000081526004016106ba90611013565b60405180910390fd5b919050565b60405180608001604052805f73ffffffffffffffffffffffffffffffffffffffff1681526020015f73ffffffffffffffffffffffffffffffffffffffff1681526020015f73ffffffffffffffffffffffffffffffffffffffff1681526020015f73ffffffffffffffffffffffffffffffffffffffff1681525090565b61211c8061103283390190565b6153448061314e83390190565b61187d8061849283390190565b5f73ffffffffffffffffffffffffffffffffffffffff82169050919050565b5f6107948261076b565b9050919050565b6107a48161078a565b82525050565b5f6020820190506107bd5f83018461079b565b92915050565b5f604051905090565b5f5ffd5b5f5ffd5b5f5ffd5b5f5ffd5b5f5ffd5b5f5f83601f8401126107f5576107f46107d4565b5b8235905067ffffffffffffffff811115610812576108116107d8565b5b60208301915083602082028301111561082e5761082d6107dc565b5b9250929050565b5f5f6020838503121561084b5761084a6107cc565b5b5f83013567ffffffffffffffff811115610868576108676107d0565b5b610874858286016107e0565b92509250509250929050565b6108898161078a565b82525050565b608082015f8201516108a35f850182610880565b5060208201516108b66020850182610880565b5060408201516108c96040850182610880565b5060608201516108dc6060850182610880565b50505050565b5f6080820190506108f55f83018461088f565b92915050565b5f5f83601f8401126109105761090f6107d4565b5b8235905067ffffffffffffffff81111561092d5761092c6107d8565b5b602083019150836020820283011115610949576109486107dc565b5b9250929050565b5f5f5f5f60408587031215610968576109676107cc565b5b5f85013567ffffffffffffffff811115610985576109846107d0565b5b610991878288016107e0565b9450945050602085013567ffffffffffffffff8111156109b4576109b36107d0565b5b6109c0878288016108fb565b925092505092959194509250565b7f4e487b71000000000000000000000000000000000000000000000000000000005f52604160045260245ffd5b5f82825260208201905092915050565b5f819050919050565b5f610a1f8383610880565b60208301905092915050565b610a348161078a565b8114610a3e575f5ffd5b50565b5f81359050610a4f81610a2b565b92915050565b5f610a636020840184610a41565b905092915050565b5f602082019050919050565b5f610a8283856109fb565b9350610a8d82610a0b565b805f5b85811015610ac557610aa28284610a55565b610aac8882610a14565b9750610ab783610a6b565b925050600181019050610a90565b5085925050509392505050565b5f81519050919050565b5f82825260208201905092915050565b5f819050602082019050919050565b5f819050919050565b610b0d81610afb565b82525050565b5f610b1e8383610b04565b60208301905092915050565b5f602082019050919050565b5f610b4082610ad2565b610b4a8185610adc565b9350610b5583610aec565b805f5b83811015610b85578151610b6c8882610b13565b9750610b7783610b2a565b925050600181019050610b58565b5085935050505092915050565b5f6040820190508181035f830152610bab818587610a77565b90508181036020830152610bbf8184610b36565b9050949350505050565b5f5ffd5b5f601f19601f8301169050919050565b610be682610bcd565b810181811067ffffffffffffffff82111715610c0557610c046109ce565b5b80604052505050565b5f610c176107c3565b9050610c238282610bdd565b919050565b5f81519050610c3681610a2b565b92915050565b5f60808284031215610c5157610c50610bc9565b5b610c5b6080610c0e565b90505f610c6a84828501610c28565b5f830152506020610c7d84828501610c28565b6020830152506040610c9184828501610c28565b6040830152506060610ca584828501610c28565b60608301525092915050565b5f60808284031215610cc657610cc56107cc565b5b5f610cd384828501610c3c565b91505092915050565b5f82825260208201905092915050565b7f4e656564207369676e65727300000000000000000000000000000000000000005f82015250565b5f610d20600c83610cdc565b9150610d2b82610cec565b602082019050919050565b5f6020820190508181035f830152610d4d81610d14565b9050919050565b5f6020820190508181035f830152610d6d818486610a77565b90509392505050565b5f606082019050610d895f83018661079b565b610d96602083018561079b565b610da3604083018461079b565b949350505050565b5f5ffd5b82818337505050565b5f610dc38385610adc565b93507f07ffffffffffffffffffffffffffffffffffffffffffffffffffffffffffffff831115610df657610df5610dab565b5b602083029250610e07838584610daf565b82840190509392505050565b5f6060820190508181035f830152610e2c818789610db8565b90508181036020830152610e41818587610a77565b9050610e50604083018461079b565b9695505050505050565b5f67ffffffffffffffff821115610e7457610e736109ce565b5b602082029050602081019050919050565b610e8e81610afb565b8114610e98575f5ffd5b50565b5f81519050610ea981610e85565b92915050565b5f610ec1610ebc84610e5a565b610c0e565b90508083825260208201905060208402830185811115610ee457610ee36107dc565b5b835b81811015610f0d5780610ef98882610e9b565b845260208401935050602081019050610ee6565b5050509392505050565b5f82601f830112610f2b57610f2a6107d4565b5b8151610f3b848260208601610eaf565b91505092915050565b5f60208284031215610f5957610f586107cc565b5b5f82015167ffffffffffffffff811115610f7657610f756107d0565b5b610f8284828501610f17565b91505092915050565b5f606082019050610f9e5f83018761079b565b610fab602083018661079b565b8181036040830152610fbe818486610a77565b905095945050505050565b7f455243313136373a20637265617465206661696c6564000000000000000000005f82015250565b5f610ffd601683610cdc565b915061100882610fc9565b602082019050919050565b5f6020820190508181035f83015261102a81610ff1565b905091905056fe608060405234801561000f575f5ffd5b5060405161211c38038061211c83398181016040528101906100319190610464565b5f815111610074576040517f08c379a000000000000000000000000000000000000000000000000000000000815260040161006b90610505565b60405180910390fd5b5f5f90505b81518110156102a2575f73ffffffffffffffffffffffffffffffffffffffff168282815181106100ac576100ab610523565b5b602002602001015173ffffffffffffffffffffffffffffffffffffffff160361010a576040517f08c379a00000000000000000000000000000000000000000000000000000000081526004016101019061059a565b60405180910390fd5b60015f8383815181106101205761011f610523565b5b602002602001015173ffffffffffffffffffffffffffffffffffffffff1673ffffffffffffffffffffffffffffffffffffffff1681526020019081526020015f205f9054906101000a900460ff16156101ae576040517f08c379a00000000000000000000000000000000000000000000000000000000081526004016101a590610602565b60405180910390fd5b5f8282815181106101c2576101c1610523565b5b6020026020010151908060018154018082558091505060019003905f5260205f20015f9091909190916101000a81548173ffffffffffffffffffffffffffffffffffffffff021916908373ffffffffffffffffffffffffffffffffffffffff1602179055506001805f84848151811061023e5761023d610523565b5b602002602001015173ffffffffffffffffffffffffffffffffffffffff1673ffffffffffffffffffffffffffffffffffffffff1681526020019081526020015f205f6101000a81548160ff0219169083151502179055508080600101915050610079565b5050610620565b5f604051905090565b5f5ffd5b5f5ffd5b5f5ffd5b5f601f19601f8301169050919050565b7f4e487b71000000000000000000000000000000000000000000000000000000005f52604160045260245ffd5b610304826102be565b810181811067ffffffffffffffff82111715610323576103226102ce565b5b80604052505050565b5f6103356102a9565b905061034182826102fb565b919050565b5f67ffffffffffffffff8211156103605761035f6102ce565b5b602082029050602081019050919050565b5f5ffd5b5f73ffffffffffffffffffffffffffffffffffffffff82169050919050565b5f61039e82610375565b9050919050565b6103ae81610394565b81146103b8575f5ffd5b50565b5f815190506103c9816103a5565b92915050565b5f6103e16103dc84610346565b61032c565b9050808382526020820190506020840283018581111561040457610403610371565b5b835b8181101561042d578061041988826103bb565b845260208401935050602081019050610406565b5050509392505050565b5f82601f83011261044b5761044a6102ba565b5b815161045b8482602086016103cf565b91505092915050565b5f60208284031215610479576104786102b2565b5b5f82015167ffffffffffffffff811115610496576104956102b6565b5b6104a284828501610437565b91505092915050565b5f82825260208201905092915050565b7f4e656564207369676e65727300000000000000000000000000000000000000005f82015250565b5f6104ef600c836104ab565b91506104fa826104bb565b602082019050919050565b5f6020820190508181035f83015261051c816104e3565b9050919050565b7f4e487b71000000000000000000000000000000000000000000000000000000005f52603260045260245ffd5b7f5a65726f206164647265737300000000000000000000000000000000000000005f82015250565b5f610584600c836104ab565b915061058f82610550565b602082019050919050565b5f6020820190508181035f8301526105b181610578565b9050919050565b7f4475706c6963617465207369676e6572000000000000000000000000000000005f82015250565b5f6105ec6010836104ab565b91506105f7826105b8565b602082019050919050565b5f6020820190508181035f830152610619816105e0565b9050919050565b611aef8061062d5f395ff3fe608060405234801561000f575f5ffd5b50600436106100a7575f3560e01c806394cf795e1161006f57806394cf795e146101a1578063b715be81146101bf578063b759f954146101dd578063c7f758a8146101f9578063da35c66414610229578063fe0d94c114610247576100a7565b8063013cf08b146100ab5780632079fb9a146100e15780632358d5a8146101115780633153fedb146101415780637df73e2714610171575b5f5ffd5b6100c560048036038101906100c09190610d33565b610263565b6040516100d89796959493929190610e88565b60405180910390f35b6100fb60048036038101906100f69190610d33565b6103d8565b6040516101089190610f03565b60405180910390f35b61012b60048036038101906101269190610f46565b610412565b6040516101389190610f84565b60405180910390f35b61015b60048036038101906101569190611053565b61043c565b60405161016891906110e4565b60405180910390f35b61018b600480360381019061018691906110fd565b6105ea565b6040516101989190610f84565b60405180910390f35b6101a9610607565b6040516101b691906111df565b60405180910390f35b6101c7610691565b6040516101d491906110e4565b60405180910390f35b6101f760048036038101906101f29190610d33565b61069c565b005b610213600480360381019061020e9190610d33565b6108a4565b604051610220919061134d565b60405180910390f35b610231610a7b565b60405161023e91906110e4565b60405180910390f35b610261600480360381019061025c9190610d33565b610a81565b005b6003602052805f5260405f205f91509050805f015490806001015f9054906101000a900473ffffffffffffffffffffffffffffffffffffffff16908060020180546102ad9061139a565b80601f01602080910402602001604051908101604052809291908181526020018280546102d99061139a565b80156103245780601f106102fb57610100808354040283529160200191610324565b820191905f5260205f20905b81548152906001019060200180831161030757829003601f168201915b5050505050908060030180546103399061139a565b80601f01602080910402602001604051908101604052809291908181526020018280546103659061139a565b80156103b05780601f10610387576101008083540402835291602001916103b0565b820191905f5260205f20905b81548152906001019060200180831161039357829003601f168201915b505050505090806004015490806005015f9054906101000a900460ff16908060060154905087565b5f81815481106103e6575f80fd5b905f5260205f20015f915054906101000a900473ffffffffffffffffffffffffffffffffffffffff1681565b6004602052815f5260405f20602052805f5260405f205f915091509054906101000a900460ff1681565b5f60015f3373ffffffffffffffffffffffffffffffffffffffff1673ffffffffffffffffffffffffffffffffffffffff1681526020019081526020015f205f9054906101000a900460ff166104c6576040517f08c379a00000000000000000000000000000000000000000000000000000000081526004016104bd90611414565b60405180910390fd5b5f60025f8154809291906104d99061145f565b9190505590505f60035f8381526020019081526020015f20905081815f018190555087816001015f6101000a81548173ffffffffffffffffffffffffffffffffffffffff021916908373ffffffffffffffffffffffffffffffffffffffff160217905550868682600201918261055092919061167d565b5084848260030191826105649291906117ac565b5060018160040181905550438160060181905550600160045f8481526020019081526020015f205f3373ffffffffffffffffffffffffffffffffffffffff1673ffffffffffffffffffffffffffffffffffffffff1681526020019081526020015f205f6101000a81548160ff021916908315150217905550819250505095945050505050565b6001602052805f5260405f205f915054906101000a900460ff1681565b60605f80548060200260200160405190810160405280929190818152602001828054801561068757602002820191905f5260205f20905b815f9054906101000a900473ffffffffffffffffffffffffffffffffffffffff1673ffffffffffffffffffffffffffffffffffffffff168152602001906001019080831161063e575b5050505050905090565b5f5f80549050905090565b60015f3373ffffffffffffffffffffffffffffffffffffffff1673ffffffffffffffffffffffffffffffffffffffff1681526020019081526020015f205f9054906101000a900460ff16610725576040517f08c379a000000000000000000000000000000000000000000000000000000000815260040161071c90611414565b60405180910390fd5b5f60035f8381526020019081526020015f209050806005015f9054906101000a900460ff161561078a576040517f08c379a0000000000000000000000000000000000000000000000000000000008152600401610781906118c3565b60405180910390fd5b60045f8381526020019081526020015f205f3373ffffffffffffffffffffffffffffffffffffffff1673ffffffffffffffffffffffffffffffffffffffff1681526020019081526020015f205f9054906101000a900460ff1615610823576040517f08c379a000000000000000000000000000000000000000000000000000000000815260040161081a9061192b565b60405180910390fd5b600160045f8481526020019081526020015f205f3373ffffffffffffffffffffffffffffffffffffffff1673ffffffffffffffffffffffffffffffffffffffff1681526020019081526020015f205f6101000a81548160ff021916908315150217905550806004015f81548092919061089b9061145f565b91905055505050565b6108ac610ca8565b60035f8381526020019081526020015f206040518060e00160405290815f8201548152602001600182015f9054906101000a900473ffffffffffffffffffffffffffffffffffffffff1673ffffffffffffffffffffffffffffffffffffffff1673ffffffffffffffffffffffffffffffffffffffff1681526020016002820180546109369061139a565b80601f01602080910402602001604051908101604052809291908181526020018280546109629061139a565b80156109ad5780601f10610984576101008083540402835291602001916109ad565b820191905f5260205f20905b81548152906001019060200180831161099057829003601f168201915b505050505081526020016003820180546109c69061139a565b80601f01602080910402602001604051908101604052809291908181526020018280546109f29061139a565b8015610a3d5780601f10610a1457610100808354040283529160200191610a3d565b820191905f5260205f20905b815481529060010190602001808311610a2057829003601f168201915b5050505050815260200160048201548152602001600582015f9054906101000a900460ff161515151581526020016006820154815250509050919050565b60025481565b60015f3373ffffffffffffffffffffffffffffffffffffffff1673ffffffffffffffffffffffffffffffffffffffff1681526020019081526020015f205f9054906101000a900460ff16610b0a576040517f08c379a0000000000000000000000000000000000000000000000000000000008152600401610b0190611414565b60405180910390fd5b5f60035f8381526020019081526020015f209050806005015f9054906101000a900460ff1615610b6f576040517f08c379a0000000000000000000000000000000000000000000000000000000008152600401610b66906118c3565b60405180910390fd5b5f80549050816004015414610bb9576040517f08c379a0000000000000000000000000000000000000000000000000000000008152600401610bb090611993565b60405180910390fd5b6001816005015f6101000a81548160ff0219169083151502179055505f816001015f9054906101000a900473ffffffffffffffffffffffffffffffffffffffff1673ffffffffffffffffffffffffffffffffffffffff1682600201604051610c219190611a3b565b5f604051808303815f865af19150503d805f8114610c5a576040519150601f19603f3d011682016040523d82523d5f602084013e610c5f565b606091505b5050905080610ca3576040517f08c379a0000000000000000000000000000000000000000000000000000000008152600401610c9a90611a9b565b60405180910390fd5b505050565b6040518060e001604052805f81526020015f73ffffffffffffffffffffffffffffffffffffffff16815260200160608152602001606081526020015f81526020015f151581526020015f81525090565b5f5ffd5b5f5ffd5b5f819050919050565b610d1281610d00565b8114610d1c575f5ffd5b50565b5f81359050610d2d81610d09565b92915050565b5f60208284031215610d4857610d47610cf8565b5b5f610d5584828501610d1f565b91505092915050565b610d6781610d00565b82525050565b5f73ffffffffffffffffffffffffffffffffffffffff82169050919050565b5f610d9682610d6d565b9050919050565b610da681610d8c565b82525050565b5f81519050919050565b5f82825260208201905092915050565b8281835e5f83830152505050565b5f601f19601f8301169050919050565b5f610dee82610dac565b610df88185610db6565b9350610e08818560208601610dc6565b610e1181610dd4565b840191505092915050565b5f81519050919050565b5f82825260208201905092915050565b5f610e4082610e1c565b610e4a8185610e26565b9350610e5a818560208601610dc6565b610e6381610dd4565b840191505092915050565b5f8115159050919050565b610e8281610e6e565b82525050565b5f60e082019050610e9b5f83018a610d5e565b610ea86020830189610d9d565b8181036040830152610eba8188610de4565b90508181036060830152610ece8187610e36565b9050610edd6080830186610d5e565b610eea60a0830185610e79565b610ef760c0830184610d5e565b98975050505050505050565b5f602082019050610f165f830184610d9d565b92915050565b610f2581610d8c565b8114610f2f575f5ffd5b50565b5f81359050610f4081610f1c565b92915050565b5f5f60408385031215610f5c57610f5b610cf8565b5b5f610f6985828601610d1f565b9250506020610f7a85828601610f32565b9150509250929050565b5f602082019050610f975f830184610e79565b92915050565b5f5ffd5b5f5ffd5b5f5ffd5b5f5f83601f840112610fbe57610fbd610f9d565b5b8235905067ffffffffffffffff811115610fdb57610fda610fa1565b5b602083019150836001820283011115610ff757610ff6610fa5565b5b9250929050565b5f5f83601f84011261101357611012610f9d565b5b8235905067ffffffffffffffff8111156110305761102f610fa1565b5b60208301915083600182028301111561104c5761104b610fa5565b5b9250929050565b5f5f5f5f5f6060868803121561106c5761106b610cf8565b5b5f61107988828901610f32565b955050602086013567ffffffffffffffff81111561109a57611099610cfc565b5b6110a688828901610fa9565b9450945050604086013567ffffffffffffffff8111156110c9576110c8610cfc565b5b6110d588828901610ffe565b92509250509295509295909350565b5f6020820190506110f75f830184610d5e565b92915050565b5f6020828403121561111257611111610cf8565b5b5f61111f84828501610f32565b91505092915050565b5f81519050919050565b5f82825260208201905092915050565b5f819050602082019050919050565b61115a81610d8c565b82525050565b5f61116b8383611151565b60208301905092915050565b5f602082019050919050565b5f61118d82611128565b6111978185611132565b93506111a283611142565b805f5b838110156111d25781516111b98882611160565b97506111c483611177565b9250506001810190506111a5565b5085935050505092915050565b5f6020820190508181035f8301526111f78184611183565b905092915050565b61120881610d00565b82525050565b5f82825260208201905092915050565b5f61122882610dac565b611232818561120e565b9350611242818560208601610dc6565b61124b81610dd4565b840191505092915050565b5f82825260208201905092915050565b5f61127082610e1c565b61127a8185611256565b935061128a818560208601610dc6565b61129381610dd4565b840191505092915050565b6112a781610e6e565b82525050565b5f60e083015f8301516112c25f8601826111ff565b5060208301516112d56020860182611151565b50604083015184820360408601526112ed828261121e565b915050606083015184820360608601526113078282611266565b915050608083015161131c60808601826111ff565b5060a083015161132f60a086018261129e565b5060c083015161134260c08601826111ff565b508091505092915050565b5f6020820190508181035f83015261136581846112ad565b905092915050565b7f4e487b71000000000000000000000000000000000000000000000000000000005f52602260045260245ffd5b5f60028204905060018216806113b157607f821691505b6020821081036113c4576113c361136d565b5b50919050565b7f4e6f742061207369676e657200000000000000000000000000000000000000005f82015250565b5f6113fe600c83610e26565b9150611409826113ca565b602082019050919050565b5f6020820190508181035f83015261142b816113f2565b9050919050565b7f4e487b71000000000000000000000000000000000000000000000000000000005f52601160045260245ffd5b5f61146982610d00565b91507fffffffffffffffffffffffffffffffffffffffffffffffffffffffffffffffff820361149b5761149a611432565b5b600182019050919050565b5f82905092915050565b7f4e487b71000000000000000000000000000000000000000000000000000000005f52604160045260245ffd5b5f819050815f5260205f209050919050565b5f6020601f8301049050919050565b5f82821b905092915050565b5f600883026115397fffffffffffffffffffffffffffffffffffffffffffffffffffffffffffffffff826114fe565b61154386836114fe565b95508019841693508086168417925050509392505050565b5f819050919050565b5f61157e61157961157484610d00565b61155b565b610d00565b9050919050565b5f819050919050565b61159783611564565b6115ab6115a382611585565b84845461150a565b825550505050565b5f5f905090565b6115c26115b3565b6115cd81848461158e565b505050565b5b818110156115f0576115e55f826115ba565b6001810190506115d3565b5050565b601f82111561163557611606816114dd565b61160f846114ef565b8101602085101561161e578190505b61163261162a856114ef565b8301826115d2565b50505b505050565b5f82821c905092915050565b5f6116555f198460080261163a565b1980831691505092915050565b5f61166d8383611646565b9150826002028217905092915050565b61168783836114a6565b67ffffffffffffffff8111156116a05761169f6114b0565b5b6116aa825461139a565b6116b58282856115f4565b5f601f8311600181146116e2575f84156116d0578287013590505b6116da8582611662565b865550611741565b601f1984166116f0866114dd565b5f5b82811015611717578489013582556001820191506020850194506020810190506116f2565b868310156117345784890135611730601f891682611646565b8355505b6001600288020188555050505b50505050505050565b5f82905092915050565b5f819050815f5260205f209050919050565b601f8211156117a75761177881611754565b611781846114ef565b81016020851015611790578190505b6117a461179c856114ef565b8301826115d2565b50505b505050565b6117b6838361174a565b67ffffffffffffffff8111156117cf576117ce6114b0565b5b6117d9825461139a565b6117e4828285611766565b5f601f831160018114611811575f84156117ff578287013590505b6118098582611662565b865550611870565b601f19841661181f86611754565b5f5b8281101561184657848901358255600182019150602085019450602081019050611821565b86831015611863578489013561185f601f891682611646565b8355505b6001600288020188555050505b50505050505050565b7f416c7265616479206578656375746564000000000000000000000000000000005f82015250565b5f6118ad601083610e26565b91506118b882611879565b602082019050919050565b5f6020820190508181035f8301526118da816118a1565b9050919050565b7f416c726561647920617070726f766564000000000000000000000000000000005f82015250565b5f611915601083610e26565b9150611920826118e1565b602082019050919050565b5f6020820190508181035f83015261194281611909565b9050919050565b7f4e6f7420616c6c207369676e65727320617070726f76656400000000000000005f82015250565b5f61197d601883610e26565b915061198882611949565b602082019050919050565b5f6020820190508181035f8301526119aa81611971565b9050919050565b5f81905092915050565b5f81546119c78161139a565b6119d181866119b1565b9450600182165f81146119eb5760018114611a0057611a32565b60ff1983168652811515820286019350611a32565b611a09856114dd565b5f5b83811015611a2a57815481890152600182019150602081019050611a0b565b838801955050505b50505092915050565b5f611a4682846119bb565b915081905092915050565b7f457865637574696f6e206661696c6564000000000000000000000000000000005f82015250565b5f611a85601083610e26565b9150611a9082611a51565b602082019050919050565b5f6020820190508181035f830152611ab281611a79565b905091905056fea26469706673582212208fd96a94b44d6887a9d371a5ed2d107ae2dcda0ea7b027ded1df3fc19bd16d8164736f6c634300081f0033608060405234801561000f575f5ffd5b5060405161534438038061534483398181016040528101906100319190610114565b805f5f6101000a81548173ffffffffffffffffffffffffffffffffffffffff021916908373ffffffffffffffffffffffffffffffffffffffff1602179055503360015f6101000a81548173ffffffffffffffffffffffffffffffffffffffff021916908373ffffffffffffffffffffffffffffffffffffffff1602179055505061013f565b5f5ffd5b5f73ffffffffffffffffffffffffffffffffffffffff82169050919050565b5f6100e3826100ba565b9050919050565b6100f3816100d9565b81146100fd575f5ffd5b50565b5f8151905061010e816100ea565b92915050565b5f60208284031215610129576101286100b6565b5b5f61013684828501610100565b91505092915050565b6151f88061014c5f395ff3fe608060405234801561000f575f5ffd5b50600436106100fe575f3560e01c8063c76ed48a11610095578063e2c0af4411610064578063e2c0af44146102c7578063e59771d2146102e3578063eb4a464514610301578063edf743fe1461031d576100fe565b8063c76ed48a14610224578063cad0b8db14610254578063cde0072414610272578063d3e8948314610290576100fe565b8063a1c5cf66116100d1578063a1c5cf661461019e578063a5a2f05e146101ba578063b41112c7146101c4578063bf2d0f5e146101f4576100fe565b806317a1f828146101025780632b07fce3146101205780637e94eab9146101505780639b26784e1461016e575b5f5ffd5b61010a61033b565b604051610117919061311d565b60405180910390f35b61013a60048036038101906101359190613178565b6108f3565b604051610147919061327a565b60405180910390f35b610158610d6c565b60405161016591906132a9565b60405180910390f35b61018860048036038101906101839190613178565b610d91565b6040516101959190613329565b60405180910390f35b6101b860048036038101906101b39190613178565b610f81565b005b6101c26110ff565b005b6101de60048036038101906101d9919061346a565b611226565b6040516101eb9190613568565b60405180910390f35b61020e60048036038101906102099190613600565b6113d4565b60405161021b9190613739565b60405180910390f35b61023e60048036038101906102399190613178565b6115d3565b60405161024b91906137c5565b60405180910390f35b61025c61170b565b6040516102699190613568565b60405180910390f35b61027a611711565b60405161028791906137f4565b60405180910390f35b6102aa60048036038101906102a59190613178565b611724565b6040516102be989796959493929190613918565b60405180910390f35b6102e160048036038101906102dc91906139a9565b611ad1565b005b6102eb611dbe565b6040516102f89190613568565b60405180910390f35b61031b60048036038101906103169190613178565b611dca565b005b610325611f47565b60405161033291906132a9565b60405180910390f35b60605f5f90505f5f90505b6002805490508110156103a4576002818154811061036757610366613aab565b5b905f5260205f2090601202016002015f9054906101000a900460ff161561039757818061039390613b05565b9250505b8080600101915050610346565b505f8167ffffffffffffffff8111156103c0576103bf613b4c565b5b6040519080825280602002602001820160405280156103f957816020015b6103e6612940565b8152602001906001900390816103de5790505b5090505f5f90505f5f90505b6002805490508110156108e9576002818154811061042657610425613aab565b5b905f5260205f2090601202016002015f9054906101000a900460ff16156108dc576002818154811061045b5761045a613aab565b5b905f5260205f209060120201604051806101200160405290815f820154815260200160018201805461048c90613ba6565b80601f01602080910402602001604051908101604052809291908181526020018280546104b890613ba6565b80156105035780601f106104da57610100808354040283529160200191610503565b820191905f5260205f20905b8154815290600101906020018083116104e657829003601f168201915b50505050508152602001600282015f9054906101000a900460ff1615151515815260200160038201604051806101000160405290815f82018054806020026020016040519081016040528092919081815260200182805480156105b857602002820191905f5260205f20905b815f9054906101000a900473ffffffffffffffffffffffffffffffffffffffff1673ffffffffffffffffffffffffffffffffffffffff168152602001906001019080831161056f575b505050505081526020016001820180548060200260200160405190810160405280929190818152602001828054801561064f57602002820191905f5260205f20905f905b82829054906101000a900460e01b7bffffffffffffffffffffffffffffffffffffffffffffffffffffffff1916815260200190600401906020826003010492830192600103820291508084116105fc5790505b5050505050815260200160028201548152602001600382015481526020016004820154815260200160058201548152602001600682015f9054906101000a900460ff161515151581526020016006820160019054906101000a900460ff1615151515815250508152602001600a82016040518060800160405290815f8201548152602001600182015481526020016002820180548060200260200160405190810160405280929190818152602001828054801561075e57602002820191905f5260205f20905b815f9054906101000a900473ffffffffffffffffffffffffffffffffffffffff1673ffffffffffffffffffffffffffffffffffffffff1681526020019060010190808311610715575b50505050508152602001600382018054806020026020016040519081016040528092919081815260200182805480156107e957602002820191905f5260205f20905b815f9054906101000a900473ffffffffffffffffffffffffffffffffffffffff1673ffffffffffffffffffffffffffffffffffffffff16815260200190600101908083116107a0575b5050505050815250508152602001600e820180548060200260200160405190810160405280929190818152602001828054801561087857602002820191905f5260205f20905b815f9054906101000a900473ffffffffffffffffffffffffffffffffffffffff1673ffffffffffffffffffffffffffffffffffffffff168152602001906001019080831161082f575b50505050508152602001600f82015f9054906101000a900460ff1660ff1660ff168152602001601082015481526020016011820154815250508383806108bd90613b05565b9450815181106108d0576108cf613aab565b5b60200260200101819052505b8080600101915050610405565b5081935050505090565b6108fb612940565b6002828154811061090f5761090e613aab565b5b905f5260205f209060120201604051806101200160405290815f820154815260200160018201805461094090613ba6565b80601f016020809104026020016040519081016040528092919081815260200182805461096c90613ba6565b80156109b75780601f1061098e576101008083540402835291602001916109b7565b820191905f5260205f20905b81548152906001019060200180831161099a57829003601f168201915b50505050508152602001600282015f9054906101000a900460ff1615151515815260200160038201604051806101000160405290815f8201805480602002602001604051908101604052809291908181526020018280548015610a6c57602002820191905f5260205f20905b815f9054906101000a900473ffffffffffffffffffffffffffffffffffffffff1673ffffffffffffffffffffffffffffffffffffffff1681526020019060010190808311610a23575b5050505050815260200160018201805480602002602001604051908101604052809291908181526020018280548015610b0357602002820191905f5260205f20905f905b82829054906101000a900460e01b7bffffffffffffffffffffffffffffffffffffffffffffffffffffffff191681526020019060040190602082600301049283019260010382029150808411610ab05790505b5050505050815260200160028201548152602001600382015481526020016004820154815260200160058201548152602001600682015f9054906101000a900460ff161515151581526020016006820160019054906101000a900460ff1615151515815250508152602001600a82016040518060800160405290815f82015481526020016001820154815260200160028201805480602002602001604051908101604052809291908181526020018280548015610c1257602002820191905f5260205f20905b815f9054906101000a900473ffffffffffffffffffffffffffffffffffffffff1673ffffffffffffffffffffffffffffffffffffffff1681526020019060010190808311610bc9575b5050505050815260200160038201805480602002602001604051908101604052809291908181526020018280548015610c9d57602002820191905f5260205f20905b815f9054906101000a900473ffffffffffffffffffffffffffffffffffffffff1673ffffffffffffffffffffffffffffffffffffffff1681526020019060010190808311610c54575b5050505050815250508152602001600e8201805480602002602001604051908101604052809291908181526020018280548015610d2c57602002820191905f5260205f20905b815f9054906101000a900473ffffffffffffffffffffffffffffffffffffffff1673ffffffffffffffffffffffffffffffffffffffff1681526020019060010190808311610ce3575b50505050508152602001600f82015f9054906101000a900460ff1660ff1660ff168152602001601082015481526020016011820154815250509050919050565b60015f9054906101000a900473ffffffffffffffffffffffffffffffffffffffff1681565b610d99612998565b5f5f90505b600280549050811015610f40578260028281548110610dc057610dbf613aab565b5b905f5260205f2090601202015f015403610f335760028181548110610de857610de7613aab565b5b905f5260205f209060120201600a016040518060800160405290815f82015481526020016001820154815260200160028201805480602002602001604051908101604052809291908181526020018280548015610e9757602002820191905f5260205f20905b815f9054906101000a900473ffffffffffffffffffffffffffffffffffffffff1673ffffffffffffffffffffffffffffffffffffffff1681526020019060010190808311610e4e575b5050505050815260200160038201805480602002602001604051908101604052809291908181526020018280548015610f2257602002820191905f5260205f20905b815f9054906101000a900473ffffffffffffffffffffffffffffffffffffffff1673ffffffffffffffffffffffffffffffffffffffff1681526020019060010190808311610ed9575b505050505081525050915050610f7c565b8080600101915050610d9e565b506040517f08c379a0000000000000000000000000000000000000000000000000000000008152600401610f7390613c20565b60405180910390fd5b919050565b5f5f9054906101000a900473ffffffffffffffffffffffffffffffffffffffff1673ffffffffffffffffffffffffffffffffffffffff163373ffffffffffffffffffffffffffffffffffffffff161461100f576040517f08c379a000000000000000000000000000000000000000000000000000000000815260040161100690613c88565b60405180910390fd5b5f5f90505b6002805490508110156110c057816002828154811061103657611035613aab565b5b905f5260205f2090601202015f0154036110b3576001600282815481106110605761105f613aab565b5b905f5260205f2090601202016002015f6101000a81548160ff021916908315150217905550436002828154811061109a57611099613aab565b5b905f5260205f20906012020160110181905550506110fc565b8080600101915050611014565b506040517f08c379a00000000000000000000000000000000000000000000000000000000081526004016110f390613c20565b60405180910390fd5b50565b60015f9054906101000a900473ffffffffffffffffffffffffffffffffffffffff1673ffffffffffffffffffffffffffffffffffffffff163373ffffffffffffffffffffffffffffffffffffffff161461118e576040517f08c379a000000000000000000000000000000000000000000000000000000000815260040161118590613cf0565b60405180910390fd5b600160149054906101000a900460ff16156111de576040517f08c379a00000000000000000000000000000000000000000000000000000000081526004016111d590613d58565b60405180910390fd5b60018060146101000a81548160ff0219169083151502179055507f07342bbc2fa54fca88a6147bc8057a318f326325ca459c6419e674d5ac7e20ab60405160405180910390a1565b5f5f5f9054906101000a900473ffffffffffffffffffffffffffffffffffffffff1673ffffffffffffffffffffffffffffffffffffffff163373ffffffffffffffffffffffffffffffffffffffff1614806112e65750600160149054906101000a900460ff161580156112e5575060015f9054906101000a900473ffffffffffffffffffffffffffffffffffffffff1673ffffffffffffffffffffffffffffffffffffffff163373ffffffffffffffffffffffffffffffffffffffff16145b5b611325576040517f08c379a000000000000000000000000000000000000000000000000000000000815260040161131c90613dc0565b60405180910390fd5b6113c788888080601f0160208091040260200160405190810160405280939291908181526020018383808284375f81840152601f19601f820116905080830192505050505050508761137690614104565b87611380906141c3565b8787808060200260200160405190810160405280939291908181526020018383602002808284375f81840152601f19601f8201169050808301925050505050505086611f6b565b9050979650505050505050565b60605f5f9054906101000a900473ffffffffffffffffffffffffffffffffffffffff1673ffffffffffffffffffffffffffffffffffffffff163373ffffffffffffffffffffffffffffffffffffffff1614806114955750600160149054906101000a900460ff16158015611494575060015f9054906101000a900473ffffffffffffffffffffffffffffffffffffffff1673ffffffffffffffffffffffffffffffffffffffff163373ffffffffffffffffffffffffffffffffffffffff16145b5b6114d4576040517f08c379a00000000000000000000000000000000000000000000000000000000081526004016114cb90613dc0565b60405180910390fd5b5f8686905090505f8167ffffffffffffffff8111156114f6576114f5613b4c565b5b6040519080825280602002602001820160405280156115245781602001602082028036833780820191505090505b5090505f5f90505b828110156115c457611598858a8a8481811061154b5761154a613aab565b5b905060200201358989808060200260200160405190810160405280939291908181526020018383602002808284375f81840152601f19601f8201169050808301925050505050505061222d565b8282815181106115ab576115aa613aab565b5b602002602001018181525050808060010191505061152c565b50809250505095945050505050565b60605f5f90505b6002805490508110156116ca5782600282815481106115fc576115fb613aab565b5b905f5260205f2090601202015f0154036116bd576002818154811061162457611623613aab565b5b905f5260205f209060120201600e018054806020026020016040519081016040528092919081815260200182805480156116b057602002820191905f5260205f20905b815f9054906101000a900473ffffffffffffffffffffffffffffffffffffffff1673ffffffffffffffffffffffffffffffffffffffff1681526020019060010190808311611667575b5050505050915050611706565b80806001019150506115da565b506040517f08c379a00000000000000000000000000000000000000000000000000000000081526004016116fd90613c20565b60405180910390fd5b919050565b60035481565b600160149054906101000a900460ff1681565b60028181548110611733575f80fd5b905f5260205f2090601202015f91509050805f01549080600101805461175890613ba6565b80601f016020809104026020016040519081016040528092919081815260200182805461178490613ba6565b80156117cf5780601f106117a6576101008083540402835291602001916117cf565b820191905f5260205f20905b8154815290600101906020018083116117b257829003601f168201915b505050505090806002015f9054906101000a900460ff169080600301604051806101000160405290815f820180548060200260200160405190810160405280929190818152602001828054801561187857602002820191905f5260205f20905b815f9054906101000a900473ffffffffffffffffffffffffffffffffffffffff1673ffffffffffffffffffffffffffffffffffffffff168152602001906001019080831161182f575b505050505081526020016001820180548060200260200160405190810160405280929190818152602001828054801561190f57602002820191905f5260205f20905f905b82829054906101000a900460e01b7bffffffffffffffffffffffffffffffffffffffffffffffffffffffff1916815260200190600401906020826003010492830192600103820291508084116118bc5790505b5050505050815260200160028201548152602001600382015481526020016004820154815260200160058201548152602001600682015f9054906101000a900460ff161515151581526020016006820160019054906101000a900460ff1615151515815250509080600a016040518060800160405290815f82015481526020016001820154815260200160028201805480602002602001604051908101604052809291908181526020018280548015611a1a57602002820191905f5260205f20905b815f9054906101000a900473ffffffffffffffffffffffffffffffffffffffff1673ffffffffffffffffffffffffffffffffffffffff16815260200190600101908083116119d1575b5050505050815260200160038201805480602002602001604051908101604052809291908181526020018280548015611aa557602002820191905f5260205f20905b815f9054906101000a900473ffffffffffffffffffffffffffffffffffffffff1673ffffffffffffffffffffffffffffffffffffffff1681526020019060010190808311611a5c575b5050505050815250509080600f015f9054906101000a900460ff16908060100154908060110154905088565b5f5f9054906101000a900473ffffffffffffffffffffffffffffffffffffffff1673ffffffffffffffffffffffffffffffffffffffff163373ffffffffffffffffffffffffffffffffffffffff1614611b5f576040517f08c379a0000000000000000000000000000000000000000000000000000000008152600401611b5690613c88565b60405180910390fd5b5f8383905011611ba4576040517f08c379a0000000000000000000000000000000000000000000000000000000008152600401611b9b9061421f565b60405180910390fd5b60018160ff1610158015611bbc5750600a8160ff1611155b611bfb576040517f08c379a0000000000000000000000000000000000000000000000000000000008152600401611bf290614287565b60405180910390fd5b5f5f90505b600280549050811015611d78578860028281548110611c2257611c21613aab565b5b905f5260205f2090601202015f015403611d6b57878760028381548110611c4c57611c4b613aab565b5b905f5260205f2090601202016001019182611c6892919061444f565b508560028281548110611c7e57611c7d613aab565b5b905f5260205f2090601202016003018181611c999190614c78565b9050508460028281548110611cb157611cb0613aab565b5b905f5260205f209060120201600a018181611ccc9190614d0c565b905050838360028381548110611ce557611ce4613aab565b5b905f5260205f209060120201600e019190611d019291906129be565b508160028281548110611d1757611d16613aab565b5b905f5260205f209060120201600f015f6101000a81548160ff021916908360ff1602179055504360028281548110611d5257611d51613aab565b5b905f5260205f2090601202016011018190555050611db4565b8080600101915050611c00565b506040517f08c379a0000000000000000000000000000000000000000000000000000000008152600401611dab90613c20565b60405180910390fd5b5050505050505050565b5f600280549050905090565b5f5f9054906101000a900473ffffffffffffffffffffffffffffffffffffffff1673ffffffffffffffffffffffffffffffffffffffff163373ffffffffffffffffffffffffffffffffffffffff1614611e58576040517f08c379a0000000000000000000000000000000000000000000000000000000008152600401611e4f90613c88565b60405180910390fd5b5f5f90505b600280549050811015611f08578160028281548110611e7f57611e7e613aab565b5b905f5260205f2090601202015f015403611efb575f60028281548110611ea857611ea7613aab565b5b905f5260205f2090601202016002015f6101000a81548160ff0219169083151502179055504360028281548110611ee257611ee1613aab565b5b905f5260205f2090601202016011018190555050611f44565b8080600101915050611e5d565b506040517f08c379a0000000000000000000000000000000000000000000000000000000008152600401611f3b90613c20565b60405180910390fd5b50565b5f5f9054906101000a900473ffffffffffffffffffffffffffffffffffffffff1681565b5f5f835111611faf576040517f08c379a0000000000000000000000000000000000000000000000000000000008152600401611fa69061421f565b60405180910390fd5b60018260ff1610158015611fc75750600a8260ff1611155b612006576040517f08c379a0000000000000000000000000000000000000000000000000000000008152600401611ffd90614287565b60405180910390fd5b5f60035f81548092919061201990613b05565b919050559050600260018160018154018082558091505003905f5260205f209050505f600260016002805490506120509190614d1a565b8154811061206157612060613aab565b5b905f5260205f209060120201905081815f0181905550878160010190816120889190614d4d565b506001816002015f6101000a81548160ff02191690831515021790555086816003015f820151815f0190805190602001906120c4929190612a5b565b5060208201518160010190805190602001906120e1929190612ae2565b5060408201518160020155606082015181600301556080820151816004015560a0820151816005015560c0820151816006015f6101000a81548160ff02191690831515021790555060e08201518160060160016101000a81548160ff0219169083151502179055509050508581600a015f820151815f015560208201518160010155604082015181600201908051906020019061217f929190612a5b565b50606082015181600301908051906020019061219c929190612a5b565b509050508481600e0190805190602001906121b8929190612a5b565b508381600f015f6101000a81548160ff021916908360ff160217905550438160100181905550438160110181905550817fc402f15c92cbb1b3436a267bb09e31f369812f7b8165bffecf926e020b895cf0896040516122179190614e1c565b60405180910390a2819250505095945050505050565b5f5f8490505f6040518061010001604052808373ffffffffffffffffffffffffffffffffffffffff16636f905af1886040518263ffffffff1660e01b81526004016122789190613568565b5f60405180830381865afa158015612292573d5f5f3e3d5ffd5b505050506040513d5f823e3d601f19601f820116820180604052508101906122ba9190614ee5565b81526020018373ffffffffffffffffffffffffffffffffffffffff166344b0a581886040518263ffffffff1660e01b81526004016122f89190613568565b5f60405180830381865afa158015612312573d5f5f3e3d5ffd5b505050506040513d5f823e3d601f19601f8201168201806040525081019061233a9190614fd5565b81526020018373ffffffffffffffffffffffffffffffffffffffff1663e7c49d81886040518263ffffffff1660e01b81526004016123789190613568565b602060405180830381865afa158015612393573d5f5f3e3d5ffd5b505050506040513d601f19601f820116820180604052508101906123b79190615030565b81526020018373ffffffffffffffffffffffffffffffffffffffff1663d030236d886040518263ffffffff1660e01b81526004016123f59190613568565b602060405180830381865afa158015612410573d5f5f3e3d5ffd5b505050506040513d601f19601f820116820180604052508101906124349190615030565b81526020018373ffffffffffffffffffffffffffffffffffffffff16630ad350c2886040518263ffffffff1660e01b81526004016124729190613568565b602060405180830381865afa15801561248d573d5f5f3e3d5ffd5b505050506040513d601f19601f820116820180604052508101906124b19190615030565b81526020018373ffffffffffffffffffffffffffffffffffffffff1663c4186e06886040518263ffffffff1660e01b81526004016124ef9190613568565b602060405180830381865afa15801561250a573d5f5f3e3d5ffd5b505050506040513d601f19601f8201168201806040525081019061252e9190615030565b81526020018373ffffffffffffffffffffffffffffffffffffffff1663a997680a886040518263ffffffff1660e01b815260040161256c9190613568565b602060405180830381865afa158015612587573d5f5f3e3d5ffd5b505050506040513d601f19601f820116820180604052508101906125ab919061506f565b151581526020018373ffffffffffffffffffffffffffffffffffffffff1663e1129163886040518263ffffffff1660e01b81526004016125eb9190613568565b602060405180830381865afa158015612606573d5f5f3e3d5ffd5b505050506040513d601f19601f8201168201806040525081019061262a919061506f565b151581525090505f60405180608001604052808473ffffffffffffffffffffffffffffffffffffffff1663c8bf0188896040518263ffffffff1660e01b81526004016126769190613568565b602060405180830381865afa158015612691573d5f5f3e3d5ffd5b505050506040513d601f19601f820116820180604052508101906126b59190615030565b81526020018473ffffffffffffffffffffffffffffffffffffffff16630c67c94e896040518263ffffffff1660e01b81526004016126f39190613568565b602060405180830381865afa15801561270e573d5f5f3e3d5ffd5b505050506040513d601f19601f820116820180604052508101906127329190615030565b81526020018473ffffffffffffffffffffffffffffffffffffffff1662954afc896040518263ffffffff1660e01b815260040161276f9190613568565b5f60405180830381865afa158015612789573d5f5f3e3d5ffd5b505050506040513d5f823e3d601f19601f820116820180604052508101906127b19190614ee5565b81526020018473ffffffffffffffffffffffffffffffffffffffff1663d976f2a7896040518263ffffffff1660e01b81526004016127ef9190613568565b5f60405180830381865afa158015612809573d5f5f3e3d5ffd5b505050506040513d5f823e3d601f19601f820116820180604052508101906128319190614ee5565b81525090506129348373ffffffffffffffffffffffffffffffffffffffff16635e1b5d75886040518263ffffffff1660e01b81526004016128729190613568565b5f60405180830381865afa15801561288c573d5f5f3e3d5ffd5b505050506040513d5f823e3d601f19601f820116820180604052508101906128b4919061513c565b8383888773ffffffffffffffffffffffffffffffffffffffff1663a2b8c23e8c6040518263ffffffff1660e01b81526004016128f09190613568565b602060405180830381865afa15801561290b573d5f5f3e3d5ffd5b505050506040513d601f19601f8201168201806040525081019061292f9190615197565b611f6b565b93505050509392505050565b6040518061012001604052805f8152602001606081526020015f15158152602001612969612b8c565b8152602001612976612998565b8152602001606081526020015f60ff1681526020015f81526020015f81525090565b60405180608001604052805f81526020015f815260200160608152602001606081525090565b828054828255905f5260205f20908101928215612a4a579160200282015b82811115612a4957823573ffffffffffffffffffffffffffffffffffffffff16825f6101000a81548173ffffffffffffffffffffffffffffffffffffffff021916908373ffffffffffffffffffffffffffffffffffffffff160217905550916020019190600101906129dc565b5b509050612a579190612bcf565b5090565b828054828255905f5260205f20908101928215612ad1579160200282015b82811115612ad0578251825f6101000a81548173ffffffffffffffffffffffffffffffffffffffff021916908373ffffffffffffffffffffffffffffffffffffffff16021790555091602001919060010190612a79565b5b509050612ade9190612bcf565b5090565b828054828255905f5260205f2090600701600890048101928215612b7b579160200282015f5b83821115612b4957835183826101000a81548163ffffffff021916908360e01c02179055509260200192600401602081600301049283019260010302612b08565b8015612b795782816101000a81549063ffffffff0219169055600401602081600301049283019260010302612b49565b505b509050612b889190612bcf565b5090565b60405180610100016040528060608152602001606081526020015f81526020015f81526020015f81526020015f81526020015f151581526020015f151581525090565b5b80821115612be6575f815f905550600101612bd0565b5090565b5f81519050919050565b5f82825260208201905092915050565b5f819050602082019050919050565b5f819050919050565b612c2581612c13565b82525050565b5f81519050919050565b5f82825260208201905092915050565b8281835e5f83830152505050565b5f601f19601f8301169050919050565b5f612c6d82612c2b565b612c778185612c35565b9350612c87818560208601612c45565b612c9081612c53565b840191505092915050565b5f8115159050919050565b612caf81612c9b565b82525050565b5f81519050919050565b5f82825260208201905092915050565b5f819050602082019050919050565b5f73ffffffffffffffffffffffffffffffffffffffff82169050919050565b5f612d0782612cde565b9050919050565b612d1781612cfd565b82525050565b5f612d288383612d0e565b60208301905092915050565b5f602082019050919050565b5f612d4a82612cb5565b612d548185612cbf565b9350612d5f83612ccf565b805f5b83811015612d8f578151612d768882612d1d565b9750612d8183612d34565b925050600181019050612d62565b5085935050505092915050565b5f81519050919050565b5f82825260208201905092915050565b5f819050602082019050919050565b5f7fffffffff0000000000000000000000000000000000000000000000000000000082169050919050565b612df981612dc5565b82525050565b5f612e0a8383612df0565b60208301905092915050565b5f602082019050919050565b5f612e2c82612d9c565b612e368185612da6565b9350612e4183612db6565b805f5b83811015612e71578151612e588882612dff565b9750612e6383612e16565b925050600181019050612e44565b5085935050505092915050565b5f61010083015f8301518482035f860152612e998282612d40565b91505060208301518482036020860152612eb38282612e22565b9150506040830151612ec86040860182612c1c565b506060830151612edb6060860182612c1c565b506080830151612eee6080860182612c1c565b5060a0830151612f0160a0860182612c1c565b5060c0830151612f1460c0860182612ca6565b5060e0830151612f2760e0860182612ca6565b508091505092915050565b5f608083015f830151612f475f860182612c1c565b506020830151612f5a6020860182612c1c565b5060408301518482036040860152612f728282612d40565b91505060608301518482036060860152612f8c8282612d40565b9150508091505092915050565b5f60ff82169050919050565b612fae81612f99565b82525050565b5f61012083015f830151612fca5f860182612c1c565b5060208301518482036020860152612fe28282612c63565b9150506040830151612ff76040860182612ca6565b506060830151848203606086015261300f8282612e7e565b915050608083015184820360808601526130298282612f32565b91505060a083015184820360a08601526130438282612d40565b91505060c083015161305860c0860182612fa5565b5060e083015161306b60e0860182612c1c565b50610100830151613080610100860182612c1c565b508091505092915050565b5f6130968383612fb4565b905092915050565b5f602082019050919050565b5f6130b482612bea565b6130be8185612bf4565b9350836020820285016130d085612c04565b805f5b8581101561310b57848403895281516130ec858261308b565b94506130f78361309e565b925060208a019950506001810190506130d3565b50829750879550505050505092915050565b5f6020820190508181035f83015261313581846130aa565b905092915050565b5f604051905090565b5f5ffd5b5f5ffd5b61315781612c13565b8114613161575f5ffd5b50565b5f813590506131728161314e565b92915050565b5f6020828403121561318d5761318c613146565b5b5f61319a84828501613164565b91505092915050565b5f61012083015f8301516131b95f860182612c1c565b50602083015184820360208601526131d18282612c63565b91505060408301516131e66040860182612ca6565b50606083015184820360608601526131fe8282612e7e565b915050608083015184820360808601526132188282612f32565b91505060a083015184820360a08601526132328282612d40565b91505060c083015161324760c0860182612fa5565b5060e083015161325a60e0860182612c1c565b5061010083015161326f610100860182612c1c565b508091505092915050565b5f6020820190508181035f83015261329281846131a3565b905092915050565b6132a381612cfd565b82525050565b5f6020820190506132bc5f83018461329a565b92915050565b5f608083015f8301516132d75f860182612c1c565b5060208301516132ea6020860182612c1c565b50604083015184820360408601526133028282612d40565b9150506060830151848203606086015261331c8282612d40565b9150508091505092915050565b5f6020820190508181035f83015261334181846132c2565b905092915050565b5f5ffd5b5f5ffd5b5f5ffd5b5f5f83601f84011261336a57613369613349565b5b8235905067ffffffffffffffff8111156133875761338661334d565b5b6020830191508360018202830111156133a3576133a2613351565b5b9250929050565b5f5ffd5b5f61010082840312156133c4576133c36133aa565b5b81905092915050565b5f608082840312156133e2576133e16133aa565b5b81905092915050565b5f5f83601f840112613400576133ff613349565b5b8235905067ffffffffffffffff81111561341d5761341c61334d565b5b60208301915083602082028301111561343957613438613351565b5b9250929050565b61344981612f99565b8114613453575f5ffd5b50565b5f8135905061346481613440565b92915050565b5f5f5f5f5f5f5f60a0888a03121561348557613484613146565b5b5f88013567ffffffffffffffff8111156134a2576134a161314a565b5b6134ae8a828b01613355565b9750975050602088013567ffffffffffffffff8111156134d1576134d061314a565b5b6134dd8a828b016133ae565b955050604088013567ffffffffffffffff8111156134fe576134fd61314a565b5b61350a8a828b016133cd565b945050606088013567ffffffffffffffff81111561352b5761352a61314a565b5b6135378a828b016133eb565b9350935050608061354a8a828b01613456565b91505092959891949750929550565b61356281612c13565b82525050565b5f60208201905061357b5f830184613559565b92915050565b5f5f83601f84011261359657613595613349565b5b8235905067ffffffffffffffff8111156135b3576135b261334d565b5b6020830191508360208202830111156135cf576135ce613351565b5b9250929050565b6135df81612cfd565b81146135e9575f5ffd5b50565b5f813590506135fa816135d6565b92915050565b5f5f5f5f5f6060868803121561361957613618613146565b5b5f86013567ffffffffffffffff8111156136365761363561314a565b5b61364288828901613581565b9550955050602086013567ffffffffffffffff8111156136655761366461314a565b5b613671888289016133eb565b93509350506040613684888289016135ec565b9150509295509295909350565b5f81519050919050565b5f82825260208201905092915050565b5f819050602082019050919050565b5f6136c58383612c1c565b60208301905092915050565b5f602082019050919050565b5f6136e782613691565b6136f1818561369b565b93506136fc836136ab565b805f5b8381101561372c57815161371388826136ba565b975061371e836136d1565b9250506001810190506136ff565b5085935050505092915050565b5f6020820190508181035f83015261375181846136dd565b905092915050565b5f82825260208201905092915050565b5f61377382612cb5565b61377d8185613759565b935061378883612ccf565b805f5b838110156137b857815161379f8882612d1d565b97506137aa83612d34565b92505060018101905061378b565b5085935050505092915050565b5f6020820190508181035f8301526137dd8184613769565b905092915050565b6137ee81612c9b565b82525050565b5f6020820190506138075f8301846137e5565b92915050565b5f82825260208201905092915050565b5f61382782612c2b565b613831818561380d565b9350613841818560208601612c45565b61384a81612c53565b840191505092915050565b5f61010083015f8301518482035f8601526138708282612d40565b9150506020830151848203602086015261388a8282612e22565b915050604083015161389f6040860182612c1c565b5060608301516138b26060860182612c1c565b5060808301516138c56080860182612c1c565b5060a08301516138d860a0860182612c1c565b5060c08301516138eb60c0860182612ca6565b5060e08301516138fe60e0860182612ca6565b508091505092915050565b61391281612f99565b82525050565b5f6101008201905061392c5f83018b613559565b818103602083015261393e818a61381d565b905061394d60408301896137e5565b818103606083015261395f8188613855565b9050818103608083015261397381876132c2565b905061398260a0830186613909565b61398f60c0830185613559565b61399c60e0830184613559565b9998505050505050505050565b5f5f5f5f5f5f5f5f60c0898b0312156139c5576139c4613146565b5b5f6139d28b828c01613164565b985050602089013567ffffffffffffffff8111156139f3576139f261314a565b5b6139ff8b828c01613355565b9750975050604089013567ffffffffffffffff811115613a2257613a2161314a565b5b613a2e8b828c016133ae565b955050606089013567ffffffffffffffff811115613a4f57613a4e61314a565b5b613a5b8b828c016133cd565b945050608089013567ffffffffffffffff811115613a7c57613a7b61314a565b5b613a888b828c016133eb565b935093505060a0613a9b8b828c01613456565b9150509295985092959890939650565b7f4e487b71000000000000000000000000000000000000000000000000000000005f52603260045260245ffd5b7f4e487b71000000000000000000000000000000000000000000000000000000005f52601160045260245ffd5b5f613b0f82612c13565b91507fffffffffffffffffffffffffffffffffffffffffffffffffffffffffffffffff8203613b4157613b40613ad8565b5b600182019050919050565b7f4e487b71000000000000000000000000000000000000000000000000000000005f52604160045260245ffd5b7f4e487b71000000000000000000000000000000000000000000000000000000005f52602260045260245ffd5b5f6002820490506001821680613bbd57607f821691505b602082108103613bd057613bcf613b79565b5b50919050565b7f506f6c696379206e6f7420666f756e64000000000000000000000000000000005f82015250565b5f613c0a60108361380d565b9150613c1582613bd6565b602082019050919050565b5f6020820190508181035f830152613c3781613bfe565b9050919050565b7f4f6e6c7920676f7665726e616e6365206d756c746973696700000000000000005f82015250565b5f613c7260188361380d565b9150613c7d82613c3e565b602082019050919050565b5f6020820190508181035f830152613c9f81613c66565b9050919050565b7f4f6e6c792070726f766973696f6e6572000000000000000000000000000000005f82015250565b5f613cda60108361380d565b9150613ce582613ca6565b602082019050919050565b5f6020820190508181035f830152613d0781613cce565b9050919050565b7f416c7265616479206c6f636b65640000000000000000000000000000000000005f82015250565b5f613d42600e8361380d565b9150613d4d82613d0e565b602082019050919050565b5f6020820190508181035f830152613d6f81613d36565b9050919050565b7f4f6e6c7920676f7665726e616e6365206f722070726f766973696f6e657200005f82015250565b5f613daa601e8361380d565b9150613db582613d76565b602082019050919050565b5f6020820190508181035f830152613dd781613d9e565b9050919050565b5f5ffd5b613deb82612c53565b810181811067ffffffffffffffff82111715613e0a57613e09613b4c565b5b80604052505050565b5f613e1c61313d565b9050613e288282613de2565b919050565b5f5ffd5b5f67ffffffffffffffff821115613e4b57613e4a613b4c565b5b602082029050602081019050919050565b5f613e6e613e6984613e31565b613e13565b90508083825260208201905060208402830185811115613e9157613e90613351565b5b835b81811015613eba5780613ea688826135ec565b845260208401935050602081019050613e93565b5050509392505050565b5f82601f830112613ed857613ed7613349565b5b8135613ee8848260208601613e5c565b91505092915050565b5f67ffffffffffffffff821115613f0b57613f0a613b4c565b5b602082029050602081019050919050565b613f2581612dc5565b8114613f2f575f5ffd5b50565b5f81359050613f4081613f1c565b92915050565b5f613f58613f5384613ef1565b613e13565b90508083825260208201905060208402830185811115613f7b57613f7a613351565b5b835b81811015613fa45780613f908882613f32565b845260208401935050602081019050613f7d565b5050509392505050565b5f82601f830112613fc257613fc1613349565b5b8135613fd2848260208601613f46565b91505092915050565b613fe481612c9b565b8114613fee575f5ffd5b50565b5f81359050613fff81613fdb565b92915050565b5f610100828403121561401b5761401a613dde565b5b614026610100613e13565b90505f82013567ffffffffffffffff81111561404557614044613e2d565b5b61405184828501613ec4565b5f83015250602082013567ffffffffffffffff81111561407457614073613e2d565b5b61408084828501613fae565b602083015250604061409484828501613164565b60408301525060606140a884828501613164565b60608301525060806140bc84828501613164565b60808301525060a06140d084828501613164565b60a08301525060c06140e484828501613ff1565b60c08301525060e06140f884828501613ff1565b60e08301525092915050565b5f61410f3683614005565b9050919050565b5f6080828403121561412b5761412a613dde565b5b6141356080613e13565b90505f61414484828501613164565b5f83015250602061415784828501613164565b602083015250604082013567ffffffffffffffff81111561417b5761417a613e2d565b5b61418784828501613ec4565b604083015250606082013567ffffffffffffffff8111156141ab576141aa613e2d565b5b6141b784828501613ec4565b60608301525092915050565b5f6141ce3683614116565b9050919050565b7f4d7573742068617665207369676e6572730000000000000000000000000000005f82015250565b5f61420960118361380d565b9150614214826141d5565b602082019050919050565b5f6020820190508181035f830152614236816141fd565b9050919050565b7f57656967687420312d31300000000000000000000000000000000000000000005f82015250565b5f614271600b8361380d565b915061427c8261423d565b602082019050919050565b5f6020820190508181035f83015261429e81614265565b9050919050565b5f82905092915050565b5f819050815f5260205f209050919050565b5f6020601f8301049050919050565b5f82821b905092915050565b5f6008830261430b7fffffffffffffffffffffffffffffffffffffffffffffffffffffffffffffffff826142d0565b61431586836142d0565b95508019841693508086168417925050509392505050565b5f819050919050565b5f61435061434b61434684612c13565b61432d565b612c13565b9050919050565b5f819050919050565b61436983614336565b61437d61437582614357565b8484546142dc565b825550505050565b5f5f905090565b614394614385565b61439f818484614360565b505050565b5b818110156143c2576143b75f8261438c565b6001810190506143a5565b5050565b601f821115614407576143d8816142af565b6143e1846142c1565b810160208510156143f0578190505b6144046143fc856142c1565b8301826143a4565b50505b505050565b5f82821c905092915050565b5f6144275f198460080261440c565b1980831691505092915050565b5f61443f8383614418565b9150826002028217905092915050565b61445983836142a5565b67ffffffffffffffff81111561447257614471613b4c565b5b61447c8254613ba6565b6144878282856143c6565b5f601f8311600181146144b4575f84156144a2578287013590505b6144ac8582614434565b865550614513565b601f1984166144c2866142af565b5f5b828110156144e9578489013582556001820191506020850194506020810190506144c4565b868310156145065784890135614502601f891682614418565b8355505b6001600288020188555050505b50505050505050565b5f5ffd5b5f5ffd5b5f5ffd5b5f5f833560016020038436030381126145445761454361451c565b5b80840192508235915067ffffffffffffffff82111561456657614565614520565b5b60208301925060208202360383131561458257614581614524565b5b509250929050565b5f81549050919050565b5f8190506001806001038301049050919050565b5f819050815f5260205f209050919050565b5b818110156145d8576145cd5f8261438c565b6001810190506145bb565b5050565b61460c7fffffffffffffffffffffffffffffffffffffffffffffffffffffffffffffffff8360200360080261440c565b815481168255505050565b818310156146505761462882614594565b61463184614594565b61463a836145a8565b81810183820161464a81836145ba565b50505050505b505050565b6801000000000000000082111561466f5761466e613b4c565b5b6146788161458a565b828255614686838284614617565b505050565b5f82905092915050565b5f81356146a1816135d6565b80915050919050565b5f819050919050565b5f819050919050565b6146c6838361468b565b67ffffffffffffffff8111156146df576146de613b4c565b5b6146e98183614655565b6146f2836146aa565b6146fb836145a8565b600183045f5b81811015614738575f61471385614695565b61471c816146b3565b8092506020870196505050808285015550600181019050614701565b5050505050505050565b61474d8383836146bc565b505050565b5f5f8335600160200384360303811261476e5761476d61451c565b5b80840192508235915067ffffffffffffffff8211156147905761478f614520565b5b6020830192506020820236038313156147ac576147ab614524565b5b509250929050565b5f81549050919050565b5f819050600860016008038301049050919050565b5f819050815f5260205f209050919050565b5b81811015614803576147f85f8261438c565b6001810190506147e6565b5050565b8183101561485e57614818826147be565b614821846147be565b61482a836147d3565b818101838201600460088906025f81111561484d5761484c81600185036145dc565b5b61485782846147e5565b5050505050505b505050565b6801000000000000000082111561487d5761487c613b4c565b5b614886816147b4565b828255614894838284614807565b505050565b5f82905092915050565b5f81356148af81613f1c565b80915050919050565b5f819050919050565b5f600883026148d463ffffffff826142d0565b6148de86836142d0565b95508019841693508086168417925050509392505050565b5f8160e01c9050919050565b5f61490c826148f6565b9050919050565b61491d8383614899565b67ffffffffffffffff81111561493657614935613b4c565b5b6149408183614863565b614949836148b8565b614952836147d3565b600883045f5b818110156149b3575f5f5b60088110156149a157614975866148a3565b61497e81614902565b61498c8184600402866148c1565b93506020880197505050600181019050614963565b50808285015550600181019050614958565b506008810284035f811115614a0a575f5f5b82811015614a02576149d6866148a3565b6149df81614902565b6149ed8184600402866148c1565b935060208801975050506001810190506149c5565b508083850155505b5050505050505050565b614a1f838383614913565b505050565b5f8135614a308161314e565b80915050919050565b5f815f1b9050919050565b5f7fffffffffffffffffffffffffffffffffffffffffffffffffffffffffffffffff614a6f84614a39565b9350801983169250808416831791505092915050565b614a8e82614336565b614aa1614a9a82614357565b8354614a44565b8255505050565b5f8135614ab481613fdb565b80915050919050565b5f60ff614ac984614a39565b9350801983169250808416831791505092915050565b5f614ae982612c9b565b9050919050565b5f819050919050565b614b0282614adf565b614b15614b0e82614af0565b8354614abd565b8255505050565b5f8160081b9050919050565b5f61ff00614b3584614b1c565b9350801983169250808416831791505092915050565b614b5482614adf565b614b67614b6082614af0565b8354614b28565b8255505050565b5f81015f8301614b7e8185614528565b614b89818386614742565b505050506001810160208301614b9f8185614752565b614baa818386614a14565b50505050600281016040830180614bc081614a24565b9050614bcc8184614a85565b505050600381016060830180614be181614a24565b9050614bed8184614a85565b505050600481016080830180614c0281614a24565b9050614c0e8184614a85565b5050506005810160a0830180614c2381614a24565b9050614c2f8184614a85565b5050506006810160c0830180614c4481614aa8565b9050614c508184614af9565b5050506006810160e0830180614c6581614aa8565b9050614c718184614b4b565b5050505050565b614c828282614b6e565b5050565b5f81015f830180614c9681614a24565b9050614ca28184614a85565b505050600181016020830180614cb781614a24565b9050614cc38184614a85565b5050506002810160408301614cd88185614528565b614ce3818386614742565b505050506003810160608301614cf98185614528565b614d04818386614742565b505050505050565b614d168282614c86565b5050565b5f614d2482612c13565b9150614d2f83612c13565b9250828203905081811115614d4757614d46613ad8565b5b92915050565b614d5682612c2b565b67ffffffffffffffff811115614d6f57614d6e613b4c565b5b614d798254613ba6565b614d848282856143c6565b5f60209050601f831160018114614db5575f8415614da3578287015190505b614dad8582614434565b865550614e14565b601f198416614dc3866142af565b5f5b82811015614dea57848901518255600182019150602085019450602081019050614dc5565b86831015614e075784890151614e03601f891682614418565b8355505b6001600288020188555050505b505050505050565b5f6020820190508181035f830152614e34818461381d565b905092915050565b5f81519050614e4a816135d6565b92915050565b5f614e62614e5d84613e31565b613e13565b90508083825260208201905060208402830185811115614e8557614e84613351565b5b835b81811015614eae5780614e9a8882614e3c565b845260208401935050602081019050614e87565b5050509392505050565b5f82601f830112614ecc57614ecb613349565b5b8151614edc848260208601614e50565b91505092915050565b5f60208284031215614efa57614ef9613146565b5b5f82015167ffffffffffffffff811115614f1757614f1661314a565b5b614f2384828501614eb8565b91505092915050565b5f81519050614f3a81613f1c565b92915050565b5f614f52614f4d84613ef1565b613e13565b90508083825260208201905060208402830185811115614f7557614f74613351565b5b835b81811015614f9e5780614f8a8882614f2c565b845260208401935050602081019050614f77565b5050509392505050565b5f82601f830112614fbc57614fbb613349565b5b8151614fcc848260208601614f40565b91505092915050565b5f60208284031215614fea57614fe9613146565b5b5f82015167ffffffffffffffff8111156150075761500661314a565b5b61501384828501614fa8565b91505092915050565b5f8151905061502a8161314e565b92915050565b5f6020828403121561504557615044613146565b5b5f6150528482850161501c565b91505092915050565b5f8151905061506981613fdb565b92915050565b5f6020828403121561508457615083613146565b5b5f6150918482850161505b565b91505092915050565b5f5ffd5b5f67ffffffffffffffff8211156150b8576150b7613b4c565b5b6150c182612c53565b9050602081019050919050565b5f6150e06150db8461509e565b613e13565b9050828152602081018484840111156150fc576150fb61509a565b5b615107848285612c45565b509392505050565b5f82601f83011261512357615122613349565b5b81516151338482602086016150ce565b91505092915050565b5f6020828403121561515157615150613146565b5b5f82015167ffffffffffffffff81111561516e5761516d61314a565b5b61517a8482850161510f565b91505092915050565b5f8151905061519181613440565b92915050565b5f602082840312156151ac576151ab613146565b5b5f6151b984828501615183565b9150509291505056fea26469706673582212206ee21e38f644432477bd1db232c0f38117f8e4f3bbf25d552e1cbd6e47a0daad64736f6c634300081f00336080604052348015600e575f5ffd5b506118618061001c5f395ff3fe608060405234801561000f575f5ffd5b5060043610610060575f3560e01c80636c2c677b146100645780637a360e651461008057806386a555fe1461009e5780638c300f4e146100ce578063b30906d4146100ea578063bae78d7b14610121575b5f5ffd5b61007e60048036038101906100799190610abc565b610151565b005b610088610235565b6040516100959190610b12565b60405180910390f35b6100b860048036038101906100b39190610b2b565b610240565b6040516100c59190610d5a565b60405180910390f35b6100e860048036038101906100e39190610d9d565b6104c4565b005b61010460048036038101906100ff9190610b2b565b6104fd565b604051610118989796959493929190610e59565b60405180910390f35b61013b60048036038101906101369190610b2b565b610609565b6040516101489190610f89565b60405180910390f35b5f81908060018154018082558091505060019003905f5260205f2090600502015f909190919091505f820151815f01556020820151816001015560408201518160020190816101a091906111a6565b506060820151816003015f6101000a81548160ff021916908360ff16021790555060808201518160030160016101000a81548161ffff021916908361ffff16021790555060a08201518160030160036101000a81548160ff021916908360ff16021790555060c08201518160030160046101000a81548160ff021916908360ff16021790555060e08201518160040155505050565b5f5f80549050905090565b60605f5f90505f5f90505b5f8054905081101561029c57835f828154811061026b5761026a611275565b5b905f5260205f209060050201600101540361028f57818061028b906112cf565b9250505b808060010191505061024b565b505f8167ffffffffffffffff8111156102b8576102b76107d6565b5b6040519080825280602002602001820160405280156102f157816020015b6102de610766565b8152602001906001900390816102d65790505b5090505f5f90505f5f90505b5f805490508110156104b857855f828154811061031d5761031c611275565b5b905f5260205f20906005020160010154036104ab575f818154811061034557610344611275565b5b905f5260205f209060050201604051806101000160405290815f82015481526020016001820154815260200160028201805461038090610fd6565b80601f01602080910402602001604051908101604052809291908181526020018280546103ac90610fd6565b80156103f75780601f106103ce576101008083540402835291602001916103f7565b820191905f5260205f20905b8154815290600101906020018083116103da57829003601f168201915b50505050508152602001600382015f9054906101000a900460ff1660ff1660ff1681526020016003820160019054906101000a900461ffff1661ffff1661ffff1681526020016003820160039054906101000a900460ff1660ff1660ff1681526020016003820160049054906101000a900460ff1660ff1660ff16815260200160048201548152505083838061048c906112cf565b94508151811061049f5761049e611275565b5b60200260200101819052505b80806001019150506102fd565b50819350505050919050565b5f81908060018154018082558091505060019003905f5260205f2090600502015f9091909190915081816104f8919061181d565b505050565b5f818154811061050b575f80fd5b905f5260205f2090600502015f91509050805f01549080600101549080600201805461053690610fd6565b80601f016020809104026020016040519081016040528092919081815260200182805461056290610fd6565b80156105ad5780601f10610584576101008083540402835291602001916105ad565b820191905f5260205f20905b81548152906001019060200180831161059057829003601f168201915b505050505090806003015f9054906101000a900460ff16908060030160019054906101000a900461ffff16908060030160039054906101000a900460ff16908060030160049054906101000a900460ff16908060040154905088565b610611610766565b5f828154811061062457610623611275565b5b905f5260205f209060050201604051806101000160405290815f82015481526020016001820154815260200160028201805461065f90610fd6565b80601f016020809104026020016040519081016040528092919081815260200182805461068b90610fd6565b80156106d65780601f106106ad576101008083540402835291602001916106d6565b820191905f5260205f20905b8154815290600101906020018083116106b957829003601f168201915b50505050508152602001600382015f9054906101000a900460ff1660ff1660ff1681526020016003820160019054906101000a900461ffff1661ffff1661ffff1681526020016003820160039054906101000a900460ff1660ff1660ff1681526020016003820160049054906101000a900460ff1660ff1660ff1681526020016004820154815250509050919050565b6040518061010001604052805f81526020015f8152602001606081526020015f60ff1681526020015f61ffff1681526020015f60ff1681526020015f60ff1681526020015f81525090565b5f604051905090565b5f5ffd5b5f5ffd5b5f5ffd5b5f601f19601f8301169050919050565b7f4e487b71000000000000000000000000000000000000000000000000000000005f52604160045260245ffd5b61080c826107c6565b810181811067ffffffffffffffff8211171561082b5761082a6107d6565b5b80604052505050565b5f61083d6107b1565b90506108498282610803565b919050565b5f5ffd5b5f819050919050565b61086481610852565b811461086e575f5ffd5b50565b5f8135905061087f8161085b565b92915050565b5f819050919050565b61089781610885565b81146108a1575f5ffd5b50565b5f813590506108b28161088e565b92915050565b5f5ffd5b5f5ffd5b5f67ffffffffffffffff8211156108da576108d96107d6565b5b6108e3826107c6565b9050602081019050919050565b828183375f83830152505050565b5f61091061090b846108c0565b610834565b90508281526020810184848401111561092c5761092b6108bc565b5b6109378482856108f0565b509392505050565b5f82601f830112610953576109526108b8565b5b81356109638482602086016108fe565b91505092915050565b5f60ff82169050919050565b6109818161096c565b811461098b575f5ffd5b50565b5f8135905061099c81610978565b92915050565b5f61ffff82169050919050565b6109b8816109a2565b81146109c2575f5ffd5b50565b5f813590506109d3816109af565b92915050565b5f61010082840312156109ef576109ee6107c2565b5b6109fa610100610834565b90505f610a0984828501610871565b5f830152506020610a1c848285016108a4565b602083015250604082013567ffffffffffffffff811115610a4057610a3f61084e565b5b610a4c8482850161093f565b6040830152506060610a608482850161098e565b6060830152506080610a74848285016109c5565b60808301525060a0610a888482850161098e565b60a08301525060c0610a9c8482850161098e565b60c08301525060e0610ab0848285016108a4565b60e08301525092915050565b5f60208284031215610ad157610ad06107ba565b5b5f82013567ffffffffffffffff811115610aee57610aed6107be565b5b610afa848285016109d9565b91505092915050565b610b0c81610885565b82525050565b5f602082019050610b255f830184610b03565b92915050565b5f60208284031215610b4057610b3f6107ba565b5b5f610b4d848285016108a4565b91505092915050565b5f81519050919050565b5f82825260208201905092915050565b5f819050602082019050919050565b610b8881610852565b82525050565b610b9781610885565b82525050565b5f81519050919050565b5f82825260208201905092915050565b8281835e5f83830152505050565b5f610bcf82610b9d565b610bd98185610ba7565b9350610be9818560208601610bb7565b610bf2816107c6565b840191505092915050565b610c068161096c565b82525050565b610c15816109a2565b82525050565b5f61010083015f830151610c315f860182610b7f565b506020830151610c446020860182610b8e565b5060408301518482036040860152610c5c8282610bc5565b9150506060830151610c716060860182610bfd565b506080830151610c846080860182610c0c565b5060a0830151610c9760a0860182610bfd565b5060c0830151610caa60c0860182610bfd565b5060e0830151610cbd60e0860182610b8e565b508091505092915050565b5f610cd38383610c1b565b905092915050565b5f602082019050919050565b5f610cf182610b56565b610cfb8185610b60565b935083602082028501610d0d85610b70565b805f5b85811015610d485784840389528151610d298582610cc8565b9450610d3483610cdb565b925060208a01995050600181019050610d10565b50829750879550505050505092915050565b5f6020820190508181035f830152610d728184610ce7565b905092915050565b5f5ffd5b5f6101008284031215610d9457610d93610d7a565b5b81905092915050565b5f60208284031215610db257610db16107ba565b5b5f82013567ffffffffffffffff811115610dcf57610dce6107be565b5b610ddb84828501610d7e565b91505092915050565b610ded81610852565b82525050565b5f82825260208201905092915050565b5f610e0d82610b9d565b610e178185610df3565b9350610e27818560208601610bb7565b610e30816107c6565b840191505092915050565b610e448161096c565b82525050565b610e53816109a2565b82525050565b5f61010082019050610e6d5f83018b610de4565b610e7a602083018a610b03565b8181036040830152610e8c8189610e03565b9050610e9b6060830188610e3b565b610ea86080830187610e4a565b610eb560a0830186610e3b565b610ec260c0830185610e3b565b610ecf60e0830184610b03565b9998505050505050505050565b5f61010083015f830151610ef25f860182610b7f565b506020830151610f056020860182610b8e565b5060408301518482036040860152610f1d8282610bc5565b9150506060830151610f326060860182610bfd565b506080830151610f456080860182610c0c565b5060a0830151610f5860a0860182610bfd565b5060c0830151610f6b60c0860182610bfd565b5060e0830151610f7e60e0860182610b8e565b508091505092915050565b5f6020820190508181035f830152610fa18184610edc565b905092915050565b7f4e487b71000000000000000000000000000000000000000000000000000000005f52602260045260245ffd5b5f6002820490506001821680610fed57607f821691505b60208210810361100057610fff610fa9565b5b50919050565b5f819050815f5260205f209050919050565b5f6020601f8301049050919050565b5f82821b905092915050565b5f600883026110627fffffffffffffffffffffffffffffffffffffffffffffffffffffffffffffffff82611027565b61106c8683611027565b95508019841693508086168417925050509392505050565b5f819050919050565b5f6110a76110a261109d84610885565b611084565b610885565b9050919050565b5f819050919050565b6110c08361108d565b6110d46110cc826110ae565b848454611033565b825550505050565b5f5f905090565b6110eb6110dc565b6110f68184846110b7565b505050565b5b818110156111195761110e5f826110e3565b6001810190506110fc565b5050565b601f82111561115e5761112f81611006565b61113884611018565b81016020851015611147578190505b61115b61115385611018565b8301826110fb565b50505b505050565b5f82821c905092915050565b5f61117e5f1984600802611163565b1980831691505092915050565b5f611196838361116f565b9150826002028217905092915050565b6111af82610b9d565b67ffffffffffffffff8111156111c8576111c76107d6565b5b6111d28254610fd6565b6111dd82828561111d565b5f60209050601f83116001811461120e575f84156111fc578287015190505b611206858261118b565b86555061126d565b601f19841661121c86611006565b5f5b828110156112435784890151825560018201915060208501945060208101905061121e565b86831015611260578489015161125c601f89168261116f565b8355505b6001600288020188555050505b505050505050565b7f4e487b71000000000000000000000000000000000000000000000000000000005f52603260045260245ffd5b7f4e487b71000000000000000000000000000000000000000000000000000000005f52601160045260245ffd5b5f6112d982610885565b91507fffffffffffffffffffffffffffffffffffffffffffffffffffffffffffffffff820361130b5761130a6112a2565b5b600182019050919050565b5f81356113228161085b565b80915050919050565b5f815f1b9050919050565b5f7fffffffffffffffffffffffffffffffffffffffffffffffffffffffffffffffff6113618461132b565b9350801983169250808416831791505092915050565b5f61138182610852565b9050919050565b5f815f1c9050919050565b5f61139d82611388565b9050919050565b6113ad82611377565b6113c06113b982611393565b8354611336565b8255505050565b5f81356113d38161088e565b80915050919050565b6113e58261108d565b6113f86113f1826110ae565b8354611336565b8255505050565b5f5ffd5b5f5ffd5b5f5ffd5b5f5f83356001602003843603038112611427576114266113ff565b5b80840192508235915067ffffffffffffffff82111561144957611448611403565b5b60208301925060018202360383131561146557611464611407565b5b509250929050565b5f82905092915050565b611481838361146d565b67ffffffffffffffff81111561149a576114996107d6565b5b6114a48254610fd6565b6114af82828561111d565b5f601f8311600181146114dc575f84156114ca578287013590505b6114d4858261118b565b86555061153b565b601f1984166114ea86611006565b5f5b82811015611511578489013582556001820191506020850194506020810190506114ec565b8683101561152e578489013561152a601f89168261116f565b8355505b6001600288020188555050505b50505050505050565b61154f838383611477565b505050565b5f813561156081610978565b80915050919050565b5f60ff6115758461132b565b9350801983169250808416831791505092915050565b5f6115a56115a061159b8461096c565b611084565b61096c565b9050919050565b5f819050919050565b6115be8261158b565b6115d16115ca826115ac565b8354611569565b8255505050565b5f81356115e4816109af565b80915050919050565b5f8160081b9050919050565b5f62ffff00611607846115ed565b9350801983169250808416831791505092915050565b5f61163761163261162d846109a2565b611084565b6109a2565b9050919050565b5f819050919050565b6116508261161d565b61166361165c8261163e565b83546115f9565b8255505050565b5f8160181b9050919050565b5f63ff0000006116858461166a565b9350801983169250808416831791505092915050565b6116a48261158b565b6116b76116b0826115ac565b8354611676565b8255505050565b5f8160201b9050919050565b5f64ff000000006116da846116be565b9350801983169250808416831791505092915050565b6116f98261158b565b61170c611705826115ac565b83546116ca565b8255505050565b5f81015f83018061172381611316565b905061172f81846113a4565b505050600181016020830180611744816113c7565b905061175081846113dc565b5050506002810160408301611765818561140b565b611770818386611544565b5050505060038101606083018061178681611554565b905061179281846115b5565b5050506003810160808301806117a7816115d8565b90506117b38184611647565b5050506003810160a08301806117c881611554565b90506117d4818461169b565b5050506003810160c08301806117e981611554565b90506117f581846116f0565b5050506004810160e083018061180a816113c7565b905061181681846113dc565b5050505050565b6118278282611713565b505056fea2646970667358221220fde23e60da053bbb5dda48418152d98d7c0140a48c758d16096b34bcb7675e3464736f6c634300081f0033a2646970667358221220c1a5da785aa4a18227b384b68f2497cc6e82830a166ebad61f1ec1bb4e94a88564736f6c634300081f0033","linkReferences":{}},"methodIdentifiers":{"createWallet(address[],uint256[])":"844332f5","createWalletNoPresets(address[])":"675be753","presetPolicyRegistry()":"081c8479","teeExtensionRegistry()":"a435d58a","walletSingleton()":"f4491b9e"},"id":9}